{
  "_format": "hh-sol-artifact-1",
  "contractName": "GrowthPlusStrategy",
  "sourceName": "contracts/strategies/GrowthPlusStrategy.sol",
  "abi": [
    {
      "inputs": [
        {
          "internalType": "address",
          "name": "_usdt",
          "type": "address"
        },
        {
          "internalType": "address",
          "name": "_yieldOptimizer",
          "type": "address"
        }
      ],
      "stateMutability": "nonpayable",
      "type": "constructor"
    },
    {
      "inputs": [
        {
          "internalType": "address",
          "name": "owner",
          "type": "address"
        }
      ],
      "name": "OwnableInvalidOwner",
      "type": "error"
    },
    {
      "inputs": [
        {
          "internalType": "address",
          "name": "account",
          "type": "address"
        }
      ],
      "name": "OwnableUnauthorizedAccount",
      "type": "error"
    },
    {
      "inputs": [],
      "name": "ReentrancyGuardReentrantCall",
      "type": "error"
    },
    {
      "anonymous": false,
      "inputs": [
        {
          "indexed": true,
          "internalType": "address",
          "name": "user",
          "type": "address"
        },
        {
          "indexed": false,
          "internalType": "uint256",
          "name": "amount",
          "type": "uint256"
        },
        {
          "indexed": false,
          "internalType": "uint256",
          "name": "shares",
          "type": "uint256"
        }
      ],
      "name": "Deposited",
      "type": "event"
    },
    {
      "anonymous": false,
      "inputs": [
        {
          "indexed": true,
          "internalType": "address",
          "name": "previousOwner",
          "type": "address"
        },
        {
          "indexed": true,
          "internalType": "address",
          "name": "newOwner",
          "type": "address"
        }
      ],
      "name": "OwnershipTransferred",
      "type": "event"
    },
    {
      "anonymous": false,
      "inputs": [
        {
          "indexed": false,
          "internalType": "uint256",
          "name": "totalRewards",
          "type": "uint256"
        }
      ],
      "name": "RewardsDistributed",
      "type": "event"
    },
    {
      "anonymous": false,
      "inputs": [
        {
          "indexed": true,
          "internalType": "address",
          "name": "user",
          "type": "address"
        },
        {
          "indexed": false,
          "internalType": "uint256",
          "name": "amount",
          "type": "uint256"
        },
        {
          "indexed": false,
          "internalType": "uint256",
          "name": "shares",
          "type": "uint256"
        }
      ],
      "name": "Withdrawn",
      "type": "event"
    },
    {
      "inputs": [],
      "name": "BASE_APY",
      "outputs": [
        {
          "internalType": "uint256",
          "name": "",
          "type": "uint256"
        }
      ],
      "stateMutability": "view",
      "type": "function"
    },
    {
      "inputs": [],
      "name": "MAX_CAPACITY",
      "outputs": [
        {
          "internalType": "uint256",
          "name": "",
          "type": "uint256"
        }
      ],
      "stateMutability": "view",
      "type": "function"
    },
    {
      "inputs": [],
      "name": "USDT",
      "outputs": [
        {
          "internalType": "contract IERC20",
          "name": "",
          "type": "address"
        }
      ],
      "stateMutability": "view",
      "type": "function"
    },
    {
      "inputs": [],
      "name": "VOLATILITY_MULTIPLIER",
      "outputs": [
        {
          "internalType": "uint256",
          "name": "",
          "type": "uint256"
        }
      ],
      "stateMutability": "view",
      "type": "function"
    },
    {
      "inputs": [
        {
          "internalType": "uint256",
          "name": "amount",
          "type": "uint256"
        },
        {
          "internalType": "uint256",
          "name": "timeElapsed",
          "type": "uint256"
        }
      ],
      "name": "calculateRewards",
      "outputs": [
        {
          "internalType": "uint256",
          "name": "",
          "type": "uint256"
        }
      ],
      "stateMutability": "view",
      "type": "function"
    },
    {
      "inputs": [],
      "name": "currentMultiplier",
      "outputs": [
        {
          "internalType": "uint256",
          "name": "",
          "type": "uint256"
        }
      ],
      "stateMutability": "view",
      "type": "function"
    },
    {
      "inputs": [
        {
          "internalType": "uint256",
          "name": "amount",
          "type": "uint256"
        }
      ],
      "name": "deposit",
      "outputs": [
        {
          "internalType": "uint256",
          "name": "",
          "type": "uint256"
        }
      ],
      "stateMutability": "nonpayable",
      "type": "function"
    },
    {
      "inputs": [
        {
          "internalType": "uint256",
          "name": "newMultiplier",
          "type": "uint256"
        }
      ],
      "name": "emergencyAdjustMultiplier",
      "outputs": [],
      "stateMutability": "nonpayable",
      "type": "function"
    },
    {
      "inputs": [],
      "name": "getBalance",
      "outputs": [
        {
          "internalType": "uint256",
          "name": "",
          "type": "uint256"
        }
      ],
      "stateMutability": "view",
      "type": "function"
    },
    {
      "inputs": [],
      "name": "getCurrentAPY",
      "outputs": [
        {
          "internalType": "uint256",
          "name": "",
          "type": "uint256"
        }
      ],
      "stateMutability": "view",
      "type": "function"
    },
    {
      "inputs": [],
      "name": "getStrategyStats",
      "outputs": [
        {
          "internalType": "uint256",
          "name": "apy",
          "type": "uint256"
        },
        {
          "internalType": "uint256",
          "name": "volatility",
          "type": "uint256"
        },
        {
          "internalType": "uint256",
          "name": "multiplier",
          "type": "uint256"
        },
        {
          "internalType": "uint256",
          "name": "utilization",
          "type": "uint256"
        }
      ],
      "stateMutability": "view",
      "type": "function"
    },
    {
      "inputs": [
        {
          "internalType": "address",
          "name": "user",
          "type": "address"
        }
      ],
      "name": "getUserBalance",
      "outputs": [
        {
          "internalType": "uint256",
          "name": "",
          "type": "uint256"
        }
      ],
      "stateMutability": "view",
      "type": "function"
    },
    {
      "inputs": [],
      "name": "lastPriceUpdate",
      "outputs": [
        {
          "internalType": "uint256",
          "name": "",
          "type": "uint256"
        }
      ],
      "stateMutability": "view",
      "type": "function"
    },
    {
      "inputs": [],
      "name": "lastUpdateTime",
      "outputs": [
        {
          "internalType": "uint256",
          "name": "",
          "type": "uint256"
        }
      ],
      "stateMutability": "view",
      "type": "function"
    },
    {
      "inputs": [],
      "name": "owner",
      "outputs": [
        {
          "internalType": "address",
          "name": "",
          "type": "address"
        }
      ],
      "stateMutability": "view",
      "type": "function"
    },
    {
      "inputs": [],
      "name": "renounceOwnership",
      "outputs": [],
      "stateMutability": "nonpayable",
      "type": "function"
    },
    {
      "inputs": [],
      "name": "totalDeposited",
      "outputs": [
        {
          "internalType": "uint256",
          "name": "",
          "type": "uint256"
        }
      ],
      "stateMutability": "view",
      "type": "function"
    },
    {
      "inputs": [],
      "name": "totalShares",
      "outputs": [
        {
          "internalType": "uint256",
          "name": "",
          "type": "uint256"
        }
      ],
      "stateMutability": "view",
      "type": "function"
    },
    {
      "inputs": [],
      "name": "totalWithdrawn",
      "outputs": [
        {
          "internalType": "uint256",
          "name": "",
          "type": "uint256"
        }
      ],
      "stateMutability": "view",
      "type": "function"
    },
    {
      "inputs": [
        {
          "internalType": "address",
          "name": "newOwner",
          "type": "address"
        }
      ],
      "name": "transferOwnership",
      "outputs": [],
      "stateMutability": "nonpayable",
      "type": "function"
    },
    {
      "inputs": [
        {
          "internalType": "address",
          "name": "",
          "type": "address"
        }
      ],
      "name": "userDepositTime",
      "outputs": [
        {
          "internalType": "uint256",
          "name": "",
          "type": "uint256"
        }
      ],
      "stateMutability": "view",
      "type": "function"
    },
    {
      "inputs": [
        {
          "internalType": "address",
          "name": "",
          "type": "address"
        }
      ],
      "name": "userShares",
      "outputs": [
        {
          "internalType": "uint256",
          "name": "",
          "type": "uint256"
        }
      ],
      "stateMutability": "view",
      "type": "function"
    },
    {
      "inputs": [],
      "name": "volatilityIndex",
      "outputs": [
        {
          "internalType": "uint256",
          "name": "",
          "type": "uint256"
        }
      ],
      "stateMutability": "view",
      "type": "function"
    },
    {
      "inputs": [
        {
          "internalType": "uint256",
          "name": "amount",
          "type": "uint256"
        }
      ],
      "name": "withdraw",
      "outputs": [
        {
          "internalType": "uint256",
          "name": "",
          "type": "uint256"
        }
      ],
      "stateMutability": "nonpayable",
      "type": "function"
    },
    {
      "inputs": [],
      "name": "yieldOptimizer",
      "outputs": [
        {
          "internalType": "address",
          "name": "",
          "type": "address"
        }
      ],
      "stateMutability": "view",
      "type": "function"
    }
  ],
  "bytecode": "0x60c060405261271060085534801561001657600080fd5b506040516111b53803806111b5833981016040819052610035916100ff565b8181338061005d57604051631e4fbdf760e01b81526000600482015260240160405180910390fd5b61006681610093565b50600180556001600160a01b039182166080521660a0525050426004819055600955611388600a55610132565b600080546001600160a01b038381166001600160a01b0319831681178455604051919092169283917f8be0079c531659141344cd1fd0a4f28419497f9722a3daafe3b4186f6b6457e09190a35050565b80516001600160a01b03811681146100fa57600080fd5b919050565b6000806040838503121561011257600080fd5b61011b836100e3565b9150610129602084016100e3565b90509250929050565b60805160a05161102d6101886000396000818161021c015281816103ef015281816106050152818161085901526109350152600081816102870152818161036a01528181610634015261096a015261102d6000f3fe608060405234801561001057600080fd5b50600436106101735760003560e01c80637b4cab3d116100de578063c8f33c9111610097578063e108521a11610071578063e108521a14610305578063f1eb17f61461030e578063f2fde38b14610336578063ff50abdc1461034957600080fd5b8063c8f33c91146102bc578063cf27e06f146102c5578063de69b3aa146102e557600080fd5b80637b4cab3d146102175780638da5cb5b14610256578063962ca49614610267578063b6b55f251461026f578063c54e44eb14610282578063c6c23a54146102a957600080fd5b80634b319713116101305780634b319713146101e15780634ca19fd6146101ea5780636949faeb146101f35780636e49e1ff146101fc5780636fbaaa1e14610204578063715018a61461020d57600080fd5b806312065fe0146101785780632e1a7d4d146101935780633a5ddf30146101a65780633a98ef39146101b257806347734892146101bb57806348a88706146101ce575b600080fd5b610180610352565b6040519081526020015b60405180910390f35b6101806101a1366004610ec7565b6103e2565b61018064746a52880081565b61018060075481565b6101806101c9366004610ee0565b6106ef565b6101806101dc366004610f09565b6107a3565b61018060035481565b6101806104b081565b61018060095481565b61018060c881565b61018060085481565b6102156107df565b005b61023e7f000000000000000000000000000000000000000000000000000000000000000081565b6040516001600160a01b03909116815260200161018a565b6000546001600160a01b031661023e565b6101806107f3565b61018061027d366004610ec7565b61084c565b61023e7f000000000000000000000000000000000000000000000000000000000000000081565b6102156102b7366004610ec7565b610a9e565b61018060045481565b6101806102d3366004610ee0565b60066020526000908152604090205481565b6101806102f3366004610ee0565b60056020526000908152604090205481565b610180600a5481565b610316610b00565b60408051948552602085019390935291830152606082015260800161018a565b610215610344366004610ee0565b610b42565b61018060025481565b6040516370a0823160e01b81523060048201526000907f00000000000000000000000000000000000000000000000000000000000000006001600160a01b0316906370a0823190602401602060405180830381865afa1580156103b9573d6000803e3d6000fd5b505050506040513d601f19601f820116820180604052508101906103dd9190610f2b565b905090565b6000336001600160a01b037f000000000000000000000000000000000000000000000000000000000000000016146104615760405162461bcd60e51b815260206004820152601c60248201527f4f6e6c79205969656c644f7074696d697a65722063616e2063616c6c0000000060448201526064015b60405180910390fd5b610469610b80565b600082116104b95760405162461bcd60e51b815260206004820152601d60248201527f416d6f756e74206d7573742062652067726561746572207468616e20300000006044820152606401610458565b3260009081526005602052604090205461050d5760405162461bcd60e51b81526020600482015260156024820152744e6f2073686172657320746f20776974686472617760581b6044820152606401610458565b6000610518326106ef565b9050808311156105615760405162461bcd60e51b8152602060048201526014602482015273496e73756666696369656e742062616c616e636560601b6044820152606401610458565b32600090815260056020526040812054829061057d9086610f5a565b6105879190610f87565b326000908152600560205260408120805492935083929091906105ab908490610f9b565b9250508190555080600760008282546105c49190610f9b565b90915550600090506105d585610baa565b905080600360008282546105e99190610fae565b909155505060405163a9059cbb60e01b81526001600160a01b037f000000000000000000000000000000000000000000000000000000000000000081166004830152602482018390527f0000000000000000000000000000000000000000000000000000000000000000169063a9059cbb906044016020604051808303816000875af115801561067d573d6000803e3d6000fd5b505050506040513d601f19601f820116820180604052508101906106a19190610fc1565b50604080518281526020810184905232917f92ccf450a286a957af52509bc1c9939d1a6a481783e142e41e2499f0bb66ebc6910160405180910390a2925050506106ea60018055565b919050565b600060075460000361070357506000919050565b6000306001600160a01b03166312065fe06040518163ffffffff1660e01b8152600401602060405180830381865afa158015610743573d6000803e3d6000fd5b505050506040513d601f19601f820116820180604052508101906107679190610f2b565b6007546001600160a01b03851660009081526005602052604090205491925090610792908390610f5a565b61079c9190610f87565b9392505050565b6000806107ae6107f3565b905064496cebb800836107c18387610f5a565b6107cb9190610f5a565b6107d59190610f87565b9150505b92915050565b6107e7610c85565b6107f16000610cb2565b565b6000806104b09050600061271060c8600a5461080f9190610f5a565b6108199190610f87565b905060006127108360085461082e9190610f5a565b6108389190610f87565b90506108448282610fae565b935050505090565b6000336001600160a01b037f000000000000000000000000000000000000000000000000000000000000000016146108c65760405162461bcd60e51b815260206004820152601c60248201527f4f6e6c79205969656c644f7074696d697a65722063616e2063616c6c000000006044820152606401610458565b6108ce610b80565b6000821161091e5760405162461bcd60e51b815260206004820152601d60248201527f416d6f756e74206d7573742062652067726561746572207468616e20300000006044820152606401610458565b6040516323b872dd60e01b81526001600160a01b037f000000000000000000000000000000000000000000000000000000000000000081166004830152306024830152604482018490527f000000000000000000000000000000000000000000000000000000000000000016906323b872dd906064016020604051808303816000875af11580156109b3573d6000803e3d6000fd5b505050506040513d601f19601f820116820180604052508101906109d79190610fc1565b5060006109e383610d02565b32600090815260056020526040812080549293508392909190610a07908490610fae565b909155505032600090815260066020526040812042905560078054839290610a30908490610fae565b925050819055508260026000828254610a499190610fae565b90915550610a58905083610d8b565b604080518481526020810183905232917f73a19dd210f1a7f902193214c0ee91dd35ee5b4d920cba8d519eca65a7b488ca910160405180910390a290506106ea60018055565b610aa6610c85565b6113888110158015610aba5750613a988111155b610afb5760405162461bcd60e51b815260206004820152601260248201527124b73b30b634b21036bab63a34b83634b2b960711b6044820152606401610458565b600855565b600080600080610b0e6107f3565b600a5460085464746a528800600254612710610b2a9190610f5a565b610b349190610f87565b935093509350935090919293565b610b4a610c85565b6001600160a01b038116610b7457604051631e4fbdf760e01b815260006004820152602401610458565b610b7d81610cb2565b50565b600260015403610ba357604051633ee5aeb560e01b815260040160405180910390fd5b6002600155565b6000610bb4610d9b565b610bbc610e74565b32600090815260066020526040812054610bd69042610f9b565b905062093a80811115610c7e57604051632454438360e11b8152600481018490526024810182905260009030906348a8870690604401602060405180830381865afa158015610c29573d6000803e3d6000fd5b505050506040513d601f19601f82011682018060405250810190610c4d9190610f2b565b90506000610c5c606483610f87565b9050808511610c6b5784610c75565b610c758186610f9b565b95945050505050565b5090919050565b6000546001600160a01b031633146107f15760405163118cdaa760e01b8152336004820152602401610458565b600080546001600160a01b038381166001600160a01b0319831681178455604051919092169283917f8be0079c531659141344cd1fd0a4f28419497f9722a3daafe3b4186f6b6457e09190a35050565b6000600754600003610d12575090565b306001600160a01b03166312065fe06040518163ffffffff1660e01b8152600401602060405180830381865afa158015610d50573d6000803e3d6000fd5b505050506040513d601f19601f82011682018060405250810190610d749190610f2b565b600754610d819084610f5a565b6107d99190610f87565b610d93610d9b565b610b7d610e74565b600060095442610dab9190610f9b565b9050610e108110610b7d5760006127104244600254604051602001610de3939291909283526020830191909152604082015260600190565b6040516020818303038152906040528051906020012060001c610e069190610fe3565b9050610bb8811015610e3c576103e8600a5411610e24576000610e34565b6103e8600a54610e349190610f9b565b600a55610e6c565b611b58811115610e6c57612328600a5410610e5957612710610e68565b600a54610e68906103e8610fae565b600a555b504260095550565b600064746a528800600254612710610e8c9190610f5a565b610e969190610f87565b9050611f40811115610eab5761232860085550565b6107d0811015610ebe57612af860085550565b61271060085550565b600060208284031215610ed957600080fd5b5035919050565b600060208284031215610ef257600080fd5b81356001600160a01b038116811461079c57600080fd5b60008060408385031215610f1c57600080fd5b50508035926020909101359150565b600060208284031215610f3d57600080fd5b5051919050565b634e487b7160e01b600052601160045260246000fd5b80820281158282048414176107d9576107d9610f44565b634e487b7160e01b600052601260045260246000fd5b600082610f9657610f96610f71565b500490565b818103818111156107d9576107d9610f44565b808201808211156107d9576107d9610f44565b600060208284031215610fd357600080fd5b8151801515811461079c57600080fd5b600082610ff257610ff2610f71565b50069056fea2646970667358221220c9e4d53f155d440699e36ab9ad382848c2398ae04ecafba2362388799090370964736f6c63430008140033",
  "linkReferences": {},
  "deployedLinkReferences": {}
}