{
  "_format": "hh-sol-artifact-1",
  "contractName": "GrowthPlusStrategy",
  "sourceName": "contracts/strategies/GrowthPlusStrategy.sol",
  "abi": [
    {
      "inputs": [
        {
          "internalType": "address",
          "name": "_usdt",
          "type": "address"
        },
        {
          "internalType": "address",
          "name": "_yieldOptimizer",
          "type": "address"
        }
      ],
      "stateMutability": "nonpayable",
      "type": "constructor"
    },
    {
      "inputs": [
        {
          "internalType": "address",
          "name": "owner",
          "type": "address"
        }
      ],
      "name": "OwnableInvalidOwner",
      "type": "error"
    },
    {
      "inputs": [
        {
          "internalType": "address",
          "name": "account",
          "type": "address"
        }
      ],
      "name": "OwnableUnauthorizedAccount",
      "type": "error"
    },
    {
      "inputs": [],
      "name": "ReentrancyGuardReentrantCall",
      "type": "error"
    },
    {
      "anonymous": false,
      "inputs": [
        {
          "indexed": true,
          "internalType": "address",
          "name": "user",
          "type": "address"
        },
        {
          "indexed": false,
          "internalType": "uint256",
          "name": "amount",
          "type": "uint256"
        },
        {
          "indexed": false,
          "internalType": "uint256",
          "name": "shares",
          "type": "uint256"
        }
      ],
      "name": "Deposited",
      "type": "event"
    },
    {
      "anonymous": false,
      "inputs": [
        {
          "indexed": true,
          "internalType": "address",
          "name": "previousOwner",
          "type": "address"
        },
        {
          "indexed": true,
          "internalType": "address",
          "name": "newOwner",
          "type": "address"
        }
      ],
      "name": "OwnershipTransferred",
      "type": "event"
    },
    {
      "anonymous": false,
      "inputs": [
        {
          "indexed": false,
          "internalType": "uint256",
          "name": "totalRewards",
          "type": "uint256"
        }
      ],
      "name": "RewardsDistributed",
      "type": "event"
    },
    {
      "anonymous": false,
      "inputs": [
        {
          "indexed": true,
          "internalType": "address",
          "name": "user",
          "type": "address"
        },
        {
          "indexed": false,
          "internalType": "uint256",
          "name": "amount",
          "type": "uint256"
        },
        {
          "indexed": false,
          "internalType": "uint256",
          "name": "shares",
          "type": "uint256"
        }
      ],
      "name": "Withdrawn",
      "type": "event"
    },
    {
      "inputs": [],
      "name": "BASE_APY",
      "outputs": [
        {
          "internalType": "uint256",
          "name": "",
          "type": "uint256"
        }
      ],
      "stateMutability": "view",
      "type": "function"
    },
    {
      "inputs": [],
      "name": "MAX_CAPACITY",
      "outputs": [
        {
          "internalType": "uint256",
          "name": "",
          "type": "uint256"
        }
      ],
      "stateMutability": "view",
      "type": "function"
    },
    {
      "inputs": [],
      "name": "USDT",
      "outputs": [
        {
          "internalType": "contract IERC20",
          "name": "",
          "type": "address"
        }
      ],
      "stateMutability": "view",
      "type": "function"
    },
    {
      "inputs": [],
      "name": "VOLATILITY_MULTIPLIER",
      "outputs": [
        {
          "internalType": "uint256",
          "name": "",
          "type": "uint256"
        }
      ],
      "stateMutability": "view",
      "type": "function"
    },
    {
      "inputs": [
        {
          "internalType": "uint256",
          "name": "amount",
          "type": "uint256"
        },
        {
          "internalType": "uint256",
          "name": "timeElapsed",
          "type": "uint256"
        }
      ],
      "name": "calculateRewards",
      "outputs": [
        {
          "internalType": "uint256",
          "name": "",
          "type": "uint256"
        }
      ],
      "stateMutability": "view",
      "type": "function"
    },
    {
      "inputs": [],
      "name": "currentMultiplier",
      "outputs": [
        {
          "internalType": "uint256",
          "name": "",
          "type": "uint256"
        }
      ],
      "stateMutability": "view",
      "type": "function"
    },
    {
      "inputs": [
        {
          "internalType": "uint256",
          "name": "amount",
          "type": "uint256"
        }
      ],
      "name": "deposit",
      "outputs": [
        {
          "internalType": "uint256",
          "name": "",
          "type": "uint256"
        }
      ],
      "stateMutability": "nonpayable",
      "type": "function"
    },
    {
      "inputs": [
        {
          "internalType": "uint256",
          "name": "newMultiplier",
          "type": "uint256"
        }
      ],
      "name": "emergencyAdjustMultiplier",
      "outputs": [],
      "stateMutability": "nonpayable",
      "type": "function"
    },
    {
      "inputs": [],
      "name": "getBalance",
      "outputs": [
        {
          "internalType": "uint256",
          "name": "",
          "type": "uint256"
        }
      ],
      "stateMutability": "view",
      "type": "function"
    },
    {
      "inputs": [],
      "name": "getCurrentAPY",
      "outputs": [
        {
          "internalType": "uint256",
          "name": "",
          "type": "uint256"
        }
      ],
      "stateMutability": "view",
      "type": "function"
    },
    {
      "inputs": [],
      "name": "getStrategyStats",
      "outputs": [
        {
          "internalType": "uint256",
          "name": "apy",
          "type": "uint256"
        },
        {
          "internalType": "uint256",
          "name": "volatility",
          "type": "uint256"
        },
        {
          "internalType": "uint256",
          "name": "multiplier",
          "type": "uint256"
        },
        {
          "internalType": "uint256",
          "name": "utilization",
          "type": "uint256"
        }
      ],
      "stateMutability": "view",
      "type": "function"
    },
    {
      "inputs": [
        {
          "internalType": "address",
          "name": "user",
          "type": "address"
        }
      ],
      "name": "getUserBalance",
      "outputs": [
        {
          "internalType": "uint256",
          "name": "",
          "type": "uint256"
        }
      ],
      "stateMutability": "view",
      "type": "function"
    },
    {
      "inputs": [],
      "name": "lastPriceUpdate",
      "outputs": [
        {
          "internalType": "uint256",
          "name": "",
          "type": "uint256"
        }
      ],
      "stateMutability": "view",
      "type": "function"
    },
    {
      "inputs": [],
      "name": "lastUpdateTime",
      "outputs": [
        {
          "internalType": "uint256",
          "name": "",
          "type": "uint256"
        }
      ],
      "stateMutability": "view",
      "type": "function"
    },
    {
      "inputs": [],
      "name": "owner",
      "outputs": [
        {
          "internalType": "address",
          "name": "",
          "type": "address"
        }
      ],
      "stateMutability": "view",
      "type": "function"
    },
    {
      "inputs": [],
      "name": "renounceOwnership",
      "outputs": [],
      "stateMutability": "nonpayable",
      "type": "function"
    },
    {
      "inputs": [],
      "name": "totalDeposited",
      "outputs": [
        {
          "internalType": "uint256",
          "name": "",
          "type": "uint256"
        }
      ],
      "stateMutability": "view",
      "type": "function"
    },
    {
      "inputs": [],
      "name": "totalShares",
      "outputs": [
        {
          "internalType": "uint256",
          "name": "",
          "type": "uint256"
        }
      ],
      "stateMutability": "view",
      "type": "function"
    },
    {
      "inputs": [],
      "name": "totalWithdrawn",
      "outputs": [
        {
          "internalType": "uint256",
          "name": "",
          "type": "uint256"
        }
      ],
      "stateMutability": "view",
      "type": "function"
    },
    {
      "inputs": [
        {
          "internalType": "address",
          "name": "newOwner",
          "type": "address"
        }
      ],
      "name": "transferOwnership",
      "outputs": [],
      "stateMutability": "nonpayable",
      "type": "function"
    },
    {
      "inputs": [
        {
          "internalType": "address",
          "name": "",
          "type": "address"
        }
      ],
      "name": "userDepositTime",
      "outputs": [
        {
          "internalType": "uint256",
          "name": "",
          "type": "uint256"
        }
      ],
      "stateMutability": "view",
      "type": "function"
    },
    {
      "inputs": [
        {
          "internalType": "address",
          "name": "",
          "type": "address"
        }
      ],
      "name": "userShares",
      "outputs": [
        {
          "internalType": "uint256",
          "name": "",
          "type": "uint256"
        }
      ],
      "stateMutability": "view",
      "type": "function"
    },
    {
      "inputs": [],
      "name": "volatilityIndex",
      "outputs": [
        {
          "internalType": "uint256",
          "name": "",
          "type": "uint256"
        }
      ],
      "stateMutability": "view",
      "type": "function"
    },
    {
      "inputs": [
        {
          "internalType": "uint256",
          "name": "amount",
          "type": "uint256"
        }
      ],
      "name": "withdraw",
      "outputs": [
        {
          "internalType": "uint256",
          "name": "",
          "type": "uint256"
        }
      ],
      "stateMutability": "nonpayable",
      "type": "function"
    },
    {
      "inputs": [],
      "name": "yieldOptimizer",
      "outputs": [
        {
          "internalType": "address",
          "name": "",
          "type": "address"
        }
      ],
      "stateMutability": "view",
      "type": "function"
    }
  ],
  "bytecode": "0x60c060405261271060085534801561001657600080fd5b50604051620012a2380380620012a283398101604081905261003791610101565b8181338061005f57604051631e4fbdf760e01b81526000600482015260240160405180910390fd5b61006881610095565b50600180556001600160a01b039182166080521660a0525050426004819055600955611388600a55610134565b600080546001600160a01b038381166001600160a01b0319831681178455604051919092169283917f8be0079c531659141344cd1fd0a4f28419497f9722a3daafe3b4186f6b6457e09190a35050565b80516001600160a01b03811681146100fc57600080fd5b919050565b6000806040838503121561011457600080fd5b61011d836100e5565b915061012b602084016100e5565b90509250929050565b60805160a0516111176200018b6000396000818161024c0152818161043801528181610678015281816108cc01526109c10152600081816102b7015281816103b3015281816106a701526109f601526111176000f3fe608060405234801561001057600080fd5b50600436106101a35760003560e01c80637b4cab3d116100ee578063c8f33c9111610097578063e108521a11610071578063e108521a14610335578063f1eb17f61461033e578063f2fde38b14610366578063ff50abdc1461037957600080fd5b8063c8f33c91146102ec578063cf27e06f146102f5578063de69b3aa1461031557600080fd5b8063b6b55f25116100c8578063b6b55f251461029f578063c54e44eb146102b2578063c6c23a54146102d957600080fd5b80637b4cab3d146102475780638da5cb5b14610286578063962ca4961461029757600080fd5b80634b319713116101505780636e49e1ff1161012a5780636e49e1ff1461022c5780636fbaaa1e14610234578063715018a61461023d57600080fd5b80634b319713146102115780634ca19fd61461021a5780636949faeb1461022357600080fd5b80633a98ef39116101815780633a98ef39146101e257806347734892146101eb57806348a88706146101fe57600080fd5b806312065fe0146101a85780632e1a7d4d146101c35780633a5ddf30146101d6575b600080fd5b6101b0610382565b6040519081526020015b60405180910390f35b6101b06101d1366004610fda565b61042b565b6101b064746a52880081565b6101b060075481565b6101b06101f9366004610ff3565b610762565b6101b061020c36600461101c565b610816565b6101b060035481565b6101b06104b081565b6101b060095481565b6101b060c881565b6101b060085481565b610245610852565b005b61026e7f000000000000000000000000000000000000000000000000000000000000000081565b6040516001600160a01b0390911681526020016101ba565b6000546001600160a01b031661026e565b6101b0610866565b6101b06102ad366004610fda565b6108bf565b61026e7f000000000000000000000000000000000000000000000000000000000000000081565b6102456102e7366004610fda565b610b2a565b6101b060045481565b6101b0610303366004610ff3565b60066020526000908152604090205481565b6101b0610323366004610ff3565b60056020526000908152604090205481565b6101b0600a5481565b610346610b97565b6040805194855260208501939093529183015260608201526080016101ba565b610245610374366004610ff3565b610bd9565b6101b060025481565b6040517f70a082310000000000000000000000000000000000000000000000000000000081523060048201526000907f00000000000000000000000000000000000000000000000000000000000000006001600160a01b0316906370a0823190602401602060405180830381865afa158015610402573d6000803e3d6000fd5b505050506040513d601f19601f82011682018060405250810190610426919061103e565b905090565b6000336001600160a01b037f000000000000000000000000000000000000000000000000000000000000000016146104aa5760405162461bcd60e51b815260206004820152601c60248201527f4f6e6c79205969656c644f7074696d697a65722063616e2063616c6c0000000060448201526064015b60405180910390fd5b6104b2610c30565b600082116105025760405162461bcd60e51b815260206004820152601d60248201527f416d6f756e74206d7573742062652067726561746572207468616e203000000060448201526064016104a1565b3260009081526005602052604090205461055e5760405162461bcd60e51b815260206004820152601560248201527f4e6f2073686172657320746f207769746864726177000000000000000000000060448201526064016104a1565b600061056932610762565b9050808311156105bb5760405162461bcd60e51b815260206004820152601460248201527f496e73756666696369656e742062616c616e636500000000000000000000000060448201526064016104a1565b3260009081526005602052604081205482906105d7908661106d565b6105e1919061109a565b326000908152600560205260408120805492935083929091906106059084906110ae565b92505081905550806007600082825461061e91906110ae565b909155506000905061062f85610c73565b9050806003600082825461064391906110c1565b90915550506040517fa9059cbb0000000000000000000000000000000000000000000000000000000081526001600160a01b037f000000000000000000000000000000000000000000000000000000000000000081166004830152602482018390527f0000000000000000000000000000000000000000000000000000000000000000169063a9059cbb906044016020604051808303816000875af11580156106f0573d6000803e3d6000fd5b505050506040513d601f19601f8201168201806040525081019061071491906110d4565b50604080518281526020810184905232917f92ccf450a286a957af52509bc1c9939d1a6a481783e142e41e2499f0bb66ebc6910160405180910390a29250505061075d60018055565b919050565b600060075460000361077657506000919050565b6000306001600160a01b03166312065fe06040518163ffffffff1660e01b8152600401602060405180830381865afa1580156107b6573d6000803e3d6000fd5b505050506040513d601f19601f820116820180604052508101906107da919061103e565b6007546001600160a01b0385166000908152600560205260409020549192509061080590839061106d565b61080f919061109a565b9392505050565b600080610821610866565b905064496cebb80083610834838761106d565b61083e919061106d565b610848919061109a565b9150505b92915050565b61085a610d67565b6108646000610dad565b565b6000806104b09050600061271060c8600a54610882919061106d565b61088c919061109a565b90506000612710836008546108a1919061106d565b6108ab919061109a565b90506108b782826110c1565b935050505090565b6000336001600160a01b037f000000000000000000000000000000000000000000000000000000000000000016146109395760405162461bcd60e51b815260206004820152601c60248201527f4f6e6c79205969656c644f7074696d697a65722063616e2063616c6c0000000060448201526064016104a1565b610941610c30565b600082116109915760405162461bcd60e51b815260206004820152601d60248201527f416d6f756e74206d7573742062652067726561746572207468616e203000000060448201526064016104a1565b6040517f23b872dd0000000000000000000000000000000000000000000000000000000081526001600160a01b037f000000000000000000000000000000000000000000000000000000000000000081166004830152306024830152604482018490527f000000000000000000000000000000000000000000000000000000000000000016906323b872dd906064016020604051808303816000875af1158015610a3f573d6000803e3d6000fd5b505050506040513d601f19601f82011682018060405250810190610a6391906110d4565b506000610a6f83610e15565b32600090815260056020526040812080549293508392909190610a939084906110c1565b909155505032600090815260066020526040812042905560078054839290610abc9084906110c1565b925050819055508260026000828254610ad591906110c1565b90915550610ae4905083610e9e565b604080518481526020810183905232917f73a19dd210f1a7f902193214c0ee91dd35ee5b4d920cba8d519eca65a7b488ca910160405180910390a2905061075d60018055565b610b32610d67565b6113888110158015610b465750613a988111155b610b925760405162461bcd60e51b815260206004820152601260248201527f496e76616c6964206d756c7469706c696572000000000000000000000000000060448201526064016104a1565b600855565b600080600080610ba5610866565b600a5460085464746a528800600254612710610bc1919061106d565b610bcb919061109a565b935093509350935090919293565b610be1610d67565b6001600160a01b038116610c24576040517f1e4fbdf7000000000000000000000000000000000000000000000000000000008152600060048201526024016104a1565b610c2d81610dad565b50565b600260015403610c6c576040517f3ee5aeb500000000000000000000000000000000000000000000000000000000815260040160405180910390fd5b6002600155565b6000610c7d610eae565b610c85610f87565b32600090815260066020526040812054610c9f90426110ae565b905062093a80811115610d60576040517f48a88706000000000000000000000000000000000000000000000000000000008152600481018490526024810182905260009030906348a8870690604401602060405180830381865afa158015610d0b573d6000803e3d6000fd5b505050506040513d601f19601f82011682018060405250810190610d2f919061103e565b90506000610d3e60648361109a565b9050808511610d4d5784610d57565b610d5781866110ae565b95945050505050565b5090919050565b6000546001600160a01b03163314610864576040517f118cdaa70000000000000000000000000000000000000000000000000000000081523360048201526024016104a1565b600080546001600160a01b038381167fffffffffffffffffffffffff0000000000000000000000000000000000000000831681178455604051919092169283917f8be0079c531659141344cd1fd0a4f28419497f9722a3daafe3b4186f6b6457e09190a35050565b6000600754600003610e25575090565b306001600160a01b03166312065fe06040518163ffffffff1660e01b8152600401602060405180830381865afa158015610e63573d6000803e3d6000fd5b505050506040513d601f19601f82011682018060405250810190610e87919061103e565b600754610e94908461106d565b61084c919061109a565b610ea6610eae565b610c2d610f87565b600060095442610ebe91906110ae565b9050610e108110610c2d5760006127104244600254604051602001610ef6939291909283526020830191909152604082015260600190565b6040516020818303038152906040528051906020012060001c610f1991906110f6565b9050610bb8811015610f4f576103e8600a5411610f37576000610f47565b6103e8600a54610f4791906110ae565b600a55610f7f565b611b58811115610f7f57612328600a5410610f6c57612710610f7b565b600a54610f7b906103e86110c1565b600a555b504260095550565b600064746a528800600254612710610f9f919061106d565b610fa9919061109a565b9050611f40811115610fbe5761232860085550565b6107d0811015610fd157612af860085550565b61271060085550565b600060208284031215610fec57600080fd5b5035919050565b60006020828403121561100557600080fd5b81356001600160a01b038116811461080f57600080fd5b6000806040838503121561102f57600080fd5b50508035926020909101359150565b60006020828403121561105057600080fd5b5051919050565b634e487b7160e01b600052601160045260246000fd5b808202811582820484141761084c5761084c611057565b634e487b7160e01b600052601260045260246000fd5b6000826110a9576110a9611084565b500490565b8181038181111561084c5761084c611057565b8082018082111561084c5761084c611057565b6000602082840312156110e657600080fd5b8151801515811461080f57600080fd5b60008261110557611105611084565b50069056fea164736f6c6343000814000a",
  "linkReferences": {},
  "deployedLinkReferences": {}
}