{
  "_format": "hh-sol-artifact-1",
  "contractName": "StableEarnStrategy",
  "sourceName": "contracts/strategies/StableEarnStrategy.sol",
  "abi": [
    {
      "inputs": [
        {
          "internalType": "address",
          "name": "_usdt",
          "type": "address"
        },
        {
          "internalType": "address",
          "name": "_yieldOptimizer",
          "type": "address"
        }
      ],
      "stateMutability": "nonpayable",
      "type": "constructor"
    },
    {
      "inputs": [
        {
          "internalType": "address",
          "name": "owner",
          "type": "address"
        }
      ],
      "name": "OwnableInvalidOwner",
      "type": "error"
    },
    {
      "inputs": [
        {
          "internalType": "address",
          "name": "account",
          "type": "address"
        }
      ],
      "name": "OwnableUnauthorizedAccount",
      "type": "error"
    },
    {
      "inputs": [],
      "name": "ReentrancyGuardReentrantCall",
      "type": "error"
    },
    {
      "anonymous": false,
      "inputs": [
        {
          "indexed": true,
          "internalType": "address",
          "name": "user",
          "type": "address"
        },
        {
          "indexed": false,
          "internalType": "uint256",
          "name": "amount",
          "type": "uint256"
        },
        {
          "indexed": false,
          "internalType": "uint256",
          "name": "shares",
          "type": "uint256"
        }
      ],
      "name": "Deposited",
      "type": "event"
    },
    {
      "anonymous": false,
      "inputs": [
        {
          "indexed": true,
          "internalType": "address",
          "name": "previousOwner",
          "type": "address"
        },
        {
          "indexed": true,
          "internalType": "address",
          "name": "newOwner",
          "type": "address"
        }
      ],
      "name": "OwnershipTransferred",
      "type": "event"
    },
    {
      "anonymous": false,
      "inputs": [
        {
          "indexed": false,
          "internalType": "uint256",
          "name": "totalRewards",
          "type": "uint256"
        }
      ],
      "name": "RewardsDistributed",
      "type": "event"
    },
    {
      "anonymous": false,
      "inputs": [
        {
          "indexed": true,
          "internalType": "address",
          "name": "user",
          "type": "address"
        },
        {
          "indexed": false,
          "internalType": "uint256",
          "name": "amount",
          "type": "uint256"
        },
        {
          "indexed": false,
          "internalType": "uint256",
          "name": "shares",
          "type": "uint256"
        }
      ],
      "name": "Withdrawn",
      "type": "event"
    },
    {
      "inputs": [],
      "name": "BASE_APY",
      "outputs": [
        {
          "internalType": "uint256",
          "name": "",
          "type": "uint256"
        }
      ],
      "stateMutability": "view",
      "type": "function"
    },
    {
      "inputs": [],
      "name": "MAX_CAPACITY",
      "outputs": [
        {
          "internalType": "uint256",
          "name": "",
          "type": "uint256"
        }
      ],
      "stateMutability": "view",
      "type": "function"
    },
    {
      "inputs": [],
      "name": "USDT",
      "outputs": [
        {
          "internalType": "contract IERC20",
          "name": "",
          "type": "address"
        }
      ],
      "stateMutability": "view",
      "type": "function"
    },
    {
      "inputs": [
        {
          "internalType": "uint256",
          "name": "amount",
          "type": "uint256"
        }
      ],
      "name": "addRewards",
      "outputs": [],
      "stateMutability": "nonpayable",
      "type": "function"
    },
    {
      "inputs": [
        {
          "internalType": "uint256",
          "name": "amount",
          "type": "uint256"
        },
        {
          "internalType": "uint256",
          "name": "timeElapsed",
          "type": "uint256"
        }
      ],
      "name": "calculateRewards",
      "outputs": [
        {
          "internalType": "uint256",
          "name": "",
          "type": "uint256"
        }
      ],
      "stateMutability": "view",
      "type": "function"
    },
    {
      "inputs": [
        {
          "internalType": "uint256",
          "name": "amount",
          "type": "uint256"
        }
      ],
      "name": "deposit",
      "outputs": [
        {
          "internalType": "uint256",
          "name": "",
          "type": "uint256"
        }
      ],
      "stateMutability": "nonpayable",
      "type": "function"
    },
    {
      "inputs": [],
      "name": "getBalance",
      "outputs": [
        {
          "internalType": "uint256",
          "name": "",
          "type": "uint256"
        }
      ],
      "stateMutability": "view",
      "type": "function"
    },
    {
      "inputs": [],
      "name": "getCurrentAPY",
      "outputs": [
        {
          "internalType": "uint256",
          "name": "",
          "type": "uint256"
        }
      ],
      "stateMutability": "view",
      "type": "function"
    },
    {
      "inputs": [
        {
          "internalType": "address",
          "name": "user",
          "type": "address"
        }
      ],
      "name": "getUserBalance",
      "outputs": [
        {
          "internalType": "uint256",
          "name": "",
          "type": "uint256"
        }
      ],
      "stateMutability": "view",
      "type": "function"
    },
    {
      "inputs": [],
      "name": "lastUpdateTime",
      "outputs": [
        {
          "internalType": "uint256",
          "name": "",
          "type": "uint256"
        }
      ],
      "stateMutability": "view",
      "type": "function"
    },
    {
      "inputs": [],
      "name": "owner",
      "outputs": [
        {
          "internalType": "address",
          "name": "",
          "type": "address"
        }
      ],
      "stateMutability": "view",
      "type": "function"
    },
    {
      "inputs": [],
      "name": "renounceOwnership",
      "outputs": [],
      "stateMutability": "nonpayable",
      "type": "function"
    },
    {
      "inputs": [],
      "name": "rewardPool",
      "outputs": [
        {
          "internalType": "uint256",
          "name": "",
          "type": "uint256"
        }
      ],
      "stateMutability": "view",
      "type": "function"
    },
    {
      "inputs": [],
      "name": "totalDeposited",
      "outputs": [
        {
          "internalType": "uint256",
          "name": "",
          "type": "uint256"
        }
      ],
      "stateMutability": "view",
      "type": "function"
    },
    {
      "inputs": [],
      "name": "totalShares",
      "outputs": [
        {
          "internalType": "uint256",
          "name": "",
          "type": "uint256"
        }
      ],
      "stateMutability": "view",
      "type": "function"
    },
    {
      "inputs": [],
      "name": "totalWithdrawn",
      "outputs": [
        {
          "internalType": "uint256",
          "name": "",
          "type": "uint256"
        }
      ],
      "stateMutability": "view",
      "type": "function"
    },
    {
      "inputs": [
        {
          "internalType": "address",
          "name": "newOwner",
          "type": "address"
        }
      ],
      "name": "transferOwnership",
      "outputs": [],
      "stateMutability": "nonpayable",
      "type": "function"
    },
    {
      "inputs": [
        {
          "internalType": "address",
          "name": "",
          "type": "address"
        }
      ],
      "name": "userDepositTime",
      "outputs": [
        {
          "internalType": "uint256",
          "name": "",
          "type": "uint256"
        }
      ],
      "stateMutability": "view",
      "type": "function"
    },
    {
      "inputs": [
        {
          "internalType": "address",
          "name": "",
          "type": "address"
        }
      ],
      "name": "userShares",
      "outputs": [
        {
          "internalType": "uint256",
          "name": "",
          "type": "uint256"
        }
      ],
      "stateMutability": "view",
      "type": "function"
    },
    {
      "inputs": [
        {
          "internalType": "uint256",
          "name": "amount",
          "type": "uint256"
        }
      ],
      "name": "withdraw",
      "outputs": [
        {
          "internalType": "uint256",
          "name": "",
          "type": "uint256"
        }
      ],
      "stateMutability": "nonpayable",
      "type": "function"
    },
    {
      "inputs": [],
      "name": "yieldOptimizer",
      "outputs": [
        {
          "internalType": "address",
          "name": "",
          "type": "address"
        }
      ],
      "stateMutability": "view",
      "type": "function"
    }
  ],
  "bytecode": "0x60c060405234801561001057600080fd5b50604051610ff6380380610ff683398101604081905261002f916100f3565b8181338061005757604051631e4fbdf760e01b81526000600482015260240160405180910390fd5b61006081610087565b50600180556001600160a01b039182166080521660a0525050426004819055600955610126565b600080546001600160a01b038381166001600160a01b0319831681178455604051919092169283917f8be0079c531659141344cd1fd0a4f28419497f9722a3daafe3b4186f6b6457e09190a35050565b80516001600160a01b03811681146100ee57600080fd5b919050565b6000806040838503121561010657600080fd5b61010f836100d7565b915061011d602084016100d7565b90509250929050565b60805160a051610e73610183600039600081816101cf0152818161037f01528181610595015281816107f201526108ce01526000818161024d015281816102f8015281816105c4015281816109030152610a610152610e736000f3fe608060405234801561001057600080fd5b50600436106101375760003560e01c80637b4cab3d116100b8578063c54e44eb1161007c578063c54e44eb14610248578063c8f33c911461026f578063cf27e06f14610278578063de69b3aa14610298578063f2fde38b146102b8578063ff50abdc146102cb57600080fd5b80637b4cab3d146101ca5780638da5cb5b14610209578063962ca4961461021a578063b6b55f2514610222578063beceed391461023557600080fd5b806348a88706116100ff57806348a88706146101925780634b319713146101a55780634ca19fd6146101ae57806366666aa9146101b7578063715018a6146101c057600080fd5b806312065fe01461013c5780632e1a7d4d146101575780633a5ddf301461016a5780633a98ef3914610176578063477348921461017f575b600080fd5b6101446102d4565b6040519081526020015b60405180910390f35b610144610165366004610d29565b610372565b61014464e8d4a5100081565b61014460075481565b61014461018d366004610d42565b61067f565b6101446101a0366004610d6b565b610733565b61014460035481565b6101446101f481565b61014460085481565b6101c861076f565b005b6101f17f000000000000000000000000000000000000000000000000000000000000000081565b6040516001600160a01b03909116815260200161014e565b6000546001600160a01b03166101f1565b610144610783565b610144610230366004610d29565b6107e5565b6101c8610243366004610d29565b610a37565b6101f17f000000000000000000000000000000000000000000000000000000000000000081565b61014460045481565b610144610286366004610d42565b60066020526000908152604090205481565b6101446102a6366004610d42565b60056020526000908152604090205481565b6101c86102c6366004610d42565b610af1565b61014460025481565b6008546040516370a0823160e01b8152306004820152600091906001600160a01b037f000000000000000000000000000000000000000000000000000000000000000016906370a0823190602401602060405180830381865afa15801561033f573d6000803e3d6000fd5b505050506040513d601f19601f820116820180604052508101906103639190610d8d565b61036d9190610dbc565b905090565b6000336001600160a01b037f000000000000000000000000000000000000000000000000000000000000000016146103f15760405162461bcd60e51b815260206004820152601c60248201527f4f6e6c79205969656c644f7074696d697a65722063616e2063616c6c0000000060448201526064015b60405180910390fd5b6103f9610b2f565b600082116104495760405162461bcd60e51b815260206004820152601d60248201527f416d6f756e74206d7573742062652067726561746572207468616e203000000060448201526064016103e8565b3260009081526005602052604090205461049d5760405162461bcd60e51b81526020600482015260156024820152744e6f2073686172657320746f20776974686472617760581b60448201526064016103e8565b60006104a83261067f565b9050808311156104f15760405162461bcd60e51b8152602060048201526014602482015273496e73756666696369656e742062616c616e636560601b60448201526064016103e8565b32600090815260056020526040812054829061050d9086610dcf565b6105179190610de6565b3260009081526005602052604081208054929350839290919061053b908490610e08565b9250508190555080600760008282546105549190610e08565b909155506000905061056585610b59565b905080600360008282546105799190610dbc565b909155505060405163a9059cbb60e01b81526001600160a01b037f000000000000000000000000000000000000000000000000000000000000000081166004830152602482018390527f0000000000000000000000000000000000000000000000000000000000000000169063a9059cbb906044016020604051808303816000875af115801561060d573d6000803e3d6000fd5b505050506040513d601f19601f820116820180604052508101906106319190610e1b565b50604080518281526020810184905232917f92ccf450a286a957af52509bc1c9939d1a6a481783e142e41e2499f0bb66ebc6910160405180910390a29250505061067a60018055565b919050565b600060075460000361069357506000919050565b6000306001600160a01b03166312065fe06040518163ffffffff1660e01b8152600401602060405180830381865afa1580156106d3573d6000803e3d6000fd5b505050506040513d601f19601f820116820180604052508101906106f79190610d8d565b6007546001600160a01b03851660009081526005602052604090205491925090610722908390610dcf565b61072c9190610de6565b9392505050565b60008061073e610783565b905064496cebb800836107518387610dcf565b61075b9190610dcf565b6107659190610de6565b9150505b92915050565b610777610b67565b6107816000610b94565b565b60008064e8d4a5100060025461271061079c9190610dcf565b6107a69190610de6565b9050611f408111156107c5576107bf60646101f4610e08565b91505090565b6107d08110156107dc576107bf6101f46064610dbc565b6101f491505090565b6000336001600160a01b037f0000000000000000000000000000000000000000000000000000000000000000161461085f5760405162461bcd60e51b815260206004820152601c60248201527f4f6e6c79205969656c644f7074696d697a65722063616e2063616c6c0000000060448201526064016103e8565b610867610b2f565b600082116108b75760405162461bcd60e51b815260206004820152601d60248201527f416d6f756e74206d7573742062652067726561746572207468616e203000000060448201526064016103e8565b6040516323b872dd60e01b81526001600160a01b037f000000000000000000000000000000000000000000000000000000000000000081166004830152306024830152604482018490527f000000000000000000000000000000000000000000000000000000000000000016906323b872dd906064016020604051808303816000875af115801561094c573d6000803e3d6000fd5b505050506040513d601f19601f820116820180604052508101906109709190610e1b565b50600061097c83610be4565b326000908152600560205260408120805492935083929091906109a0908490610dbc565b9091555050326000908152600660205260408120429055600780548392906109c9908490610dbc565b9250508190555082600260008282546109e29190610dbc565b909155506109f1905083610c6d565b604080518481526020810183905232917f73a19dd210f1a7f902193214c0ee91dd35ee5b4d920cba8d519eca65a7b488ca910160405180910390a2905061067a60018055565b610a3f610b67565b6040516323b872dd60e01b8152336004820152306024820152604481018290527f00000000000000000000000000000000000000000000000000000000000000006001600160a01b0316906323b872dd906064016020604051808303816000875af1158015610ab2573d6000803e3d6000fd5b505050506040513d601f19601f82011682018060405250810190610ad69190610e1b565b508060086000828254610ae99190610dbc565b909155505050565b610af9610b67565b6001600160a01b038116610b2357604051631e4fbdf760e01b8152600060048201526024016103e8565b610b2c81610b94565b50565b600260015403610b5257604051633ee5aeb560e01b815260040160405180910390fd5b6002600155565b6000610b63610c71565b5090565b6000546001600160a01b031633146107815760405163118cdaa760e01b81523360048201526024016103e8565b600080546001600160a01b038381166001600160a01b0319831681178455604051919092169283917f8be0079c531659141344cd1fd0a4f28419497f9722a3daafe3b4186f6b6457e09190a35050565b6000600754600003610bf4575090565b306001600160a01b03166312065fe06040518163ffffffff1660e01b8152600401602060405180830381865afa158015610c32573d6000803e3d6000fd5b505050506040513d601f19601f82011682018060405250810190610c569190610d8d565b600754610c639084610dcf565b6107699190610de6565b610b2c5b600060095442610c819190610e08565b9050610e108110158015610c9757506000600254115b15610b2c57600064496cebb80082610cad610783565b600254610cba9190610dcf565b610cc49190610dcf565b610cce9190610de6565b90508015610d25578060086000828254610ce89190610dbc565b9091555050426009556040518181527f6d1c76d614228b523baa4dcd9539e2c713b54ff4ab3ff2d1627e7f6cd32be4429060200160405180910390a15b5050565b600060208284031215610d3b57600080fd5b5035919050565b600060208284031215610d5457600080fd5b81356001600160a01b038116811461072c57600080fd5b60008060408385031215610d7e57600080fd5b50508035926020909101359150565b600060208284031215610d9f57600080fd5b5051919050565b634e487b7160e01b600052601160045260246000fd5b8082018082111561076957610769610da6565b808202811582820484141761076957610769610da6565b600082610e0357634e487b7160e01b600052601260045260246000fd5b500490565b8181038181111561076957610769610da6565b600060208284031215610e2d57600080fd5b8151801515811461072c57600080fdfea2646970667358221220122f4d898d638ea8dd3c41e70059d6c52c2b2d9afc742c4562f1ff9c4fdc75af64736f6c63430008140033",
  "linkReferences": {},
  "deployedLinkReferences": {}
}