{
  "_format": "hh-sol-artifact-1",
  "contractName": "YieldOptimizer",
  "sourceName": "contracts/YieldOptimizer.sol",
  "abi": [
    {
      "inputs": [
        {
          "internalType": "address",
          "name": "_usdt",
          "type": "address"
        }
      ],
      "stateMutability": "nonpayable",
      "type": "constructor"
    },
    {
      "inputs": [],
      "name": "EnforcedPause",
      "type": "error"
    },
    {
      "inputs": [],
      "name": "ExpectedPause",
      "type": "error"
    },
    {
      "inputs": [
        {
          "internalType": "address",
          "name": "owner",
          "type": "address"
        }
      ],
      "name": "OwnableInvalidOwner",
      "type": "error"
    },
    {
      "inputs": [
        {
          "internalType": "address",
          "name": "account",
          "type": "address"
        }
      ],
      "name": "OwnableUnauthorizedAccount",
      "type": "error"
    },
    {
      "inputs": [],
      "name": "ReentrancyGuardReentrantCall",
      "type": "error"
    },
    {
      "inputs": [
        {
          "internalType": "address",
          "name": "token",
          "type": "address"
        }
      ],
      "name": "SafeERC20FailedOperation",
      "type": "error"
    },
    {
      "anonymous": false,
      "inputs": [
        {
          "indexed": true,
          "internalType": "address",
          "name": "user",
          "type": "address"
        },
        {
          "indexed": false,
          "internalType": "uint256",
          "name": "strategyId",
          "type": "uint256"
        },
        {
          "indexed": false,
          "internalType": "uint256",
          "name": "confidence",
          "type": "uint256"
        }
      ],
      "name": "AIRecommendationUpdated",
      "type": "event"
    },
    {
      "anonymous": false,
      "inputs": [
        {
          "indexed": true,
          "internalType": "address",
          "name": "user",
          "type": "address"
        },
        {
          "indexed": false,
          "internalType": "uint256",
          "name": "amount",
          "type": "uint256"
        },
        {
          "indexed": false,
          "internalType": "uint256",
          "name": "strategyId",
          "type": "uint256"
        }
      ],
      "name": "DepositMade",
      "type": "event"
    },
    {
      "anonymous": false,
      "inputs": [
        {
          "indexed": true,
          "internalType": "address",
          "name": "previousOwner",
          "type": "address"
        },
        {
          "indexed": true,
          "internalType": "address",
          "name": "newOwner",
          "type": "address"
        }
      ],
      "name": "OwnershipTransferred",
      "type": "event"
    },
    {
      "anonymous": false,
      "inputs": [
        {
          "indexed": false,
          "internalType": "address",
          "name": "account",
          "type": "address"
        }
      ],
      "name": "Paused",
      "type": "event"
    },
    {
      "anonymous": false,
      "inputs": [
        {
          "indexed": true,
          "internalType": "address",
          "name": "user",
          "type": "address"
        },
        {
          "indexed": false,
          "internalType": "uint256",
          "name": "amount",
          "type": "uint256"
        }
      ],
      "name": "RewardsDistributed",
      "type": "event"
    },
    {
      "anonymous": false,
      "inputs": [
        {
          "indexed": true,
          "internalType": "address",
          "name": "user",
          "type": "address"
        },
        {
          "indexed": false,
          "internalType": "uint256",
          "name": "riskLevel",
          "type": "uint256"
        }
      ],
      "name": "RiskToleranceUpdated",
      "type": "event"
    },
    {
      "anonymous": false,
      "inputs": [
        {
          "indexed": true,
          "internalType": "uint256",
          "name": "strategyId",
          "type": "uint256"
        },
        {
          "indexed": false,
          "internalType": "string",
          "name": "name",
          "type": "string"
        },
        {
          "indexed": false,
          "internalType": "uint256",
          "name": "apy",
          "type": "uint256"
        }
      ],
      "name": "StrategyAdded",
      "type": "event"
    },
    {
      "anonymous": false,
      "inputs": [
        {
          "indexed": false,
          "internalType": "address",
          "name": "account",
          "type": "address"
        }
      ],
      "name": "Unpaused",
      "type": "event"
    },
    {
      "anonymous": false,
      "inputs": [
        {
          "indexed": true,
          "internalType": "address",
          "name": "user",
          "type": "address"
        },
        {
          "indexed": false,
          "internalType": "uint256",
          "name": "amount",
          "type": "uint256"
        },
        {
          "indexed": false,
          "internalType": "uint256",
          "name": "strategyId",
          "type": "uint256"
        }
      ],
      "name": "WithdrawalMade",
      "type": "event"
    },
    {
      "inputs": [],
      "name": "MAX_RISK_LEVEL",
      "outputs": [
        {
          "internalType": "uint256",
          "name": "",
          "type": "uint256"
        }
      ],
      "stateMutability": "view",
      "type": "function"
    },
    {
      "inputs": [],
      "name": "MAX_STRATEGIES",
      "outputs": [
        {
          "internalType": "uint256",
          "name": "",
          "type": "uint256"
        }
      ],
      "stateMutability": "view",
      "type": "function"
    },
    {
      "inputs": [],
      "name": "MIN_RISK_LEVEL",
      "outputs": [
        {
          "internalType": "uint256",
          "name": "",
          "type": "uint256"
        }
      ],
      "stateMutability": "view",
      "type": "function"
    },
    {
      "inputs": [],
      "name": "USDT",
      "outputs": [
        {
          "internalType": "contract IERC20",
          "name": "",
          "type": "address"
        }
      ],
      "stateMutability": "view",
      "type": "function"
    },
    {
      "inputs": [
        {
          "internalType": "string",
          "name": "_name",
          "type": "string"
        },
        {
          "internalType": "address",
          "name": "_strategy",
          "type": "address"
        },
        {
          "internalType": "uint256",
          "name": "_apy",
          "type": "uint256"
        },
        {
          "internalType": "uint256",
          "name": "_riskLevel",
          "type": "uint256"
        },
        {
          "internalType": "uint256",
          "name": "_minDeposit",
          "type": "uint256"
        },
        {
          "internalType": "uint256",
          "name": "_maxDeposit",
          "type": "uint256"
        }
      ],
      "name": "addStrategy",
      "outputs": [],
      "stateMutability": "nonpayable",
      "type": "function"
    },
    {
      "inputs": [
        {
          "internalType": "address",
          "name": "",
          "type": "address"
        }
      ],
      "name": "aiRecommendations",
      "outputs": [
        {
          "internalType": "uint256",
          "name": "strategyId",
          "type": "uint256"
        },
        {
          "internalType": "uint256",
          "name": "confidence",
          "type": "uint256"
        },
        {
          "internalType": "uint256",
          "name": "timestamp",
          "type": "uint256"
        },
        {
          "internalType": "string",
          "name": "reason",
          "type": "string"
        }
      ],
      "stateMutability": "view",
      "type": "function"
    },
    {
      "inputs": [
        {
          "internalType": "address",
          "name": "_user",
          "type": "address"
        },
        {
          "internalType": "uint256",
          "name": "_depositIndex",
          "type": "uint256"
        }
      ],
      "name": "calculateRewards",
      "outputs": [
        {
          "internalType": "uint256",
          "name": "",
          "type": "uint256"
        }
      ],
      "stateMutability": "view",
      "type": "function"
    },
    {
      "inputs": [
        {
          "internalType": "uint256",
          "name": "_amount",
          "type": "uint256"
        },
        {
          "internalType": "uint256",
          "name": "_strategyId",
          "type": "uint256"
        }
      ],
      "name": "deposit",
      "outputs": [],
      "stateMutability": "nonpayable",
      "type": "function"
    },
    {
      "inputs": [],
      "name": "emergencyWithdraw",
      "outputs": [],
      "stateMutability": "nonpayable",
      "type": "function"
    },
    {
      "inputs": [],
      "name": "getAllStrategies",
      "outputs": [
        {
          "components": [
            {
              "internalType": "uint256",
              "name": "id",
              "type": "uint256"
            },
            {
              "internalType": "string",
              "name": "name",
              "type": "string"
            },
            {
              "internalType": "address",
              "name": "strategy",
              "type": "address"
            },
            {
              "internalType": "uint256",
              "name": "apy",
              "type": "uint256"
            },
            {
              "internalType": "uint256",
              "name": "riskLevel",
              "type": "uint256"
            },
            {
              "internalType": "uint256",
              "name": "minDeposit",
              "type": "uint256"
            },
            {
              "internalType": "uint256",
              "name": "maxDeposit",
              "type": "uint256"
            },
            {
              "internalType": "bool",
              "name": "active",
              "type": "bool"
            }
          ],
          "internalType": "struct YieldOptimizer.YieldStrategy[]",
          "name": "",
          "type": "tuple[]"
        }
      ],
      "stateMutability": "view",
      "type": "function"
    },
    {
      "inputs": [
        {
          "internalType": "address",
          "name": "_user",
          "type": "address"
        }
      ],
      "name": "getOptimalStrategy",
      "outputs": [
        {
          "internalType": "uint256",
          "name": "",
          "type": "uint256"
        },
        {
          "internalType": "uint256",
          "name": "",
          "type": "uint256"
        }
      ],
      "stateMutability": "view",
      "type": "function"
    },
    {
      "inputs": [
        {
          "internalType": "uint256",
          "name": "_strategyId",
          "type": "uint256"
        }
      ],
      "name": "getStrategy",
      "outputs": [
        {
          "components": [
            {
              "internalType": "uint256",
              "name": "id",
              "type": "uint256"
            },
            {
              "internalType": "string",
              "name": "name",
              "type": "string"
            },
            {
              "internalType": "address",
              "name": "strategy",
              "type": "address"
            },
            {
              "internalType": "uint256",
              "name": "apy",
              "type": "uint256"
            },
            {
              "internalType": "uint256",
              "name": "riskLevel",
              "type": "uint256"
            },
            {
              "internalType": "uint256",
              "name": "minDeposit",
              "type": "uint256"
            },
            {
              "internalType": "uint256",
              "name": "maxDeposit",
              "type": "uint256"
            },
            {
              "internalType": "bool",
              "name": "active",
              "type": "bool"
            }
          ],
          "internalType": "struct YieldOptimizer.YieldStrategy",
          "name": "",
          "type": "tuple"
        }
      ],
      "stateMutability": "view",
      "type": "function"
    },
    {
      "inputs": [
        {
          "internalType": "address",
          "name": "_user",
          "type": "address"
        }
      ],
      "name": "getUserDeposits",
      "outputs": [
        {
          "components": [
            {
              "internalType": "uint256",
              "name": "amount",
              "type": "uint256"
            },
            {
              "internalType": "uint256",
              "name": "strategyId",
              "type": "uint256"
            },
            {
              "internalType": "uint256",
              "name": "depositTime",
              "type": "uint256"
            },
            {
              "internalType": "uint256",
              "name": "lastRewardTime",
              "type": "uint256"
            },
            {
              "internalType": "uint256",
              "name": "accumulatedRewards",
              "type": "uint256"
            }
          ],
          "internalType": "struct YieldOptimizer.UserDeposit[]",
          "name": "",
          "type": "tuple[]"
        }
      ],
      "stateMutability": "view",
      "type": "function"
    },
    {
      "inputs": [],
      "name": "owner",
      "outputs": [
        {
          "internalType": "address",
          "name": "",
          "type": "address"
        }
      ],
      "stateMutability": "view",
      "type": "function"
    },
    {
      "inputs": [],
      "name": "pause",
      "outputs": [],
      "stateMutability": "nonpayable",
      "type": "function"
    },
    {
      "inputs": [],
      "name": "paused",
      "outputs": [
        {
          "internalType": "bool",
          "name": "",
          "type": "bool"
        }
      ],
      "stateMutability": "view",
      "type": "function"
    },
    {
      "inputs": [],
      "name": "renounceOwnership",
      "outputs": [],
      "stateMutability": "nonpayable",
      "type": "function"
    },
    {
      "inputs": [
        {
          "internalType": "uint256",
          "name": "_riskLevel",
          "type": "uint256"
        }
      ],
      "name": "setUserRiskTolerance",
      "outputs": [],
      "stateMutability": "nonpayable",
      "type": "function"
    },
    {
      "inputs": [
        {
          "internalType": "uint256",
          "name": "",
          "type": "uint256"
        }
      ],
      "name": "strategies",
      "outputs": [
        {
          "internalType": "uint256",
          "name": "id",
          "type": "uint256"
        },
        {
          "internalType": "string",
          "name": "name",
          "type": "string"
        },
        {
          "internalType": "address",
          "name": "strategy",
          "type": "address"
        },
        {
          "internalType": "uint256",
          "name": "apy",
          "type": "uint256"
        },
        {
          "internalType": "uint256",
          "name": "riskLevel",
          "type": "uint256"
        },
        {
          "internalType": "uint256",
          "name": "minDeposit",
          "type": "uint256"
        },
        {
          "internalType": "uint256",
          "name": "maxDeposit",
          "type": "uint256"
        },
        {
          "internalType": "bool",
          "name": "active",
          "type": "bool"
        }
      ],
      "stateMutability": "view",
      "type": "function"
    },
    {
      "inputs": [],
      "name": "strategyCounter",
      "outputs": [
        {
          "internalType": "uint256",
          "name": "",
          "type": "uint256"
        }
      ],
      "stateMutability": "view",
      "type": "function"
    },
    {
      "inputs": [],
      "name": "totalValueLocked",
      "outputs": [
        {
          "internalType": "uint256",
          "name": "",
          "type": "uint256"
        }
      ],
      "stateMutability": "view",
      "type": "function"
    },
    {
      "inputs": [
        {
          "internalType": "address",
          "name": "newOwner",
          "type": "address"
        }
      ],
      "name": "transferOwnership",
      "outputs": [],
      "stateMutability": "nonpayable",
      "type": "function"
    },
    {
      "inputs": [],
      "name": "unpause",
      "outputs": [],
      "stateMutability": "nonpayable",
      "type": "function"
    },
    {
      "inputs": [
        {
          "internalType": "address",
          "name": "_user",
          "type": "address"
        },
        {
          "internalType": "uint256",
          "name": "_strategyId",
          "type": "uint256"
        },
        {
          "internalType": "uint256",
          "name": "_confidence",
          "type": "uint256"
        },
        {
          "internalType": "string",
          "name": "_reason",
          "type": "string"
        }
      ],
      "name": "updateAIRecommendation",
      "outputs": [],
      "stateMutability": "nonpayable",
      "type": "function"
    },
    {
      "inputs": [
        {
          "internalType": "uint256",
          "name": "_strategyId",
          "type": "uint256"
        },
        {
          "internalType": "bool",
          "name": "_active",
          "type": "bool"
        }
      ],
      "name": "updateStrategyStatus",
      "outputs": [],
      "stateMutability": "nonpayable",
      "type": "function"
    },
    {
      "inputs": [
        {
          "internalType": "address",
          "name": "",
          "type": "address"
        },
        {
          "internalType": "uint256",
          "name": "",
          "type": "uint256"
        }
      ],
      "name": "userDeposits",
      "outputs": [
        {
          "internalType": "uint256",
          "name": "amount",
          "type": "uint256"
        },
        {
          "internalType": "uint256",
          "name": "strategyId",
          "type": "uint256"
        },
        {
          "internalType": "uint256",
          "name": "depositTime",
          "type": "uint256"
        },
        {
          "internalType": "uint256",
          "name": "lastRewardTime",
          "type": "uint256"
        },
        {
          "internalType": "uint256",
          "name": "accumulatedRewards",
          "type": "uint256"
        }
      ],
      "stateMutability": "view",
      "type": "function"
    },
    {
      "inputs": [
        {
          "internalType": "address",
          "name": "",
          "type": "address"
        }
      ],
      "name": "userReputationScore",
      "outputs": [
        {
          "internalType": "uint256",
          "name": "",
          "type": "uint256"
        }
      ],
      "stateMutability": "view",
      "type": "function"
    },
    {
      "inputs": [
        {
          "internalType": "address",
          "name": "",
          "type": "address"
        }
      ],
      "name": "userRiskTolerance",
      "outputs": [
        {
          "internalType": "uint256",
          "name": "",
          "type": "uint256"
        }
      ],
      "stateMutability": "view",
      "type": "function"
    },
    {
      "inputs": [
        {
          "internalType": "uint256",
          "name": "_depositIndex",
          "type": "uint256"
        }
      ],
      "name": "withdraw",
      "outputs": [],
      "stateMutability": "nonpayable",
      "type": "function"
    }
  ],
  "bytecode": "0x60a06040523480156200001157600080fd5b5060405162002cea38038062002cea8339810160408190526200003491620000cd565b33806200005b57604051631e4fbdf760e01b81526000600482015260240160405180910390fd5b62000066816200007d565b50600180556001600160a01b0316608052620000ff565b600080546001600160a01b038381166001600160a01b0319831681178455604051919092169283917f8be0079c531659141344cd1fd0a4f28419497f9722a3daafe3b4186f6b6457e09190a35050565b600060208284031215620000e057600080fd5b81516001600160a01b0381168114620000f857600080fd5b9392505050565b608051612bac6200013e6000396000818161038b01528181610cd201528181611aac01528181611b4001528181611ed80152611f440152612bac6000f3fe608060405234801561001057600080fd5b50600436106101cf5760003560e01c806384ad46ed11610104578063d574ea3d116100a2578063ec18154e11610071578063ec18154e14610422578063f2fde38b1461042b578063f541d8901461043e578063ffb9feb31461045e57600080fd5b8063d574ea3d146103cd578063d79d6584146103f4578063db2e21bc14610407578063e2bbb1581461040f57600080fd5b8063beb8314c116100de578063beb8314c1461035e578063c3b2886414610371578063c54e44eb14610386578063cfc0cc34146103ad57600080fd5b806384ad46ed146102ee5780638da5cb5b14610316578063a1d12df51461033b57600080fd5b806356d81bf2116101715780636bc232721161014b5780636bc23272146102d6578063715018a6146102de578063767f06ae146101d45780638456cb59146102e657600080fd5b806356d81bf21461028d5780635c975abb146102a057806367a56cdb146102b657600080fd5b80632a5bf6d2116101ad5780632a5bf6d21461023f5780632e1a7d4d1461025f57806330748758146102725780633f4ba83a1461028557600080fd5b806304ed2b27146101d457806308f43333146101ef578063270f5ab91461022a575b600080fd5b6101dc600a81565b6040519081526020015b60405180910390f35b6102026101fd366004612504565b610467565b604080519586526020860194909452928401919091526060830152608082015260a0016101e6565b61023d6102383660046125d1565b6104b5565b005b61025261024d366004612641565b6108ec565b6040516101e69190612663565b61023d61026d3660046126d1565b610993565b61023d6102803660046126d1565b610d8f565b61023d610e3e565b61023d61029b3660046126f8565b610e50565b60025460ff1660405190151581526020016101e6565b6101dc6102c4366004612641565b60066020526000908152604090205481565b6101dc600181565b61023d610ed9565b61023d610eeb565b6103016102fc366004612641565b610efb565b604080519283526020830191909152016101e6565b6000546001600160a01b03165b6040516001600160a01b0390911681526020016101e6565b61034e610349366004612641565b6111c5565b6040516101e6949392919061276e565b6101dc61036c366004612504565b611278565b61037961147b565b6040516101e69190612811565b6103237f000000000000000000000000000000000000000000000000000000000000000081565b6103c06103bb3660046126d1565b611673565b6040516101e69190612873565b6103e06103db3660046126d1565b6117d2565b6040516101e6989796959493929190612886565b61023d6104023660046128de565b6118ab565b61023d611a73565b61023d61041d36600461293f565b611b67565b6101dc60095481565b61023d610439366004612641565b612164565b6101dc61044c366004612641565b60076020526000908152604090205481565b6101dc60085481565b6004602052816000526040600020818154811061048357600080fd5b600091825260209091206005909102018054600182015460028301546003840154600490940154929550909350919085565b6104bd6121b8565b82600181101580156104d05750600a8111155b6105215760405162461bcd60e51b815260206004820152601260248201527f496e76616c6964207269736b206c6576656c000000000000000000000000000060448201526064015b60405180910390fd5b600a600854106105735760405162461bcd60e51b815260206004820152601660248201527f4d617820737472617465676965732072656163686564000000000000000000006044820152606401610518565b6001600160a01b0386166105c95760405162461bcd60e51b815260206004820152601860248201527f496e76616c6964207374726174656779206164647265737300000000000000006044820152606401610518565b600085116106195760405162461bcd60e51b815260206004820152601a60248201527f415059206d7573742062652067726561746572207468616e20300000000000006044820152606401610518565b6000831161068f5760405162461bcd60e51b815260206004820152602260248201527f4d696e206465706f736974206d7573742062652067726561746572207468616e60448201527f20300000000000000000000000000000000000000000000000000000000000006064820152608401610518565b8282116107035760405162461bcd60e51b8152602060048201526024808201527f4d6178206465706f736974206d7573742062652067726561746572207468616e60448201527f206d696e000000000000000000000000000000000000000000000000000000006064820152608401610518565b856001600160a01b031663962ca4966040518163ffffffff1660e01b8152600401602060405180830381865afa92505050801561075d575060408051601f3d908101601f1916820190925261075a91810190612961565b60015b6107a95760405162461bcd60e51b815260206004820152601960248201527f496e76616c696420737472617465677920636f6e7472616374000000000000006044820152606401610518565b50600880549060006107ba83612990565b9091555050604080516101008101825260085480825260208083018b81526001600160a01b038b1684860152606084018a90526080840189905260a0840188905260c08401879052600160e085018190526000938452600390925293909120825181559251919291908201906108309082612a2b565b5060408281015160028301805473ffffffffffffffffffffffffffffffffffffffff19166001600160a01b03909216919091179055606083015160038301556080830151600483015560a0830151600583015560c0830151600683015560e0909201516007909101805460ff191691151591909117905560085490517f6775a9046bbe59478dd494d50a36e41b492553c450763494b97c3dc5bd4a93c3906108db908a908990612aeb565b60405180910390a250505050505050565b6001600160a01b0381166000908152600460209081526040808320805482518185028101850190935280835260609492939192909184015b8282101561098857838290600052602060002090600502016040518060a00160405290816000820154815260200160018201548152602001600282015481526020016003820154815260200160048201548152505081526020019060010190610924565b505050509050919050565b61099b6121fe565b3360009081526004602052604090205481106109f95760405162461bcd60e51b815260206004820152601560248201527f496e76616c6964206465706f73697420696e64657800000000000000000000006044820152606401610518565b336000908152600460205260408120805483908110610a1a57610a1a612b0d565b906000526020600020906005020190506000816000015411610a7e5760405162461bcd60e51b815260206004820152601960248201527f4465706f73697420616c72656164792077697468647261776e000000000000006044820152606401610518565b6000610a8a3384611278565b90506000818360000154610a9e9190612b23565b9050600060036000856001015481526020019081526020016000206040518061010001604052908160008201548152602001600182018054610adf906129a9565b80601f0160208091040260200160405190810160405280929190818152602001828054610b0b906129a9565b8015610b585780601f10610b2d57610100808354040283529160200191610b58565b820191906000526020600020905b815481529060010190602001808311610b3b57829003601f168201915b505050918352505060028201546001600160a01b0390811660208301526003830154604080840191909152600480850154606085015260058501546080850152600685015460a085015260079094015460ff16151560c09093019290925283820151885492517f2e1a7d4d0000000000000000000000000000000000000000000000000000000081529495501692632e1a7d4d92610bfb92910190815260200190565b6020604051808303816000875af1925050508015610c36575060408051601f3d908101601f19168201909252610c3391810190612961565b60015b610c825760405162461bcd60e51b815260206004820152601a60248201527f5374726174656779207769746864726177616c206661696c65640000000000006044820152606401610518565b845460098054600090610c96908490612b36565b90915550506000808655600486018054869290610cb4908490612b23565b90915550610cf9905033610cc88684612b23565b6001600160a01b037f0000000000000000000000000000000000000000000000000000000000000000169190612241565b337f2d4d49c3e017b8235c908cbaa83a2431a08f3b950712696ece2088964fd399f0610d258684612b23565b60018801546040805192835260208301919091520160405180910390a28315610d7e5760405184815233907fdf29796aad820e4bb192f3a8d631b76519bcd2cbe77cc85af20e9df53cece0869060200160405180910390a25b5050505050610d8c60018055565b50565b8060018110158015610da25750600a8111155b610dee5760405162461bcd60e51b815260206004820152601260248201527f496e76616c6964207269736b206c6576656c00000000000000000000000000006044820152606401610518565b3360008181526006602052604090819020849055517fd181e6b702884a9d5adf558a560eafb77643cbe83c250539d8ed3c4e35f3898790610e329085815260200190565b60405180910390a25050565b610e466121b8565b610e4e6122ba565b565b610e586121b8565b600082118015610e6a57506008548211155b610eb65760405162461bcd60e51b815260206004820152601360248201527f496e76616c6964207374726174656779204944000000000000000000000000006044820152606401610518565b600091825260036020526040909120600701805460ff1916911515919091179055565b610ee16121b8565b610e4e600061230c565b610ef36121b8565b610e4e612369565b600080600060056000856001600160a01b03166001600160a01b03168152602001908152602001600020604051806080016040529081600082015481526020016001820154815260200160028201548152602001600382018054610f5e906129a9565b80601f0160208091040260200160405190810160405280929190818152602001828054610f8a906129a9565b8015610fd75780601f10610fac57610100808354040283529160200191610fd7565b820191906000526020600020905b815481529060010190602001808311610fba57829003601f168201915b505050505081525050905060008160000151118015610ffb57506046816020015110155b156110125780516020909101519094909350915050565b6001600160a01b03841660009081526006602052604081205490819003611037575060055b60008060015b60085481116111b8576000600360008381526020019081526020016000206040518061010001604052908160008201548152602001600182018054611081906129a9565b80601f01602080910402602001604051908101604052809291908181526020018280546110ad906129a9565b80156110fa5780601f106110cf576101008083540402835291602001916110fa565b820191906000526020600020905b8154815290600101906020018083116110dd57829003601f168201915b505050918352505060028201546001600160a01b03166020820152600382015460408201526004820154606082015260058201546080820152600682015460a082015260079091015460ff16151560c09091015260e081015190915015806111655750848160800151115b1561117057506111a6565b60008160800151826060015160646111889190612b49565b6111929190612b60565b9050838111156111a3578093508294505b50505b806111b081612990565b91505061103d565b5090969095509350505050565b6005602052600090815260409020805460018201546002830154600384018054939492939192916111f5906129a9565b80601f0160208091040260200160405190810160405280929190818152602001828054611221906129a9565b801561126e5780601f106112435761010080835404028352916020019161126e565b820191906000526020600020905b81548152906001019060200180831161125157829003601f168201915b5050505050905084565b6001600160a01b03821660009081526004602052604081208054829190849081106112a5576112a5612b0d565b90600052602060002090600502016040518060a00160405290816000820154815260200160018201548152602001600282015481526020016003820154815260200160048201548152505090508060000151600003611308576000915050611475565b600060036000836020015181526020019081526020016000206040518061010001604052908160008201548152602001600182018054611347906129a9565b80601f0160208091040260200160405190810160405280929190818152602001828054611373906129a9565b80156113c05780601f10611395576101008083540402835291602001916113c0565b820191906000526020600020905b8154815290600101906020018083116113a357829003601f168201915b505050918352505060028201546001600160a01b0316602082015260038201546040820152600482015460608083019190915260058301546080830152600683015460a083015260079092015460ff16151560c09091015283015190915060009061142b9042612b36565b90506000612710836060015185600001516114469190612b49565b6114509190612b60565b905060006301e133806114638484612b49565b61146d9190612b60565b955050505050505b92915050565b6060600060085467ffffffffffffffff81111561149a5761149a61252e565b60405190808252806020026020018201604052801561151e57816020015b61150b604051806101000160405280600081526020016060815260200160006001600160a01b03168152602001600081526020016000815260200160008152602001600081526020016000151581525090565b8152602001906001900390816114b85790505b50905060015b600854811161166d57600360008281526020019081526020016000206040518061010001604052908160008201548152602001600182018054611566906129a9565b80601f0160208091040260200160405190810160405280929190818152602001828054611592906129a9565b80156115df5780601f106115b4576101008083540402835291602001916115df565b820191906000526020600020905b8154815290600101906020018083116115c257829003601f168201915b505050918352505060028201546001600160a01b03166020820152600382015460408201526004820154606082015260058201546080820152600682015460a082015260079091015460ff16151560c0909101528261163f600184612b36565b8151811061164f5761164f612b0d565b6020026020010181905250808061166590612990565b915050611524565b50919050565b6116c6604051806101000160405280600081526020016060815260200160006001600160a01b03168152602001600081526020016000815260200160008152602001600081526020016000151581525090565b6003600083815260200190815260200160002060405180610100016040529081600082015481526020016001820180546116ff906129a9565b80601f016020809104026020016040519081016040528092919081815260200182805461172b906129a9565b80156117785780601f1061174d57610100808354040283529160200191611778565b820191906000526020600020905b81548152906001019060200180831161175b57829003601f168201915b505050918352505060028201546001600160a01b03166020820152600382015460408201526004820154606082015260058201546080820152600682015460a082015260079091015460ff16151560c09091015292915050565b600360205260009081526040902080546001820180549192916117f4906129a9565b80601f0160208091040260200160405190810160405280929190818152602001828054611820906129a9565b801561186d5780601f106118425761010080835404028352916020019161186d565b820191906000526020600020905b81548152906001019060200180831161185057829003601f168201915b5050506002840154600385015460048601546005870154600688015460079098015496976001600160a01b0390941696929550909350919060ff1688565b6118b36121b8565b826000811180156118c657506008548111155b6119125760405162461bcd60e51b815260206004820152601360248201527f496e76616c6964207374726174656779204944000000000000000000000000006044820152606401610518565b60008181526003602052604090206007015460ff166119735760405162461bcd60e51b815260206004820152601360248201527f5374726174656779206e6f7420616374697665000000000000000000000000006044820152606401610518565b60648311156119c45760405162461bcd60e51b815260206004820152601960248201527f436f6e666964656e6365206d757374206265203c3d20313030000000000000006044820152606401610518565b60408051608081018252858152602080820186815242838501908152606084018781526001600160a01b038b16600090815260059094529490922083518155905160018201559051600282015591519091906003820190611a259082612a2b565b505060408051868152602081018690526001600160a01b03881692507f56dcb8b9e1d9aa7188454acada1f8f83371e1feb087d17a12e8e5967041338e1910160405180910390a25050505050565b611a7b6121b8565b6040517f70a082310000000000000000000000000000000000000000000000000000000081523060048201526000907f00000000000000000000000000000000000000000000000000000000000000006001600160a01b0316906370a0823190602401602060405180830381865afa158015611afb573d6000803e3d6000fd5b505050506040513d601f19601f82011682018060405250810190611b1f9190612961565b9050610d8c611b366000546001600160a01b031690565b6001600160a01b037f0000000000000000000000000000000000000000000000000000000000000000169083612241565b611b6f6121fe565b611b776123a6565b80600081118015611b8a57506008548111155b611bd65760405162461bcd60e51b815260206004820152601360248201527f496e76616c6964207374726174656779204944000000000000000000000000006044820152606401610518565b60008181526003602052604090206007015460ff16611c375760405162461bcd60e51b815260206004820152601360248201527f5374726174656779206e6f7420616374697665000000000000000000000000006044820152606401610518565b60008311611c875760405162461bcd60e51b815260206004820152601d60248201527f416d6f756e74206d7573742062652067726561746572207468616e20300000006044820152606401610518565b6000600360008481526020019081526020016000206040518061010001604052908160008201548152602001600182018054611cc2906129a9565b80601f0160208091040260200160405190810160405280929190818152602001828054611cee906129a9565b8015611d3b5780601f10611d1057610100808354040283529160200191611d3b565b820191906000526020600020905b815481529060010190602001808311611d1e57829003601f168201915b505050918352505060028201546001600160a01b03166020820152600382015460408201526004820154606082015260058201546080820152600682015460a08083019190915260079092015460ff16151560c090910152810151909150841015611de85760405162461bcd60e51b815260206004820152601c60248201527f416d6f756e742062656c6f77206d696e696d756d206465706f736974000000006044820152606401610518565b8060c00151841115611e3c5760405162461bcd60e51b815260206004820152601e60248201527f416d6f756e742065786365656473206d6178696d756d206465706f73697400006044820152606401610518565b336000908152600660205260409020548015611ecb578082608001511115611ecb5760405162461bcd60e51b8152602060048201526024808201527f537472617465677920657863656564732075736572207269736b20746f6c657260448201527f616e6365000000000000000000000000000000000000000000000000000000006064820152608401610518565b611f006001600160a01b037f0000000000000000000000000000000000000000000000000000000000000000163330886123e3565b60408281015190517f095ea7b30000000000000000000000000000000000000000000000000000000081526001600160a01b039182166004820152602481018790527f00000000000000000000000000000000000000000000000000000000000000009091169063095ea7b3906044016020604051808303816000875af1158015611f8f573d6000803e3d6000fd5b505050506040513d601f19601f82011682018060405250810190611fb39190612b82565b5081604001516001600160a01b031663b6b55f25866040518263ffffffff1660e01b8152600401611fe691815260200190565b6020604051808303816000875af1925050508015612021575060408051601f3d908101601f1916820190925261201e91810190612961565b60015b61206d5760405162461bcd60e51b815260206004820152601760248201527f5374726174656779206465706f736974206661696c65640000000000000000006044820152606401610518565b336000908152600460208181526040808420815160a0810183528b81528084018b8152429382018481526060830194855260808301888152845460018181018755958a5296892093516005909702909301958655905192850192909255905160028401559051600383015551910155600980548892906120ee908490612b23565b9091555050336000908152600760205260408120805460019290612113908490612b23565b9091555050604080518781526020810187905233917f0b05f0d1cd0819f155b8a61f60baf7767c1ee49d04aeaab701df236140eb93f9910160405180910390a25050505061216060018055565b5050565b61216c6121b8565b6001600160a01b0381166121af576040517f1e4fbdf700000000000000000000000000000000000000000000000000000000815260006004820152602401610518565b610d8c8161230c565b6000546001600160a01b03163314610e4e576040517f118cdaa7000000000000000000000000000000000000000000000000000000008152336004820152602401610518565b60026001540361223a576040517f3ee5aeb500000000000000000000000000000000000000000000000000000000815260040160405180910390fd5b6002600155565b6040516001600160a01b038381166024830152604482018390526122b591859182169063a9059cbb906064015b604051602081830303815290604052915060e01b6020820180517bffffffffffffffffffffffffffffffffffffffffffffffffffffffff8381831617835250505050612422565b505050565b6122c26124ac565b6002805460ff191690557f5db9ee0a495bf2e6ff9c91a7834c1ba4fdd244a5e8aa4e537bd38aeae4b073aa335b6040516001600160a01b03909116815260200160405180910390a1565b600080546001600160a01b0383811673ffffffffffffffffffffffffffffffffffffffff19831681178455604051919092169283917f8be0079c531659141344cd1fd0a4f28419497f9722a3daafe3b4186f6b6457e09190a35050565b6123716123a6565b6002805460ff191660011790557f62e78cea01bee320cd4e420270b5ea74000d11b0c9f74754ebdbfc544b05a2586122ef3390565b60025460ff1615610e4e576040517fd93c066500000000000000000000000000000000000000000000000000000000815260040160405180910390fd5b6040516001600160a01b03848116602483015283811660448301526064820183905261241c9186918216906323b872dd9060840161226e565b50505050565b600080602060008451602086016000885af180612445576040513d6000823e3d81fd5b50506000513d9150811561245d57806001141561246a565b6001600160a01b0384163b155b1561241c576040517f5274afe70000000000000000000000000000000000000000000000000000000081526001600160a01b0385166004820152602401610518565b60025460ff16610e4e576040517f8dfc202b00000000000000000000000000000000000000000000000000000000815260040160405180910390fd5b80356001600160a01b03811681146124ff57600080fd5b919050565b6000806040838503121561251757600080fd5b612520836124e8565b946020939093013593505050565b634e487b7160e01b600052604160045260246000fd5b600082601f83011261255557600080fd5b813567ffffffffffffffff808211156125705761257061252e565b604051601f8301601f19908116603f011681019082821181831017156125985761259861252e565b816040528381528660208588010111156125b157600080fd5b836020870160208301376000602085830101528094505050505092915050565b60008060008060008060c087890312156125ea57600080fd5b863567ffffffffffffffff81111561260157600080fd5b61260d89828a01612544565b96505061261c602088016124e8565b95989597505050506040840135936060810135936080820135935060a0909101359150565b60006020828403121561265357600080fd5b61265c826124e8565b9392505050565b602080825282518282018190526000919060409081850190868401855b828110156126c45781518051855286810151878601528581015186860152606080820151908601526080908101519085015260a09093019290850190600101612680565b5091979650505050505050565b6000602082840312156126e357600080fd5b5035919050565b8015158114610d8c57600080fd5b6000806040838503121561270b57600080fd5b82359150602083013561271d816126ea565b809150509250929050565b6000815180845260005b8181101561274e57602081850181015186830182015201612732565b506000602082860101526020601f19601f83011685010191505092915050565b8481528360208201528260408201526080606082015260006127936080830184612728565b9695505050505050565b60006101008251845260208301518160208601526127bd82860182612728565b9150506001600160a01b036040840151166040850152606083015160608501526080830151608085015260a083015160a085015260c083015160c085015260e0830151151560e08501528091505092915050565b6000602080830181845280855180835260408601915060408160051b870101925083870160005b8281101561286657603f1988860301845261285485835161279d565b94509285019290850190600101612838565b5092979650505050505050565b60208152600061265c602083018461279d565b60006101008a83528060208401526128a08184018b612728565b6001600160a01b0399909916604084015250506060810195909552608085019390935260a084019190915260c0830152151560e09091015292915050565b600080600080608085870312156128f457600080fd5b6128fd856124e8565b93506020850135925060408501359150606085013567ffffffffffffffff81111561292757600080fd5b61293387828801612544565b91505092959194509250565b6000806040838503121561295257600080fd5b50508035926020909101359150565b60006020828403121561297357600080fd5b5051919050565b634e487b7160e01b600052601160045260246000fd5b6000600182016129a2576129a261297a565b5060010190565b600181811c908216806129bd57607f821691505b60208210810361166d57634e487b7160e01b600052602260045260246000fd5b601f8211156122b557600081815260208120601f850160051c81016020861015612a045750805b601f850160051c820191505b81811015612a2357828155600101612a10565b505050505050565b815167ffffffffffffffff811115612a4557612a4561252e565b612a5981612a5384546129a9565b846129dd565b602080601f831160018114612a8e5760008415612a765750858301515b600019600386901b1c1916600185901b178555612a23565b600085815260208120601f198616915b82811015612abd57888601518255948401946001909101908401612a9e565b5085821015612adb5787850151600019600388901b60f8161c191681555b5050505050600190811b01905550565b604081526000612afe6040830185612728565b90508260208301529392505050565b634e487b7160e01b600052603260045260246000fd5b808201808211156114755761147561297a565b818103818111156114755761147561297a565b80820281158282048414176114755761147561297a565b600082612b7d57634e487b7160e01b600052601260045260246000fd5b500490565b600060208284031215612b9457600080fd5b815161265c816126ea56fea164736f6c6343000814000a",
  "linkReferences": {},
  "deployedLinkReferences": {}
}