{
  "_format": "hh-sol-artifact-1",
  "contractName": "YieldOptimizer",
  "sourceName": "contracts/YieldOptimizer.sol",
  "abi": [
    {
      "inputs": [
        {
          "internalType": "address",
          "name": "_usdt",
          "type": "address"
        }
      ],
      "stateMutability": "nonpayable",
      "type": "constructor"
    },
    {
      "inputs": [],
      "name": "EnforcedPause",
      "type": "error"
    },
    {
      "inputs": [],
      "name": "ExpectedPause",
      "type": "error"
    },
    {
      "inputs": [
        {
          "internalType": "address",
          "name": "owner",
          "type": "address"
        }
      ],
      "name": "OwnableInvalidOwner",
      "type": "error"
    },
    {
      "inputs": [
        {
          "internalType": "address",
          "name": "account",
          "type": "address"
        }
      ],
      "name": "OwnableUnauthorizedAccount",
      "type": "error"
    },
    {
      "inputs": [],
      "name": "ReentrancyGuardReentrantCall",
      "type": "error"
    },
    {
      "inputs": [
        {
          "internalType": "address",
          "name": "token",
          "type": "address"
        }
      ],
      "name": "SafeERC20FailedOperation",
      "type": "error"
    },
    {
      "anonymous": false,
      "inputs": [
        {
          "indexed": true,
          "internalType": "address",
          "name": "user",
          "type": "address"
        },
        {
          "indexed": false,
          "internalType": "uint256",
          "name": "strategyId",
          "type": "uint256"
        },
        {
          "indexed": false,
          "internalType": "uint256",
          "name": "confidence",
          "type": "uint256"
        }
      ],
      "name": "AIRecommendationUpdated",
      "type": "event"
    },
    {
      "anonymous": false,
      "inputs": [
        {
          "indexed": true,
          "internalType": "address",
          "name": "user",
          "type": "address"
        },
        {
          "indexed": false,
          "internalType": "uint256",
          "name": "amount",
          "type": "uint256"
        },
        {
          "indexed": false,
          "internalType": "uint256",
          "name": "strategyId",
          "type": "uint256"
        }
      ],
      "name": "DepositMade",
      "type": "event"
    },
    {
      "anonymous": false,
      "inputs": [
        {
          "indexed": true,
          "internalType": "address",
          "name": "previousOwner",
          "type": "address"
        },
        {
          "indexed": true,
          "internalType": "address",
          "name": "newOwner",
          "type": "address"
        }
      ],
      "name": "OwnershipTransferred",
      "type": "event"
    },
    {
      "anonymous": false,
      "inputs": [
        {
          "indexed": false,
          "internalType": "address",
          "name": "account",
          "type": "address"
        }
      ],
      "name": "Paused",
      "type": "event"
    },
    {
      "anonymous": false,
      "inputs": [
        {
          "indexed": true,
          "internalType": "address",
          "name": "user",
          "type": "address"
        },
        {
          "indexed": false,
          "internalType": "uint256",
          "name": "amount",
          "type": "uint256"
        }
      ],
      "name": "RewardsDistributed",
      "type": "event"
    },
    {
      "anonymous": false,
      "inputs": [
        {
          "indexed": true,
          "internalType": "address",
          "name": "user",
          "type": "address"
        },
        {
          "indexed": false,
          "internalType": "uint256",
          "name": "riskLevel",
          "type": "uint256"
        }
      ],
      "name": "RiskToleranceUpdated",
      "type": "event"
    },
    {
      "anonymous": false,
      "inputs": [
        {
          "indexed": true,
          "internalType": "uint256",
          "name": "strategyId",
          "type": "uint256"
        },
        {
          "indexed": false,
          "internalType": "string",
          "name": "name",
          "type": "string"
        },
        {
          "indexed": false,
          "internalType": "uint256",
          "name": "apy",
          "type": "uint256"
        }
      ],
      "name": "StrategyAdded",
      "type": "event"
    },
    {
      "anonymous": false,
      "inputs": [
        {
          "indexed": false,
          "internalType": "address",
          "name": "account",
          "type": "address"
        }
      ],
      "name": "Unpaused",
      "type": "event"
    },
    {
      "anonymous": false,
      "inputs": [
        {
          "indexed": true,
          "internalType": "address",
          "name": "user",
          "type": "address"
        },
        {
          "indexed": false,
          "internalType": "uint256",
          "name": "amount",
          "type": "uint256"
        },
        {
          "indexed": false,
          "internalType": "uint256",
          "name": "strategyId",
          "type": "uint256"
        }
      ],
      "name": "WithdrawalMade",
      "type": "event"
    },
    {
      "inputs": [],
      "name": "MAX_RISK_LEVEL",
      "outputs": [
        {
          "internalType": "uint256",
          "name": "",
          "type": "uint256"
        }
      ],
      "stateMutability": "view",
      "type": "function"
    },
    {
      "inputs": [],
      "name": "MAX_STRATEGIES",
      "outputs": [
        {
          "internalType": "uint256",
          "name": "",
          "type": "uint256"
        }
      ],
      "stateMutability": "view",
      "type": "function"
    },
    {
      "inputs": [],
      "name": "MIN_RISK_LEVEL",
      "outputs": [
        {
          "internalType": "uint256",
          "name": "",
          "type": "uint256"
        }
      ],
      "stateMutability": "view",
      "type": "function"
    },
    {
      "inputs": [],
      "name": "USDT",
      "outputs": [
        {
          "internalType": "contract IERC20",
          "name": "",
          "type": "address"
        }
      ],
      "stateMutability": "view",
      "type": "function"
    },
    {
      "inputs": [
        {
          "internalType": "string",
          "name": "_name",
          "type": "string"
        },
        {
          "internalType": "address",
          "name": "_strategy",
          "type": "address"
        },
        {
          "internalType": "uint256",
          "name": "_apy",
          "type": "uint256"
        },
        {
          "internalType": "uint256",
          "name": "_riskLevel",
          "type": "uint256"
        },
        {
          "internalType": "uint256",
          "name": "_minDeposit",
          "type": "uint256"
        },
        {
          "internalType": "uint256",
          "name": "_maxDeposit",
          "type": "uint256"
        }
      ],
      "name": "addStrategy",
      "outputs": [],
      "stateMutability": "nonpayable",
      "type": "function"
    },
    {
      "inputs": [
        {
          "internalType": "address",
          "name": "",
          "type": "address"
        }
      ],
      "name": "aiRecommendations",
      "outputs": [
        {
          "internalType": "uint256",
          "name": "strategyId",
          "type": "uint256"
        },
        {
          "internalType": "uint256",
          "name": "confidence",
          "type": "uint256"
        },
        {
          "internalType": "uint256",
          "name": "timestamp",
          "type": "uint256"
        },
        {
          "internalType": "string",
          "name": "reason",
          "type": "string"
        }
      ],
      "stateMutability": "view",
      "type": "function"
    },
    {
      "inputs": [
        {
          "internalType": "address",
          "name": "_user",
          "type": "address"
        },
        {
          "internalType": "uint256",
          "name": "_depositIndex",
          "type": "uint256"
        }
      ],
      "name": "calculateRewards",
      "outputs": [
        {
          "internalType": "uint256",
          "name": "",
          "type": "uint256"
        }
      ],
      "stateMutability": "view",
      "type": "function"
    },
    {
      "inputs": [
        {
          "internalType": "uint256",
          "name": "_amount",
          "type": "uint256"
        },
        {
          "internalType": "uint256",
          "name": "_strategyId",
          "type": "uint256"
        }
      ],
      "name": "deposit",
      "outputs": [],
      "stateMutability": "nonpayable",
      "type": "function"
    },
    {
      "inputs": [],
      "name": "emergencyWithdraw",
      "outputs": [],
      "stateMutability": "nonpayable",
      "type": "function"
    },
    {
      "inputs": [],
      "name": "getAllStrategies",
      "outputs": [
        {
          "components": [
            {
              "internalType": "uint256",
              "name": "id",
              "type": "uint256"
            },
            {
              "internalType": "string",
              "name": "name",
              "type": "string"
            },
            {
              "internalType": "address",
              "name": "strategy",
              "type": "address"
            },
            {
              "internalType": "uint256",
              "name": "apy",
              "type": "uint256"
            },
            {
              "internalType": "uint256",
              "name": "riskLevel",
              "type": "uint256"
            },
            {
              "internalType": "uint256",
              "name": "minDeposit",
              "type": "uint256"
            },
            {
              "internalType": "uint256",
              "name": "maxDeposit",
              "type": "uint256"
            },
            {
              "internalType": "bool",
              "name": "active",
              "type": "bool"
            }
          ],
          "internalType": "struct YieldOptimizer.YieldStrategy[]",
          "name": "",
          "type": "tuple[]"
        }
      ],
      "stateMutability": "view",
      "type": "function"
    },
    {
      "inputs": [
        {
          "internalType": "address",
          "name": "_user",
          "type": "address"
        }
      ],
      "name": "getOptimalStrategy",
      "outputs": [
        {
          "internalType": "uint256",
          "name": "",
          "type": "uint256"
        },
        {
          "internalType": "uint256",
          "name": "",
          "type": "uint256"
        }
      ],
      "stateMutability": "view",
      "type": "function"
    },
    {
      "inputs": [
        {
          "internalType": "uint256",
          "name": "_strategyId",
          "type": "uint256"
        }
      ],
      "name": "getStrategy",
      "outputs": [
        {
          "components": [
            {
              "internalType": "uint256",
              "name": "id",
              "type": "uint256"
            },
            {
              "internalType": "string",
              "name": "name",
              "type": "string"
            },
            {
              "internalType": "address",
              "name": "strategy",
              "type": "address"
            },
            {
              "internalType": "uint256",
              "name": "apy",
              "type": "uint256"
            },
            {
              "internalType": "uint256",
              "name": "riskLevel",
              "type": "uint256"
            },
            {
              "internalType": "uint256",
              "name": "minDeposit",
              "type": "uint256"
            },
            {
              "internalType": "uint256",
              "name": "maxDeposit",
              "type": "uint256"
            },
            {
              "internalType": "bool",
              "name": "active",
              "type": "bool"
            }
          ],
          "internalType": "struct YieldOptimizer.YieldStrategy",
          "name": "",
          "type": "tuple"
        }
      ],
      "stateMutability": "view",
      "type": "function"
    },
    {
      "inputs": [
        {
          "internalType": "address",
          "name": "_user",
          "type": "address"
        }
      ],
      "name": "getUserDeposits",
      "outputs": [
        {
          "components": [
            {
              "internalType": "uint256",
              "name": "amount",
              "type": "uint256"
            },
            {
              "internalType": "uint256",
              "name": "strategyId",
              "type": "uint256"
            },
            {
              "internalType": "uint256",
              "name": "depositTime",
              "type": "uint256"
            },
            {
              "internalType": "uint256",
              "name": "lastRewardTime",
              "type": "uint256"
            },
            {
              "internalType": "uint256",
              "name": "accumulatedRewards",
              "type": "uint256"
            }
          ],
          "internalType": "struct YieldOptimizer.UserDeposit[]",
          "name": "",
          "type": "tuple[]"
        }
      ],
      "stateMutability": "view",
      "type": "function"
    },
    {
      "inputs": [],
      "name": "owner",
      "outputs": [
        {
          "internalType": "address",
          "name": "",
          "type": "address"
        }
      ],
      "stateMutability": "view",
      "type": "function"
    },
    {
      "inputs": [],
      "name": "pause",
      "outputs": [],
      "stateMutability": "nonpayable",
      "type": "function"
    },
    {
      "inputs": [],
      "name": "paused",
      "outputs": [
        {
          "internalType": "bool",
          "name": "",
          "type": "bool"
        }
      ],
      "stateMutability": "view",
      "type": "function"
    },
    {
      "inputs": [],
      "name": "renounceOwnership",
      "outputs": [],
      "stateMutability": "nonpayable",
      "type": "function"
    },
    {
      "inputs": [
        {
          "internalType": "uint256",
          "name": "_riskLevel",
          "type": "uint256"
        }
      ],
      "name": "setUserRiskTolerance",
      "outputs": [],
      "stateMutability": "nonpayable",
      "type": "function"
    },
    {
      "inputs": [
        {
          "internalType": "uint256",
          "name": "",
          "type": "uint256"
        }
      ],
      "name": "strategies",
      "outputs": [
        {
          "internalType": "uint256",
          "name": "id",
          "type": "uint256"
        },
        {
          "internalType": "string",
          "name": "name",
          "type": "string"
        },
        {
          "internalType": "address",
          "name": "strategy",
          "type": "address"
        },
        {
          "internalType": "uint256",
          "name": "apy",
          "type": "uint256"
        },
        {
          "internalType": "uint256",
          "name": "riskLevel",
          "type": "uint256"
        },
        {
          "internalType": "uint256",
          "name": "minDeposit",
          "type": "uint256"
        },
        {
          "internalType": "uint256",
          "name": "maxDeposit",
          "type": "uint256"
        },
        {
          "internalType": "bool",
          "name": "active",
          "type": "bool"
        }
      ],
      "stateMutability": "view",
      "type": "function"
    },
    {
      "inputs": [],
      "name": "strategyCounter",
      "outputs": [
        {
          "internalType": "uint256",
          "name": "",
          "type": "uint256"
        }
      ],
      "stateMutability": "view",
      "type": "function"
    },
    {
      "inputs": [],
      "name": "totalValueLocked",
      "outputs": [
        {
          "internalType": "uint256",
          "name": "",
          "type": "uint256"
        }
      ],
      "stateMutability": "view",
      "type": "function"
    },
    {
      "inputs": [
        {
          "internalType": "address",
          "name": "newOwner",
          "type": "address"
        }
      ],
      "name": "transferOwnership",
      "outputs": [],
      "stateMutability": "nonpayable",
      "type": "function"
    },
    {
      "inputs": [],
      "name": "unpause",
      "outputs": [],
      "stateMutability": "nonpayable",
      "type": "function"
    },
    {
      "inputs": [
        {
          "internalType": "address",
          "name": "_user",
          "type": "address"
        },
        {
          "internalType": "uint256",
          "name": "_strategyId",
          "type": "uint256"
        },
        {
          "internalType": "uint256",
          "name": "_confidence",
          "type": "uint256"
        },
        {
          "internalType": "string",
          "name": "_reason",
          "type": "string"
        }
      ],
      "name": "updateAIRecommendation",
      "outputs": [],
      "stateMutability": "nonpayable",
      "type": "function"
    },
    {
      "inputs": [
        {
          "internalType": "uint256",
          "name": "_strategyId",
          "type": "uint256"
        },
        {
          "internalType": "bool",
          "name": "_active",
          "type": "bool"
        }
      ],
      "name": "updateStrategyStatus",
      "outputs": [],
      "stateMutability": "nonpayable",
      "type": "function"
    },
    {
      "inputs": [
        {
          "internalType": "address",
          "name": "",
          "type": "address"
        },
        {
          "internalType": "uint256",
          "name": "",
          "type": "uint256"
        }
      ],
      "name": "userDeposits",
      "outputs": [
        {
          "internalType": "uint256",
          "name": "amount",
          "type": "uint256"
        },
        {
          "internalType": "uint256",
          "name": "strategyId",
          "type": "uint256"
        },
        {
          "internalType": "uint256",
          "name": "depositTime",
          "type": "uint256"
        },
        {
          "internalType": "uint256",
          "name": "lastRewardTime",
          "type": "uint256"
        },
        {
          "internalType": "uint256",
          "name": "accumulatedRewards",
          "type": "uint256"
        }
      ],
      "stateMutability": "view",
      "type": "function"
    },
    {
      "inputs": [
        {
          "internalType": "address",
          "name": "",
          "type": "address"
        }
      ],
      "name": "userReputationScore",
      "outputs": [
        {
          "internalType": "uint256",
          "name": "",
          "type": "uint256"
        }
      ],
      "stateMutability": "view",
      "type": "function"
    },
    {
      "inputs": [
        {
          "internalType": "address",
          "name": "",
          "type": "address"
        }
      ],
      "name": "userRiskTolerance",
      "outputs": [
        {
          "internalType": "uint256",
          "name": "",
          "type": "uint256"
        }
      ],
      "stateMutability": "view",
      "type": "function"
    },
    {
      "inputs": [
        {
          "internalType": "uint256",
          "name": "_depositIndex",
          "type": "uint256"
        }
      ],
      "name": "withdraw",
      "outputs": [],
      "stateMutability": "nonpayable",
      "type": "function"
    }
  ],
  "bytecode": "0x60a06040523480156200001157600080fd5b5060405162002ad338038062002ad38339810160408190526200003491620000cd565b33806200005b57604051631e4fbdf760e01b81526000600482015260240160405180910390fd5b62000066816200007d565b50600180556001600160a01b0316608052620000ff565b600080546001600160a01b038381166001600160a01b0319831681178455604051919092169283917f8be0079c531659141344cd1fd0a4f28419497f9722a3daafe3b4186f6b6457e09190a35050565b600060208284031215620000e057600080fd5b81516001600160a01b0381168114620000f857600080fd5b9392505050565b6080516129956200013e6000396000818161038b01528181610c5e01528181611914015281816119a801528181611ced0152611d4001526129956000f3fe608060405234801561001057600080fd5b50600436106101cf5760003560e01c806384ad46ed11610104578063d574ea3d116100a2578063ec18154e11610071578063ec18154e14610422578063f2fde38b1461042b578063f541d8901461043e578063ffb9feb31461045e57600080fd5b8063d574ea3d146103cd578063d79d6584146103f4578063db2e21bc14610407578063e2bbb1581461040f57600080fd5b8063beb8314c116100de578063beb8314c1461035e578063c3b2886414610371578063c54e44eb14610386578063cfc0cc34146103ad57600080fd5b806384ad46ed146102ee5780638da5cb5b14610316578063a1d12df51461033b57600080fd5b806356d81bf2116101715780636bc232721161014b5780636bc23272146102d6578063715018a6146102de578063767f06ae146101d45780638456cb59146102e657600080fd5b806356d81bf21461028d5780635c975abb146102a057806367a56cdb146102b657600080fd5b80632a5bf6d2116101ad5780632a5bf6d21461023f5780632e1a7d4d1461025f57806330748758146102725780633f4ba83a1461028557600080fd5b806304ed2b27146101d457806308f43333146101ef578063270f5ab91461022a575b600080fd5b6101dc600a81565b6040519081526020015b60405180910390f35b6102026101fd366004612298565b610467565b604080519586526020860194909452928401919091526060830152608082015260a0016101e6565b61023d610238366004612365565b6104b5565b005b61025261024d3660046123d5565b610899565b6040516101e691906123f7565b61023d61026d366004612465565b610940565b61023d610280366004612465565b610d1b565b61023d610dbf565b61023d61029b36600461248c565b610dd1565b60025460ff1660405190151581526020016101e6565b6101dc6102c43660046123d5565b60066020526000908152604090205481565b6101dc600181565b61023d610e2a565b61023d610e3c565b6103016102fc3660046123d5565b610e4c565b604080519283526020830191909152016101e6565b6000546001600160a01b03165b6040516001600160a01b0390911681526020016101e6565b61034e6103493660046123d5565b611116565b6040516101e69493929190612502565b6101dc61036c366004612298565b6111c9565b6103796113cc565b6040516101e691906125a4565b6103237f000000000000000000000000000000000000000000000000000000000000000081565b6103c06103bb366004612465565b611579565b6040516101e69190612606565b6103e06103db366004612465565b61168d565b6040516101e6989796959493929190612619565b61023d610402366004612671565b611766565b61023d6118f4565b61023d61041d3660046126d2565b6119cf565b6101dc60095481565b61023d6104393660046123d5565b611f60565b6101dc61044c3660046123d5565b60076020526000908152604090205481565b6101dc60085481565b6004602052816000526040600020818154811061048357600080fd5b600091825260209091206005909102018054600182015460028301546003840154600490940154929550909350919085565b6104bd611f9b565b82600181101580156104d05750600a8111155b6105165760405162461bcd60e51b8152602060048201526012602482015271125b9d985b1a59081c9a5cdac81b195d995b60721b60448201526064015b60405180910390fd5b600a600854106105615760405162461bcd60e51b815260206004820152601660248201527513585e081cdd1c985d1959da595cc81c995858da195960521b604482015260640161050d565b6001600160a01b0386166105b75760405162461bcd60e51b815260206004820152601860248201527f496e76616c696420737472617465677920616464726573730000000000000000604482015260640161050d565b600085116106075760405162461bcd60e51b815260206004820152601a60248201527f415059206d7573742062652067726561746572207468616e2030000000000000604482015260640161050d565b600083116106625760405162461bcd60e51b815260206004820152602260248201527f4d696e206465706f736974206d7573742062652067726561746572207468616e604482015261020360f41b606482015260840161050d565b8282116106bd5760405162461bcd60e51b8152602060048201526024808201527f4d6178206465706f736974206d7573742062652067726561746572207468616e6044820152631036b4b760e11b606482015260840161050d565b856001600160a01b031663962ca4966040518163ffffffff1660e01b8152600401602060405180830381865afa925050508015610717575060408051601f3d908101601f19168201909252610714918101906126f4565b60015b6107635760405162461bcd60e51b815260206004820152601960248201527f496e76616c696420737472617465677920636f6e747261637400000000000000604482015260640161050d565b506008805490600061077483612723565b9091555050604080516101008101825260085480825260208083018b81526001600160a01b038b1684860152606084018a90526080840189905260a0840188905260c08401879052600160e085018190526000938452600390925293909120825181559251919291908201906107ea90826127be565b506040828101516002830180546001600160a01b0319166001600160a01b03909216919091179055606083015160038301556080830151600483015560a0830151600583015560c0830151600683015560e0909201516007909101805460ff191691151591909117905560085490517f6775a9046bbe59478dd494d50a36e41b492553c450763494b97c3dc5bd4a93c390610888908a90899061287e565b60405180910390a250505050505050565b6001600160a01b0381166000908152600460209081526040808320805482518185028101850190935280835260609492939192909184015b8282101561093557838290600052602060002090600502016040518060a001604052908160008201548152602001600182015481526020016002820154815260200160038201548152602001600482015481525050815260200190600101906108d1565b505050509050919050565b610948611fc8565b33600090815260046020526040902054811061099e5760405162461bcd60e51b8152602060048201526015602482015274092dcecc2d8d2c840c8cae0dee6d2e840d2dcc8caf605b1b604482015260640161050d565b3360009081526004602052604081208054839081106109bf576109bf6128a0565b906000526020600020906005020190506000816000015411610a235760405162461bcd60e51b815260206004820152601960248201527f4465706f73697420616c72656164792077697468647261776e00000000000000604482015260640161050d565b6000610a2f33846111c9565b90506000818360000154610a4391906128b6565b9050600060036000856001015481526020019081526020016000206040518061010001604052908160008201548152602001600182018054610a849061273c565b80601f0160208091040260200160405190810160405280929190818152602001828054610ab09061273c565b8015610afd5780601f10610ad257610100808354040283529160200191610afd565b820191906000526020600020905b815481529060010190602001808311610ae057829003601f168201915b505050918352505060028201546001600160a01b0390811660208301526003830154604080840191909152600480850154606085015260058501546080850152600685015460a085015260079094015460ff16151560c0909301929092528382015188549251632e1a7d4d60e01b81529495501692632e1a7d4d92610b8792910190815260200190565b6020604051808303816000875af1925050508015610bc2575060408051601f3d908101601f19168201909252610bbf918101906126f4565b60015b610c0e5760405162461bcd60e51b815260206004820152601a60248201527f5374726174656779207769746864726177616c206661696c6564000000000000604482015260640161050d565b845460098054600090610c229084906128c9565b90915550506000808655600486018054869290610c409084906128b6565b90915550610c85905033610c5486846128b6565b6001600160a01b037f0000000000000000000000000000000000000000000000000000000000000000169190611ff2565b337f2d4d49c3e017b8235c908cbaa83a2431a08f3b950712696ece2088964fd399f0610cb186846128b6565b60018801546040805192835260208301919091520160405180910390a28315610d0a5760405184815233907fdf29796aad820e4bb192f3a8d631b76519bcd2cbe77cc85af20e9df53cece0869060200160405180910390a25b5050505050610d1860018055565b50565b8060018110158015610d2e5750600a8111155b610d6f5760405162461bcd60e51b8152602060048201526012602482015271125b9d985b1a59081c9a5cdac81b195d995b60721b604482015260640161050d565b3360008181526006602052604090819020849055517fd181e6b702884a9d5adf558a560eafb77643cbe83c250539d8ed3c4e35f3898790610db39085815260200190565b60405180910390a25050565b610dc7611f9b565b610dcf612056565b565b610dd9611f9b565b600082118015610deb57506008548211155b610e075760405162461bcd60e51b815260040161050d906128dc565b600091825260036020526040909120600701805460ff1916911515919091179055565b610e32611f9b565b610dcf60006120a8565b610e44611f9b565b610dcf6120f8565b600080600060056000856001600160a01b03166001600160a01b03168152602001908152602001600020604051806080016040529081600082015481526020016001820154815260200160028201548152602001600382018054610eaf9061273c565b80601f0160208091040260200160405190810160405280929190818152602001828054610edb9061273c565b8015610f285780601f10610efd57610100808354040283529160200191610f28565b820191906000526020600020905b815481529060010190602001808311610f0b57829003601f168201915b505050505081525050905060008160000151118015610f4c57506046816020015110155b15610f635780516020909101519094909350915050565b6001600160a01b03841660009081526006602052604081205490819003610f88575060055b60008060015b6008548111611109576000600360008381526020019081526020016000206040518061010001604052908160008201548152602001600182018054610fd29061273c565b80601f0160208091040260200160405190810160405280929190818152602001828054610ffe9061273c565b801561104b5780601f106110205761010080835404028352916020019161104b565b820191906000526020600020905b81548152906001019060200180831161102e57829003601f168201915b505050918352505060028201546001600160a01b03166020820152600382015460408201526004820154606082015260058201546080820152600682015460a082015260079091015460ff16151560c09091015260e081015190915015806110b65750848160800151115b156110c157506110f7565b60008160800151826060015160646110d99190612909565b6110e39190612920565b9050838111156110f4578093508294505b50505b8061110181612723565b915050610f8e565b5090969095509350505050565b6005602052600090815260409020805460018201546002830154600384018054939492939192916111469061273c565b80601f01602080910402602001604051908101604052809291908181526020018280546111729061273c565b80156111bf5780601f10611194576101008083540402835291602001916111bf565b820191906000526020600020905b8154815290600101906020018083116111a257829003601f168201915b5050505050905084565b6001600160a01b03821660009081526004602052604081208054829190849081106111f6576111f66128a0565b90600052602060002090600502016040518060a001604052908160008201548152602001600182015481526020016002820154815260200160038201548152602001600482015481525050905080600001516000036112595760009150506113c6565b6000600360008360200151815260200190815260200160002060405180610100016040529081600082015481526020016001820180546112989061273c565b80601f01602080910402602001604051908101604052809291908181526020018280546112c49061273c565b80156113115780601f106112e657610100808354040283529160200191611311565b820191906000526020600020905b8154815290600101906020018083116112f457829003601f168201915b505050918352505060028201546001600160a01b0316602082015260038201546040820152600482015460608083019190915260058301546080830152600683015460a083015260079092015460ff16151560c09091015283015190915060009061137c90426128c9565b90506000612710836060015185600001516113979190612909565b6113a19190612920565b905060006301e133806113b48484612909565b6113be9190612920565b955050505050505b92915050565b6060600060085467ffffffffffffffff8111156113eb576113eb6122c2565b60405190808252806020026020018201604052801561142457816020015b61141161222c565b8152602001906001900390816114095790505b50905060015b60085481116115735760036000828152602001908152602001600020604051806101000160405290816000820154815260200160018201805461146c9061273c565b80601f01602080910402602001604051908101604052809291908181526020018280546114989061273c565b80156114e55780601f106114ba576101008083540402835291602001916114e5565b820191906000526020600020905b8154815290600101906020018083116114c857829003601f168201915b505050918352505060028201546001600160a01b03166020820152600382015460408201526004820154606082015260058201546080820152600682015460a082015260079091015460ff16151560c090910152826115456001846128c9565b81518110611555576115556128a0565b6020026020010181905250808061156b90612723565b91505061142a565b50919050565b61158161222c565b6003600083815260200190815260200160002060405180610100016040529081600082015481526020016001820180546115ba9061273c565b80601f01602080910402602001604051908101604052809291908181526020018280546115e69061273c565b80156116335780601f1061160857610100808354040283529160200191611633565b820191906000526020600020905b81548152906001019060200180831161161657829003601f168201915b505050918352505060028201546001600160a01b03166020820152600382015460408201526004820154606082015260058201546080820152600682015460a082015260079091015460ff16151560c09091015292915050565b600360205260009081526040902080546001820180549192916116af9061273c565b80601f01602080910402602001604051908101604052809291908181526020018280546116db9061273c565b80156117285780601f106116fd57610100808354040283529160200191611728565b820191906000526020600020905b81548152906001019060200180831161170b57829003601f168201915b5050506002840154600385015460048601546005870154600688015460079098015496976001600160a01b0390941696929550909350919060ff1688565b61176e611f9b565b8260008111801561178157506008548111155b61179d5760405162461bcd60e51b815260040161050d906128dc565b60008181526003602052604090206007015460ff166117f45760405162461bcd60e51b81526020600482015260136024820152725374726174656779206e6f742061637469766560681b604482015260640161050d565b60648311156118455760405162461bcd60e51b815260206004820152601960248201527f436f6e666964656e6365206d757374206265203c3d2031303000000000000000604482015260640161050d565b60408051608081018252858152602080820186815242838501908152606084018781526001600160a01b038b166000908152600590945294909220835181559051600182015590516002820155915190919060038201906118a690826127be565b505060408051868152602081018690526001600160a01b03881692507f56dcb8b9e1d9aa7188454acada1f8f83371e1feb087d17a12e8e5967041338e1910160405180910390a25050505050565b6118fc611f9b565b6040516370a0823160e01b81523060048201526000907f00000000000000000000000000000000000000000000000000000000000000006001600160a01b0316906370a0823190602401602060405180830381865afa158015611963573d6000803e3d6000fd5b505050506040513d601f19601f8201168201806040525081019061198791906126f4565b9050610d1861199e6000546001600160a01b031690565b6001600160a01b037f0000000000000000000000000000000000000000000000000000000000000000169083611ff2565b6119d7611fc8565b6119df612135565b806000811180156119f257506008548111155b611a0e5760405162461bcd60e51b815260040161050d906128dc565b60008181526003602052604090206007015460ff16611a655760405162461bcd60e51b81526020600482015260136024820152725374726174656779206e6f742061637469766560681b604482015260640161050d565b60008311611ab55760405162461bcd60e51b815260206004820152601d60248201527f416d6f756e74206d7573742062652067726561746572207468616e2030000000604482015260640161050d565b6000600360008481526020019081526020016000206040518061010001604052908160008201548152602001600182018054611af09061273c565b80601f0160208091040260200160405190810160405280929190818152602001828054611b1c9061273c565b8015611b695780601f10611b3e57610100808354040283529160200191611b69565b820191906000526020600020905b815481529060010190602001808311611b4c57829003601f168201915b505050918352505060028201546001600160a01b03166020820152600382015460408201526004820154606082015260058201546080820152600682015460a08083019190915260079092015460ff16151560c090910152810151909150841015611c165760405162461bcd60e51b815260206004820152601c60248201527f416d6f756e742062656c6f77206d696e696d756d206465706f73697400000000604482015260640161050d565b8060c00151841115611c6a5760405162461bcd60e51b815260206004820152601e60248201527f416d6f756e742065786365656473206d6178696d756d206465706f7369740000604482015260640161050d565b336000908152600660205260409020548015611ce0578082608001511115611ce05760405162461bcd60e51b8152602060048201526024808201527f537472617465677920657863656564732075736572207269736b20746f6c6572604482015263616e636560e01b606482015260840161050d565b611d156001600160a01b037f000000000000000000000000000000000000000000000000000000000000000016333088612159565b604082810151905163095ea7b360e01b81526001600160a01b039182166004820152602481018790527f00000000000000000000000000000000000000000000000000000000000000009091169063095ea7b3906044016020604051808303816000875af1158015611d8b573d6000803e3d6000fd5b505050506040513d601f19601f82011682018060405250810190611daf9190612942565b5081604001516001600160a01b031663b6b55f25866040518263ffffffff1660e01b8152600401611de291815260200190565b6020604051808303816000875af1925050508015611e1d575060408051601f3d908101601f19168201909252611e1a918101906126f4565b60015b611e695760405162461bcd60e51b815260206004820152601760248201527f5374726174656779206465706f736974206661696c6564000000000000000000604482015260640161050d565b336000908152600460208181526040808420815160a0810183528b81528084018b8152429382018481526060830194855260808301888152845460018181018755958a529689209351600590970290930195865590519285019290925590516002840155905160038301555191015560098054889290611eea9084906128b6565b9091555050336000908152600760205260408120805460019290611f0f9084906128b6565b9091555050604080518781526020810187905233917f0b05f0d1cd0819f155b8a61f60baf7767c1ee49d04aeaab701df236140eb93f9910160405180910390a250505050611f5c60018055565b5050565b611f68611f9b565b6001600160a01b038116611f9257604051631e4fbdf760e01b81526000600482015260240161050d565b610d18816120a8565b6000546001600160a01b03163314610dcf5760405163118cdaa760e01b815233600482015260240161050d565b600260015403611feb57604051633ee5aeb560e01b815260040160405180910390fd5b6002600155565b6040516001600160a01b0383811660248301526044820183905261205191859182169063a9059cbb906064015b604051602081830303815290604052915060e01b6020820180516001600160e01b038381831617835250505050612198565b505050565b61205e612209565b6002805460ff191690557f5db9ee0a495bf2e6ff9c91a7834c1ba4fdd244a5e8aa4e537bd38aeae4b073aa335b6040516001600160a01b03909116815260200160405180910390a1565b600080546001600160a01b038381166001600160a01b0319831681178455604051919092169283917f8be0079c531659141344cd1fd0a4f28419497f9722a3daafe3b4186f6b6457e09190a35050565b612100612135565b6002805460ff191660011790557f62e78cea01bee320cd4e420270b5ea74000d11b0c9f74754ebdbfc544b05a25861208b3390565b60025460ff1615610dcf5760405163d93c066560e01b815260040160405180910390fd5b6040516001600160a01b0384811660248301528381166044830152606482018390526121929186918216906323b872dd9060840161201f565b50505050565b600080602060008451602086016000885af1806121bb576040513d6000823e3d81fd5b50506000513d915081156121d35780600114156121e0565b6001600160a01b0384163b155b1561219257604051635274afe760e01b81526001600160a01b038516600482015260240161050d565b60025460ff16610dcf57604051638dfc202b60e01b815260040160405180910390fd5b604051806101000160405280600081526020016060815260200160006001600160a01b03168152602001600081526020016000815260200160008152602001600081526020016000151581525090565b80356001600160a01b038116811461229357600080fd5b919050565b600080604083850312156122ab57600080fd5b6122b48361227c565b946020939093013593505050565b634e487b7160e01b600052604160045260246000fd5b600082601f8301126122e957600080fd5b813567ffffffffffffffff80821115612304576123046122c2565b604051601f8301601f19908116603f0116810190828211818310171561232c5761232c6122c2565b8160405283815286602085880101111561234557600080fd5b836020870160208301376000602085830101528094505050505092915050565b60008060008060008060c0878903121561237e57600080fd5b863567ffffffffffffffff81111561239557600080fd5b6123a189828a016122d8565b9650506123b06020880161227c565b95989597505050506040840135936060810135936080820135935060a0909101359150565b6000602082840312156123e757600080fd5b6123f08261227c565b9392505050565b602080825282518282018190526000919060409081850190868401855b828110156124585781518051855286810151878601528581015186860152606080820151908601526080908101519085015260a09093019290850190600101612414565b5091979650505050505050565b60006020828403121561247757600080fd5b5035919050565b8015158114610d1857600080fd5b6000806040838503121561249f57600080fd5b8235915060208301356124b18161247e565b809150509250929050565b6000815180845260005b818110156124e2576020818501810151868301820152016124c6565b506000602082860101526020601f19601f83011685010191505092915050565b84815283602082015282604082015260806060820152600061252760808301846124bc565b9695505050505050565b6000610100825184526020830151816020860152612551828601826124bc565b91505060018060a01b036040840151166040850152606083015160608501526080830151608085015260a083015160a085015260c083015160c085015260e0830151151560e08501528091505092915050565b6000602080830181845280855180835260408601915060408160051b870101925083870160005b828110156125f957603f198886030184526125e7858351612531565b945092850192908501906001016125cb565b5092979650505050505050565b6020815260006123f06020830184612531565b60006101008a83528060208401526126338184018b6124bc565b6001600160a01b0399909916604084015250506060810195909552608085019390935260a084019190915260c0830152151560e09091015292915050565b6000806000806080858703121561268757600080fd5b6126908561227c565b93506020850135925060408501359150606085013567ffffffffffffffff8111156126ba57600080fd5b6126c6878288016122d8565b91505092959194509250565b600080604083850312156126e557600080fd5b50508035926020909101359150565b60006020828403121561270657600080fd5b5051919050565b634e487b7160e01b600052601160045260246000fd5b6000600182016127355761273561270d565b5060010190565b600181811c9082168061275057607f821691505b60208210810361157357634e487b7160e01b600052602260045260246000fd5b601f82111561205157600081815260208120601f850160051c810160208610156127975750805b601f850160051c820191505b818110156127b6578281556001016127a3565b505050505050565b815167ffffffffffffffff8111156127d8576127d86122c2565b6127ec816127e6845461273c565b84612770565b602080601f83116001811461282157600084156128095750858301515b600019600386901b1c1916600185901b1785556127b6565b600085815260208120601f198616915b8281101561285057888601518255948401946001909101908401612831565b508582101561286e5787850151600019600388901b60f8161c191681555b5050505050600190811b01905550565b60408152600061289160408301856124bc565b90508260208301529392505050565b634e487b7160e01b600052603260045260246000fd5b808201808211156113c6576113c661270d565b818103818111156113c6576113c661270d565b602080825260139082015272125b9d985b1a59081cdd1c985d1959de481251606a1b604082015260600190565b80820281158282048414176113c6576113c661270d565b60008261293d57634e487b7160e01b600052601260045260246000fd5b500490565b60006020828403121561295457600080fd5b81516123f08161247e56fea2646970667358221220785c8bb763f06cf1d0ee6b985caaa4c028a604fc271b7f66cb94e30726aa61a864736f6c63430008140033",
  "linkReferences": {},
  "deployedLinkReferences": {}
}