{
  "_format": "hh-sol-artifact-1",
  "contractName": "MockUSDT",
  "sourceName": "contracts/MockUSDT.sol",
  "abi": [
    {
      "inputs": [],
      "stateMutability": "nonpayable",
      "type": "constructor"
    },
    {
      "inputs": [
        {
          "internalType": "address",
          "name": "spender",
          "type": "address"
        },
        {
          "internalType": "uint256",
          "name": "allowance",
          "type": "uint256"
        },
        {
          "internalType": "uint256",
          "name": "needed",
          "type": "uint256"
        }
      ],
      "name": "ERC20InsufficientAllowance",
      "type": "error"
    },
    {
      "inputs": [
        {
          "internalType": "address",
          "name": "sender",
          "type": "address"
        },
        {
          "internalType": "uint256",
          "name": "balance",
          "type": "uint256"
        },
        {
          "internalType": "uint256",
          "name": "needed",
          "type": "uint256"
        }
      ],
      "name": "ERC20InsufficientBalance",
      "type": "error"
    },
    {
      "inputs": [
        {
          "internalType": "address",
          "name": "approver",
          "type": "address"
        }
      ],
      "name": "ERC20InvalidApprover",
      "type": "error"
    },
    {
      "inputs": [
        {
          "internalType": "address",
          "name": "receiver",
          "type": "address"
        }
      ],
      "name": "ERC20InvalidReceiver",
      "type": "error"
    },
    {
      "inputs": [
        {
          "internalType": "address",
          "name": "sender",
          "type": "address"
        }
      ],
      "name": "ERC20InvalidSender",
      "type": "error"
    },
    {
      "inputs": [
        {
          "internalType": "address",
          "name": "spender",
          "type": "address"
        }
      ],
      "name": "ERC20InvalidSpender",
      "type": "error"
    },
    {
      "inputs": [
        {
          "internalType": "address",
          "name": "owner",
          "type": "address"
        }
      ],
      "name": "OwnableInvalidOwner",
      "type": "error"
    },
    {
      "inputs": [
        {
          "internalType": "address",
          "name": "account",
          "type": "address"
        }
      ],
      "name": "OwnableUnauthorizedAccount",
      "type": "error"
    },
    {
      "anonymous": false,
      "inputs": [
        {
          "indexed": true,
          "internalType": "address",
          "name": "owner",
          "type": "address"
        },
        {
          "indexed": true,
          "internalType": "address",
          "name": "spender",
          "type": "address"
        },
        {
          "indexed": false,
          "internalType": "uint256",
          "name": "value",
          "type": "uint256"
        }
      ],
      "name": "Approval",
      "type": "event"
    },
    {
      "anonymous": false,
      "inputs": [
        {
          "indexed": true,
          "internalType": "address",
          "name": "previousOwner",
          "type": "address"
        },
        {
          "indexed": true,
          "internalType": "address",
          "name": "newOwner",
          "type": "address"
        }
      ],
      "name": "OwnershipTransferred",
      "type": "event"
    },
    {
      "anonymous": false,
      "inputs": [
        {
          "indexed": true,
          "internalType": "address",
          "name": "from",
          "type": "address"
        },
        {
          "indexed": true,
          "internalType": "address",
          "name": "to",
          "type": "address"
        },
        {
          "indexed": false,
          "internalType": "uint256",
          "name": "value",
          "type": "uint256"
        }
      ],
      "name": "Transfer",
      "type": "event"
    },
    {
      "inputs": [
        {
          "internalType": "address",
          "name": "owner",
          "type": "address"
        },
        {
          "internalType": "address",
          "name": "spender",
          "type": "address"
        }
      ],
      "name": "allowance",
      "outputs": [
        {
          "internalType": "uint256",
          "name": "",
          "type": "uint256"
        }
      ],
      "stateMutability": "view",
      "type": "function"
    },
    {
      "inputs": [
        {
          "internalType": "address",
          "name": "spender",
          "type": "address"
        },
        {
          "internalType": "uint256",
          "name": "value",
          "type": "uint256"
        }
      ],
      "name": "approve",
      "outputs": [
        {
          "internalType": "bool",
          "name": "",
          "type": "bool"
        }
      ],
      "stateMutability": "nonpayable",
      "type": "function"
    },
    {
      "inputs": [
        {
          "internalType": "address",
          "name": "account",
          "type": "address"
        }
      ],
      "name": "balanceOf",
      "outputs": [
        {
          "internalType": "uint256",
          "name": "",
          "type": "uint256"
        }
      ],
      "stateMutability": "view",
      "type": "function"
    },
    {
      "inputs": [],
      "name": "decimals",
      "outputs": [
        {
          "internalType": "uint8",
          "name": "",
          "type": "uint8"
        }
      ],
      "stateMutability": "view",
      "type": "function"
    },
    {
      "inputs": [],
      "name": "faucet",
      "outputs": [],
      "stateMutability": "nonpayable",
      "type": "function"
    },
    {
      "inputs": [
        {
          "internalType": "address",
          "name": "to",
          "type": "address"
        },
        {
          "internalType": "uint256",
          "name": "amount",
          "type": "uint256"
        }
      ],
      "name": "mint",
      "outputs": [],
      "stateMutability": "nonpayable",
      "type": "function"
    },
    {
      "inputs": [],
      "name": "name",
      "outputs": [
        {
          "internalType": "string",
          "name": "",
          "type": "string"
        }
      ],
      "stateMutability": "view",
      "type": "function"
    },
    {
      "inputs": [],
      "name": "owner",
      "outputs": [
        {
          "internalType": "address",
          "name": "",
          "type": "address"
        }
      ],
      "stateMutability": "view",
      "type": "function"
    },
    {
      "inputs": [],
      "name": "renounceOwnership",
      "outputs": [],
      "stateMutability": "nonpayable",
      "type": "function"
    },
    {
      "inputs": [],
      "name": "symbol",
      "outputs": [
        {
          "internalType": "string",
          "name": "",
          "type": "string"
        }
      ],
      "stateMutability": "view",
      "type": "function"
    },
    {
      "inputs": [],
      "name": "totalSupply",
      "outputs": [
        {
          "internalType": "uint256",
          "name": "",
          "type": "uint256"
        }
      ],
      "stateMutability": "view",
      "type": "function"
    },
    {
      "inputs": [
        {
          "internalType": "address",
          "name": "to",
          "type": "address"
        },
        {
          "internalType": "uint256",
          "name": "value",
          "type": "uint256"
        }
      ],
      "name": "transfer",
      "outputs": [
        {
          "internalType": "bool",
          "name": "",
          "type": "bool"
        }
      ],
      "stateMutability": "nonpayable",
      "type": "function"
    },
    {
      "inputs": [
        {
          "internalType": "address",
          "name": "from",
          "type": "address"
        },
        {
          "internalType": "address",
          "name": "to",
          "type": "address"
        },
        {
          "internalType": "uint256",
          "name": "value",
          "type": "uint256"
        }
      ],
      "name": "transferFrom",
      "outputs": [
        {
          "internalType": "bool",
          "name": "",
          "type": "bool"
        }
      ],
      "stateMutability": "nonpayable",
      "type": "function"
    },
    {
      "inputs": [
        {
          "internalType": "address",
          "name": "newOwner",
          "type": "address"
        }
      ],
      "name": "transferOwnership",
      "outputs": [],
      "stateMutability": "nonpayable",
      "type": "function"
    }
  ],
  "bytecode": "0x60806040526005805460ff60a01b1916600360a11b1790553480156200002457600080fd5b503360405180604001604052806009815260200168135bd8dac81554d11560ba1b815250604051806040016040528060048152602001631554d11560e21b815250816003908162000076919062000368565b50600462000085828262000368565b5050506001600160a01b038116620000b857604051631e4fbdf760e01b8152600060048201526024015b60405180910390fd5b620000c38162000100565b50600554620000fa903390620000e590600160a01b900460ff16600a62000549565b620000f490620f424062000561565b62000152565b62000591565b600580546001600160a01b038381166001600160a01b0319831681179093556040519116919082907f8be0079c531659141344cd1fd0a4f28419497f9722a3daafe3b4186f6b6457e090600090a35050565b6001600160a01b0382166200017e5760405163ec442f0560e01b815260006004820152602401620000af565b6200018c6000838362000190565b5050565b6001600160a01b038316620001bf578060026000828254620001b391906200057b565b90915550620002339050565b6001600160a01b03831660009081526020819052604090205481811015620002145760405163391434e360e21b81526001600160a01b03851660048201526024810182905260448101839052606401620000af565b6001600160a01b03841660009081526020819052604090209082900390555b6001600160a01b038216620002515760028054829003905562000270565b6001600160a01b03821660009081526020819052604090208054820190555b816001600160a01b0316836001600160a01b03167fddf252ad1be2c89b69c2b068fc378daa952ba7f163c4a11628f55a4df523b3ef83604051620002b691815260200190565b60405180910390a3505050565b634e487b7160e01b600052604160045260246000fd5b600181811c90821680620002ee57607f821691505b6020821081036200030f57634e487b7160e01b600052602260045260246000fd5b50919050565b601f8211156200036357600081815260208120601f850160051c810160208610156200033e5750805b601f850160051c820191505b818110156200035f578281556001016200034a565b5050505b505050565b81516001600160401b03811115620003845762000384620002c3565b6200039c81620003958454620002d9565b8462000315565b602080601f831160018114620003d45760008415620003bb5750858301515b600019600386901b1c1916600185901b1785556200035f565b600085815260208120601f198616915b828110156200040557888601518255948401946001909101908401620003e4565b5085821015620004245787850151600019600388901b60f8161c191681555b5050505050600190811b01905550565b634e487b7160e01b600052601160045260246000fd5b600181815b808511156200048b5781600019048211156200046f576200046f62000434565b808516156200047d57918102915b93841c93908002906200044f565b509250929050565b600082620004a45750600162000543565b81620004b35750600062000543565b8160018114620004cc5760028114620004d757620004f7565b600191505062000543565b60ff841115620004eb57620004eb62000434565b50506001821b62000543565b5060208310610133831016604e8410600b84101617156200051c575081810a62000543565b6200052883836200044a565b80600019048211156200053f576200053f62000434565b0290505b92915050565b60006200055a60ff84168362000493565b9392505050565b808202811582820484141762000543576200054362000434565b8082018082111562000543576200054362000434565b610b7280620005a16000396000f3fe608060405234801561001057600080fd5b50600436106100ea5760003560e01c8063715018a61161008c578063a9059cbb11610066578063a9059cbb146101dd578063dd62ed3e146101f0578063de5f72fd14610229578063f2fde38b1461023157600080fd5b8063715018a6146101b25780638da5cb5b146101ba57806395d89b41146101d557600080fd5b806323b872dd116100c857806323b872dd14610142578063313ce5671461015557806340c10f191461017457806370a082311461018957600080fd5b806306fdde03146100ef578063095ea7b31461010d57806318160ddd14610130575b600080fd5b6100f7610244565b60405161010491906108d3565b60405180910390f35b61012061011b36600461093d565b6102d6565b6040519015158152602001610104565b6002545b604051908152602001610104565b610120610150366004610967565b6102f0565b600554600160a01b900460ff1660405160ff9091168152602001610104565b61018761018236600461093d565b610314565b005b6101346101973660046109a3565b6001600160a01b031660009081526020819052604090205490565b61018761032a565b6005546040516001600160a01b039091168152602001610104565b6100f761033e565b6101206101eb36600461093d565b61034d565b6101346101fe3660046109c5565b6001600160a01b03918216600090815260016020908152604080832093909416825291909152205490565b61018761035b565b61018761023f3660046109a3565b61042a565b606060038054610253906109f8565b80601f016020809104026020016040519081016040528092919081815260200182805461027f906109f8565b80156102cc5780601f106102a1576101008083540402835291602001916102cc565b820191906000526020600020905b8154815290600101906020018083116102af57829003601f168201915b5050505050905090565b6000336102e4818585610481565b60019150505b92915050565b6000336102fe858285610493565b61030985858561052b565b506001949350505050565b61031c6105a3565b61032682826105e9565b5050565b6103326105a3565b61033c600061061f565b565b606060048054610253906109f8565b6000336102e481858561052b565b60055461037390600160a01b900460ff16600a610b2c565b61037f906103e8610b3b565b33600090815260208190526040902054106103fb576040517f08c379a000000000000000000000000000000000000000000000000000000000815260206004820152601960248201527f416c72656164792068617320656e6f75676820746f6b656e730000000000000060448201526064015b60405180910390fd5b60055461033c90339061041990600160a01b900460ff16600a610b2c565b610425906103e8610b3b565b6105e9565b6104326105a3565b6001600160a01b038116610475576040517f1e4fbdf7000000000000000000000000000000000000000000000000000000008152600060048201526024016103f2565b61047e8161061f565b50565b61048e8383836001610689565b505050565b6001600160a01b038381166000908152600160209081526040808320938616835292905220546000198110156105255781811015610516576040517ffb8f41b20000000000000000000000000000000000000000000000000000000081526001600160a01b038416600482015260248101829052604481018390526064016103f2565b61052584848484036000610689565b50505050565b6001600160a01b03831661056e576040517f96c6fd1e000000000000000000000000000000000000000000000000000000008152600060048201526024016103f2565b6001600160a01b0382166105985760405163ec442f0560e01b8152600060048201526024016103f2565b61048e838383610790565b6005546001600160a01b0316331461033c576040517f118cdaa70000000000000000000000000000000000000000000000000000000081523360048201526024016103f2565b6001600160a01b0382166106135760405163ec442f0560e01b8152600060048201526024016103f2565b61032660008383610790565b600580546001600160a01b038381167fffffffffffffffffffffffff0000000000000000000000000000000000000000831681179093556040519116919082907f8be0079c531659141344cd1fd0a4f28419497f9722a3daafe3b4186f6b6457e090600090a35050565b6001600160a01b0384166106cc576040517fe602df05000000000000000000000000000000000000000000000000000000008152600060048201526024016103f2565b6001600160a01b03831661070f576040517f94280d62000000000000000000000000000000000000000000000000000000008152600060048201526024016103f2565b6001600160a01b038085166000908152600160209081526040808320938716835292905220829055801561052557826001600160a01b0316846001600160a01b03167f8c5be1e5ebec7d5bd14f71427d1e84f3dd0314c0f7b2291e5b200ac8c7c3b9258460405161078291815260200190565b60405180910390a350505050565b6001600160a01b0383166107bb5780600260008282546107b09190610b52565b909155506108469050565b6001600160a01b03831660009081526020819052604090205481811015610827576040517fe450d38c0000000000000000000000000000000000000000000000000000000081526001600160a01b038516600482015260248101829052604481018390526064016103f2565b6001600160a01b03841660009081526020819052604090209082900390555b6001600160a01b03821661086257600280548290039055610881565b6001600160a01b03821660009081526020819052604090208054820190555b816001600160a01b0316836001600160a01b03167fddf252ad1be2c89b69c2b068fc378daa952ba7f163c4a11628f55a4df523b3ef836040516108c691815260200190565b60405180910390a3505050565b600060208083528351808285015260005b81811015610900578581018301518582016040015282016108e4565b506000604082860101526040601f19601f8301168501019250505092915050565b80356001600160a01b038116811461093857600080fd5b919050565b6000806040838503121561095057600080fd5b61095983610921565b946020939093013593505050565b60008060006060848603121561097c57600080fd5b61098584610921565b925061099360208501610921565b9150604084013590509250925092565b6000602082840312156109b557600080fd5b6109be82610921565b9392505050565b600080604083850312156109d857600080fd5b6109e183610921565b91506109ef60208401610921565b90509250929050565b600181811c90821680610a0c57607f821691505b602082108103610a2c57634e487b7160e01b600052602260045260246000fd5b50919050565b634e487b7160e01b600052601160045260246000fd5b600181815b80851115610a83578160001904821115610a6957610a69610a32565b80851615610a7657918102915b93841c9390800290610a4d565b509250929050565b600082610a9a575060016102ea565b81610aa7575060006102ea565b8160018114610abd5760028114610ac757610ae3565b60019150506102ea565b60ff841115610ad857610ad8610a32565b50506001821b6102ea565b5060208310610133831016604e8410600b8410161715610b06575081810a6102ea565b610b108383610a48565b8060001904821115610b2457610b24610a32565b029392505050565b60006109be60ff841683610a8b565b80820281158282048414176102ea576102ea610a32565b808201808211156102ea576102ea610a3256fea164736f6c6343000814000a",
  "linkReferences": {},
  "deployedLinkReferences": {}
}