{"contracts/strategies/GrowthPlusStrategy.sol":{"GrowthPlusStrategy":{"abi":[{"inputs":[{"internalType":"address","name":"_usdt","type":"address"},{"internalType":"address","name":"_yieldOptimizer","type":"address"}],"stateMutability":"nonpayable","type":"constructor"},{"inputs":[{"internalType":"address","name":"owner","type":"address"}],"name":"OwnableInvalidOwner","type":"error"},{"inputs":[{"internalType":"address","name":"account","type":"address"}],"name":"OwnableUnauthorizedAccount","type":"error"},{"inputs":[],"name":"ReentrancyGuardReentrantCall","type":"error"},{"anonymous":false,"inputs":[{"indexed":true,"internalType":"address","name":"user","type":"address"},{"indexed":false,"internalType":"uint256","name":"amount","type":"uint256"},{"indexed":false,"internalType":"uint256","name":"shares","type":"uint256"}],"name":"Deposited","type":"event"},{"anonymous":false,"inputs":[{"indexed":true,"internalType":"address","name":"previousOwner","type":"address"},{"indexed":true,"internalType":"address","name":"newOwner","type":"address"}],"name":"OwnershipTransferred","type":"event"},{"anonymous":false,"inputs":[{"indexed":false,"internalType":"uint256","name":"totalRewards","type":"uint256"}],"name":"RewardsDistributed","type":"event"},{"anonymous":false,"inputs":[{"indexed":true,"internalType":"address","name":"user","type":"address"},{"indexed":false,"internalType":"uint256","name":"amount","type":"uint256"},{"indexed":false,"internalType":"uint256","name":"shares","type":"uint256"}],"name":"Withdrawn","type":"event"},{"inputs":[],"name":"BASE_APY","outputs":[{"internalType":"uint256","name":"","type":"uint256"}],"stateMutability":"view","type":"function"},{"inputs":[],"name":"MAX_CAPACITY","outputs":[{"internalType":"uint256","name":"","type":"uint256"}],"stateMutability":"view","type":"function"},{"inputs":[],"name":"USDT","outputs":[{"internalType":"contract IERC20","name":"","type":"address"}],"stateMutability":"view","type":"function"},{"inputs":[],"name":"VOLATILITY_MULTIPLIER","outputs":[{"internalType":"uint256","name":"","type":"uint256"}],"stateMutability":"view","type":"function"},{"inputs":[{"internalType":"uint256","name":"amount","type":"uint256"},{"internalType":"uint256","name":"timeElapsed","type":"uint256"}],"name":"calculateRewards","outputs":[{"internalType":"uint256","name":"","type":"uint256"}],"stateMutability":"view","type":"function"},{"inputs":[],"name":"currentMultiplier","outputs":[{"internalType":"uint256","name":"","type":"uint256"}],"stateMutability":"view","type":"function"},{"inputs":[{"internalType":"uint256","name":"amount","type":"uint256"}],"name":"deposit","outputs":[{"internalType":"uint256","name":"","type":"uint256"}],"stateMutability":"nonpayable","type":"function"},{"inputs":[{"internalType":"uint256","name":"newMultiplier","type":"uint256"}],"name":"emergencyAdjustMultiplier","outputs":[],"stateMutability":"nonpayable","type":"function"},{"inputs":[],"name":"getBalance","outputs":[{"internalType":"uint256","name":"","type":"uint256"}],"stateMutability":"view","type":"function"},{"inputs":[],"name":"getCurrentAPY","outputs":[{"internalType":"uint256","name":"","type":"uint256"}],"stateMutability":"view","type":"function"},{"inputs":[],"name":"getStrategyStats","outputs":[{"internalType":"uint256","name":"apy","type":"uint256"},{"internalType":"uint256","name":"volatility","type":"uint256"},{"internalType":"uint256","name":"multiplier","type":"uint256"},{"internalType":"uint256","name":"utilization","type":"uint256"}],"stateMutability":"view","type":"function"},{"inputs":[{"internalType":"address","name":"user","type":"address"}],"name":"getUserBalance","outputs":[{"internalType":"uint256","name":"","type":"uint256"}],"stateMutability":"view","type":"function"},{"inputs":[],"name":"lastPriceUpdate","outputs":[{"internalType":"uint256","name":"","type":"uint256"}],"stateMutability":"view","type":"function"},{"inputs":[],"name":"lastUpdateTime","outputs":[{"internalType":"uint256","name":"","type":"uint256"}],"stateMutability":"view","type":"function"},{"inputs":[],"name":"owner","outputs":[{"internalType":"address","name":"","type":"address"}],"stateMutability":"view","type":"function"},{"inputs":[],"name":"renounceOwnership","outputs":[],"stateMutability":"nonpayable","type":"function"},{"inputs":[],"name":"totalDeposited","outputs":[{"internalType":"uint256","name":"","type":"uint256"}],"stateMutability":"view","type":"function"},{"inputs":[],"name":"totalShares","outputs":[{"internalType":"uint256","name":"","type":"uint256"}],"stateMutability":"view","type":"function"},{"inputs":[],"name":"totalWithdrawn","outputs":[{"internalType":"uint256","name":"","type":"uint256"}],"stateMutability":"view","type":"function"},{"inputs":[{"internalType":"address","name":"newOwner","type":"address"}],"name":"transferOwnership","outputs":[],"stateMutability":"nonpayable","type":"function"},{"inputs":[{"internalType":"address","name":"","type":"address"}],"name":"userDepositTime","outputs":[{"internalType":"uint256","name":"","type":"uint256"}],"stateMutability":"view","type":"function"},{"inputs":[{"internalType":"address","name":"","type":"address"}],"name":"userShares","outputs":[{"internalType":"uint256","name":"","type":"uint256"}],"stateMutability":"view","type":"function"},{"inputs":[],"name":"volatilityIndex","outputs":[{"internalType":"uint256","name":"","type":"uint256"}],"stateMutability":"view","type":"function"},{"inputs":[{"internalType":"uint256","name":"amount","type":"uint256"}],"name":"withdraw","outputs":[{"internalType":"uint256","name":"","type":"uint256"}],"stateMutability":"nonpayable","type":"function"},{"inputs":[],"name":"yieldOptimizer","outputs":[{"internalType":"address","name":"","type":"address"}],"stateMutability":"view","type":"function"}],"evm":{"bytecode":{"linkReferences":{},"object":"60c060405261271060085534801561001657600080fd5b50604051620012a2380380620012a283398101604081905261003791610101565b8181338061005f57604051631e4fbdf760e01b81526000600482015260240160405180910390fd5b61006881610095565b50600180556001600160a01b039182166080521660a0525050426004819055600955611388600a55610134565b600080546001600160a01b038381166001600160a01b0319831681178455604051919092169283917f8be0079c531659141344cd1fd0a4f28419497f9722a3daafe3b4186f6b6457e09190a35050565b80516001600160a01b03811681146100fc57600080fd5b919050565b6000806040838503121561011457600080fd5b61011d836100e5565b915061012b602084016100e5565b90509250929050565b60805160a0516111176200018b6000396000818161024c0152818161043801528181610678015281816108cc01526109c10152600081816102b7015281816103b3015281816106a701526109f601526111176000f3fe608060405234801561001057600080fd5b50600436106101a35760003560e01c80637b4cab3d116100ee578063c8f33c9111610097578063e108521a11610071578063e108521a14610335578063f1eb17f61461033e578063f2fde38b14610366578063ff50abdc1461037957600080fd5b8063c8f33c91146102ec578063cf27e06f146102f5578063de69b3aa1461031557600080fd5b8063b6b55f25116100c8578063b6b55f251461029f578063c54e44eb146102b2578063c6c23a54146102d957600080fd5b80637b4cab3d146102475780638da5cb5b14610286578063962ca4961461029757600080fd5b80634b319713116101505780636e49e1ff1161012a5780636e49e1ff1461022c5780636fbaaa1e14610234578063715018a61461023d57600080fd5b80634b319713146102115780634ca19fd61461021a5780636949faeb1461022357600080fd5b80633a98ef39116101815780633a98ef39146101e257806347734892146101eb57806348a88706146101fe57600080fd5b806312065fe0146101a85780632e1a7d4d146101c35780633a5ddf30146101d6575b600080fd5b6101b0610382565b6040519081526020015b60405180910390f35b6101b06101d1366004610fda565b61042b565b6101b064746a52880081565b6101b060075481565b6101b06101f9366004610ff3565b610762565b6101b061020c36600461101c565b610816565b6101b060035481565b6101b06104b081565b6101b060095481565b6101b060c881565b6101b060085481565b610245610852565b005b61026e7f000000000000000000000000000000000000000000000000000000000000000081565b6040516001600160a01b0390911681526020016101ba565b6000546001600160a01b031661026e565b6101b0610866565b6101b06102ad366004610fda565b6108bf565b61026e7f000000000000000000000000000000000000000000000000000000000000000081565b6102456102e7366004610fda565b610b2a565b6101b060045481565b6101b0610303366004610ff3565b60066020526000908152604090205481565b6101b0610323366004610ff3565b60056020526000908152604090205481565b6101b0600a5481565b610346610b97565b6040805194855260208501939093529183015260608201526080016101ba565b610245610374366004610ff3565b610bd9565b6101b060025481565b6040517f70a082310000000000000000000000000000000000000000000000000000000081523060048201526000907f00000000000000000000000000000000000000000000000000000000000000006001600160a01b0316906370a0823190602401602060405180830381865afa158015610402573d6000803e3d6000fd5b505050506040513d601f19601f82011682018060405250810190610426919061103e565b905090565b6000336001600160a01b037f000000000000000000000000000000000000000000000000000000000000000016146104aa5760405162461bcd60e51b815260206004820152601c60248201527f4f6e6c79205969656c644f7074696d697a65722063616e2063616c6c0000000060448201526064015b60405180910390fd5b6104b2610c30565b600082116105025760405162461bcd60e51b815260206004820152601d60248201527f416d6f756e74206d7573742062652067726561746572207468616e203000000060448201526064016104a1565b3260009081526005602052604090205461055e5760405162461bcd60e51b815260206004820152601560248201527f4e6f2073686172657320746f207769746864726177000000000000000000000060448201526064016104a1565b600061056932610762565b9050808311156105bb5760405162461bcd60e51b815260206004820152601460248201527f496e73756666696369656e742062616c616e636500000000000000000000000060448201526064016104a1565b3260009081526005602052604081205482906105d7908661106d565b6105e1919061109a565b326000908152600560205260408120805492935083929091906106059084906110ae565b92505081905550806007600082825461061e91906110ae565b909155506000905061062f85610c73565b9050806003600082825461064391906110c1565b90915550506040517fa9059cbb0000000000000000000000000000000000000000000000000000000081526001600160a01b037f000000000000000000000000000000000000000000000000000000000000000081166004830152602482018390527f0000000000000000000000000000000000000000000000000000000000000000169063a9059cbb906044016020604051808303816000875af11580156106f0573d6000803e3d6000fd5b505050506040513d601f19601f8201168201806040525081019061071491906110d4565b50604080518281526020810184905232917f92ccf450a286a957af52509bc1c9939d1a6a481783e142e41e2499f0bb66ebc6910160405180910390a29250505061075d60018055565b919050565b600060075460000361077657506000919050565b6000306001600160a01b03166312065fe06040518163ffffffff1660e01b8152600401602060405180830381865afa1580156107b6573d6000803e3d6000fd5b505050506040513d601f19601f820116820180604052508101906107da919061103e565b6007546001600160a01b0385166000908152600560205260409020549192509061080590839061106d565b61080f919061109a565b9392505050565b600080610821610866565b905064496cebb80083610834838761106d565b61083e919061106d565b610848919061109a565b9150505b92915050565b61085a610d67565b6108646000610dad565b565b6000806104b09050600061271060c8600a54610882919061106d565b61088c919061109a565b90506000612710836008546108a1919061106d565b6108ab919061109a565b90506108b782826110c1565b935050505090565b6000336001600160a01b037f000000000000000000000000000000000000000000000000000000000000000016146109395760405162461bcd60e51b815260206004820152601c60248201527f4f6e6c79205969656c644f7074696d697a65722063616e2063616c6c0000000060448201526064016104a1565b610941610c30565b600082116109915760405162461bcd60e51b815260206004820152601d60248201527f416d6f756e74206d7573742062652067726561746572207468616e203000000060448201526064016104a1565b6040517f23b872dd0000000000000000000000000000000000000000000000000000000081526001600160a01b037f000000000000000000000000000000000000000000000000000000000000000081166004830152306024830152604482018490527f000000000000000000000000000000000000000000000000000000000000000016906323b872dd906064016020604051808303816000875af1158015610a3f573d6000803e3d6000fd5b505050506040513d601f19601f82011682018060405250810190610a6391906110d4565b506000610a6f83610e15565b32600090815260056020526040812080549293508392909190610a939084906110c1565b909155505032600090815260066020526040812042905560078054839290610abc9084906110c1565b925050819055508260026000828254610ad591906110c1565b90915550610ae4905083610e9e565b604080518481526020810183905232917f73a19dd210f1a7f902193214c0ee91dd35ee5b4d920cba8d519eca65a7b488ca910160405180910390a2905061075d60018055565b610b32610d67565b6113888110158015610b465750613a988111155b610b925760405162461bcd60e51b815260206004820152601260248201527f496e76616c6964206d756c7469706c696572000000000000000000000000000060448201526064016104a1565b600855565b600080600080610ba5610866565b600a5460085464746a528800600254612710610bc1919061106d565b610bcb919061109a565b935093509350935090919293565b610be1610d67565b6001600160a01b038116610c24576040517f1e4fbdf7000000000000000000000000000000000000000000000000000000008152600060048201526024016104a1565b610c2d81610dad565b50565b600260015403610c6c576040517f3ee5aeb500000000000000000000000000000000000000000000000000000000815260040160405180910390fd5b6002600155565b6000610c7d610eae565b610c85610f87565b32600090815260066020526040812054610c9f90426110ae565b905062093a80811115610d60576040517f48a88706000000000000000000000000000000000000000000000000000000008152600481018490526024810182905260009030906348a8870690604401602060405180830381865afa158015610d0b573d6000803e3d6000fd5b505050506040513d601f19601f82011682018060405250810190610d2f919061103e565b90506000610d3e60648361109a565b9050808511610d4d5784610d57565b610d5781866110ae565b95945050505050565b5090919050565b6000546001600160a01b03163314610864576040517f118cdaa70000000000000000000000000000000000000000000000000000000081523360048201526024016104a1565b600080546001600160a01b038381167fffffffffffffffffffffffff0000000000000000000000000000000000000000831681178455604051919092169283917f8be0079c531659141344cd1fd0a4f28419497f9722a3daafe3b4186f6b6457e09190a35050565b6000600754600003610e25575090565b306001600160a01b03166312065fe06040518163ffffffff1660e01b8152600401602060405180830381865afa158015610e63573d6000803e3d6000fd5b505050506040513d601f19601f82011682018060405250810190610e87919061103e565b600754610e94908461106d565b61084c919061109a565b610ea6610eae565b610c2d610f87565b600060095442610ebe91906110ae565b9050610e108110610c2d5760006127104244600254604051602001610ef6939291909283526020830191909152604082015260600190565b6040516020818303038152906040528051906020012060001c610f1991906110f6565b9050610bb8811015610f4f576103e8600a5411610f37576000610f47565b6103e8600a54610f4791906110ae565b600a55610f7f565b611b58811115610f7f57612328600a5410610f6c57612710610f7b565b600a54610f7b906103e86110c1565b600a555b504260095550565b600064746a528800600254612710610f9f919061106d565b610fa9919061109a565b9050611f40811115610fbe5761232860085550565b6107d0811015610fd157612af860085550565b61271060085550565b600060208284031215610fec57600080fd5b5035919050565b60006020828403121561100557600080fd5b81356001600160a01b038116811461080f57600080fd5b6000806040838503121561102f57600080fd5b50508035926020909101359150565b60006020828403121561105057600080fd5b5051919050565b634e487b7160e01b600052601160045260246000fd5b808202811582820484141761084c5761084c611057565b634e487b7160e01b600052601260045260246000fd5b6000826110a9576110a9611084565b500490565b8181038181111561084c5761084c611057565b8082018082111561084c5761084c611057565b6000602082840312156110e657600080fd5b8151801515811461080f57600080fd5b60008261110557611105611084565b50069056fea164736f6c6343000814000a","opcodes":"PUSH1 0xC0 PUSH1 0x40 MSTORE PUSH2 0x2710 PUSH1 0x8 SSTORE CALLVALUE DUP1 ISZERO PUSH2 0x16 JUMPI PUSH1 0x0 DUP1 REVERT JUMPDEST POP PUSH1 0x40 MLOAD PUSH3 0x12A2 CODESIZE SUB DUP1 PUSH3 0x12A2 DUP4 CODECOPY DUP2 ADD PUSH1 0x40 DUP2 SWAP1 MSTORE PUSH2 0x37 SWAP2 PUSH2 0x101 JUMP JUMPDEST DUP2 DUP2 CALLER DUP1 PUSH2 0x5F JUMPI PUSH1 0x40 MLOAD PUSH4 0x1E4FBDF7 PUSH1 0xE0 SHL DUP2 MSTORE PUSH1 0x0 PUSH1 0x4 DUP3 ADD MSTORE PUSH1 0x24 ADD PUSH1 0x40 MLOAD DUP1 SWAP2 SUB SWAP1 REVERT JUMPDEST PUSH2 0x68 DUP2 PUSH2 0x95 JUMP JUMPDEST POP PUSH1 0x1 DUP1 SSTORE PUSH1 0x1 PUSH1 0x1 PUSH1 0xA0 SHL SUB SWAP2 DUP3 AND PUSH1 0x80 MSTORE AND PUSH1 0xA0 MSTORE POP POP TIMESTAMP PUSH1 0x4 DUP2 SWAP1 SSTORE PUSH1 0x9 SSTORE PUSH2 0x1388 PUSH1 0xA SSTORE PUSH2 0x134 JUMP JUMPDEST PUSH1 0x0 DUP1 SLOAD PUSH1 0x1 PUSH1 0x1 PUSH1 0xA0 SHL SUB DUP4 DUP2 AND PUSH1 0x1 PUSH1 0x1 PUSH1 0xA0 SHL SUB NOT DUP4 AND DUP2 OR DUP5 SSTORE PUSH1 0x40 MLOAD SWAP2 SWAP1 SWAP3 AND SWAP3 DUP4 SWAP2 PUSH32 0x8BE0079C531659141344CD1FD0A4F28419497F9722A3DAAFE3B4186F6B6457E0 SWAP2 SWAP1 LOG3 POP POP JUMP JUMPDEST DUP1 MLOAD PUSH1 0x1 PUSH1 0x1 PUSH1 0xA0 SHL SUB DUP2 AND DUP2 EQ PUSH2 0xFC JUMPI PUSH1 0x0 DUP1 REVERT JUMPDEST SWAP2 SWAP1 POP JUMP JUMPDEST PUSH1 0x0 DUP1 PUSH1 0x40 DUP4 DUP6 SUB SLT ISZERO PUSH2 0x114 JUMPI PUSH1 0x0 DUP1 REVERT JUMPDEST PUSH2 0x11D DUP4 PUSH2 0xE5 JUMP JUMPDEST SWAP2 POP PUSH2 0x12B PUSH1 0x20 DUP5 ADD PUSH2 0xE5 JUMP JUMPDEST SWAP1 POP SWAP3 POP SWAP3 SWAP1 POP JUMP JUMPDEST PUSH1 0x80 MLOAD PUSH1 0xA0 MLOAD PUSH2 0x1117 PUSH3 0x18B PUSH1 0x0 CODECOPY PUSH1 0x0 DUP2 DUP2 PUSH2 0x24C ADD MSTORE DUP2 DUP2 PUSH2 0x438 ADD MSTORE DUP2 DUP2 PUSH2 0x678 ADD MSTORE DUP2 DUP2 PUSH2 0x8CC ADD MSTORE PUSH2 0x9C1 ADD MSTORE PUSH1 0x0 DUP2 DUP2 PUSH2 0x2B7 ADD MSTORE DUP2 DUP2 PUSH2 0x3B3 ADD MSTORE DUP2 DUP2 PUSH2 0x6A7 ADD MSTORE PUSH2 0x9F6 ADD MSTORE PUSH2 0x1117 PUSH1 0x0 RETURN INVALID PUSH1 0x80 PUSH1 0x40 MSTORE CALLVALUE DUP1 ISZERO PUSH2 0x10 JUMPI PUSH1 0x0 DUP1 REVERT JUMPDEST POP PUSH1 0x4 CALLDATASIZE LT PUSH2 0x1A3 JUMPI PUSH1 0x0 CALLDATALOAD PUSH1 0xE0 SHR DUP1 PUSH4 0x7B4CAB3D GT PUSH2 0xEE JUMPI DUP1 PUSH4 0xC8F33C91 GT PUSH2 0x97 JUMPI DUP1 PUSH4 0xE108521A GT PUSH2 0x71 JUMPI DUP1 PUSH4 0xE108521A EQ PUSH2 0x335 JUMPI DUP1 PUSH4 0xF1EB17F6 EQ PUSH2 0x33E JUMPI DUP1 PUSH4 0xF2FDE38B EQ PUSH2 0x366 JUMPI DUP1 PUSH4 0xFF50ABDC EQ PUSH2 0x379 JUMPI PUSH1 0x0 DUP1 REVERT JUMPDEST DUP1 PUSH4 0xC8F33C91 EQ PUSH2 0x2EC JUMPI DUP1 PUSH4 0xCF27E06F EQ PUSH2 0x2F5 JUMPI DUP1 PUSH4 0xDE69B3AA EQ PUSH2 0x315 JUMPI PUSH1 0x0 DUP1 REVERT JUMPDEST DUP1 PUSH4 0xB6B55F25 GT PUSH2 0xC8 JUMPI DUP1 PUSH4 0xB6B55F25 EQ PUSH2 0x29F JUMPI DUP1 PUSH4 0xC54E44EB EQ PUSH2 0x2B2 JUMPI DUP1 PUSH4 0xC6C23A54 EQ PUSH2 0x2D9 JUMPI PUSH1 0x0 DUP1 REVERT JUMPDEST DUP1 PUSH4 0x7B4CAB3D EQ PUSH2 0x247 JUMPI DUP1 PUSH4 0x8DA5CB5B EQ PUSH2 0x286 JUMPI DUP1 PUSH4 0x962CA496 EQ PUSH2 0x297 JUMPI PUSH1 0x0 DUP1 REVERT JUMPDEST DUP1 PUSH4 0x4B319713 GT PUSH2 0x150 JUMPI DUP1 PUSH4 0x6E49E1FF GT PUSH2 0x12A JUMPI DUP1 PUSH4 0x6E49E1FF EQ PUSH2 0x22C JUMPI DUP1 PUSH4 0x6FBAAA1E EQ PUSH2 0x234 JUMPI DUP1 PUSH4 0x715018A6 EQ PUSH2 0x23D JUMPI PUSH1 0x0 DUP1 REVERT JUMPDEST DUP1 PUSH4 0x4B319713 EQ PUSH2 0x211 JUMPI DUP1 PUSH4 0x4CA19FD6 EQ PUSH2 0x21A JUMPI DUP1 PUSH4 0x6949FAEB EQ PUSH2 0x223 JUMPI PUSH1 0x0 DUP1 REVERT JUMPDEST DUP1 PUSH4 0x3A98EF39 GT PUSH2 0x181 JUMPI DUP1 PUSH4 0x3A98EF39 EQ PUSH2 0x1E2 JUMPI DUP1 PUSH4 0x47734892 EQ PUSH2 0x1EB JUMPI DUP1 PUSH4 0x48A88706 EQ PUSH2 0x1FE JUMPI PUSH1 0x0 DUP1 REVERT JUMPDEST DUP1 PUSH4 0x12065FE0 EQ PUSH2 0x1A8 JUMPI DUP1 PUSH4 0x2E1A7D4D EQ PUSH2 0x1C3 JUMPI DUP1 PUSH4 0x3A5DDF30 EQ PUSH2 0x1D6 JUMPI JUMPDEST PUSH1 0x0 DUP1 REVERT JUMPDEST PUSH2 0x1B0 PUSH2 0x382 JUMP JUMPDEST PUSH1 0x40 MLOAD SWAP1 DUP2 MSTORE PUSH1 0x20 ADD JUMPDEST PUSH1 0x40 MLOAD DUP1 SWAP2 SUB SWAP1 RETURN JUMPDEST PUSH2 0x1B0 PUSH2 0x1D1 CALLDATASIZE PUSH1 0x4 PUSH2 0xFDA JUMP JUMPDEST PUSH2 0x42B JUMP JUMPDEST PUSH2 0x1B0 PUSH5 0x746A528800 DUP2 JUMP JUMPDEST PUSH2 0x1B0 PUSH1 0x7 SLOAD DUP2 JUMP JUMPDEST PUSH2 0x1B0 PUSH2 0x1F9 CALLDATASIZE PUSH1 0x4 PUSH2 0xFF3 JUMP JUMPDEST PUSH2 0x762 JUMP JUMPDEST PUSH2 0x1B0 PUSH2 0x20C CALLDATASIZE PUSH1 0x4 PUSH2 0x101C JUMP JUMPDEST PUSH2 0x816 JUMP JUMPDEST PUSH2 0x1B0 PUSH1 0x3 SLOAD DUP2 JUMP JUMPDEST PUSH2 0x1B0 PUSH2 0x4B0 DUP2 JUMP JUMPDEST PUSH2 0x1B0 PUSH1 0x9 SLOAD DUP2 JUMP JUMPDEST PUSH2 0x1B0 PUSH1 0xC8 DUP2 JUMP JUMPDEST PUSH2 0x1B0 PUSH1 0x8 SLOAD DUP2 JUMP JUMPDEST PUSH2 0x245 PUSH2 0x852 JUMP JUMPDEST STOP JUMPDEST PUSH2 0x26E PUSH32 0x0 DUP2 JUMP JUMPDEST PUSH1 0x40 MLOAD PUSH1 0x1 PUSH1 0x1 PUSH1 0xA0 SHL SUB SWAP1 SWAP2 AND DUP2 MSTORE PUSH1 0x20 ADD PUSH2 0x1BA JUMP JUMPDEST PUSH1 0x0 SLOAD PUSH1 0x1 PUSH1 0x1 PUSH1 0xA0 SHL SUB AND PUSH2 0x26E JUMP JUMPDEST PUSH2 0x1B0 PUSH2 0x866 JUMP JUMPDEST PUSH2 0x1B0 PUSH2 0x2AD CALLDATASIZE PUSH1 0x4 PUSH2 0xFDA JUMP JUMPDEST PUSH2 0x8BF JUMP JUMPDEST PUSH2 0x26E PUSH32 0x0 DUP2 JUMP JUMPDEST PUSH2 0x245 PUSH2 0x2E7 CALLDATASIZE PUSH1 0x4 PUSH2 0xFDA JUMP JUMPDEST PUSH2 0xB2A JUMP JUMPDEST PUSH2 0x1B0 PUSH1 0x4 SLOAD DUP2 JUMP JUMPDEST PUSH2 0x1B0 PUSH2 0x303 CALLDATASIZE PUSH1 0x4 PUSH2 0xFF3 JUMP JUMPDEST PUSH1 0x6 PUSH1 0x20 MSTORE PUSH1 0x0 SWAP1 DUP2 MSTORE PUSH1 0x40 SWAP1 KECCAK256 SLOAD DUP2 JUMP JUMPDEST PUSH2 0x1B0 PUSH2 0x323 CALLDATASIZE PUSH1 0x4 PUSH2 0xFF3 JUMP JUMPDEST PUSH1 0x5 PUSH1 0x20 MSTORE PUSH1 0x0 SWAP1 DUP2 MSTORE PUSH1 0x40 SWAP1 KECCAK256 SLOAD DUP2 JUMP JUMPDEST PUSH2 0x1B0 PUSH1 0xA SLOAD DUP2 JUMP JUMPDEST PUSH2 0x346 PUSH2 0xB97 JUMP JUMPDEST PUSH1 0x40 DUP1 MLOAD SWAP5 DUP6 MSTORE PUSH1 0x20 DUP6 ADD SWAP4 SWAP1 SWAP4 MSTORE SWAP2 DUP4 ADD MSTORE PUSH1 0x60 DUP3 ADD MSTORE PUSH1 0x80 ADD PUSH2 0x1BA JUMP JUMPDEST PUSH2 0x245 PUSH2 0x374 CALLDATASIZE PUSH1 0x4 PUSH2 0xFF3 JUMP JUMPDEST PUSH2 0xBD9 JUMP JUMPDEST PUSH2 0x1B0 PUSH1 0x2 SLOAD DUP2 JUMP JUMPDEST PUSH1 0x40 MLOAD PUSH32 0x70A0823100000000000000000000000000000000000000000000000000000000 DUP2 MSTORE ADDRESS PUSH1 0x4 DUP3 ADD MSTORE PUSH1 0x0 SWAP1 PUSH32 0x0 PUSH1 0x1 PUSH1 0x1 PUSH1 0xA0 SHL SUB AND SWAP1 PUSH4 0x70A08231 SWAP1 PUSH1 0x24 ADD PUSH1 0x20 PUSH1 0x40 MLOAD DUP1 DUP4 SUB DUP2 DUP7 GAS STATICCALL ISZERO DUP1 ISZERO PUSH2 0x402 JUMPI RETURNDATASIZE PUSH1 0x0 DUP1 RETURNDATACOPY RETURNDATASIZE PUSH1 0x0 REVERT JUMPDEST POP POP POP POP PUSH1 0x40 MLOAD RETURNDATASIZE PUSH1 0x1F NOT PUSH1 0x1F DUP3 ADD AND DUP3 ADD DUP1 PUSH1 0x40 MSTORE POP DUP2 ADD SWAP1 PUSH2 0x426 SWAP2 SWAP1 PUSH2 0x103E JUMP JUMPDEST SWAP1 POP SWAP1 JUMP JUMPDEST PUSH1 0x0 CALLER PUSH1 0x1 PUSH1 0x1 PUSH1 0xA0 SHL SUB PUSH32 0x0 AND EQ PUSH2 0x4AA JUMPI PUSH1 0x40 MLOAD PUSH3 0x461BCD PUSH1 0xE5 SHL DUP2 MSTORE PUSH1 0x20 PUSH1 0x4 DUP3 ADD MSTORE PUSH1 0x1C PUSH1 0x24 DUP3 ADD MSTORE PUSH32 0x4F6E6C79205969656C644F7074696D697A65722063616E2063616C6C00000000 PUSH1 0x44 DUP3 ADD MSTORE PUSH1 0x64 ADD JUMPDEST PUSH1 0x40 MLOAD DUP1 SWAP2 SUB SWAP1 REVERT JUMPDEST PUSH2 0x4B2 PUSH2 0xC30 JUMP JUMPDEST PUSH1 0x0 DUP3 GT PUSH2 0x502 JUMPI PUSH1 0x40 MLOAD PUSH3 0x461BCD PUSH1 0xE5 SHL DUP2 MSTORE PUSH1 0x20 PUSH1 0x4 DUP3 ADD MSTORE PUSH1 0x1D PUSH1 0x24 DUP3 ADD MSTORE PUSH32 0x416D6F756E74206D7573742062652067726561746572207468616E2030000000 PUSH1 0x44 DUP3 ADD MSTORE PUSH1 0x64 ADD PUSH2 0x4A1 JUMP JUMPDEST ORIGIN PUSH1 0x0 SWAP1 DUP2 MSTORE PUSH1 0x5 PUSH1 0x20 MSTORE PUSH1 0x40 SWAP1 KECCAK256 SLOAD PUSH2 0x55E JUMPI PUSH1 0x40 MLOAD PUSH3 0x461BCD PUSH1 0xE5 SHL DUP2 MSTORE PUSH1 0x20 PUSH1 0x4 DUP3 ADD MSTORE PUSH1 0x15 PUSH1 0x24 DUP3 ADD MSTORE PUSH32 0x4E6F2073686172657320746F2077697468647261770000000000000000000000 PUSH1 0x44 DUP3 ADD MSTORE PUSH1 0x64 ADD PUSH2 0x4A1 JUMP JUMPDEST PUSH1 0x0 PUSH2 0x569 ORIGIN PUSH2 0x762 JUMP JUMPDEST SWAP1 POP DUP1 DUP4 GT ISZERO PUSH2 0x5BB JUMPI PUSH1 0x40 MLOAD PUSH3 0x461BCD PUSH1 0xE5 SHL DUP2 MSTORE PUSH1 0x20 PUSH1 0x4 DUP3 ADD MSTORE PUSH1 0x14 PUSH1 0x24 DUP3 ADD MSTORE PUSH32 0x496E73756666696369656E742062616C616E6365000000000000000000000000 PUSH1 0x44 DUP3 ADD MSTORE PUSH1 0x64 ADD PUSH2 0x4A1 JUMP JUMPDEST ORIGIN PUSH1 0x0 SWAP1 DUP2 MSTORE PUSH1 0x5 PUSH1 0x20 MSTORE PUSH1 0x40 DUP2 KECCAK256 SLOAD DUP3 SWAP1 PUSH2 0x5D7 SWAP1 DUP7 PUSH2 0x106D JUMP JUMPDEST PUSH2 0x5E1 SWAP2 SWAP1 PUSH2 0x109A JUMP JUMPDEST ORIGIN PUSH1 0x0 SWAP1 DUP2 MSTORE PUSH1 0x5 PUSH1 0x20 MSTORE PUSH1 0x40 DUP2 KECCAK256 DUP1 SLOAD SWAP3 SWAP4 POP DUP4 SWAP3 SWAP1 SWAP2 SWAP1 PUSH2 0x605 SWAP1 DUP5 SWAP1 PUSH2 0x10AE JUMP JUMPDEST SWAP3 POP POP DUP2 SWAP1 SSTORE POP DUP1 PUSH1 0x7 PUSH1 0x0 DUP3 DUP3 SLOAD PUSH2 0x61E SWAP2 SWAP1 PUSH2 0x10AE JUMP JUMPDEST SWAP1 SWAP2 SSTORE POP PUSH1 0x0 SWAP1 POP PUSH2 0x62F DUP6 PUSH2 0xC73 JUMP JUMPDEST SWAP1 POP DUP1 PUSH1 0x3 PUSH1 0x0 DUP3 DUP3 SLOAD PUSH2 0x643 SWAP2 SWAP1 PUSH2 0x10C1 JUMP JUMPDEST SWAP1 SWAP2 SSTORE POP POP PUSH1 0x40 MLOAD PUSH32 0xA9059CBB00000000000000000000000000000000000000000000000000000000 DUP2 MSTORE PUSH1 0x1 PUSH1 0x1 PUSH1 0xA0 SHL SUB PUSH32 0x0 DUP2 AND PUSH1 0x4 DUP4 ADD MSTORE PUSH1 0x24 DUP3 ADD DUP4 SWAP1 MSTORE PUSH32 0x0 AND SWAP1 PUSH4 0xA9059CBB SWAP1 PUSH1 0x44 ADD PUSH1 0x20 PUSH1 0x40 MLOAD DUP1 DUP4 SUB DUP2 PUSH1 0x0 DUP8 GAS CALL ISZERO DUP1 ISZERO PUSH2 0x6F0 JUMPI RETURNDATASIZE PUSH1 0x0 DUP1 RETURNDATACOPY RETURNDATASIZE PUSH1 0x0 REVERT JUMPDEST POP POP POP POP PUSH1 0x40 MLOAD RETURNDATASIZE PUSH1 0x1F NOT PUSH1 0x1F DUP3 ADD AND DUP3 ADD DUP1 PUSH1 0x40 MSTORE POP DUP2 ADD SWAP1 PUSH2 0x714 SWAP2 SWAP1 PUSH2 0x10D4 JUMP JUMPDEST POP PUSH1 0x40 DUP1 MLOAD DUP3 DUP2 MSTORE PUSH1 0x20 DUP2 ADD DUP5 SWAP1 MSTORE ORIGIN SWAP2 PUSH32 0x92CCF450A286A957AF52509BC1C9939D1A6A481783E142E41E2499F0BB66EBC6 SWAP2 ADD PUSH1 0x40 MLOAD DUP1 SWAP2 SUB SWAP1 LOG2 SWAP3 POP POP POP PUSH2 0x75D PUSH1 0x1 DUP1 SSTORE JUMP JUMPDEST SWAP2 SWAP1 POP JUMP JUMPDEST PUSH1 0x0 PUSH1 0x7 SLOAD PUSH1 0x0 SUB PUSH2 0x776 JUMPI POP PUSH1 0x0 SWAP2 SWAP1 POP JUMP JUMPDEST PUSH1 0x0 ADDRESS PUSH1 0x1 PUSH1 0x1 PUSH1 0xA0 SHL SUB AND PUSH4 0x12065FE0 PUSH1 0x40 MLOAD DUP2 PUSH4 0xFFFFFFFF AND PUSH1 0xE0 SHL DUP2 MSTORE PUSH1 0x4 ADD PUSH1 0x20 PUSH1 0x40 MLOAD DUP1 DUP4 SUB DUP2 DUP7 GAS STATICCALL ISZERO DUP1 ISZERO PUSH2 0x7B6 JUMPI RETURNDATASIZE PUSH1 0x0 DUP1 RETURNDATACOPY RETURNDATASIZE PUSH1 0x0 REVERT JUMPDEST POP POP POP POP PUSH1 0x40 MLOAD RETURNDATASIZE PUSH1 0x1F NOT PUSH1 0x1F DUP3 ADD AND DUP3 ADD DUP1 PUSH1 0x40 MSTORE POP DUP2 ADD SWAP1 PUSH2 0x7DA SWAP2 SWAP1 PUSH2 0x103E JUMP JUMPDEST PUSH1 0x7 SLOAD PUSH1 0x1 PUSH1 0x1 PUSH1 0xA0 SHL SUB DUP6 AND PUSH1 0x0 SWAP1 DUP2 MSTORE PUSH1 0x5 PUSH1 0x20 MSTORE PUSH1 0x40 SWAP1 KECCAK256 SLOAD SWAP2 SWAP3 POP SWAP1 PUSH2 0x805 SWAP1 DUP4 SWAP1 PUSH2 0x106D JUMP JUMPDEST PUSH2 0x80F SWAP2 SWAP1 PUSH2 0x109A JUMP JUMPDEST SWAP4 SWAP3 POP POP POP JUMP JUMPDEST PUSH1 0x0 DUP1 PUSH2 0x821 PUSH2 0x866 JUMP JUMPDEST SWAP1 POP PUSH5 0x496CEBB800 DUP4 PUSH2 0x834 DUP4 DUP8 PUSH2 0x106D JUMP JUMPDEST PUSH2 0x83E SWAP2 SWAP1 PUSH2 0x106D JUMP JUMPDEST PUSH2 0x848 SWAP2 SWAP1 PUSH2 0x109A JUMP JUMPDEST SWAP2 POP POP JUMPDEST SWAP3 SWAP2 POP POP JUMP JUMPDEST PUSH2 0x85A PUSH2 0xD67 JUMP JUMPDEST PUSH2 0x864 PUSH1 0x0 PUSH2 0xDAD JUMP JUMPDEST JUMP JUMPDEST PUSH1 0x0 DUP1 PUSH2 0x4B0 SWAP1 POP PUSH1 0x0 PUSH2 0x2710 PUSH1 0xC8 PUSH1 0xA SLOAD PUSH2 0x882 SWAP2 SWAP1 PUSH2 0x106D JUMP JUMPDEST PUSH2 0x88C SWAP2 SWAP1 PUSH2 0x109A JUMP JUMPDEST SWAP1 POP PUSH1 0x0 PUSH2 0x2710 DUP4 PUSH1 0x8 SLOAD PUSH2 0x8A1 SWAP2 SWAP1 PUSH2 0x106D JUMP JUMPDEST PUSH2 0x8AB SWAP2 SWAP1 PUSH2 0x109A JUMP JUMPDEST SWAP1 POP PUSH2 0x8B7 DUP3 DUP3 PUSH2 0x10C1 JUMP JUMPDEST SWAP4 POP POP POP POP SWAP1 JUMP JUMPDEST PUSH1 0x0 CALLER PUSH1 0x1 PUSH1 0x1 PUSH1 0xA0 SHL SUB PUSH32 0x0 AND EQ PUSH2 0x939 JUMPI PUSH1 0x40 MLOAD PUSH3 0x461BCD PUSH1 0xE5 SHL DUP2 MSTORE PUSH1 0x20 PUSH1 0x4 DUP3 ADD MSTORE PUSH1 0x1C PUSH1 0x24 DUP3 ADD MSTORE PUSH32 0x4F6E6C79205969656C644F7074696D697A65722063616E2063616C6C00000000 PUSH1 0x44 DUP3 ADD MSTORE PUSH1 0x64 ADD PUSH2 0x4A1 JUMP JUMPDEST PUSH2 0x941 PUSH2 0xC30 JUMP JUMPDEST PUSH1 0x0 DUP3 GT PUSH2 0x991 JUMPI PUSH1 0x40 MLOAD PUSH3 0x461BCD PUSH1 0xE5 SHL DUP2 MSTORE PUSH1 0x20 PUSH1 0x4 DUP3 ADD MSTORE PUSH1 0x1D PUSH1 0x24 DUP3 ADD MSTORE PUSH32 0x416D6F756E74206D7573742062652067726561746572207468616E2030000000 PUSH1 0x44 DUP3 ADD MSTORE PUSH1 0x64 ADD PUSH2 0x4A1 JUMP JUMPDEST PUSH1 0x40 MLOAD PUSH32 0x23B872DD00000000000000000000000000000000000000000000000000000000 DUP2 MSTORE PUSH1 0x1 PUSH1 0x1 PUSH1 0xA0 SHL SUB PUSH32 0x0 DUP2 AND PUSH1 0x4 DUP4 ADD MSTORE ADDRESS PUSH1 0x24 DUP4 ADD MSTORE PUSH1 0x44 DUP3 ADD DUP5 SWAP1 MSTORE PUSH32 0x0 AND SWAP1 PUSH4 0x23B872DD SWAP1 PUSH1 0x64 ADD PUSH1 0x20 PUSH1 0x40 MLOAD DUP1 DUP4 SUB DUP2 PUSH1 0x0 DUP8 GAS CALL ISZERO DUP1 ISZERO PUSH2 0xA3F JUMPI RETURNDATASIZE PUSH1 0x0 DUP1 RETURNDATACOPY RETURNDATASIZE PUSH1 0x0 REVERT JUMPDEST POP POP POP POP PUSH1 0x40 MLOAD RETURNDATASIZE PUSH1 0x1F NOT PUSH1 0x1F DUP3 ADD AND DUP3 ADD DUP1 PUSH1 0x40 MSTORE POP DUP2 ADD SWAP1 PUSH2 0xA63 SWAP2 SWAP1 PUSH2 0x10D4 JUMP JUMPDEST POP PUSH1 0x0 PUSH2 0xA6F DUP4 PUSH2 0xE15 JUMP JUMPDEST ORIGIN PUSH1 0x0 SWAP1 DUP2 MSTORE PUSH1 0x5 PUSH1 0x20 MSTORE PUSH1 0x40 DUP2 KECCAK256 DUP1 SLOAD SWAP3 SWAP4 POP DUP4 SWAP3 SWAP1 SWAP2 SWAP1 PUSH2 0xA93 SWAP1 DUP5 SWAP1 PUSH2 0x10C1 JUMP JUMPDEST SWAP1 SWAP2 SSTORE POP POP ORIGIN PUSH1 0x0 SWAP1 DUP2 MSTORE PUSH1 0x6 PUSH1 0x20 MSTORE PUSH1 0x40 DUP2 KECCAK256 TIMESTAMP SWAP1 SSTORE PUSH1 0x7 DUP1 SLOAD DUP4 SWAP3 SWAP1 PUSH2 0xABC SWAP1 DUP5 SWAP1 PUSH2 0x10C1 JUMP JUMPDEST SWAP3 POP POP DUP2 SWAP1 SSTORE POP DUP3 PUSH1 0x2 PUSH1 0x0 DUP3 DUP3 SLOAD PUSH2 0xAD5 SWAP2 SWAP1 PUSH2 0x10C1 JUMP JUMPDEST SWAP1 SWAP2 SSTORE POP PUSH2 0xAE4 SWAP1 POP DUP4 PUSH2 0xE9E JUMP JUMPDEST PUSH1 0x40 DUP1 MLOAD DUP5 DUP2 MSTORE PUSH1 0x20 DUP2 ADD DUP4 SWAP1 MSTORE ORIGIN SWAP2 PUSH32 0x73A19DD210F1A7F902193214C0EE91DD35EE5B4D920CBA8D519ECA65A7B488CA SWAP2 ADD PUSH1 0x40 MLOAD DUP1 SWAP2 SUB SWAP1 LOG2 SWAP1 POP PUSH2 0x75D PUSH1 0x1 DUP1 SSTORE JUMP JUMPDEST PUSH2 0xB32 PUSH2 0xD67 JUMP JUMPDEST PUSH2 0x1388 DUP2 LT ISZERO DUP1 ISZERO PUSH2 0xB46 JUMPI POP PUSH2 0x3A98 DUP2 GT ISZERO JUMPDEST PUSH2 0xB92 JUMPI PUSH1 0x40 MLOAD PUSH3 0x461BCD PUSH1 0xE5 SHL DUP2 MSTORE PUSH1 0x20 PUSH1 0x4 DUP3 ADD MSTORE PUSH1 0x12 PUSH1 0x24 DUP3 ADD MSTORE PUSH32 0x496E76616C6964206D756C7469706C6965720000000000000000000000000000 PUSH1 0x44 DUP3 ADD MSTORE PUSH1 0x64 ADD PUSH2 0x4A1 JUMP JUMPDEST PUSH1 0x8 SSTORE JUMP JUMPDEST PUSH1 0x0 DUP1 PUSH1 0x0 DUP1 PUSH2 0xBA5 PUSH2 0x866 JUMP JUMPDEST PUSH1 0xA SLOAD PUSH1 0x8 SLOAD PUSH5 0x746A528800 PUSH1 0x2 SLOAD PUSH2 0x2710 PUSH2 0xBC1 SWAP2 SWAP1 PUSH2 0x106D JUMP JUMPDEST PUSH2 0xBCB SWAP2 SWAP1 PUSH2 0x109A JUMP JUMPDEST SWAP4 POP SWAP4 POP SWAP4 POP SWAP4 POP SWAP1 SWAP2 SWAP3 SWAP4 JUMP JUMPDEST PUSH2 0xBE1 PUSH2 0xD67 JUMP JUMPDEST PUSH1 0x1 PUSH1 0x1 PUSH1 0xA0 SHL SUB DUP2 AND PUSH2 0xC24 JUMPI PUSH1 0x40 MLOAD PUSH32 0x1E4FBDF700000000000000000000000000000000000000000000000000000000 DUP2 MSTORE PUSH1 0x0 PUSH1 0x4 DUP3 ADD MSTORE PUSH1 0x24 ADD PUSH2 0x4A1 JUMP JUMPDEST PUSH2 0xC2D DUP2 PUSH2 0xDAD JUMP JUMPDEST POP JUMP JUMPDEST PUSH1 0x2 PUSH1 0x1 SLOAD SUB PUSH2 0xC6C JUMPI PUSH1 0x40 MLOAD PUSH32 0x3EE5AEB500000000000000000000000000000000000000000000000000000000 DUP2 MSTORE PUSH1 0x4 ADD PUSH1 0x40 MLOAD DUP1 SWAP2 SUB SWAP1 REVERT JUMPDEST PUSH1 0x2 PUSH1 0x1 SSTORE JUMP JUMPDEST PUSH1 0x0 PUSH2 0xC7D PUSH2 0xEAE JUMP JUMPDEST PUSH2 0xC85 PUSH2 0xF87 JUMP JUMPDEST ORIGIN PUSH1 0x0 SWAP1 DUP2 MSTORE PUSH1 0x6 PUSH1 0x20 MSTORE PUSH1 0x40 DUP2 KECCAK256 SLOAD PUSH2 0xC9F SWAP1 TIMESTAMP PUSH2 0x10AE JUMP JUMPDEST SWAP1 POP PUSH3 0x93A80 DUP2 GT ISZERO PUSH2 0xD60 JUMPI PUSH1 0x40 MLOAD PUSH32 0x48A8870600000000000000000000000000000000000000000000000000000000 DUP2 MSTORE PUSH1 0x4 DUP2 ADD DUP5 SWAP1 MSTORE PUSH1 0x24 DUP2 ADD DUP3 SWAP1 MSTORE PUSH1 0x0 SWAP1 ADDRESS SWAP1 PUSH4 0x48A88706 SWAP1 PUSH1 0x44 ADD PUSH1 0x20 PUSH1 0x40 MLOAD DUP1 DUP4 SUB DUP2 DUP7 GAS STATICCALL ISZERO DUP1 ISZERO PUSH2 0xD0B JUMPI RETURNDATASIZE PUSH1 0x0 DUP1 RETURNDATACOPY RETURNDATASIZE PUSH1 0x0 REVERT JUMPDEST POP POP POP POP PUSH1 0x40 MLOAD RETURNDATASIZE PUSH1 0x1F NOT PUSH1 0x1F DUP3 ADD AND DUP3 ADD DUP1 PUSH1 0x40 MSTORE POP DUP2 ADD SWAP1 PUSH2 0xD2F SWAP2 SWAP1 PUSH2 0x103E JUMP JUMPDEST SWAP1 POP PUSH1 0x0 PUSH2 0xD3E PUSH1 0x64 DUP4 PUSH2 0x109A JUMP JUMPDEST SWAP1 POP DUP1 DUP6 GT PUSH2 0xD4D JUMPI DUP5 PUSH2 0xD57 JUMP JUMPDEST PUSH2 0xD57 DUP2 DUP7 PUSH2 0x10AE JUMP JUMPDEST SWAP6 SWAP5 POP POP POP POP POP JUMP JUMPDEST POP SWAP1 SWAP2 SWAP1 POP JUMP JUMPDEST PUSH1 0x0 SLOAD PUSH1 0x1 PUSH1 0x1 PUSH1 0xA0 SHL SUB AND CALLER EQ PUSH2 0x864 JUMPI PUSH1 0x40 MLOAD PUSH32 0x118CDAA700000000000000000000000000000000000000000000000000000000 DUP2 MSTORE CALLER PUSH1 0x4 DUP3 ADD MSTORE PUSH1 0x24 ADD PUSH2 0x4A1 JUMP JUMPDEST PUSH1 0x0 DUP1 SLOAD PUSH1 0x1 PUSH1 0x1 PUSH1 0xA0 SHL SUB DUP4 DUP2 AND PUSH32 0xFFFFFFFFFFFFFFFFFFFFFFFF0000000000000000000000000000000000000000 DUP4 AND DUP2 OR DUP5 SSTORE PUSH1 0x40 MLOAD SWAP2 SWAP1 SWAP3 AND SWAP3 DUP4 SWAP2 PUSH32 0x8BE0079C531659141344CD1FD0A4F28419497F9722A3DAAFE3B4186F6B6457E0 SWAP2 SWAP1 LOG3 POP POP JUMP JUMPDEST PUSH1 0x0 PUSH1 0x7 SLOAD PUSH1 0x0 SUB PUSH2 0xE25 JUMPI POP SWAP1 JUMP JUMPDEST ADDRESS PUSH1 0x1 PUSH1 0x1 PUSH1 0xA0 SHL SUB AND PUSH4 0x12065FE0 PUSH1 0x40 MLOAD DUP2 PUSH4 0xFFFFFFFF AND PUSH1 0xE0 SHL DUP2 MSTORE PUSH1 0x4 ADD PUSH1 0x20 PUSH1 0x40 MLOAD DUP1 DUP4 SUB DUP2 DUP7 GAS STATICCALL ISZERO DUP1 ISZERO PUSH2 0xE63 JUMPI RETURNDATASIZE PUSH1 0x0 DUP1 RETURNDATACOPY RETURNDATASIZE PUSH1 0x0 REVERT JUMPDEST POP POP POP POP PUSH1 0x40 MLOAD RETURNDATASIZE PUSH1 0x1F NOT PUSH1 0x1F DUP3 ADD AND DUP3 ADD DUP1 PUSH1 0x40 MSTORE POP DUP2 ADD SWAP1 PUSH2 0xE87 SWAP2 SWAP1 PUSH2 0x103E JUMP JUMPDEST PUSH1 0x7 SLOAD PUSH2 0xE94 SWAP1 DUP5 PUSH2 0x106D JUMP JUMPDEST PUSH2 0x84C SWAP2 SWAP1 PUSH2 0x109A JUMP JUMPDEST PUSH2 0xEA6 PUSH2 0xEAE JUMP JUMPDEST PUSH2 0xC2D PUSH2 0xF87 JUMP JUMPDEST PUSH1 0x0 PUSH1 0x9 SLOAD TIMESTAMP PUSH2 0xEBE SWAP2 SWAP1 PUSH2 0x10AE JUMP JUMPDEST SWAP1 POP PUSH2 0xE10 DUP2 LT PUSH2 0xC2D JUMPI PUSH1 0x0 PUSH2 0x2710 TIMESTAMP PREVRANDAO PUSH1 0x2 SLOAD PUSH1 0x40 MLOAD PUSH1 0x20 ADD PUSH2 0xEF6 SWAP4 SWAP3 SWAP2 SWAP1 SWAP3 DUP4 MSTORE PUSH1 0x20 DUP4 ADD SWAP2 SWAP1 SWAP2 MSTORE PUSH1 0x40 DUP3 ADD MSTORE PUSH1 0x60 ADD SWAP1 JUMP JUMPDEST PUSH1 0x40 MLOAD PUSH1 0x20 DUP2 DUP4 SUB SUB DUP2 MSTORE SWAP1 PUSH1 0x40 MSTORE DUP1 MLOAD SWAP1 PUSH1 0x20 ADD KECCAK256 PUSH1 0x0 SHR PUSH2 0xF19 SWAP2 SWAP1 PUSH2 0x10F6 JUMP JUMPDEST SWAP1 POP PUSH2 0xBB8 DUP2 LT ISZERO PUSH2 0xF4F JUMPI PUSH2 0x3E8 PUSH1 0xA SLOAD GT PUSH2 0xF37 JUMPI PUSH1 0x0 PUSH2 0xF47 JUMP JUMPDEST PUSH2 0x3E8 PUSH1 0xA SLOAD PUSH2 0xF47 SWAP2 SWAP1 PUSH2 0x10AE JUMP JUMPDEST PUSH1 0xA SSTORE PUSH2 0xF7F JUMP JUMPDEST PUSH2 0x1B58 DUP2 GT ISZERO PUSH2 0xF7F JUMPI PUSH2 0x2328 PUSH1 0xA SLOAD LT PUSH2 0xF6C JUMPI PUSH2 0x2710 PUSH2 0xF7B JUMP JUMPDEST PUSH1 0xA SLOAD PUSH2 0xF7B SWAP1 PUSH2 0x3E8 PUSH2 0x10C1 JUMP JUMPDEST PUSH1 0xA SSTORE JUMPDEST POP TIMESTAMP PUSH1 0x9 SSTORE POP JUMP JUMPDEST PUSH1 0x0 PUSH5 0x746A528800 PUSH1 0x2 SLOAD PUSH2 0x2710 PUSH2 0xF9F SWAP2 SWAP1 PUSH2 0x106D JUMP JUMPDEST PUSH2 0xFA9 SWAP2 SWAP1 PUSH2 0x109A JUMP JUMPDEST SWAP1 POP PUSH2 0x1F40 DUP2 GT ISZERO PUSH2 0xFBE JUMPI PUSH2 0x2328 PUSH1 0x8 SSTORE POP JUMP JUMPDEST PUSH2 0x7D0 DUP2 LT ISZERO PUSH2 0xFD1 JUMPI PUSH2 0x2AF8 PUSH1 0x8 SSTORE POP JUMP JUMPDEST PUSH2 0x2710 PUSH1 0x8 SSTORE POP JUMP JUMPDEST PUSH1 0x0 PUSH1 0x20 DUP3 DUP5 SUB SLT ISZERO PUSH2 0xFEC JUMPI PUSH1 0x0 DUP1 REVERT JUMPDEST POP CALLDATALOAD SWAP2 SWAP1 POP JUMP JUMPDEST PUSH1 0x0 PUSH1 0x20 DUP3 DUP5 SUB SLT ISZERO PUSH2 0x1005 JUMPI PUSH1 0x0 DUP1 REVERT JUMPDEST DUP2 CALLDATALOAD PUSH1 0x1 PUSH1 0x1 PUSH1 0xA0 SHL SUB DUP2 AND DUP2 EQ PUSH2 0x80F JUMPI PUSH1 0x0 DUP1 REVERT JUMPDEST PUSH1 0x0 DUP1 PUSH1 0x40 DUP4 DUP6 SUB SLT ISZERO PUSH2 0x102F JUMPI PUSH1 0x0 DUP1 REVERT JUMPDEST POP POP DUP1 CALLDATALOAD SWAP3 PUSH1 0x20 SWAP1 SWAP2 ADD CALLDATALOAD SWAP2 POP JUMP JUMPDEST PUSH1 0x0 PUSH1 0x20 DUP3 DUP5 SUB SLT ISZERO PUSH2 0x1050 JUMPI PUSH1 0x0 DUP1 REVERT JUMPDEST POP MLOAD SWAP2 SWAP1 POP JUMP JUMPDEST PUSH4 0x4E487B71 PUSH1 0xE0 SHL PUSH1 0x0 MSTORE PUSH1 0x11 PUSH1 0x4 MSTORE PUSH1 0x24 PUSH1 0x0 REVERT JUMPDEST DUP1 DUP3 MUL DUP2 ISZERO DUP3 DUP3 DIV DUP5 EQ OR PUSH2 0x84C JUMPI PUSH2 0x84C PUSH2 0x1057 JUMP JUMPDEST PUSH4 0x4E487B71 PUSH1 0xE0 SHL PUSH1 0x0 MSTORE PUSH1 0x12 PUSH1 0x4 MSTORE PUSH1 0x24 PUSH1 0x0 REVERT JUMPDEST PUSH1 0x0 DUP3 PUSH2 0x10A9 JUMPI PUSH2 0x10A9 PUSH2 0x1084 JUMP JUMPDEST POP DIV SWAP1 JUMP JUMPDEST DUP2 DUP2 SUB DUP2 DUP2 GT ISZERO PUSH2 0x84C JUMPI PUSH2 0x84C PUSH2 0x1057 JUMP JUMPDEST DUP1 DUP3 ADD DUP1 DUP3 GT ISZERO PUSH2 0x84C JUMPI PUSH2 0x84C PUSH2 0x1057 JUMP JUMPDEST PUSH1 0x0 PUSH1 0x20 DUP3 DUP5 SUB SLT ISZERO PUSH2 0x10E6 JUMPI PUSH1 0x0 DUP1 REVERT JUMPDEST DUP2 MLOAD DUP1 ISZERO ISZERO DUP2 EQ PUSH2 0x80F JUMPI PUSH1 0x0 DUP1 REVERT JUMPDEST PUSH1 0x0 DUP3 PUSH2 0x1105 JUMPI PUSH2 0x1105 PUSH2 0x1084 JUMP JUMPDEST POP MOD SWAP1 JUMP INVALID LOG1 PUSH5 0x736F6C6343 STOP ADDMOD EQ STOP EXP "},"methodIdentifiers":{"BASE_APY()":"4ca19fd6","MAX_CAPACITY()":"3a5ddf30","USDT()":"c54e44eb","VOLATILITY_MULTIPLIER()":"6e49e1ff","calculateRewards(uint256,uint256)":"48a88706","currentMultiplier()":"6fbaaa1e","deposit(uint256)":"b6b55f25","emergencyAdjustMultiplier(uint256)":"c6c23a54","getBalance()":"12065fe0","getCurrentAPY()":"962ca496","getStrategyStats()":"f1eb17f6","getUserBalance(address)":"47734892","lastPriceUpdate()":"6949faeb","lastUpdateTime()":"c8f33c91","owner()":"8da5cb5b","renounceOwnership()":"715018a6","totalDeposited()":"ff50abdc","totalShares()":"3a98ef39","totalWithdrawn()":"4b319713","transferOwnership(address)":"f2fde38b","userDepositTime(address)":"cf27e06f","userShares(address)":"de69b3aa","volatilityIndex()":"e108521a","withdraw(uint256)":"2e1a7d4d","yieldOptimizer()":"7b4cab3d"}}}}}