{"contracts/strategies/HighYieldProStrategy.sol":{"HighYieldProStrategy":{"abi":[{"inputs":[{"internalType":"address","name":"_usdt","type":"address"},{"internalType":"address","name":"_yieldOptimizer","type":"address"}],"stateMutability":"nonpayable","type":"constructor"},{"inputs":[{"internalType":"address","name":"owner","type":"address"}],"name":"OwnableInvalidOwner","type":"error"},{"inputs":[{"internalType":"address","name":"account","type":"address"}],"name":"OwnableUnauthorizedAccount","type":"error"},{"inputs":[],"name":"ReentrancyGuardReentrantCall","type":"error"},{"anonymous":false,"inputs":[{"indexed":true,"internalType":"address","name":"user","type":"address"},{"indexed":false,"internalType":"uint256","name":"amount","type":"uint256"},{"indexed":false,"internalType":"uint256","name":"shares","type":"uint256"}],"name":"Deposited","type":"event"},{"anonymous":false,"inputs":[{"indexed":true,"internalType":"address","name":"previousOwner","type":"address"},{"indexed":true,"internalType":"address","name":"newOwner","type":"address"}],"name":"OwnershipTransferred","type":"event"},{"anonymous":false,"inputs":[{"indexed":false,"internalType":"uint256","name":"totalRewards","type":"uint256"}],"name":"RewardsDistributed","type":"event"},{"anonymous":false,"inputs":[{"indexed":false,"internalType":"bool","name":"isLoss","type":"bool"},{"indexed":false,"internalType":"uint256","name":"amount","type":"uint256"},{"indexed":false,"internalType":"uint256","name":"affectedUsers","type":"uint256"}],"name":"RiskEvent","type":"event"},{"anonymous":false,"inputs":[{"indexed":true,"internalType":"address","name":"user","type":"address"},{"indexed":false,"internalType":"uint256","name":"riskScore","type":"uint256"}],"name":"UserQualified","type":"event"},{"anonymous":false,"inputs":[{"indexed":true,"internalType":"address","name":"user","type":"address"},{"indexed":false,"internalType":"uint256","name":"amount","type":"uint256"},{"indexed":false,"internalType":"uint256","name":"shares","type":"uint256"}],"name":"Withdrawn","type":"event"},{"inputs":[],"name":"BASE_APY","outputs":[{"internalType":"uint256","name":"","type":"uint256"}],"stateMutability":"view","type":"function"},{"inputs":[],"name":"LOSS_PROBABILITY","outputs":[{"internalType":"uint256","name":"","type":"uint256"}],"stateMutability":"view","type":"function"},{"inputs":[],"name":"MAX_CAPACITY","outputs":[{"internalType":"uint256","name":"","type":"uint256"}],"stateMutability":"view","type":"function"},{"inputs":[],"name":"MAX_LOSS_PERCENTAGE","outputs":[{"internalType":"uint256","name":"","type":"uint256"}],"stateMutability":"view","type":"function"},{"inputs":[],"name":"USDT","outputs":[{"internalType":"contract IERC20","name":"","type":"address"}],"stateMutability":"view","type":"function"},{"inputs":[{"internalType":"uint256","name":"amount","type":"uint256"}],"name":"addLossBuffer","outputs":[],"stateMutability":"nonpayable","type":"function"},{"inputs":[{"internalType":"uint256","name":"amount","type":"uint256"},{"internalType":"uint256","name":"timeElapsed","type":"uint256"}],"name":"calculateRewards","outputs":[{"internalType":"uint256","name":"","type":"uint256"}],"stateMutability":"view","type":"function"},{"inputs":[{"internalType":"uint256","name":"amount","type":"uint256"}],"name":"deposit","outputs":[{"internalType":"uint256","name":"","type":"uint256"}],"stateMutability":"nonpayable","type":"function"},{"inputs":[{"internalType":"address","name":"","type":"address"}],"name":"experiencedUser","outputs":[{"internalType":"bool","name":"","type":"bool"}],"stateMutability":"view","type":"function"},{"inputs":[],"name":"getBalance","outputs":[{"internalType":"uint256","name":"","type":"uint256"}],"stateMutability":"view","type":"function"},{"inputs":[],"name":"getCurrentAPY","outputs":[{"internalType":"uint256","name":"","type":"uint256"}],"stateMutability":"view","type":"function"},{"inputs":[],"name":"getStrategyMetrics","outputs":[{"internalType":"uint256","name":"apy","type":"uint256"},{"internalType":"uint256","name":"multiplier","type":"uint256"},{"internalType":"uint256","name":"profits","type":"uint256"},{"internalType":"uint256","name":"losses","type":"uint256"},{"internalType":"uint256","name":"buffer","type":"uint256"},{"internalType":"uint256","name":"riskLevel","type":"uint256"}],"stateMutability":"view","type":"function"},{"inputs":[{"internalType":"address","name":"user","type":"address"}],"name":"getUserBalance","outputs":[{"internalType":"uint256","name":"","type":"uint256"}],"stateMutability":"view","type":"function"},{"inputs":[{"internalType":"address","name":"user","type":"address"}],"name":"isUserQualified","outputs":[{"internalType":"bool","name":"","type":"bool"}],"stateMutability":"view","type":"function"},{"inputs":[],"name":"lastUpdateTime","outputs":[{"internalType":"uint256","name":"","type":"uint256"}],"stateMutability":"view","type":"function"},{"inputs":[],"name":"lossBuffer","outputs":[{"internalType":"uint256","name":"","type":"uint256"}],"stateMutability":"view","type":"function"},{"inputs":[],"name":"owner","outputs":[{"internalType":"address","name":"","type":"address"}],"stateMutability":"view","type":"function"},{"inputs":[],"name":"performanceMultiplier","outputs":[{"internalType":"uint256","name":"","type":"uint256"}],"stateMutability":"view","type":"function"},{"inputs":[{"internalType":"address","name":"user","type":"address"},{"internalType":"uint256","name":"riskScore","type":"uint256"}],"name":"qualifyUser","outputs":[],"stateMutability":"nonpayable","type":"function"},{"inputs":[],"name":"renounceOwnership","outputs":[],"stateMutability":"nonpayable","type":"function"},{"inputs":[],"name":"totalDeposited","outputs":[{"internalType":"uint256","name":"","type":"uint256"}],"stateMutability":"view","type":"function"},{"inputs":[],"name":"totalLosses","outputs":[{"internalType":"uint256","name":"","type":"uint256"}],"stateMutability":"view","type":"function"},{"inputs":[],"name":"totalProfits","outputs":[{"internalType":"uint256","name":"","type":"uint256"}],"stateMutability":"view","type":"function"},{"inputs":[],"name":"totalShares","outputs":[{"internalType":"uint256","name":"","type":"uint256"}],"stateMutability":"view","type":"function"},{"inputs":[],"name":"totalWithdrawn","outputs":[{"internalType":"uint256","name":"","type":"uint256"}],"stateMutability":"view","type":"function"},{"inputs":[{"internalType":"address","name":"newOwner","type":"address"}],"name":"transferOwnership","outputs":[],"stateMutability":"nonpayable","type":"function"},{"inputs":[{"internalType":"address","name":"","type":"address"}],"name":"userDepositTime","outputs":[{"internalType":"uint256","name":"","type":"uint256"}],"stateMutability":"view","type":"function"},{"inputs":[{"internalType":"address","name":"","type":"address"}],"name":"userRiskScore","outputs":[{"internalType":"uint256","name":"","type":"uint256"}],"stateMutability":"view","type":"function"},{"inputs":[{"internalType":"address","name":"","type":"address"}],"name":"userShares","outputs":[{"internalType":"uint256","name":"","type":"uint256"}],"stateMutability":"view","type":"function"},{"inputs":[{"internalType":"uint256","name":"amount","type":"uint256"}],"name":"withdraw","outputs":[{"internalType":"uint256","name":"","type":"uint256"}],"stateMutability":"nonpayable","type":"function"},{"inputs":[],"name":"yieldOptimizer","outputs":[{"internalType":"address","name":"","type":"address"}],"stateMutability":"view","type":"function"}],"evm":{"bytecode":{"linkReferences":{},"object":"60c06040526127106008553480156200001757600080fd5b50604051620017f7380380620017f78339810160408190526200003a91620000fe565b818133806200006357604051631e4fbdf760e01b81526000600482015260240160405180910390fd5b6200006e8162000091565b50600180556001600160a01b039182166080521660a05250504260045562000136565b600080546001600160a01b038381166001600160a01b0319831681178455604051919092169283917f8be0079c531659141344cd1fd0a4f28419497f9722a3daafe3b4186f6b6457e09190a35050565b80516001600160a01b0381168114620000f957600080fd5b919050565b600080604083850312156200011257600080fd5b6200011d83620000e1565b91506200012d60208401620000e1565b90509250929050565b60805160a051611663620001946000396000818161030d015281816105cd0152818161081601528181610bad0152610d040152600081816103d60152818161048701528181610548015281816108450152610d3901526116636000f3fe608060405234801561001057600080fd5b50600436106101e55760003560e01c8063715018a61161010f578063bd998cb3116100a2578063cf27e06f11610071578063cf27e06f14610401578063de69b3aa14610421578063f2fde38b14610441578063ff50abdc1461045457600080fd5b8063bd998cb3146103bf578063bf04820b146103c8578063c54e44eb146103d1578063c8f33c91146103f857600080fd5b8063962ca496116100de578063962ca49614610378578063a485b78614610380578063b3bf4c4514610389578063b6b55f25146103ac57600080fd5b8063715018a6146103005780637b4cab3d146103085780637fb4fb1b146103475780638da5cb5b1461036757600080fd5b80633a98ef39116101875780634ca19fd6116101565780634ca19fd6146102c257806351a6f7c4146102cb57806358acc2cd146102ee5780636b558266146102f757600080fd5b80633a98ef391461028a578063477348921461029357806348a88706146102a65780634b319713146102b957600080fd5b80632ede5ad6116101c35780632ede5ad61461022d57806331a588091461026257806339fa187c146102755780633a5ddf301461027e57600080fd5b80630ef0e05b146101ea57806312065fe0146101ff5780632e1a7d4d1461021a575b600080fd5b6101fd6101f83660046114f3565b61045d565b005b610207610517565b6040519081526020015b60405180910390f35b6102076102283660046114f3565b6105c0565b610235610900565b604080519687526020870195909552938501929092526060840152608083015260a082015260c001610211565b6101fd610270366004611523565b610931565b61020760095481565b610207642e90edd00081565b61020760075481565b6102076102a136600461154d565b610a14565b6102076102b4366004611568565b610ac8565b61020760035481565b6102076109c481565b6102de6102d936600461154d565b610b04565b6040519015158152602001610211565b6102076103e881565b6102076101f481565b6101fd610b47565b61032f7f000000000000000000000000000000000000000000000000000000000000000081565b6040516001600160a01b039091168152602001610211565b61020761035536600461154d565b600c6020526000908152604090205481565b6000546001600160a01b031661032f565b610207610b5b565b61020760085481565b6102de61039736600461154d565b600d6020526000908152604090205460ff1681565b6102076103ba3660046114f3565b610ba0565b610207600a5481565b610207600b5481565b61032f7f000000000000000000000000000000000000000000000000000000000000000081565b61020760045481565b61020761040f36600461154d565b60066020526000908152604090205481565b61020761042f36600461154d565b60056020526000908152604090205481565b6101fd61044f36600461154d565b610e75565b61020760025481565b610465610ecc565b6040516323b872dd60e01b8152336004820152306024820152604481018290527f00000000000000000000000000000000000000000000000000000000000000006001600160a01b0316906323b872dd906064016020604051808303816000875af11580156104d8573d6000803e3d6000fd5b505050506040513d601f19601f820116820180604052508101906104fc919061158a565b50806009600082825461050f91906115c2565b909155505050565b6040517f70a082310000000000000000000000000000000000000000000000000000000081523060048201526000907f00000000000000000000000000000000000000000000000000000000000000006001600160a01b0316906370a0823190602401602060405180830381865afa158015610597573d6000803e3d6000fd5b505050506040513d601f19601f820116820180604052508101906105bb91906115d5565b905090565b6000336001600160a01b037f0000000000000000000000000000000000000000000000000000000000000000161461063f5760405162461bcd60e51b815260206004820152601c60248201527f4f6e6c79205969656c644f7074696d697a65722063616e2063616c6c0000000060448201526064015b60405180910390fd5b610647610f12565b600082116106975760405162461bcd60e51b815260206004820152601d60248201527f416d6f756e74206d7573742062652067726561746572207468616e20300000006044820152606401610636565b326000908152600560205260409020546106f35760405162461bcd60e51b815260206004820152601560248201527f4e6f2073686172657320746f20776974686472617700000000000000000000006044820152606401610636565b60006106fe32610a14565b9050808311156107505760405162461bcd60e51b815260206004820152601460248201527f496e73756666696369656e742062616c616e63650000000000000000000000006044820152606401610636565b32600090815260056020526040812054829061076c90866115ee565b610776919061161b565b3260009081526005602052604081208054929350839290919061079a90849061162f565b9250508190555080600760008282546107b3919061162f565b90915550600090506107c485610f55565b905080600360008282546107d891906115c2565b909155506107e6905061104b565b6040517fa9059cbb0000000000000000000000000000000000000000000000000000000081526001600160a01b037f000000000000000000000000000000000000000000000000000000000000000081166004830152602482018390527f0000000000000000000000000000000000000000000000000000000000000000169063a9059cbb906044016020604051808303816000875af115801561088e573d6000803e3d6000fd5b505050506040513d601f19601f820116820180604052508101906108b2919061158a565b50604080518281526020810184905232917f92ccf450a286a957af52509bc1c9939d1a6a481783e142e41e2499f0bb66ebc6910160405180910390a2925050506108fb60018055565b919050565b600080600080600080610911610b5b565b60088054600a54600b54600954949b929a50909850965091945092509050565b610939610ecc565b60078110156109af5760405162461bcd60e51b8152602060048201526024808201527f5269736b2073636f726520746f6f206c6f7720666f722074686973207374726160448201527f74656779000000000000000000000000000000000000000000000000000000006064820152608401610636565b6001600160a01b0382166000818152600c60209081526040808320859055600d825291829020805460ff1916600117905590518381527fdfcf6c980ae9c32c3e4bc33303e744e8d29854944f383bf3cdf2ac93ed443373910160405180910390a25050565b6000600754600003610a2857506000919050565b6000306001600160a01b03166312065fe06040518163ffffffff1660e01b8152600401602060405180830381865afa158015610a68573d6000803e3d6000fd5b505050506040513d601f19601f82011682018060405250810190610a8c91906115d5565b6007546001600160a01b03851660009081526005602052604090205491925090610ab79083906115ee565b610ac1919061161b565b9392505050565b600080610ad3610b5b565b905064496cebb80083610ae683876115ee565b610af091906115ee565b610afa919061161b565b9150505b92915050565b6001600160a01b0381166000908152600d602052604081205460ff168015610afe5750506001600160a01b03166000908152600c60205260409020546007111590565b610b4f610ecc565b610b59600061128f565b565b6000806109c49050600061271060085483610b7691906115ee565b610b80919061161b565b90506000610b8c6112f7565b9050610b9881836115c2565b935050505090565b6000336001600160a01b037f00000000000000000000000000000000000000000000000000000000000000001614610c1a5760405162461bcd60e51b815260206004820152601c60248201527f4f6e6c79205969656c644f7074696d697a65722063616e2063616c6c000000006044820152606401610636565b610c22610f12565b610c2b32610b04565b610c9d5760405162461bcd60e51b815260206004820152602960248201527f55736572206e6f74207175616c696669656420666f7220686967682d7269736b60448201527f20737472617465677900000000000000000000000000000000000000000000006064820152608401610636565b60008211610ced5760405162461bcd60e51b815260206004820152601d60248201527f416d6f756e74206d7573742062652067726561746572207468616e20300000006044820152606401610636565b6040516323b872dd60e01b81526001600160a01b037f000000000000000000000000000000000000000000000000000000000000000081166004830152306024830152604482018490527f000000000000000000000000000000000000000000000000000000000000000016906323b872dd906064016020604051808303816000875af1158015610d82573d6000803e3d6000fd5b505050506040513d601f19601f82011682018060405250810190610da6919061158a565b506000610db283611381565b32600090815260056020526040812080549293508392909190610dd69084906115c2565b909155505032600090815260066020526040812042905560078054839290610dff9084906115c2565b925050819055508260026000828254610e1891906115c2565b90915550610e2790508361140a565b610e2f61104b565b604080518481526020810183905232917f73a19dd210f1a7f902193214c0ee91dd35ee5b4d920cba8d519eca65a7b488ca910160405180910390a290506108fb60018055565b610e7d610ecc565b6001600160a01b038116610ec0576040517f1e4fbdf700000000000000000000000000000000000000000000000000000000815260006004820152602401610636565b610ec98161128f565b50565b6000546001600160a01b03163314610b59576040517f118cdaa7000000000000000000000000000000000000000000000000000000008152336004820152602401610636565b600260015403610f4e576040517f3ee5aeb500000000000000000000000000000000000000000000000000000000815260040160405180910390fd5b6002600155565b6000610f5f61140e565b32600090815260066020526040812054610f79904261162f565b6040517f48a88706000000000000000000000000000000000000000000000000000000008152600481018590526024810182905290915060009030906348a8870690604401602060405180830381865afa158015610fdb573d6000803e3d6000fd5b505050506040513d601f19601f82011682018060405250810190610fff91906115d5565b9050600061100d8286611480565b9050600061271061101e83886115ee565b611028919061161b565b90508086116110375785611041565b611041818761162f565b9695505050505050565b6000612710424460025433604051602001611092949392919093845260208401929092526040830152606090811b6bffffffffffffffffffffffff19169082015260740190565b6040516020818303038152906040528051906020012060001c6110b59190611642565b90506103e8811080156110ca57506000600254115b156111ce5760006127106101f46002546110e491906115ee565b6110ee919061161b565b9050806009541061111657806009600082825461110b919061162f565b9091555061116f9050565b600060095482611126919061162f565b9050600060098190555080600b600082825461114291906115c2565b90915550506008546103e81061115a5761138861116a565b6103e860085461116a919061162f565b600855505b7f5a5ab2839b49637281301b13d6d1c9b46ae499b1c3c43c18af98c6c040b0cdf46001826000600754116111a45760006111a7565b60015b604080519315158452602084019290925260ff169082015260600160405180910390a15050565b612134811115610ec957600061271060025461012c6111ed91906115ee565b6111f7919061161b565b905080600a600082825461120b91906115c2565b9091555061121c905060028261161b565b6009600082825461122d91906115c2565b9091555050600854613a981161124557613a98611254565b600854611254906101f46115c2565b6008819055507f5a5ab2839b49637281301b13d6d1c9b46ae499b1c3c43c18af98c6c040b0cdf46000826000600754116111a45760006111a7565b600080546001600160a01b038381167fffffffffffffffffffffffff0000000000000000000000000000000000000000831681178455604051919092169283917f8be0079c531659141344cd1fd0a4f28419497f9722a3daafe3b4186f6b6457e09190a35050565b60006002546000036113095750600090565b6000600254600b5461271061131e91906115ee565b611328919061161b565b90506000600254600a5461271061133f91906115ee565b611349919061161b565b90506113568260026115ee565b8111156113675761012c9250505090565b808211156113785760009250505090565b60969250505090565b6000600754600003611391575090565b306001600160a01b03166312065fe06040518163ffffffff1660e01b8152600401602060405180830381865afa1580156113cf573d6000803e3d6000fd5b505050506040513d601f19601f820116820180604052508101906113f391906115d5565b60075461140090846115ee565b610afe919061161b565b610ec95b60006004544261141e919061162f565b9050620151808110610ec957612710600854111561145457606460086000828254611449919061162f565b909155506114799050565b61271060085410156114795760646008600082825461147391906115c2565b90915550505b4260045550565b60008260000361149257506000610afe565b6000826114a1856127106115ee565b6114ab919061161b565b90506107d08111156114c15760c8915050610afe565b6103e88111156114d5576096915050610afe565b6101f48111156114e9576064915050610afe565b5060329392505050565b60006020828403121561150557600080fd5b5035919050565b80356001600160a01b03811681146108fb57600080fd5b6000806040838503121561153657600080fd5b61153f8361150c565b946020939093013593505050565b60006020828403121561155f57600080fd5b610ac18261150c565b6000806040838503121561157b57600080fd5b50508035926020909101359150565b60006020828403121561159c57600080fd5b81518015158114610ac157600080fd5b634e487b7160e01b600052601160045260246000fd5b80820180821115610afe57610afe6115ac565b6000602082840312156115e757600080fd5b5051919050565b8082028115828204841417610afe57610afe6115ac565b634e487b7160e01b600052601260045260246000fd5b60008261162a5761162a611605565b500490565b81810381811115610afe57610afe6115ac565b60008261165157611651611605565b50069056fea164736f6c6343000814000a","opcodes":"PUSH1 0xC0 PUSH1 0x40 MSTORE PUSH2 0x2710 PUSH1 0x8 SSTORE CALLVALUE DUP1 ISZERO PUSH3 0x17 JUMPI PUSH1 0x0 DUP1 REVERT JUMPDEST POP PUSH1 0x40 MLOAD PUSH3 0x17F7 CODESIZE SUB DUP1 PUSH3 0x17F7 DUP4 CODECOPY DUP2 ADD PUSH1 0x40 DUP2 SWAP1 MSTORE PUSH3 0x3A SWAP2 PUSH3 0xFE JUMP JUMPDEST DUP2 DUP2 CALLER DUP1 PUSH3 0x63 JUMPI PUSH1 0x40 MLOAD PUSH4 0x1E4FBDF7 PUSH1 0xE0 SHL DUP2 MSTORE PUSH1 0x0 PUSH1 0x4 DUP3 ADD MSTORE PUSH1 0x24 ADD PUSH1 0x40 MLOAD DUP1 SWAP2 SUB SWAP1 REVERT JUMPDEST PUSH3 0x6E DUP2 PUSH3 0x91 JUMP JUMPDEST POP PUSH1 0x1 DUP1 SSTORE PUSH1 0x1 PUSH1 0x1 PUSH1 0xA0 SHL SUB SWAP2 DUP3 AND PUSH1 0x80 MSTORE AND PUSH1 0xA0 MSTORE POP POP TIMESTAMP PUSH1 0x4 SSTORE PUSH3 0x136 JUMP JUMPDEST PUSH1 0x0 DUP1 SLOAD PUSH1 0x1 PUSH1 0x1 PUSH1 0xA0 SHL SUB DUP4 DUP2 AND PUSH1 0x1 PUSH1 0x1 PUSH1 0xA0 SHL SUB NOT DUP4 AND DUP2 OR DUP5 SSTORE PUSH1 0x40 MLOAD SWAP2 SWAP1 SWAP3 AND SWAP3 DUP4 SWAP2 PUSH32 0x8BE0079C531659141344CD1FD0A4F28419497F9722A3DAAFE3B4186F6B6457E0 SWAP2 SWAP1 LOG3 POP POP JUMP JUMPDEST DUP1 MLOAD PUSH1 0x1 PUSH1 0x1 PUSH1 0xA0 SHL SUB DUP2 AND DUP2 EQ PUSH3 0xF9 JUMPI PUSH1 0x0 DUP1 REVERT JUMPDEST SWAP2 SWAP1 POP JUMP JUMPDEST PUSH1 0x0 DUP1 PUSH1 0x40 DUP4 DUP6 SUB SLT ISZERO PUSH3 0x112 JUMPI PUSH1 0x0 DUP1 REVERT JUMPDEST PUSH3 0x11D DUP4 PUSH3 0xE1 JUMP JUMPDEST SWAP2 POP PUSH3 0x12D PUSH1 0x20 DUP5 ADD PUSH3 0xE1 JUMP JUMPDEST SWAP1 POP SWAP3 POP SWAP3 SWAP1 POP JUMP JUMPDEST PUSH1 0x80 MLOAD PUSH1 0xA0 MLOAD PUSH2 0x1663 PUSH3 0x194 PUSH1 0x0 CODECOPY PUSH1 0x0 DUP2 DUP2 PUSH2 0x30D ADD MSTORE DUP2 DUP2 PUSH2 0x5CD ADD MSTORE DUP2 DUP2 PUSH2 0x816 ADD MSTORE DUP2 DUP2 PUSH2 0xBAD ADD MSTORE PUSH2 0xD04 ADD MSTORE PUSH1 0x0 DUP2 DUP2 PUSH2 0x3D6 ADD MSTORE DUP2 DUP2 PUSH2 0x487 ADD MSTORE DUP2 DUP2 PUSH2 0x548 ADD MSTORE DUP2 DUP2 PUSH2 0x845 ADD MSTORE PUSH2 0xD39 ADD MSTORE PUSH2 0x1663 PUSH1 0x0 RETURN INVALID PUSH1 0x80 PUSH1 0x40 MSTORE CALLVALUE DUP1 ISZERO PUSH2 0x10 JUMPI PUSH1 0x0 DUP1 REVERT JUMPDEST POP PUSH1 0x4 CALLDATASIZE LT PUSH2 0x1E5 JUMPI PUSH1 0x0 CALLDATALOAD PUSH1 0xE0 SHR DUP1 PUSH4 0x715018A6 GT PUSH2 0x10F JUMPI DUP1 PUSH4 0xBD998CB3 GT PUSH2 0xA2 JUMPI DUP1 PUSH4 0xCF27E06F GT PUSH2 0x71 JUMPI DUP1 PUSH4 0xCF27E06F EQ PUSH2 0x401 JUMPI DUP1 PUSH4 0xDE69B3AA EQ PUSH2 0x421 JUMPI DUP1 PUSH4 0xF2FDE38B EQ PUSH2 0x441 JUMPI DUP1 PUSH4 0xFF50ABDC EQ PUSH2 0x454 JUMPI PUSH1 0x0 DUP1 REVERT JUMPDEST DUP1 PUSH4 0xBD998CB3 EQ PUSH2 0x3BF JUMPI DUP1 PUSH4 0xBF04820B EQ PUSH2 0x3C8 JUMPI DUP1 PUSH4 0xC54E44EB EQ PUSH2 0x3D1 JUMPI DUP1 PUSH4 0xC8F33C91 EQ PUSH2 0x3F8 JUMPI PUSH1 0x0 DUP1 REVERT JUMPDEST DUP1 PUSH4 0x962CA496 GT PUSH2 0xDE JUMPI DUP1 PUSH4 0x962CA496 EQ PUSH2 0x378 JUMPI DUP1 PUSH4 0xA485B786 EQ PUSH2 0x380 JUMPI DUP1 PUSH4 0xB3BF4C45 EQ PUSH2 0x389 JUMPI DUP1 PUSH4 0xB6B55F25 EQ PUSH2 0x3AC JUMPI PUSH1 0x0 DUP1 REVERT JUMPDEST DUP1 PUSH4 0x715018A6 EQ PUSH2 0x300 JUMPI DUP1 PUSH4 0x7B4CAB3D EQ PUSH2 0x308 JUMPI DUP1 PUSH4 0x7FB4FB1B EQ PUSH2 0x347 JUMPI DUP1 PUSH4 0x8DA5CB5B EQ PUSH2 0x367 JUMPI PUSH1 0x0 DUP1 REVERT JUMPDEST DUP1 PUSH4 0x3A98EF39 GT PUSH2 0x187 JUMPI DUP1 PUSH4 0x4CA19FD6 GT PUSH2 0x156 JUMPI DUP1 PUSH4 0x4CA19FD6 EQ PUSH2 0x2C2 JUMPI DUP1 PUSH4 0x51A6F7C4 EQ PUSH2 0x2CB JUMPI DUP1 PUSH4 0x58ACC2CD EQ PUSH2 0x2EE JUMPI DUP1 PUSH4 0x6B558266 EQ PUSH2 0x2F7 JUMPI PUSH1 0x0 DUP1 REVERT JUMPDEST DUP1 PUSH4 0x3A98EF39 EQ PUSH2 0x28A JUMPI DUP1 PUSH4 0x47734892 EQ PUSH2 0x293 JUMPI DUP1 PUSH4 0x48A88706 EQ PUSH2 0x2A6 JUMPI DUP1 PUSH4 0x4B319713 EQ PUSH2 0x2B9 JUMPI PUSH1 0x0 DUP1 REVERT JUMPDEST DUP1 PUSH4 0x2EDE5AD6 GT PUSH2 0x1C3 JUMPI DUP1 PUSH4 0x2EDE5AD6 EQ PUSH2 0x22D JUMPI DUP1 PUSH4 0x31A58809 EQ PUSH2 0x262 JUMPI DUP1 PUSH4 0x39FA187C EQ PUSH2 0x275 JUMPI DUP1 PUSH4 0x3A5DDF30 EQ PUSH2 0x27E JUMPI PUSH1 0x0 DUP1 REVERT JUMPDEST DUP1 PUSH4 0xEF0E05B EQ PUSH2 0x1EA JUMPI DUP1 PUSH4 0x12065FE0 EQ PUSH2 0x1FF JUMPI DUP1 PUSH4 0x2E1A7D4D EQ PUSH2 0x21A JUMPI JUMPDEST PUSH1 0x0 DUP1 REVERT JUMPDEST PUSH2 0x1FD PUSH2 0x1F8 CALLDATASIZE PUSH1 0x4 PUSH2 0x14F3 JUMP JUMPDEST PUSH2 0x45D JUMP JUMPDEST STOP JUMPDEST PUSH2 0x207 PUSH2 0x517 JUMP JUMPDEST PUSH1 0x40 MLOAD SWAP1 DUP2 MSTORE PUSH1 0x20 ADD JUMPDEST PUSH1 0x40 MLOAD DUP1 SWAP2 SUB SWAP1 RETURN JUMPDEST PUSH2 0x207 PUSH2 0x228 CALLDATASIZE PUSH1 0x4 PUSH2 0x14F3 JUMP JUMPDEST PUSH2 0x5C0 JUMP JUMPDEST PUSH2 0x235 PUSH2 0x900 JUMP JUMPDEST PUSH1 0x40 DUP1 MLOAD SWAP7 DUP8 MSTORE PUSH1 0x20 DUP8 ADD SWAP6 SWAP1 SWAP6 MSTORE SWAP4 DUP6 ADD SWAP3 SWAP1 SWAP3 MSTORE PUSH1 0x60 DUP5 ADD MSTORE PUSH1 0x80 DUP4 ADD MSTORE PUSH1 0xA0 DUP3 ADD MSTORE PUSH1 0xC0 ADD PUSH2 0x211 JUMP JUMPDEST PUSH2 0x1FD PUSH2 0x270 CALLDATASIZE PUSH1 0x4 PUSH2 0x1523 JUMP JUMPDEST PUSH2 0x931 JUMP JUMPDEST PUSH2 0x207 PUSH1 0x9 SLOAD DUP2 JUMP JUMPDEST PUSH2 0x207 PUSH5 0x2E90EDD000 DUP2 JUMP JUMPDEST PUSH2 0x207 PUSH1 0x7 SLOAD DUP2 JUMP JUMPDEST PUSH2 0x207 PUSH2 0x2A1 CALLDATASIZE PUSH1 0x4 PUSH2 0x154D JUMP JUMPDEST PUSH2 0xA14 JUMP JUMPDEST PUSH2 0x207 PUSH2 0x2B4 CALLDATASIZE PUSH1 0x4 PUSH2 0x1568 JUMP JUMPDEST PUSH2 0xAC8 JUMP JUMPDEST PUSH2 0x207 PUSH1 0x3 SLOAD DUP2 JUMP JUMPDEST PUSH2 0x207 PUSH2 0x9C4 DUP2 JUMP JUMPDEST PUSH2 0x2DE PUSH2 0x2D9 CALLDATASIZE PUSH1 0x4 PUSH2 0x154D JUMP JUMPDEST PUSH2 0xB04 JUMP JUMPDEST PUSH1 0x40 MLOAD SWAP1 ISZERO ISZERO DUP2 MSTORE PUSH1 0x20 ADD PUSH2 0x211 JUMP JUMPDEST PUSH2 0x207 PUSH2 0x3E8 DUP2 JUMP JUMPDEST PUSH2 0x207 PUSH2 0x1F4 DUP2 JUMP JUMPDEST PUSH2 0x1FD PUSH2 0xB47 JUMP JUMPDEST PUSH2 0x32F PUSH32 0x0 DUP2 JUMP JUMPDEST PUSH1 0x40 MLOAD PUSH1 0x1 PUSH1 0x1 PUSH1 0xA0 SHL SUB SWAP1 SWAP2 AND DUP2 MSTORE PUSH1 0x20 ADD PUSH2 0x211 JUMP JUMPDEST PUSH2 0x207 PUSH2 0x355 CALLDATASIZE PUSH1 0x4 PUSH2 0x154D JUMP JUMPDEST PUSH1 0xC PUSH1 0x20 MSTORE PUSH1 0x0 SWAP1 DUP2 MSTORE PUSH1 0x40 SWAP1 KECCAK256 SLOAD DUP2 JUMP JUMPDEST PUSH1 0x0 SLOAD PUSH1 0x1 PUSH1 0x1 PUSH1 0xA0 SHL SUB AND PUSH2 0x32F JUMP JUMPDEST PUSH2 0x207 PUSH2 0xB5B JUMP JUMPDEST PUSH2 0x207 PUSH1 0x8 SLOAD DUP2 JUMP JUMPDEST PUSH2 0x2DE PUSH2 0x397 CALLDATASIZE PUSH1 0x4 PUSH2 0x154D JUMP JUMPDEST PUSH1 0xD PUSH1 0x20 MSTORE PUSH1 0x0 SWAP1 DUP2 MSTORE PUSH1 0x40 SWAP1 KECCAK256 SLOAD PUSH1 0xFF AND DUP2 JUMP JUMPDEST PUSH2 0x207 PUSH2 0x3BA CALLDATASIZE PUSH1 0x4 PUSH2 0x14F3 JUMP JUMPDEST PUSH2 0xBA0 JUMP JUMPDEST PUSH2 0x207 PUSH1 0xA SLOAD DUP2 JUMP JUMPDEST PUSH2 0x207 PUSH1 0xB SLOAD DUP2 JUMP JUMPDEST PUSH2 0x32F PUSH32 0x0 DUP2 JUMP JUMPDEST PUSH2 0x207 PUSH1 0x4 SLOAD DUP2 JUMP JUMPDEST PUSH2 0x207 PUSH2 0x40F CALLDATASIZE PUSH1 0x4 PUSH2 0x154D JUMP JUMPDEST PUSH1 0x6 PUSH1 0x20 MSTORE PUSH1 0x0 SWAP1 DUP2 MSTORE PUSH1 0x40 SWAP1 KECCAK256 SLOAD DUP2 JUMP JUMPDEST PUSH2 0x207 PUSH2 0x42F CALLDATASIZE PUSH1 0x4 PUSH2 0x154D JUMP JUMPDEST PUSH1 0x5 PUSH1 0x20 MSTORE PUSH1 0x0 SWAP1 DUP2 MSTORE PUSH1 0x40 SWAP1 KECCAK256 SLOAD DUP2 JUMP JUMPDEST PUSH2 0x1FD PUSH2 0x44F CALLDATASIZE PUSH1 0x4 PUSH2 0x154D JUMP JUMPDEST PUSH2 0xE75 JUMP JUMPDEST PUSH2 0x207 PUSH1 0x2 SLOAD DUP2 JUMP JUMPDEST PUSH2 0x465 PUSH2 0xECC JUMP JUMPDEST PUSH1 0x40 MLOAD PUSH4 0x23B872DD PUSH1 0xE0 SHL DUP2 MSTORE CALLER PUSH1 0x4 DUP3 ADD MSTORE ADDRESS PUSH1 0x24 DUP3 ADD MSTORE PUSH1 0x44 DUP2 ADD DUP3 SWAP1 MSTORE PUSH32 0x0 PUSH1 0x1 PUSH1 0x1 PUSH1 0xA0 SHL SUB AND SWAP1 PUSH4 0x23B872DD SWAP1 PUSH1 0x64 ADD PUSH1 0x20 PUSH1 0x40 MLOAD DUP1 DUP4 SUB DUP2 PUSH1 0x0 DUP8 GAS CALL ISZERO DUP1 ISZERO PUSH2 0x4D8 JUMPI RETURNDATASIZE PUSH1 0x0 DUP1 RETURNDATACOPY RETURNDATASIZE PUSH1 0x0 REVERT JUMPDEST POP POP POP POP PUSH1 0x40 MLOAD RETURNDATASIZE PUSH1 0x1F NOT PUSH1 0x1F DUP3 ADD AND DUP3 ADD DUP1 PUSH1 0x40 MSTORE POP DUP2 ADD SWAP1 PUSH2 0x4FC SWAP2 SWAP1 PUSH2 0x158A JUMP JUMPDEST POP DUP1 PUSH1 0x9 PUSH1 0x0 DUP3 DUP3 SLOAD PUSH2 0x50F SWAP2 SWAP1 PUSH2 0x15C2 JUMP JUMPDEST SWAP1 SWAP2 SSTORE POP POP POP JUMP JUMPDEST PUSH1 0x40 MLOAD PUSH32 0x70A0823100000000000000000000000000000000000000000000000000000000 DUP2 MSTORE ADDRESS PUSH1 0x4 DUP3 ADD MSTORE PUSH1 0x0 SWAP1 PUSH32 0x0 PUSH1 0x1 PUSH1 0x1 PUSH1 0xA0 SHL SUB AND SWAP1 PUSH4 0x70A08231 SWAP1 PUSH1 0x24 ADD PUSH1 0x20 PUSH1 0x40 MLOAD DUP1 DUP4 SUB DUP2 DUP7 GAS STATICCALL ISZERO DUP1 ISZERO PUSH2 0x597 JUMPI RETURNDATASIZE PUSH1 0x0 DUP1 RETURNDATACOPY RETURNDATASIZE PUSH1 0x0 REVERT JUMPDEST POP POP POP POP PUSH1 0x40 MLOAD RETURNDATASIZE PUSH1 0x1F NOT PUSH1 0x1F DUP3 ADD AND DUP3 ADD DUP1 PUSH1 0x40 MSTORE POP DUP2 ADD SWAP1 PUSH2 0x5BB SWAP2 SWAP1 PUSH2 0x15D5 JUMP JUMPDEST SWAP1 POP SWAP1 JUMP JUMPDEST PUSH1 0x0 CALLER PUSH1 0x1 PUSH1 0x1 PUSH1 0xA0 SHL SUB PUSH32 0x0 AND EQ PUSH2 0x63F JUMPI PUSH1 0x40 MLOAD PUSH3 0x461BCD PUSH1 0xE5 SHL DUP2 MSTORE PUSH1 0x20 PUSH1 0x4 DUP3 ADD MSTORE PUSH1 0x1C PUSH1 0x24 DUP3 ADD MSTORE PUSH32 0x4F6E6C79205969656C644F7074696D697A65722063616E2063616C6C00000000 PUSH1 0x44 DUP3 ADD MSTORE PUSH1 0x64 ADD JUMPDEST PUSH1 0x40 MLOAD DUP1 SWAP2 SUB SWAP1 REVERT JUMPDEST PUSH2 0x647 PUSH2 0xF12 JUMP JUMPDEST PUSH1 0x0 DUP3 GT PUSH2 0x697 JUMPI PUSH1 0x40 MLOAD PUSH3 0x461BCD PUSH1 0xE5 SHL DUP2 MSTORE PUSH1 0x20 PUSH1 0x4 DUP3 ADD MSTORE PUSH1 0x1D PUSH1 0x24 DUP3 ADD MSTORE PUSH32 0x416D6F756E74206D7573742062652067726561746572207468616E2030000000 PUSH1 0x44 DUP3 ADD MSTORE PUSH1 0x64 ADD PUSH2 0x636 JUMP JUMPDEST ORIGIN PUSH1 0x0 SWAP1 DUP2 MSTORE PUSH1 0x5 PUSH1 0x20 MSTORE PUSH1 0x40 SWAP1 KECCAK256 SLOAD PUSH2 0x6F3 JUMPI PUSH1 0x40 MLOAD PUSH3 0x461BCD PUSH1 0xE5 SHL DUP2 MSTORE PUSH1 0x20 PUSH1 0x4 DUP3 ADD MSTORE PUSH1 0x15 PUSH1 0x24 DUP3 ADD MSTORE PUSH32 0x4E6F2073686172657320746F2077697468647261770000000000000000000000 PUSH1 0x44 DUP3 ADD MSTORE PUSH1 0x64 ADD PUSH2 0x636 JUMP JUMPDEST PUSH1 0x0 PUSH2 0x6FE ORIGIN PUSH2 0xA14 JUMP JUMPDEST SWAP1 POP DUP1 DUP4 GT ISZERO PUSH2 0x750 JUMPI PUSH1 0x40 MLOAD PUSH3 0x461BCD PUSH1 0xE5 SHL DUP2 MSTORE PUSH1 0x20 PUSH1 0x4 DUP3 ADD MSTORE PUSH1 0x14 PUSH1 0x24 DUP3 ADD MSTORE PUSH32 0x496E73756666696369656E742062616C616E6365000000000000000000000000 PUSH1 0x44 DUP3 ADD MSTORE PUSH1 0x64 ADD PUSH2 0x636 JUMP JUMPDEST ORIGIN PUSH1 0x0 SWAP1 DUP2 MSTORE PUSH1 0x5 PUSH1 0x20 MSTORE PUSH1 0x40 DUP2 KECCAK256 SLOAD DUP3 SWAP1 PUSH2 0x76C SWAP1 DUP7 PUSH2 0x15EE JUMP JUMPDEST PUSH2 0x776 SWAP2 SWAP1 PUSH2 0x161B JUMP JUMPDEST ORIGIN PUSH1 0x0 SWAP1 DUP2 MSTORE PUSH1 0x5 PUSH1 0x20 MSTORE PUSH1 0x40 DUP2 KECCAK256 DUP1 SLOAD SWAP3 SWAP4 POP DUP4 SWAP3 SWAP1 SWAP2 SWAP1 PUSH2 0x79A SWAP1 DUP5 SWAP1 PUSH2 0x162F JUMP JUMPDEST SWAP3 POP POP DUP2 SWAP1 SSTORE POP DUP1 PUSH1 0x7 PUSH1 0x0 DUP3 DUP3 SLOAD PUSH2 0x7B3 SWAP2 SWAP1 PUSH2 0x162F JUMP JUMPDEST SWAP1 SWAP2 SSTORE POP PUSH1 0x0 SWAP1 POP PUSH2 0x7C4 DUP6 PUSH2 0xF55 JUMP JUMPDEST SWAP1 POP DUP1 PUSH1 0x3 PUSH1 0x0 DUP3 DUP3 SLOAD PUSH2 0x7D8 SWAP2 SWAP1 PUSH2 0x15C2 JUMP JUMPDEST SWAP1 SWAP2 SSTORE POP PUSH2 0x7E6 SWAP1 POP PUSH2 0x104B JUMP JUMPDEST PUSH1 0x40 MLOAD PUSH32 0xA9059CBB00000000000000000000000000000000000000000000000000000000 DUP2 MSTORE PUSH1 0x1 PUSH1 0x1 PUSH1 0xA0 SHL SUB PUSH32 0x0 DUP2 AND PUSH1 0x4 DUP4 ADD MSTORE PUSH1 0x24 DUP3 ADD DUP4 SWAP1 MSTORE PUSH32 0x0 AND SWAP1 PUSH4 0xA9059CBB SWAP1 PUSH1 0x44 ADD PUSH1 0x20 PUSH1 0x40 MLOAD DUP1 DUP4 SUB DUP2 PUSH1 0x0 DUP8 GAS CALL ISZERO DUP1 ISZERO PUSH2 0x88E JUMPI RETURNDATASIZE PUSH1 0x0 DUP1 RETURNDATACOPY RETURNDATASIZE PUSH1 0x0 REVERT JUMPDEST POP POP POP POP PUSH1 0x40 MLOAD RETURNDATASIZE PUSH1 0x1F NOT PUSH1 0x1F DUP3 ADD AND DUP3 ADD DUP1 PUSH1 0x40 MSTORE POP DUP2 ADD SWAP1 PUSH2 0x8B2 SWAP2 SWAP1 PUSH2 0x158A JUMP JUMPDEST POP PUSH1 0x40 DUP1 MLOAD DUP3 DUP2 MSTORE PUSH1 0x20 DUP2 ADD DUP5 SWAP1 MSTORE ORIGIN SWAP2 PUSH32 0x92CCF450A286A957AF52509BC1C9939D1A6A481783E142E41E2499F0BB66EBC6 SWAP2 ADD PUSH1 0x40 MLOAD DUP1 SWAP2 SUB SWAP1 LOG2 SWAP3 POP POP POP PUSH2 0x8FB PUSH1 0x1 DUP1 SSTORE JUMP JUMPDEST SWAP2 SWAP1 POP JUMP JUMPDEST PUSH1 0x0 DUP1 PUSH1 0x0 DUP1 PUSH1 0x0 DUP1 PUSH2 0x911 PUSH2 0xB5B JUMP JUMPDEST PUSH1 0x8 DUP1 SLOAD PUSH1 0xA SLOAD PUSH1 0xB SLOAD PUSH1 0x9 SLOAD SWAP5 SWAP12 SWAP3 SWAP11 POP SWAP1 SWAP9 POP SWAP7 POP SWAP2 SWAP5 POP SWAP3 POP SWAP1 POP JUMP JUMPDEST PUSH2 0x939 PUSH2 0xECC JUMP JUMPDEST PUSH1 0x7 DUP2 LT ISZERO PUSH2 0x9AF JUMPI PUSH1 0x40 MLOAD PUSH3 0x461BCD PUSH1 0xE5 SHL DUP2 MSTORE PUSH1 0x20 PUSH1 0x4 DUP3 ADD MSTORE PUSH1 0x24 DUP1 DUP3 ADD MSTORE PUSH32 0x5269736B2073636F726520746F6F206C6F7720666F7220746869732073747261 PUSH1 0x44 DUP3 ADD MSTORE PUSH32 0x7465677900000000000000000000000000000000000000000000000000000000 PUSH1 0x64 DUP3 ADD MSTORE PUSH1 0x84 ADD PUSH2 0x636 JUMP JUMPDEST PUSH1 0x1 PUSH1 0x1 PUSH1 0xA0 SHL SUB DUP3 AND PUSH1 0x0 DUP2 DUP2 MSTORE PUSH1 0xC PUSH1 0x20 SWAP1 DUP2 MSTORE PUSH1 0x40 DUP1 DUP4 KECCAK256 DUP6 SWAP1 SSTORE PUSH1 0xD DUP3 MSTORE SWAP2 DUP3 SWAP1 KECCAK256 DUP1 SLOAD PUSH1 0xFF NOT AND PUSH1 0x1 OR SWAP1 SSTORE SWAP1 MLOAD DUP4 DUP2 MSTORE PUSH32 0xDFCF6C980AE9C32C3E4BC33303E744E8D29854944F383BF3CDF2AC93ED443373 SWAP2 ADD PUSH1 0x40 MLOAD DUP1 SWAP2 SUB SWAP1 LOG2 POP POP JUMP JUMPDEST PUSH1 0x0 PUSH1 0x7 SLOAD PUSH1 0x0 SUB PUSH2 0xA28 JUMPI POP PUSH1 0x0 SWAP2 SWAP1 POP JUMP JUMPDEST PUSH1 0x0 ADDRESS PUSH1 0x1 PUSH1 0x1 PUSH1 0xA0 SHL SUB AND PUSH4 0x12065FE0 PUSH1 0x40 MLOAD DUP2 PUSH4 0xFFFFFFFF AND PUSH1 0xE0 SHL DUP2 MSTORE PUSH1 0x4 ADD PUSH1 0x20 PUSH1 0x40 MLOAD DUP1 DUP4 SUB DUP2 DUP7 GAS STATICCALL ISZERO DUP1 ISZERO PUSH2 0xA68 JUMPI RETURNDATASIZE PUSH1 0x0 DUP1 RETURNDATACOPY RETURNDATASIZE PUSH1 0x0 REVERT JUMPDEST POP POP POP POP PUSH1 0x40 MLOAD RETURNDATASIZE PUSH1 0x1F NOT PUSH1 0x1F DUP3 ADD AND DUP3 ADD DUP1 PUSH1 0x40 MSTORE POP DUP2 ADD SWAP1 PUSH2 0xA8C SWAP2 SWAP1 PUSH2 0x15D5 JUMP JUMPDEST PUSH1 0x7 SLOAD PUSH1 0x1 PUSH1 0x1 PUSH1 0xA0 SHL SUB DUP6 AND PUSH1 0x0 SWAP1 DUP2 MSTORE PUSH1 0x5 PUSH1 0x20 MSTORE PUSH1 0x40 SWAP1 KECCAK256 SLOAD SWAP2 SWAP3 POP SWAP1 PUSH2 0xAB7 SWAP1 DUP4 SWAP1 PUSH2 0x15EE JUMP JUMPDEST PUSH2 0xAC1 SWAP2 SWAP1 PUSH2 0x161B JUMP JUMPDEST SWAP4 SWAP3 POP POP POP JUMP JUMPDEST PUSH1 0x0 DUP1 PUSH2 0xAD3 PUSH2 0xB5B JUMP JUMPDEST SWAP1 POP PUSH5 0x496CEBB800 DUP4 PUSH2 0xAE6 DUP4 DUP8 PUSH2 0x15EE JUMP JUMPDEST PUSH2 0xAF0 SWAP2 SWAP1 PUSH2 0x15EE JUMP JUMPDEST PUSH2 0xAFA SWAP2 SWAP1 PUSH2 0x161B JUMP JUMPDEST SWAP2 POP POP JUMPDEST SWAP3 SWAP2 POP POP JUMP JUMPDEST PUSH1 0x1 PUSH1 0x1 PUSH1 0xA0 SHL SUB DUP2 AND PUSH1 0x0 SWAP1 DUP2 MSTORE PUSH1 0xD PUSH1 0x20 MSTORE PUSH1 0x40 DUP2 KECCAK256 SLOAD PUSH1 0xFF AND DUP1 ISZERO PUSH2 0xAFE JUMPI POP POP PUSH1 0x1 PUSH1 0x1 PUSH1 0xA0 SHL SUB AND PUSH1 0x0 SWAP1 DUP2 MSTORE PUSH1 0xC PUSH1 0x20 MSTORE PUSH1 0x40 SWAP1 KECCAK256 SLOAD PUSH1 0x7 GT ISZERO SWAP1 JUMP JUMPDEST PUSH2 0xB4F PUSH2 0xECC JUMP JUMPDEST PUSH2 0xB59 PUSH1 0x0 PUSH2 0x128F JUMP JUMPDEST JUMP JUMPDEST PUSH1 0x0 DUP1 PUSH2 0x9C4 SWAP1 POP PUSH1 0x0 PUSH2 0x2710 PUSH1 0x8 SLOAD DUP4 PUSH2 0xB76 SWAP2 SWAP1 PUSH2 0x15EE JUMP JUMPDEST PUSH2 0xB80 SWAP2 SWAP1 PUSH2 0x161B JUMP JUMPDEST SWAP1 POP PUSH1 0x0 PUSH2 0xB8C PUSH2 0x12F7 JUMP JUMPDEST SWAP1 POP PUSH2 0xB98 DUP2 DUP4 PUSH2 0x15C2 JUMP JUMPDEST SWAP4 POP POP POP POP SWAP1 JUMP JUMPDEST PUSH1 0x0 CALLER PUSH1 0x1 PUSH1 0x1 PUSH1 0xA0 SHL SUB PUSH32 0x0 AND EQ PUSH2 0xC1A JUMPI PUSH1 0x40 MLOAD PUSH3 0x461BCD PUSH1 0xE5 SHL DUP2 MSTORE PUSH1 0x20 PUSH1 0x4 DUP3 ADD MSTORE PUSH1 0x1C PUSH1 0x24 DUP3 ADD MSTORE PUSH32 0x4F6E6C79205969656C644F7074696D697A65722063616E2063616C6C00000000 PUSH1 0x44 DUP3 ADD MSTORE PUSH1 0x64 ADD PUSH2 0x636 JUMP JUMPDEST PUSH2 0xC22 PUSH2 0xF12 JUMP JUMPDEST PUSH2 0xC2B ORIGIN PUSH2 0xB04 JUMP JUMPDEST PUSH2 0xC9D JUMPI PUSH1 0x40 MLOAD PUSH3 0x461BCD PUSH1 0xE5 SHL DUP2 MSTORE PUSH1 0x20 PUSH1 0x4 DUP3 ADD MSTORE PUSH1 0x29 PUSH1 0x24 DUP3 ADD MSTORE PUSH32 0x55736572206E6F74207175616C696669656420666F7220686967682D7269736B PUSH1 0x44 DUP3 ADD MSTORE PUSH32 0x2073747261746567790000000000000000000000000000000000000000000000 PUSH1 0x64 DUP3 ADD MSTORE PUSH1 0x84 ADD PUSH2 0x636 JUMP JUMPDEST PUSH1 0x0 DUP3 GT PUSH2 0xCED JUMPI PUSH1 0x40 MLOAD PUSH3 0x461BCD PUSH1 0xE5 SHL DUP2 MSTORE PUSH1 0x20 PUSH1 0x4 DUP3 ADD MSTORE PUSH1 0x1D PUSH1 0x24 DUP3 ADD MSTORE PUSH32 0x416D6F756E74206D7573742062652067726561746572207468616E2030000000 PUSH1 0x44 DUP3 ADD MSTORE PUSH1 0x64 ADD PUSH2 0x636 JUMP JUMPDEST PUSH1 0x40 MLOAD PUSH4 0x23B872DD PUSH1 0xE0 SHL DUP2 MSTORE PUSH1 0x1 PUSH1 0x1 PUSH1 0xA0 SHL SUB PUSH32 0x0 DUP2 AND PUSH1 0x4 DUP4 ADD MSTORE ADDRESS PUSH1 0x24 DUP4 ADD MSTORE PUSH1 0x44 DUP3 ADD DUP5 SWAP1 MSTORE PUSH32 0x0 AND SWAP1 PUSH4 0x23B872DD SWAP1 PUSH1 0x64 ADD PUSH1 0x20 PUSH1 0x40 MLOAD DUP1 DUP4 SUB DUP2 PUSH1 0x0 DUP8 GAS CALL ISZERO DUP1 ISZERO PUSH2 0xD82 JUMPI RETURNDATASIZE PUSH1 0x0 DUP1 RETURNDATACOPY RETURNDATASIZE PUSH1 0x0 REVERT JUMPDEST POP POP POP POP PUSH1 0x40 MLOAD RETURNDATASIZE PUSH1 0x1F NOT PUSH1 0x1F DUP3 ADD AND DUP3 ADD DUP1 PUSH1 0x40 MSTORE POP DUP2 ADD SWAP1 PUSH2 0xDA6 SWAP2 SWAP1 PUSH2 0x158A JUMP JUMPDEST POP PUSH1 0x0 PUSH2 0xDB2 DUP4 PUSH2 0x1381 JUMP JUMPDEST ORIGIN PUSH1 0x0 SWAP1 DUP2 MSTORE PUSH1 0x5 PUSH1 0x20 MSTORE PUSH1 0x40 DUP2 KECCAK256 DUP1 SLOAD SWAP3 SWAP4 POP DUP4 SWAP3 SWAP1 SWAP2 SWAP1 PUSH2 0xDD6 SWAP1 DUP5 SWAP1 PUSH2 0x15C2 JUMP JUMPDEST SWAP1 SWAP2 SSTORE POP POP ORIGIN PUSH1 0x0 SWAP1 DUP2 MSTORE PUSH1 0x6 PUSH1 0x20 MSTORE PUSH1 0x40 DUP2 KECCAK256 TIMESTAMP SWAP1 SSTORE PUSH1 0x7 DUP1 SLOAD DUP4 SWAP3 SWAP1 PUSH2 0xDFF SWAP1 DUP5 SWAP1 PUSH2 0x15C2 JUMP JUMPDEST SWAP3 POP POP DUP2 SWAP1 SSTORE POP DUP3 PUSH1 0x2 PUSH1 0x0 DUP3 DUP3 SLOAD PUSH2 0xE18 SWAP2 SWAP1 PUSH2 0x15C2 JUMP JUMPDEST SWAP1 SWAP2 SSTORE POP PUSH2 0xE27 SWAP1 POP DUP4 PUSH2 0x140A JUMP JUMPDEST PUSH2 0xE2F PUSH2 0x104B JUMP JUMPDEST PUSH1 0x40 DUP1 MLOAD DUP5 DUP2 MSTORE PUSH1 0x20 DUP2 ADD DUP4 SWAP1 MSTORE ORIGIN SWAP2 PUSH32 0x73A19DD210F1A7F902193214C0EE91DD35EE5B4D920CBA8D519ECA65A7B488CA SWAP2 ADD PUSH1 0x40 MLOAD DUP1 SWAP2 SUB SWAP1 LOG2 SWAP1 POP PUSH2 0x8FB PUSH1 0x1 DUP1 SSTORE JUMP JUMPDEST PUSH2 0xE7D PUSH2 0xECC JUMP JUMPDEST PUSH1 0x1 PUSH1 0x1 PUSH1 0xA0 SHL SUB DUP2 AND PUSH2 0xEC0 JUMPI PUSH1 0x40 MLOAD PUSH32 0x1E4FBDF700000000000000000000000000000000000000000000000000000000 DUP2 MSTORE PUSH1 0x0 PUSH1 0x4 DUP3 ADD MSTORE PUSH1 0x24 ADD PUSH2 0x636 JUMP JUMPDEST PUSH2 0xEC9 DUP2 PUSH2 0x128F JUMP JUMPDEST POP JUMP JUMPDEST PUSH1 0x0 SLOAD PUSH1 0x1 PUSH1 0x1 PUSH1 0xA0 SHL SUB AND CALLER EQ PUSH2 0xB59 JUMPI PUSH1 0x40 MLOAD PUSH32 0x118CDAA700000000000000000000000000000000000000000000000000000000 DUP2 MSTORE CALLER PUSH1 0x4 DUP3 ADD MSTORE PUSH1 0x24 ADD PUSH2 0x636 JUMP JUMPDEST PUSH1 0x2 PUSH1 0x1 SLOAD SUB PUSH2 0xF4E JUMPI PUSH1 0x40 MLOAD PUSH32 0x3EE5AEB500000000000000000000000000000000000000000000000000000000 DUP2 MSTORE PUSH1 0x4 ADD PUSH1 0x40 MLOAD DUP1 SWAP2 SUB SWAP1 REVERT JUMPDEST PUSH1 0x2 PUSH1 0x1 SSTORE JUMP JUMPDEST PUSH1 0x0 PUSH2 0xF5F PUSH2 0x140E JUMP JUMPDEST ORIGIN PUSH1 0x0 SWAP1 DUP2 MSTORE PUSH1 0x6 PUSH1 0x20 MSTORE PUSH1 0x40 DUP2 KECCAK256 SLOAD PUSH2 0xF79 SWAP1 TIMESTAMP PUSH2 0x162F JUMP JUMPDEST PUSH1 0x40 MLOAD PUSH32 0x48A8870600000000000000000000000000000000000000000000000000000000 DUP2 MSTORE PUSH1 0x4 DUP2 ADD DUP6 SWAP1 MSTORE PUSH1 0x24 DUP2 ADD DUP3 SWAP1 MSTORE SWAP1 SWAP2 POP PUSH1 0x0 SWAP1 ADDRESS SWAP1 PUSH4 0x48A88706 SWAP1 PUSH1 0x44 ADD PUSH1 0x20 PUSH1 0x40 MLOAD DUP1 DUP4 SUB DUP2 DUP7 GAS STATICCALL ISZERO DUP1 ISZERO PUSH2 0xFDB JUMPI RETURNDATASIZE PUSH1 0x0 DUP1 RETURNDATACOPY RETURNDATASIZE PUSH1 0x0 REVERT JUMPDEST POP POP POP POP PUSH1 0x40 MLOAD RETURNDATASIZE PUSH1 0x1F NOT PUSH1 0x1F DUP3 ADD AND DUP3 ADD DUP1 PUSH1 0x40 MSTORE POP DUP2 ADD SWAP1 PUSH2 0xFFF SWAP2 SWAP1 PUSH2 0x15D5 JUMP JUMPDEST SWAP1 POP PUSH1 0x0 PUSH2 0x100D DUP3 DUP7 PUSH2 0x1480 JUMP JUMPDEST SWAP1 POP PUSH1 0x0 PUSH2 0x2710 PUSH2 0x101E DUP4 DUP9 PUSH2 0x15EE JUMP JUMPDEST PUSH2 0x1028 SWAP2 SWAP1 PUSH2 0x161B JUMP JUMPDEST SWAP1 POP DUP1 DUP7 GT PUSH2 0x1037 JUMPI DUP6 PUSH2 0x1041 JUMP JUMPDEST PUSH2 0x1041 DUP2 DUP8 PUSH2 0x162F JUMP JUMPDEST SWAP7 SWAP6 POP POP POP POP POP POP JUMP JUMPDEST PUSH1 0x0 PUSH2 0x2710 TIMESTAMP PREVRANDAO PUSH1 0x2 SLOAD CALLER PUSH1 0x40 MLOAD PUSH1 0x20 ADD PUSH2 0x1092 SWAP5 SWAP4 SWAP3 SWAP2 SWAP1 SWAP4 DUP5 MSTORE PUSH1 0x20 DUP5 ADD SWAP3 SWAP1 SWAP3 MSTORE PUSH1 0x40 DUP4 ADD MSTORE PUSH1 0x60 SWAP1 DUP2 SHL PUSH12 0xFFFFFFFFFFFFFFFFFFFFFFFF NOT AND SWAP1 DUP3 ADD MSTORE PUSH1 0x74 ADD SWAP1 JUMP JUMPDEST PUSH1 0x40 MLOAD PUSH1 0x20 DUP2 DUP4 SUB SUB DUP2 MSTORE SWAP1 PUSH1 0x40 MSTORE DUP1 MLOAD SWAP1 PUSH1 0x20 ADD KECCAK256 PUSH1 0x0 SHR PUSH2 0x10B5 SWAP2 SWAP1 PUSH2 0x1642 JUMP JUMPDEST SWAP1 POP PUSH2 0x3E8 DUP2 LT DUP1 ISZERO PUSH2 0x10CA JUMPI POP PUSH1 0x0 PUSH1 0x2 SLOAD GT JUMPDEST ISZERO PUSH2 0x11CE JUMPI PUSH1 0x0 PUSH2 0x2710 PUSH2 0x1F4 PUSH1 0x2 SLOAD PUSH2 0x10E4 SWAP2 SWAP1 PUSH2 0x15EE JUMP JUMPDEST PUSH2 0x10EE SWAP2 SWAP1 PUSH2 0x161B JUMP JUMPDEST SWAP1 POP DUP1 PUSH1 0x9 SLOAD LT PUSH2 0x1116 JUMPI DUP1 PUSH1 0x9 PUSH1 0x0 DUP3 DUP3 SLOAD PUSH2 0x110B SWAP2 SWAP1 PUSH2 0x162F JUMP JUMPDEST SWAP1 SWAP2 SSTORE POP PUSH2 0x116F SWAP1 POP JUMP JUMPDEST PUSH1 0x0 PUSH1 0x9 SLOAD DUP3 PUSH2 0x1126 SWAP2 SWAP1 PUSH2 0x162F JUMP JUMPDEST SWAP1 POP PUSH1 0x0 PUSH1 0x9 DUP2 SWAP1 SSTORE POP DUP1 PUSH1 0xB PUSH1 0x0 DUP3 DUP3 SLOAD PUSH2 0x1142 SWAP2 SWAP1 PUSH2 0x15C2 JUMP JUMPDEST SWAP1 SWAP2 SSTORE POP POP PUSH1 0x8 SLOAD PUSH2 0x3E8 LT PUSH2 0x115A JUMPI PUSH2 0x1388 PUSH2 0x116A JUMP JUMPDEST PUSH2 0x3E8 PUSH1 0x8 SLOAD PUSH2 0x116A SWAP2 SWAP1 PUSH2 0x162F JUMP JUMPDEST PUSH1 0x8 SSTORE POP JUMPDEST PUSH32 0x5A5AB2839B49637281301B13D6D1C9B46AE499B1C3C43C18AF98C6C040B0CDF4 PUSH1 0x1 DUP3 PUSH1 0x0 PUSH1 0x7 SLOAD GT PUSH2 0x11A4 JUMPI PUSH1 0x0 PUSH2 0x11A7 JUMP JUMPDEST PUSH1 0x1 JUMPDEST PUSH1 0x40 DUP1 MLOAD SWAP4 ISZERO ISZERO DUP5 MSTORE PUSH1 0x20 DUP5 ADD SWAP3 SWAP1 SWAP3 MSTORE PUSH1 0xFF AND SWAP1 DUP3 ADD MSTORE PUSH1 0x60 ADD PUSH1 0x40 MLOAD DUP1 SWAP2 SUB SWAP1 LOG1 POP POP JUMP JUMPDEST PUSH2 0x2134 DUP2 GT ISZERO PUSH2 0xEC9 JUMPI PUSH1 0x0 PUSH2 0x2710 PUSH1 0x2 SLOAD PUSH2 0x12C PUSH2 0x11ED SWAP2 SWAP1 PUSH2 0x15EE JUMP JUMPDEST PUSH2 0x11F7 SWAP2 SWAP1 PUSH2 0x161B JUMP JUMPDEST SWAP1 POP DUP1 PUSH1 0xA PUSH1 0x0 DUP3 DUP3 SLOAD PUSH2 0x120B SWAP2 SWAP1 PUSH2 0x15C2 JUMP JUMPDEST SWAP1 SWAP2 SSTORE POP PUSH2 0x121C SWAP1 POP PUSH1 0x2 DUP3 PUSH2 0x161B JUMP JUMPDEST PUSH1 0x9 PUSH1 0x0 DUP3 DUP3 SLOAD PUSH2 0x122D SWAP2 SWAP1 PUSH2 0x15C2 JUMP JUMPDEST SWAP1 SWAP2 SSTORE POP POP PUSH1 0x8 SLOAD PUSH2 0x3A98 GT PUSH2 0x1245 JUMPI PUSH2 0x3A98 PUSH2 0x1254 JUMP JUMPDEST PUSH1 0x8 SLOAD PUSH2 0x1254 SWAP1 PUSH2 0x1F4 PUSH2 0x15C2 JUMP JUMPDEST PUSH1 0x8 DUP2 SWAP1 SSTORE POP PUSH32 0x5A5AB2839B49637281301B13D6D1C9B46AE499B1C3C43C18AF98C6C040B0CDF4 PUSH1 0x0 DUP3 PUSH1 0x0 PUSH1 0x7 SLOAD GT PUSH2 0x11A4 JUMPI PUSH1 0x0 PUSH2 0x11A7 JUMP JUMPDEST PUSH1 0x0 DUP1 SLOAD PUSH1 0x1 PUSH1 0x1 PUSH1 0xA0 SHL SUB DUP4 DUP2 AND PUSH32 0xFFFFFFFFFFFFFFFFFFFFFFFF0000000000000000000000000000000000000000 DUP4 AND DUP2 OR DUP5 SSTORE PUSH1 0x40 MLOAD SWAP2 SWAP1 SWAP3 AND SWAP3 DUP4 SWAP2 PUSH32 0x8BE0079C531659141344CD1FD0A4F28419497F9722A3DAAFE3B4186F6B6457E0 SWAP2 SWAP1 LOG3 POP POP JUMP JUMPDEST PUSH1 0x0 PUSH1 0x2 SLOAD PUSH1 0x0 SUB PUSH2 0x1309 JUMPI POP PUSH1 0x0 SWAP1 JUMP JUMPDEST PUSH1 0x0 PUSH1 0x2 SLOAD PUSH1 0xB SLOAD PUSH2 0x2710 PUSH2 0x131E SWAP2 SWAP1 PUSH2 0x15EE JUMP JUMPDEST PUSH2 0x1328 SWAP2 SWAP1 PUSH2 0x161B JUMP JUMPDEST SWAP1 POP PUSH1 0x0 PUSH1 0x2 SLOAD PUSH1 0xA SLOAD PUSH2 0x2710 PUSH2 0x133F SWAP2 SWAP1 PUSH2 0x15EE JUMP JUMPDEST PUSH2 0x1349 SWAP2 SWAP1 PUSH2 0x161B JUMP JUMPDEST SWAP1 POP PUSH2 0x1356 DUP3 PUSH1 0x2 PUSH2 0x15EE JUMP JUMPDEST DUP2 GT ISZERO PUSH2 0x1367 JUMPI PUSH2 0x12C SWAP3 POP POP POP SWAP1 JUMP JUMPDEST DUP1 DUP3 GT ISZERO PUSH2 0x1378 JUMPI PUSH1 0x0 SWAP3 POP POP POP SWAP1 JUMP JUMPDEST PUSH1 0x96 SWAP3 POP POP POP SWAP1 JUMP JUMPDEST PUSH1 0x0 PUSH1 0x7 SLOAD PUSH1 0x0 SUB PUSH2 0x1391 JUMPI POP SWAP1 JUMP JUMPDEST ADDRESS PUSH1 0x1 PUSH1 0x1 PUSH1 0xA0 SHL SUB AND PUSH4 0x12065FE0 PUSH1 0x40 MLOAD DUP2 PUSH4 0xFFFFFFFF AND PUSH1 0xE0 SHL DUP2 MSTORE PUSH1 0x4 ADD PUSH1 0x20 PUSH1 0x40 MLOAD DUP1 DUP4 SUB DUP2 DUP7 GAS STATICCALL ISZERO DUP1 ISZERO PUSH2 0x13CF JUMPI RETURNDATASIZE PUSH1 0x0 DUP1 RETURNDATACOPY RETURNDATASIZE PUSH1 0x0 REVERT JUMPDEST POP POP POP POP PUSH1 0x40 MLOAD RETURNDATASIZE PUSH1 0x1F NOT PUSH1 0x1F DUP3 ADD AND DUP3 ADD DUP1 PUSH1 0x40 MSTORE POP DUP2 ADD SWAP1 PUSH2 0x13F3 SWAP2 SWAP1 PUSH2 0x15D5 JUMP JUMPDEST PUSH1 0x7 SLOAD PUSH2 0x1400 SWAP1 DUP5 PUSH2 0x15EE JUMP JUMPDEST PUSH2 0xAFE SWAP2 SWAP1 PUSH2 0x161B JUMP JUMPDEST PUSH2 0xEC9 JUMPDEST PUSH1 0x0 PUSH1 0x4 SLOAD TIMESTAMP PUSH2 0x141E SWAP2 SWAP1 PUSH2 0x162F JUMP JUMPDEST SWAP1 POP PUSH3 0x15180 DUP2 LT PUSH2 0xEC9 JUMPI PUSH2 0x2710 PUSH1 0x8 SLOAD GT ISZERO PUSH2 0x1454 JUMPI PUSH1 0x64 PUSH1 0x8 PUSH1 0x0 DUP3 DUP3 SLOAD PUSH2 0x1449 SWAP2 SWAP1 PUSH2 0x162F JUMP JUMPDEST SWAP1 SWAP2 SSTORE POP PUSH2 0x1479 SWAP1 POP JUMP JUMPDEST PUSH2 0x2710 PUSH1 0x8 SLOAD LT ISZERO PUSH2 0x1479 JUMPI PUSH1 0x64 PUSH1 0x8 PUSH1 0x0 DUP3 DUP3 SLOAD PUSH2 0x1473 SWAP2 SWAP1 PUSH2 0x15C2 JUMP JUMPDEST SWAP1 SWAP2 SSTORE POP POP JUMPDEST TIMESTAMP PUSH1 0x4 SSTORE POP JUMP JUMPDEST PUSH1 0x0 DUP3 PUSH1 0x0 SUB PUSH2 0x1492 JUMPI POP PUSH1 0x0 PUSH2 0xAFE JUMP JUMPDEST PUSH1 0x0 DUP3 PUSH2 0x14A1 DUP6 PUSH2 0x2710 PUSH2 0x15EE JUMP JUMPDEST PUSH2 0x14AB SWAP2 SWAP1 PUSH2 0x161B JUMP JUMPDEST SWAP1 POP PUSH2 0x7D0 DUP2 GT ISZERO PUSH2 0x14C1 JUMPI PUSH1 0xC8 SWAP2 POP POP PUSH2 0xAFE JUMP JUMPDEST PUSH2 0x3E8 DUP2 GT ISZERO PUSH2 0x14D5 JUMPI PUSH1 0x96 SWAP2 POP POP PUSH2 0xAFE JUMP JUMPDEST PUSH2 0x1F4 DUP2 GT ISZERO PUSH2 0x14E9 JUMPI PUSH1 0x64 SWAP2 POP POP PUSH2 0xAFE JUMP JUMPDEST POP PUSH1 0x32 SWAP4 SWAP3 POP POP POP JUMP JUMPDEST PUSH1 0x0 PUSH1 0x20 DUP3 DUP5 SUB SLT ISZERO PUSH2 0x1505 JUMPI PUSH1 0x0 DUP1 REVERT JUMPDEST POP CALLDATALOAD SWAP2 SWAP1 POP JUMP JUMPDEST DUP1 CALLDATALOAD PUSH1 0x1 PUSH1 0x1 PUSH1 0xA0 SHL SUB DUP2 AND DUP2 EQ PUSH2 0x8FB JUMPI PUSH1 0x0 DUP1 REVERT JUMPDEST PUSH1 0x0 DUP1 PUSH1 0x40 DUP4 DUP6 SUB SLT ISZERO PUSH2 0x1536 JUMPI PUSH1 0x0 DUP1 REVERT JUMPDEST PUSH2 0x153F DUP4 PUSH2 0x150C JUMP JUMPDEST SWAP5 PUSH1 0x20 SWAP4 SWAP1 SWAP4 ADD CALLDATALOAD SWAP4 POP POP POP JUMP JUMPDEST PUSH1 0x0 PUSH1 0x20 DUP3 DUP5 SUB SLT ISZERO PUSH2 0x155F JUMPI PUSH1 0x0 DUP1 REVERT JUMPDEST PUSH2 0xAC1 DUP3 PUSH2 0x150C JUMP JUMPDEST PUSH1 0x0 DUP1 PUSH1 0x40 DUP4 DUP6 SUB SLT ISZERO PUSH2 0x157B JUMPI PUSH1 0x0 DUP1 REVERT JUMPDEST POP POP DUP1 CALLDATALOAD SWAP3 PUSH1 0x20 SWAP1 SWAP2 ADD CALLDATALOAD SWAP2 POP JUMP JUMPDEST PUSH1 0x0 PUSH1 0x20 DUP3 DUP5 SUB SLT ISZERO PUSH2 0x159C JUMPI PUSH1 0x0 DUP1 REVERT JUMPDEST DUP2 MLOAD DUP1 ISZERO ISZERO DUP2 EQ PUSH2 0xAC1 JUMPI PUSH1 0x0 DUP1 REVERT JUMPDEST PUSH4 0x4E487B71 PUSH1 0xE0 SHL PUSH1 0x0 MSTORE PUSH1 0x11 PUSH1 0x4 MSTORE PUSH1 0x24 PUSH1 0x0 REVERT JUMPDEST DUP1 DUP3 ADD DUP1 DUP3 GT ISZERO PUSH2 0xAFE JUMPI PUSH2 0xAFE PUSH2 0x15AC JUMP JUMPDEST PUSH1 0x0 PUSH1 0x20 DUP3 DUP5 SUB SLT ISZERO PUSH2 0x15E7 JUMPI PUSH1 0x0 DUP1 REVERT JUMPDEST POP MLOAD SWAP2 SWAP1 POP JUMP JUMPDEST DUP1 DUP3 MUL DUP2 ISZERO DUP3 DUP3 DIV DUP5 EQ OR PUSH2 0xAFE JUMPI PUSH2 0xAFE PUSH2 0x15AC JUMP JUMPDEST PUSH4 0x4E487B71 PUSH1 0xE0 SHL PUSH1 0x0 MSTORE PUSH1 0x12 PUSH1 0x4 MSTORE PUSH1 0x24 PUSH1 0x0 REVERT JUMPDEST PUSH1 0x0 DUP3 PUSH2 0x162A JUMPI PUSH2 0x162A PUSH2 0x1605 JUMP JUMPDEST POP DIV SWAP1 JUMP JUMPDEST DUP2 DUP2 SUB DUP2 DUP2 GT ISZERO PUSH2 0xAFE JUMPI PUSH2 0xAFE PUSH2 0x15AC JUMP JUMPDEST PUSH1 0x0 DUP3 PUSH2 0x1651 JUMPI PUSH2 0x1651 PUSH2 0x1605 JUMP JUMPDEST POP MOD SWAP1 JUMP INVALID LOG1 PUSH5 0x736F6C6343 STOP ADDMOD EQ STOP EXP "},"methodIdentifiers":{"BASE_APY()":"4ca19fd6","LOSS_PROBABILITY()":"58acc2cd","MAX_CAPACITY()":"3a5ddf30","MAX_LOSS_PERCENTAGE()":"6b558266","USDT()":"c54e44eb","addLossBuffer(uint256)":"0ef0e05b","calculateRewards(uint256,uint256)":"48a88706","deposit(uint256)":"b6b55f25","experiencedUser(address)":"b3bf4c45","getBalance()":"12065fe0","getCurrentAPY()":"962ca496","getStrategyMetrics()":"2ede5ad6","getUserBalance(address)":"47734892","isUserQualified(address)":"51a6f7c4","lastUpdateTime()":"c8f33c91","lossBuffer()":"39fa187c","owner()":"8da5cb5b","performanceMultiplier()":"a485b786","qualifyUser(address,uint256)":"31a58809","renounceOwnership()":"715018a6","totalDeposited()":"ff50abdc","totalLosses()":"bf04820b","totalProfits()":"bd998cb3","totalShares()":"3a98ef39","totalWithdrawn()":"4b319713","transferOwnership(address)":"f2fde38b","userDepositTime(address)":"cf27e06f","userRiskScore(address)":"7fb4fb1b","userShares(address)":"de69b3aa","withdraw(uint256)":"2e1a7d4d","yieldOptimizer()":"7b4cab3d"}}}}}