{"contracts/strategies/StableEarnStrategy.sol":{"StableEarnStrategy":{"abi":[{"inputs":[{"internalType":"address","name":"_usdt","type":"address"},{"internalType":"address","name":"_yieldOptimizer","type":"address"}],"stateMutability":"nonpayable","type":"constructor"},{"inputs":[{"internalType":"address","name":"owner","type":"address"}],"name":"OwnableInvalidOwner","type":"error"},{"inputs":[{"internalType":"address","name":"account","type":"address"}],"name":"OwnableUnauthorizedAccount","type":"error"},{"inputs":[],"name":"ReentrancyGuardReentrantCall","type":"error"},{"anonymous":false,"inputs":[{"indexed":true,"internalType":"address","name":"user","type":"address"},{"indexed":false,"internalType":"uint256","name":"amount","type":"uint256"},{"indexed":false,"internalType":"uint256","name":"shares","type":"uint256"}],"name":"Deposited","type":"event"},{"anonymous":false,"inputs":[{"indexed":true,"internalType":"address","name":"previousOwner","type":"address"},{"indexed":true,"internalType":"address","name":"newOwner","type":"address"}],"name":"OwnershipTransferred","type":"event"},{"anonymous":false,"inputs":[{"indexed":false,"internalType":"uint256","name":"totalRewards","type":"uint256"}],"name":"RewardsDistributed","type":"event"},{"anonymous":false,"inputs":[{"indexed":true,"internalType":"address","name":"user","type":"address"},{"indexed":false,"internalType":"uint256","name":"amount","type":"uint256"},{"indexed":false,"internalType":"uint256","name":"shares","type":"uint256"}],"name":"Withdrawn","type":"event"},{"inputs":[],"name":"BASE_APY","outputs":[{"internalType":"uint256","name":"","type":"uint256"}],"stateMutability":"view","type":"function"},{"inputs":[],"name":"MAX_CAPACITY","outputs":[{"internalType":"uint256","name":"","type":"uint256"}],"stateMutability":"view","type":"function"},{"inputs":[],"name":"USDT","outputs":[{"internalType":"contract IERC20","name":"","type":"address"}],"stateMutability":"view","type":"function"},{"inputs":[{"internalType":"uint256","name":"amount","type":"uint256"}],"name":"addRewards","outputs":[],"stateMutability":"nonpayable","type":"function"},{"inputs":[{"internalType":"uint256","name":"amount","type":"uint256"},{"internalType":"uint256","name":"timeElapsed","type":"uint256"}],"name":"calculateRewards","outputs":[{"internalType":"uint256","name":"","type":"uint256"}],"stateMutability":"view","type":"function"},{"inputs":[{"internalType":"uint256","name":"amount","type":"uint256"}],"name":"deposit","outputs":[{"internalType":"uint256","name":"","type":"uint256"}],"stateMutability":"nonpayable","type":"function"},{"inputs":[],"name":"getBalance","outputs":[{"internalType":"uint256","name":"","type":"uint256"}],"stateMutability":"view","type":"function"},{"inputs":[],"name":"getCurrentAPY","outputs":[{"internalType":"uint256","name":"","type":"uint256"}],"stateMutability":"view","type":"function"},{"inputs":[{"internalType":"address","name":"user","type":"address"}],"name":"getUserBalance","outputs":[{"internalType":"uint256","name":"","type":"uint256"}],"stateMutability":"view","type":"function"},{"inputs":[],"name":"lastUpdateTime","outputs":[{"internalType":"uint256","name":"","type":"uint256"}],"stateMutability":"view","type":"function"},{"inputs":[],"name":"owner","outputs":[{"internalType":"address","name":"","type":"address"}],"stateMutability":"view","type":"function"},{"inputs":[],"name":"renounceOwnership","outputs":[],"stateMutability":"nonpayable","type":"function"},{"inputs":[],"name":"rewardPool","outputs":[{"internalType":"uint256","name":"","type":"uint256"}],"stateMutability":"view","type":"function"},{"inputs":[],"name":"totalDeposited","outputs":[{"internalType":"uint256","name":"","type":"uint256"}],"stateMutability":"view","type":"function"},{"inputs":[],"name":"totalShares","outputs":[{"internalType":"uint256","name":"","type":"uint256"}],"stateMutability":"view","type":"function"},{"inputs":[],"name":"totalWithdrawn","outputs":[{"internalType":"uint256","name":"","type":"uint256"}],"stateMutability":"view","type":"function"},{"inputs":[{"internalType":"address","name":"newOwner","type":"address"}],"name":"transferOwnership","outputs":[],"stateMutability":"nonpayable","type":"function"},{"inputs":[{"internalType":"address","name":"","type":"address"}],"name":"userDepositTime","outputs":[{"internalType":"uint256","name":"","type":"uint256"}],"stateMutability":"view","type":"function"},{"inputs":[{"internalType":"address","name":"","type":"address"}],"name":"userShares","outputs":[{"internalType":"uint256","name":"","type":"uint256"}],"stateMutability":"view","type":"function"},{"inputs":[{"internalType":"uint256","name":"amount","type":"uint256"}],"name":"withdraw","outputs":[{"internalType":"uint256","name":"","type":"uint256"}],"stateMutability":"nonpayable","type":"function"},{"inputs":[],"name":"yieldOptimizer","outputs":[{"internalType":"address","name":"","type":"address"}],"stateMutability":"view","type":"function"}],"evm":{"bytecode":{"linkReferences":{},"object":"60c060405234801561001057600080fd5b506040516110b33803806110b383398101604081905261002f916100f3565b8181338061005757604051631e4fbdf760e01b81526000600482015260240160405180910390fd5b61006081610087565b50600180556001600160a01b039182166080521660a0525050426004819055600955610126565b600080546001600160a01b038381166001600160a01b0319831681178455604051919092169283917f8be0079c531659141344cd1fd0a4f28419497f9722a3daafe3b4186f6b6457e09190a35050565b80516001600160a01b03811681146100ee57600080fd5b919050565b6000806040838503121561010657600080fd5b61010f836100d7565b915061011d602084016100d7565b90509250929050565b60805160a051610f306101836000396000818161020f015281816103d80152818161061801528181610875015261095101526000818161028d0152818161035101528181610647015281816109860152610ae40152610f306000f3fe608060405234801561001057600080fd5b50600436106101775760003560e01c80637b4cab3d116100d8578063c54e44eb1161008c578063de69b3aa11610066578063de69b3aa146102d8578063f2fde38b146102f8578063ff50abdc1461030b57600080fd5b8063c54e44eb14610288578063c8f33c91146102af578063cf27e06f146102b857600080fd5b8063962ca496116100bd578063962ca4961461025a578063b6b55f2514610262578063beceed391461027557600080fd5b80637b4cab3d1461020a5780638da5cb5b1461024957600080fd5b806348a887061161012f5780634ca19fd6116101145780634ca19fd6146101ee57806366666aa9146101f7578063715018a61461020057600080fd5b806348a88706146101d25780634b319713146101e557600080fd5b80633a5ddf30116101605780633a5ddf30146101aa5780633a98ef39146101b657806347734892146101bf57600080fd5b806312065fe01461017c5780632e1a7d4d14610197575b600080fd5b610184610314565b6040519081526020015b60405180910390f35b6101846101a5366004610e0f565b6103cb565b61018464e8d4a5100081565b61018460075481565b6101846101cd366004610e28565b610702565b6101846101e0366004610e51565b6107b6565b61018460035481565b6101846101f481565b61018460085481565b6102086107f2565b005b6102317f000000000000000000000000000000000000000000000000000000000000000081565b6040516001600160a01b03909116815260200161018e565b6000546001600160a01b0316610231565b610184610806565b610184610270366004610e0f565b610868565b610208610283366004610e0f565b610aba565b6102317f000000000000000000000000000000000000000000000000000000000000000081565b61018460045481565b6101846102c6366004610e28565b60066020526000908152604090205481565b6101846102e6366004610e28565b60056020526000908152604090205481565b610208610306366004610e28565b610b74565b61018460025481565b6008546040517f70a08231000000000000000000000000000000000000000000000000000000008152306004820152600091906001600160a01b037f000000000000000000000000000000000000000000000000000000000000000016906370a0823190602401602060405180830381865afa158015610398573d6000803e3d6000fd5b505050506040513d601f19601f820116820180604052508101906103bc9190610e73565b6103c69190610ea2565b905090565b6000336001600160a01b037f0000000000000000000000000000000000000000000000000000000000000000161461044a5760405162461bcd60e51b815260206004820152601c60248201527f4f6e6c79205969656c644f7074696d697a65722063616e2063616c6c0000000060448201526064015b60405180910390fd5b610452610bcb565b600082116104a25760405162461bcd60e51b815260206004820152601d60248201527f416d6f756e74206d7573742062652067726561746572207468616e20300000006044820152606401610441565b326000908152600560205260409020546104fe5760405162461bcd60e51b815260206004820152601560248201527f4e6f2073686172657320746f20776974686472617700000000000000000000006044820152606401610441565b600061050932610702565b90508083111561055b5760405162461bcd60e51b815260206004820152601460248201527f496e73756666696369656e742062616c616e63650000000000000000000000006044820152606401610441565b3260009081526005602052604081205482906105779086610eb5565b6105819190610ecc565b326000908152600560205260408120805492935083929091906105a5908490610eee565b9250508190555080600760008282546105be9190610eee565b90915550600090506105cf85610c0e565b905080600360008282546105e39190610ea2565b90915550506040517fa9059cbb0000000000000000000000000000000000000000000000000000000081526001600160a01b037f000000000000000000000000000000000000000000000000000000000000000081166004830152602482018390527f0000000000000000000000000000000000000000000000000000000000000000169063a9059cbb906044016020604051808303816000875af1158015610690573d6000803e3d6000fd5b505050506040513d601f19601f820116820180604052508101906106b49190610f01565b50604080518281526020810184905232917f92ccf450a286a957af52509bc1c9939d1a6a481783e142e41e2499f0bb66ebc6910160405180910390a2925050506106fd60018055565b919050565b600060075460000361071657506000919050565b6000306001600160a01b03166312065fe06040518163ffffffff1660e01b8152600401602060405180830381865afa158015610756573d6000803e3d6000fd5b505050506040513d601f19601f8201168201806040525081019061077a9190610e73565b6007546001600160a01b038516600090815260056020526040902054919250906107a5908390610eb5565b6107af9190610ecc565b9392505050565b6000806107c1610806565b905064496cebb800836107d48387610eb5565b6107de9190610eb5565b6107e89190610ecc565b9150505b92915050565b6107fa610c1c565b6108046000610c62565b565b60008064e8d4a5100060025461271061081f9190610eb5565b6108299190610ecc565b9050611f408111156108485761084260646101f4610eee565b91505090565b6107d081101561085f576108426101f46064610ea2565b6101f491505090565b6000336001600160a01b037f000000000000000000000000000000000000000000000000000000000000000016146108e25760405162461bcd60e51b815260206004820152601c60248201527f4f6e6c79205969656c644f7074696d697a65722063616e2063616c6c000000006044820152606401610441565b6108ea610bcb565b6000821161093a5760405162461bcd60e51b815260206004820152601d60248201527f416d6f756e74206d7573742062652067726561746572207468616e20300000006044820152606401610441565b6040516323b872dd60e01b81526001600160a01b037f000000000000000000000000000000000000000000000000000000000000000081166004830152306024830152604482018490527f000000000000000000000000000000000000000000000000000000000000000016906323b872dd906064016020604051808303816000875af11580156109cf573d6000803e3d6000fd5b505050506040513d601f19601f820116820180604052508101906109f39190610f01565b5060006109ff83610cca565b32600090815260056020526040812080549293508392909190610a23908490610ea2565b909155505032600090815260066020526040812042905560078054839290610a4c908490610ea2565b925050819055508260026000828254610a659190610ea2565b90915550610a74905083610d53565b604080518481526020810183905232917f73a19dd210f1a7f902193214c0ee91dd35ee5b4d920cba8d519eca65a7b488ca910160405180910390a290506106fd60018055565b610ac2610c1c565b6040516323b872dd60e01b8152336004820152306024820152604481018290527f00000000000000000000000000000000000000000000000000000000000000006001600160a01b0316906323b872dd906064016020604051808303816000875af1158015610b35573d6000803e3d6000fd5b505050506040513d601f19601f82011682018060405250810190610b599190610f01565b508060086000828254610b6c9190610ea2565b909155505050565b610b7c610c1c565b6001600160a01b038116610bbf576040517f1e4fbdf700000000000000000000000000000000000000000000000000000000815260006004820152602401610441565b610bc881610c62565b50565b600260015403610c07576040517f3ee5aeb500000000000000000000000000000000000000000000000000000000815260040160405180910390fd5b6002600155565b6000610c18610d57565b5090565b6000546001600160a01b03163314610804576040517f118cdaa7000000000000000000000000000000000000000000000000000000008152336004820152602401610441565b600080546001600160a01b038381167fffffffffffffffffffffffff0000000000000000000000000000000000000000831681178455604051919092169283917f8be0079c531659141344cd1fd0a4f28419497f9722a3daafe3b4186f6b6457e09190a35050565b6000600754600003610cda575090565b306001600160a01b03166312065fe06040518163ffffffff1660e01b8152600401602060405180830381865afa158015610d18573d6000803e3d6000fd5b505050506040513d601f19601f82011682018060405250810190610d3c9190610e73565b600754610d499084610eb5565b6107ec9190610ecc565b610bc85b600060095442610d679190610eee565b9050610e108110158015610d7d57506000600254115b15610bc857600064496cebb80082610d93610806565b600254610da09190610eb5565b610daa9190610eb5565b610db49190610ecc565b90508015610e0b578060086000828254610dce9190610ea2565b9091555050426009556040518181527f6d1c76d614228b523baa4dcd9539e2c713b54ff4ab3ff2d1627e7f6cd32be4429060200160405180910390a15b5050565b600060208284031215610e2157600080fd5b5035919050565b600060208284031215610e3a57600080fd5b81356001600160a01b03811681146107af57600080fd5b60008060408385031215610e6457600080fd5b50508035926020909101359150565b600060208284031215610e8557600080fd5b5051919050565b634e487b7160e01b600052601160045260246000fd5b808201808211156107ec576107ec610e8c565b80820281158282048414176107ec576107ec610e8c565b600082610ee957634e487b7160e01b600052601260045260246000fd5b500490565b818103818111156107ec576107ec610e8c565b600060208284031215610f1357600080fd5b815180151581146107af57600080fdfea164736f6c6343000814000a","opcodes":"PUSH1 0xC0 PUSH1 0x40 MSTORE CALLVALUE DUP1 ISZERO PUSH2 0x10 JUMPI PUSH1 0x0 DUP1 REVERT JUMPDEST POP PUSH1 0x40 MLOAD PUSH2 0x10B3 CODESIZE SUB DUP1 PUSH2 0x10B3 DUP4 CODECOPY DUP2 ADD PUSH1 0x40 DUP2 SWAP1 MSTORE PUSH2 0x2F SWAP2 PUSH2 0xF3 JUMP JUMPDEST DUP2 DUP2 CALLER DUP1 PUSH2 0x57 JUMPI PUSH1 0x40 MLOAD PUSH4 0x1E4FBDF7 PUSH1 0xE0 SHL DUP2 MSTORE PUSH1 0x0 PUSH1 0x4 DUP3 ADD MSTORE PUSH1 0x24 ADD PUSH1 0x40 MLOAD DUP1 SWAP2 SUB SWAP1 REVERT JUMPDEST PUSH2 0x60 DUP2 PUSH2 0x87 JUMP JUMPDEST POP PUSH1 0x1 DUP1 SSTORE PUSH1 0x1 PUSH1 0x1 PUSH1 0xA0 SHL SUB SWAP2 DUP3 AND PUSH1 0x80 MSTORE AND PUSH1 0xA0 MSTORE POP POP TIMESTAMP PUSH1 0x4 DUP2 SWAP1 SSTORE PUSH1 0x9 SSTORE PUSH2 0x126 JUMP JUMPDEST PUSH1 0x0 DUP1 SLOAD PUSH1 0x1 PUSH1 0x1 PUSH1 0xA0 SHL SUB DUP4 DUP2 AND PUSH1 0x1 PUSH1 0x1 PUSH1 0xA0 SHL SUB NOT DUP4 AND DUP2 OR DUP5 SSTORE PUSH1 0x40 MLOAD SWAP2 SWAP1 SWAP3 AND SWAP3 DUP4 SWAP2 PUSH32 0x8BE0079C531659141344CD1FD0A4F28419497F9722A3DAAFE3B4186F6B6457E0 SWAP2 SWAP1 LOG3 POP POP JUMP JUMPDEST DUP1 MLOAD PUSH1 0x1 PUSH1 0x1 PUSH1 0xA0 SHL SUB DUP2 AND DUP2 EQ PUSH2 0xEE JUMPI PUSH1 0x0 DUP1 REVERT JUMPDEST SWAP2 SWAP1 POP JUMP JUMPDEST PUSH1 0x0 DUP1 PUSH1 0x40 DUP4 DUP6 SUB SLT ISZERO PUSH2 0x106 JUMPI PUSH1 0x0 DUP1 REVERT JUMPDEST PUSH2 0x10F DUP4 PUSH2 0xD7 JUMP JUMPDEST SWAP2 POP PUSH2 0x11D PUSH1 0x20 DUP5 ADD PUSH2 0xD7 JUMP JUMPDEST SWAP1 POP SWAP3 POP SWAP3 SWAP1 POP JUMP JUMPDEST PUSH1 0x80 MLOAD PUSH1 0xA0 MLOAD PUSH2 0xF30 PUSH2 0x183 PUSH1 0x0 CODECOPY PUSH1 0x0 DUP2 DUP2 PUSH2 0x20F ADD MSTORE DUP2 DUP2 PUSH2 0x3D8 ADD MSTORE DUP2 DUP2 PUSH2 0x618 ADD MSTORE DUP2 DUP2 PUSH2 0x875 ADD MSTORE PUSH2 0x951 ADD MSTORE PUSH1 0x0 DUP2 DUP2 PUSH2 0x28D ADD MSTORE DUP2 DUP2 PUSH2 0x351 ADD MSTORE DUP2 DUP2 PUSH2 0x647 ADD MSTORE DUP2 DUP2 PUSH2 0x986 ADD MSTORE PUSH2 0xAE4 ADD MSTORE PUSH2 0xF30 PUSH1 0x0 RETURN INVALID PUSH1 0x80 PUSH1 0x40 MSTORE CALLVALUE DUP1 ISZERO PUSH2 0x10 JUMPI PUSH1 0x0 DUP1 REVERT JUMPDEST POP PUSH1 0x4 CALLDATASIZE LT PUSH2 0x177 JUMPI PUSH1 0x0 CALLDATALOAD PUSH1 0xE0 SHR DUP1 PUSH4 0x7B4CAB3D GT PUSH2 0xD8 JUMPI DUP1 PUSH4 0xC54E44EB GT PUSH2 0x8C JUMPI DUP1 PUSH4 0xDE69B3AA GT PUSH2 0x66 JUMPI DUP1 PUSH4 0xDE69B3AA EQ PUSH2 0x2D8 JUMPI DUP1 PUSH4 0xF2FDE38B EQ PUSH2 0x2F8 JUMPI DUP1 PUSH4 0xFF50ABDC EQ PUSH2 0x30B JUMPI PUSH1 0x0 DUP1 REVERT JUMPDEST DUP1 PUSH4 0xC54E44EB EQ PUSH2 0x288 JUMPI DUP1 PUSH4 0xC8F33C91 EQ PUSH2 0x2AF JUMPI DUP1 PUSH4 0xCF27E06F EQ PUSH2 0x2B8 JUMPI PUSH1 0x0 DUP1 REVERT JUMPDEST DUP1 PUSH4 0x962CA496 GT PUSH2 0xBD JUMPI DUP1 PUSH4 0x962CA496 EQ PUSH2 0x25A JUMPI DUP1 PUSH4 0xB6B55F25 EQ PUSH2 0x262 JUMPI DUP1 PUSH4 0xBECEED39 EQ PUSH2 0x275 JUMPI PUSH1 0x0 DUP1 REVERT JUMPDEST DUP1 PUSH4 0x7B4CAB3D EQ PUSH2 0x20A JUMPI DUP1 PUSH4 0x8DA5CB5B EQ PUSH2 0x249 JUMPI PUSH1 0x0 DUP1 REVERT JUMPDEST DUP1 PUSH4 0x48A88706 GT PUSH2 0x12F JUMPI DUP1 PUSH4 0x4CA19FD6 GT PUSH2 0x114 JUMPI DUP1 PUSH4 0x4CA19FD6 EQ PUSH2 0x1EE JUMPI DUP1 PUSH4 0x66666AA9 EQ PUSH2 0x1F7 JUMPI DUP1 PUSH4 0x715018A6 EQ PUSH2 0x200 JUMPI PUSH1 0x0 DUP1 REVERT JUMPDEST DUP1 PUSH4 0x48A88706 EQ PUSH2 0x1D2 JUMPI DUP1 PUSH4 0x4B319713 EQ PUSH2 0x1E5 JUMPI PUSH1 0x0 DUP1 REVERT JUMPDEST DUP1 PUSH4 0x3A5DDF30 GT PUSH2 0x160 JUMPI DUP1 PUSH4 0x3A5DDF30 EQ PUSH2 0x1AA JUMPI DUP1 PUSH4 0x3A98EF39 EQ PUSH2 0x1B6 JUMPI DUP1 PUSH4 0x47734892 EQ PUSH2 0x1BF JUMPI PUSH1 0x0 DUP1 REVERT JUMPDEST DUP1 PUSH4 0x12065FE0 EQ PUSH2 0x17C JUMPI DUP1 PUSH4 0x2E1A7D4D EQ PUSH2 0x197 JUMPI JUMPDEST PUSH1 0x0 DUP1 REVERT JUMPDEST PUSH2 0x184 PUSH2 0x314 JUMP JUMPDEST PUSH1 0x40 MLOAD SWAP1 DUP2 MSTORE PUSH1 0x20 ADD JUMPDEST PUSH1 0x40 MLOAD DUP1 SWAP2 SUB SWAP1 RETURN JUMPDEST PUSH2 0x184 PUSH2 0x1A5 CALLDATASIZE PUSH1 0x4 PUSH2 0xE0F JUMP JUMPDEST PUSH2 0x3CB JUMP JUMPDEST PUSH2 0x184 PUSH5 0xE8D4A51000 DUP2 JUMP JUMPDEST PUSH2 0x184 PUSH1 0x7 SLOAD DUP2 JUMP JUMPDEST PUSH2 0x184 PUSH2 0x1CD CALLDATASIZE PUSH1 0x4 PUSH2 0xE28 JUMP JUMPDEST PUSH2 0x702 JUMP JUMPDEST PUSH2 0x184 PUSH2 0x1E0 CALLDATASIZE PUSH1 0x4 PUSH2 0xE51 JUMP JUMPDEST PUSH2 0x7B6 JUMP JUMPDEST PUSH2 0x184 PUSH1 0x3 SLOAD DUP2 JUMP JUMPDEST PUSH2 0x184 PUSH2 0x1F4 DUP2 JUMP JUMPDEST PUSH2 0x184 PUSH1 0x8 SLOAD DUP2 JUMP JUMPDEST PUSH2 0x208 PUSH2 0x7F2 JUMP JUMPDEST STOP JUMPDEST PUSH2 0x231 PUSH32 0x0 DUP2 JUMP JUMPDEST PUSH1 0x40 MLOAD PUSH1 0x1 PUSH1 0x1 PUSH1 0xA0 SHL SUB SWAP1 SWAP2 AND DUP2 MSTORE PUSH1 0x20 ADD PUSH2 0x18E JUMP JUMPDEST PUSH1 0x0 SLOAD PUSH1 0x1 PUSH1 0x1 PUSH1 0xA0 SHL SUB AND PUSH2 0x231 JUMP JUMPDEST PUSH2 0x184 PUSH2 0x806 JUMP JUMPDEST PUSH2 0x184 PUSH2 0x270 CALLDATASIZE PUSH1 0x4 PUSH2 0xE0F JUMP JUMPDEST PUSH2 0x868 JUMP JUMPDEST PUSH2 0x208 PUSH2 0x283 CALLDATASIZE PUSH1 0x4 PUSH2 0xE0F JUMP JUMPDEST PUSH2 0xABA JUMP JUMPDEST PUSH2 0x231 PUSH32 0x0 DUP2 JUMP JUMPDEST PUSH2 0x184 PUSH1 0x4 SLOAD DUP2 JUMP JUMPDEST PUSH2 0x184 PUSH2 0x2C6 CALLDATASIZE PUSH1 0x4 PUSH2 0xE28 JUMP JUMPDEST PUSH1 0x6 PUSH1 0x20 MSTORE PUSH1 0x0 SWAP1 DUP2 MSTORE PUSH1 0x40 SWAP1 KECCAK256 SLOAD DUP2 JUMP JUMPDEST PUSH2 0x184 PUSH2 0x2E6 CALLDATASIZE PUSH1 0x4 PUSH2 0xE28 JUMP JUMPDEST PUSH1 0x5 PUSH1 0x20 MSTORE PUSH1 0x0 SWAP1 DUP2 MSTORE PUSH1 0x40 SWAP1 KECCAK256 SLOAD DUP2 JUMP JUMPDEST PUSH2 0x208 PUSH2 0x306 CALLDATASIZE PUSH1 0x4 PUSH2 0xE28 JUMP JUMPDEST PUSH2 0xB74 JUMP JUMPDEST PUSH2 0x184 PUSH1 0x2 SLOAD DUP2 JUMP JUMPDEST PUSH1 0x8 SLOAD PUSH1 0x40 MLOAD PUSH32 0x70A0823100000000000000000000000000000000000000000000000000000000 DUP2 MSTORE ADDRESS PUSH1 0x4 DUP3 ADD MSTORE PUSH1 0x0 SWAP2 SWAP1 PUSH1 0x1 PUSH1 0x1 PUSH1 0xA0 SHL SUB PUSH32 0x0 AND SWAP1 PUSH4 0x70A08231 SWAP1 PUSH1 0x24 ADD PUSH1 0x20 PUSH1 0x40 MLOAD DUP1 DUP4 SUB DUP2 DUP7 GAS STATICCALL ISZERO DUP1 ISZERO PUSH2 0x398 JUMPI RETURNDATASIZE PUSH1 0x0 DUP1 RETURNDATACOPY RETURNDATASIZE PUSH1 0x0 REVERT JUMPDEST POP POP POP POP PUSH1 0x40 MLOAD RETURNDATASIZE PUSH1 0x1F NOT PUSH1 0x1F DUP3 ADD AND DUP3 ADD DUP1 PUSH1 0x40 MSTORE POP DUP2 ADD SWAP1 PUSH2 0x3BC SWAP2 SWAP1 PUSH2 0xE73 JUMP JUMPDEST PUSH2 0x3C6 SWAP2 SWAP1 PUSH2 0xEA2 JUMP JUMPDEST SWAP1 POP SWAP1 JUMP JUMPDEST PUSH1 0x0 CALLER PUSH1 0x1 PUSH1 0x1 PUSH1 0xA0 SHL SUB PUSH32 0x0 AND EQ PUSH2 0x44A JUMPI PUSH1 0x40 MLOAD PUSH3 0x461BCD PUSH1 0xE5 SHL DUP2 MSTORE PUSH1 0x20 PUSH1 0x4 DUP3 ADD MSTORE PUSH1 0x1C PUSH1 0x24 DUP3 ADD MSTORE PUSH32 0x4F6E6C79205969656C644F7074696D697A65722063616E2063616C6C00000000 PUSH1 0x44 DUP3 ADD MSTORE PUSH1 0x64 ADD JUMPDEST PUSH1 0x40 MLOAD DUP1 SWAP2 SUB SWAP1 REVERT JUMPDEST PUSH2 0x452 PUSH2 0xBCB JUMP JUMPDEST PUSH1 0x0 DUP3 GT PUSH2 0x4A2 JUMPI PUSH1 0x40 MLOAD PUSH3 0x461BCD PUSH1 0xE5 SHL DUP2 MSTORE PUSH1 0x20 PUSH1 0x4 DUP3 ADD MSTORE PUSH1 0x1D PUSH1 0x24 DUP3 ADD MSTORE PUSH32 0x416D6F756E74206D7573742062652067726561746572207468616E2030000000 PUSH1 0x44 DUP3 ADD MSTORE PUSH1 0x64 ADD PUSH2 0x441 JUMP JUMPDEST ORIGIN PUSH1 0x0 SWAP1 DUP2 MSTORE PUSH1 0x5 PUSH1 0x20 MSTORE PUSH1 0x40 SWAP1 KECCAK256 SLOAD PUSH2 0x4FE JUMPI PUSH1 0x40 MLOAD PUSH3 0x461BCD PUSH1 0xE5 SHL DUP2 MSTORE PUSH1 0x20 PUSH1 0x4 DUP3 ADD MSTORE PUSH1 0x15 PUSH1 0x24 DUP3 ADD MSTORE PUSH32 0x4E6F2073686172657320746F2077697468647261770000000000000000000000 PUSH1 0x44 DUP3 ADD MSTORE PUSH1 0x64 ADD PUSH2 0x441 JUMP JUMPDEST PUSH1 0x0 PUSH2 0x509 ORIGIN PUSH2 0x702 JUMP JUMPDEST SWAP1 POP DUP1 DUP4 GT ISZERO PUSH2 0x55B JUMPI PUSH1 0x40 MLOAD PUSH3 0x461BCD PUSH1 0xE5 SHL DUP2 MSTORE PUSH1 0x20 PUSH1 0x4 DUP3 ADD MSTORE PUSH1 0x14 PUSH1 0x24 DUP3 ADD MSTORE PUSH32 0x496E73756666696369656E742062616C616E6365000000000000000000000000 PUSH1 0x44 DUP3 ADD MSTORE PUSH1 0x64 ADD PUSH2 0x441 JUMP JUMPDEST ORIGIN PUSH1 0x0 SWAP1 DUP2 MSTORE PUSH1 0x5 PUSH1 0x20 MSTORE PUSH1 0x40 DUP2 KECCAK256 SLOAD DUP3 SWAP1 PUSH2 0x577 SWAP1 DUP7 PUSH2 0xEB5 JUMP JUMPDEST PUSH2 0x581 SWAP2 SWAP1 PUSH2 0xECC JUMP JUMPDEST ORIGIN PUSH1 0x0 SWAP1 DUP2 MSTORE PUSH1 0x5 PUSH1 0x20 MSTORE PUSH1 0x40 DUP2 KECCAK256 DUP1 SLOAD SWAP3 SWAP4 POP DUP4 SWAP3 SWAP1 SWAP2 SWAP1 PUSH2 0x5A5 SWAP1 DUP5 SWAP1 PUSH2 0xEEE JUMP JUMPDEST SWAP3 POP POP DUP2 SWAP1 SSTORE POP DUP1 PUSH1 0x7 PUSH1 0x0 DUP3 DUP3 SLOAD PUSH2 0x5BE SWAP2 SWAP1 PUSH2 0xEEE JUMP JUMPDEST SWAP1 SWAP2 SSTORE POP PUSH1 0x0 SWAP1 POP PUSH2 0x5CF DUP6 PUSH2 0xC0E JUMP JUMPDEST SWAP1 POP DUP1 PUSH1 0x3 PUSH1 0x0 DUP3 DUP3 SLOAD PUSH2 0x5E3 SWAP2 SWAP1 PUSH2 0xEA2 JUMP JUMPDEST SWAP1 SWAP2 SSTORE POP POP PUSH1 0x40 MLOAD PUSH32 0xA9059CBB00000000000000000000000000000000000000000000000000000000 DUP2 MSTORE PUSH1 0x1 PUSH1 0x1 PUSH1 0xA0 SHL SUB PUSH32 0x0 DUP2 AND PUSH1 0x4 DUP4 ADD MSTORE PUSH1 0x24 DUP3 ADD DUP4 SWAP1 MSTORE PUSH32 0x0 AND SWAP1 PUSH4 0xA9059CBB SWAP1 PUSH1 0x44 ADD PUSH1 0x20 PUSH1 0x40 MLOAD DUP1 DUP4 SUB DUP2 PUSH1 0x0 DUP8 GAS CALL ISZERO DUP1 ISZERO PUSH2 0x690 JUMPI RETURNDATASIZE PUSH1 0x0 DUP1 RETURNDATACOPY RETURNDATASIZE PUSH1 0x0 REVERT JUMPDEST POP POP POP POP PUSH1 0x40 MLOAD RETURNDATASIZE PUSH1 0x1F NOT PUSH1 0x1F DUP3 ADD AND DUP3 ADD DUP1 PUSH1 0x40 MSTORE POP DUP2 ADD SWAP1 PUSH2 0x6B4 SWAP2 SWAP1 PUSH2 0xF01 JUMP JUMPDEST POP PUSH1 0x40 DUP1 MLOAD DUP3 DUP2 MSTORE PUSH1 0x20 DUP2 ADD DUP5 SWAP1 MSTORE ORIGIN SWAP2 PUSH32 0x92CCF450A286A957AF52509BC1C9939D1A6A481783E142E41E2499F0BB66EBC6 SWAP2 ADD PUSH1 0x40 MLOAD DUP1 SWAP2 SUB SWAP1 LOG2 SWAP3 POP POP POP PUSH2 0x6FD PUSH1 0x1 DUP1 SSTORE JUMP JUMPDEST SWAP2 SWAP1 POP JUMP JUMPDEST PUSH1 0x0 PUSH1 0x7 SLOAD PUSH1 0x0 SUB PUSH2 0x716 JUMPI POP PUSH1 0x0 SWAP2 SWAP1 POP JUMP JUMPDEST PUSH1 0x0 ADDRESS PUSH1 0x1 PUSH1 0x1 PUSH1 0xA0 SHL SUB AND PUSH4 0x12065FE0 PUSH1 0x40 MLOAD DUP2 PUSH4 0xFFFFFFFF AND PUSH1 0xE0 SHL DUP2 MSTORE PUSH1 0x4 ADD PUSH1 0x20 PUSH1 0x40 MLOAD DUP1 DUP4 SUB DUP2 DUP7 GAS STATICCALL ISZERO DUP1 ISZERO PUSH2 0x756 JUMPI RETURNDATASIZE PUSH1 0x0 DUP1 RETURNDATACOPY RETURNDATASIZE PUSH1 0x0 REVERT JUMPDEST POP POP POP POP PUSH1 0x40 MLOAD RETURNDATASIZE PUSH1 0x1F NOT PUSH1 0x1F DUP3 ADD AND DUP3 ADD DUP1 PUSH1 0x40 MSTORE POP DUP2 ADD SWAP1 PUSH2 0x77A SWAP2 SWAP1 PUSH2 0xE73 JUMP JUMPDEST PUSH1 0x7 SLOAD PUSH1 0x1 PUSH1 0x1 PUSH1 0xA0 SHL SUB DUP6 AND PUSH1 0x0 SWAP1 DUP2 MSTORE PUSH1 0x5 PUSH1 0x20 MSTORE PUSH1 0x40 SWAP1 KECCAK256 SLOAD SWAP2 SWAP3 POP SWAP1 PUSH2 0x7A5 SWAP1 DUP4 SWAP1 PUSH2 0xEB5 JUMP JUMPDEST PUSH2 0x7AF SWAP2 SWAP1 PUSH2 0xECC JUMP JUMPDEST SWAP4 SWAP3 POP POP POP JUMP JUMPDEST PUSH1 0x0 DUP1 PUSH2 0x7C1 PUSH2 0x806 JUMP JUMPDEST SWAP1 POP PUSH5 0x496CEBB800 DUP4 PUSH2 0x7D4 DUP4 DUP8 PUSH2 0xEB5 JUMP JUMPDEST PUSH2 0x7DE SWAP2 SWAP1 PUSH2 0xEB5 JUMP JUMPDEST PUSH2 0x7E8 SWAP2 SWAP1 PUSH2 0xECC JUMP JUMPDEST SWAP2 POP POP JUMPDEST SWAP3 SWAP2 POP POP JUMP JUMPDEST PUSH2 0x7FA PUSH2 0xC1C JUMP JUMPDEST PUSH2 0x804 PUSH1 0x0 PUSH2 0xC62 JUMP JUMPDEST JUMP JUMPDEST PUSH1 0x0 DUP1 PUSH5 0xE8D4A51000 PUSH1 0x2 SLOAD PUSH2 0x2710 PUSH2 0x81F SWAP2 SWAP1 PUSH2 0xEB5 JUMP JUMPDEST PUSH2 0x829 SWAP2 SWAP1 PUSH2 0xECC JUMP JUMPDEST SWAP1 POP PUSH2 0x1F40 DUP2 GT ISZERO PUSH2 0x848 JUMPI PUSH2 0x842 PUSH1 0x64 PUSH2 0x1F4 PUSH2 0xEEE JUMP JUMPDEST SWAP2 POP POP SWAP1 JUMP JUMPDEST PUSH2 0x7D0 DUP2 LT ISZERO PUSH2 0x85F JUMPI PUSH2 0x842 PUSH2 0x1F4 PUSH1 0x64 PUSH2 0xEA2 JUMP JUMPDEST PUSH2 0x1F4 SWAP2 POP POP SWAP1 JUMP JUMPDEST PUSH1 0x0 CALLER PUSH1 0x1 PUSH1 0x1 PUSH1 0xA0 SHL SUB PUSH32 0x0 AND EQ PUSH2 0x8E2 JUMPI PUSH1 0x40 MLOAD PUSH3 0x461BCD PUSH1 0xE5 SHL DUP2 MSTORE PUSH1 0x20 PUSH1 0x4 DUP3 ADD MSTORE PUSH1 0x1C PUSH1 0x24 DUP3 ADD MSTORE PUSH32 0x4F6E6C79205969656C644F7074696D697A65722063616E2063616C6C00000000 PUSH1 0x44 DUP3 ADD MSTORE PUSH1 0x64 ADD PUSH2 0x441 JUMP JUMPDEST PUSH2 0x8EA PUSH2 0xBCB JUMP JUMPDEST PUSH1 0x0 DUP3 GT PUSH2 0x93A JUMPI PUSH1 0x40 MLOAD PUSH3 0x461BCD PUSH1 0xE5 SHL DUP2 MSTORE PUSH1 0x20 PUSH1 0x4 DUP3 ADD MSTORE PUSH1 0x1D PUSH1 0x24 DUP3 ADD MSTORE PUSH32 0x416D6F756E74206D7573742062652067726561746572207468616E2030000000 PUSH1 0x44 DUP3 ADD MSTORE PUSH1 0x64 ADD PUSH2 0x441 JUMP JUMPDEST PUSH1 0x40 MLOAD PUSH4 0x23B872DD PUSH1 0xE0 SHL DUP2 MSTORE PUSH1 0x1 PUSH1 0x1 PUSH1 0xA0 SHL SUB PUSH32 0x0 DUP2 AND PUSH1 0x4 DUP4 ADD MSTORE ADDRESS PUSH1 0x24 DUP4 ADD MSTORE PUSH1 0x44 DUP3 ADD DUP5 SWAP1 MSTORE PUSH32 0x0 AND SWAP1 PUSH4 0x23B872DD SWAP1 PUSH1 0x64 ADD PUSH1 0x20 PUSH1 0x40 MLOAD DUP1 DUP4 SUB DUP2 PUSH1 0x0 DUP8 GAS CALL ISZERO DUP1 ISZERO PUSH2 0x9CF JUMPI RETURNDATASIZE PUSH1 0x0 DUP1 RETURNDATACOPY RETURNDATASIZE PUSH1 0x0 REVERT JUMPDEST POP POP POP POP PUSH1 0x40 MLOAD RETURNDATASIZE PUSH1 0x1F NOT PUSH1 0x1F DUP3 ADD AND DUP3 ADD DUP1 PUSH1 0x40 MSTORE POP DUP2 ADD SWAP1 PUSH2 0x9F3 SWAP2 SWAP1 PUSH2 0xF01 JUMP JUMPDEST POP PUSH1 0x0 PUSH2 0x9FF DUP4 PUSH2 0xCCA JUMP JUMPDEST ORIGIN PUSH1 0x0 SWAP1 DUP2 MSTORE PUSH1 0x5 PUSH1 0x20 MSTORE PUSH1 0x40 DUP2 KECCAK256 DUP1 SLOAD SWAP3 SWAP4 POP DUP4 SWAP3 SWAP1 SWAP2 SWAP1 PUSH2 0xA23 SWAP1 DUP5 SWAP1 PUSH2 0xEA2 JUMP JUMPDEST SWAP1 SWAP2 SSTORE POP POP ORIGIN PUSH1 0x0 SWAP1 DUP2 MSTORE PUSH1 0x6 PUSH1 0x20 MSTORE PUSH1 0x40 DUP2 KECCAK256 TIMESTAMP SWAP1 SSTORE PUSH1 0x7 DUP1 SLOAD DUP4 SWAP3 SWAP1 PUSH2 0xA4C SWAP1 DUP5 SWAP1 PUSH2 0xEA2 JUMP JUMPDEST SWAP3 POP POP DUP2 SWAP1 SSTORE POP DUP3 PUSH1 0x2 PUSH1 0x0 DUP3 DUP3 SLOAD PUSH2 0xA65 SWAP2 SWAP1 PUSH2 0xEA2 JUMP JUMPDEST SWAP1 SWAP2 SSTORE POP PUSH2 0xA74 SWAP1 POP DUP4 PUSH2 0xD53 JUMP JUMPDEST PUSH1 0x40 DUP1 MLOAD DUP5 DUP2 MSTORE PUSH1 0x20 DUP2 ADD DUP4 SWAP1 MSTORE ORIGIN SWAP2 PUSH32 0x73A19DD210F1A7F902193214C0EE91DD35EE5B4D920CBA8D519ECA65A7B488CA SWAP2 ADD PUSH1 0x40 MLOAD DUP1 SWAP2 SUB SWAP1 LOG2 SWAP1 POP PUSH2 0x6FD PUSH1 0x1 DUP1 SSTORE JUMP JUMPDEST PUSH2 0xAC2 PUSH2 0xC1C JUMP JUMPDEST PUSH1 0x40 MLOAD PUSH4 0x23B872DD PUSH1 0xE0 SHL DUP2 MSTORE CALLER PUSH1 0x4 DUP3 ADD MSTORE ADDRESS PUSH1 0x24 DUP3 ADD MSTORE PUSH1 0x44 DUP2 ADD DUP3 SWAP1 MSTORE PUSH32 0x0 PUSH1 0x1 PUSH1 0x1 PUSH1 0xA0 SHL SUB AND SWAP1 PUSH4 0x23B872DD SWAP1 PUSH1 0x64 ADD PUSH1 0x20 PUSH1 0x40 MLOAD DUP1 DUP4 SUB DUP2 PUSH1 0x0 DUP8 GAS CALL ISZERO DUP1 ISZERO PUSH2 0xB35 JUMPI RETURNDATASIZE PUSH1 0x0 DUP1 RETURNDATACOPY RETURNDATASIZE PUSH1 0x0 REVERT JUMPDEST POP POP POP POP PUSH1 0x40 MLOAD RETURNDATASIZE PUSH1 0x1F NOT PUSH1 0x1F DUP3 ADD AND DUP3 ADD DUP1 PUSH1 0x40 MSTORE POP DUP2 ADD SWAP1 PUSH2 0xB59 SWAP2 SWAP1 PUSH2 0xF01 JUMP JUMPDEST POP DUP1 PUSH1 0x8 PUSH1 0x0 DUP3 DUP3 SLOAD PUSH2 0xB6C SWAP2 SWAP1 PUSH2 0xEA2 JUMP JUMPDEST SWAP1 SWAP2 SSTORE POP POP POP JUMP JUMPDEST PUSH2 0xB7C PUSH2 0xC1C JUMP JUMPDEST PUSH1 0x1 PUSH1 0x1 PUSH1 0xA0 SHL SUB DUP2 AND PUSH2 0xBBF JUMPI PUSH1 0x40 MLOAD PUSH32 0x1E4FBDF700000000000000000000000000000000000000000000000000000000 DUP2 MSTORE PUSH1 0x0 PUSH1 0x4 DUP3 ADD MSTORE PUSH1 0x24 ADD PUSH2 0x441 JUMP JUMPDEST PUSH2 0xBC8 DUP2 PUSH2 0xC62 JUMP JUMPDEST POP JUMP JUMPDEST PUSH1 0x2 PUSH1 0x1 SLOAD SUB PUSH2 0xC07 JUMPI PUSH1 0x40 MLOAD PUSH32 0x3EE5AEB500000000000000000000000000000000000000000000000000000000 DUP2 MSTORE PUSH1 0x4 ADD PUSH1 0x40 MLOAD DUP1 SWAP2 SUB SWAP1 REVERT JUMPDEST PUSH1 0x2 PUSH1 0x1 SSTORE JUMP JUMPDEST PUSH1 0x0 PUSH2 0xC18 PUSH2 0xD57 JUMP JUMPDEST POP SWAP1 JUMP JUMPDEST PUSH1 0x0 SLOAD PUSH1 0x1 PUSH1 0x1 PUSH1 0xA0 SHL SUB AND CALLER EQ PUSH2 0x804 JUMPI PUSH1 0x40 MLOAD PUSH32 0x118CDAA700000000000000000000000000000000000000000000000000000000 DUP2 MSTORE CALLER PUSH1 0x4 DUP3 ADD MSTORE PUSH1 0x24 ADD PUSH2 0x441 JUMP JUMPDEST PUSH1 0x0 DUP1 SLOAD PUSH1 0x1 PUSH1 0x1 PUSH1 0xA0 SHL SUB DUP4 DUP2 AND PUSH32 0xFFFFFFFFFFFFFFFFFFFFFFFF0000000000000000000000000000000000000000 DUP4 AND DUP2 OR DUP5 SSTORE PUSH1 0x40 MLOAD SWAP2 SWAP1 SWAP3 AND SWAP3 DUP4 SWAP2 PUSH32 0x8BE0079C531659141344CD1FD0A4F28419497F9722A3DAAFE3B4186F6B6457E0 SWAP2 SWAP1 LOG3 POP POP JUMP JUMPDEST PUSH1 0x0 PUSH1 0x7 SLOAD PUSH1 0x0 SUB PUSH2 0xCDA JUMPI POP SWAP1 JUMP JUMPDEST ADDRESS PUSH1 0x1 PUSH1 0x1 PUSH1 0xA0 SHL SUB AND PUSH4 0x12065FE0 PUSH1 0x40 MLOAD DUP2 PUSH4 0xFFFFFFFF AND PUSH1 0xE0 SHL DUP2 MSTORE PUSH1 0x4 ADD PUSH1 0x20 PUSH1 0x40 MLOAD DUP1 DUP4 SUB DUP2 DUP7 GAS STATICCALL ISZERO DUP1 ISZERO PUSH2 0xD18 JUMPI RETURNDATASIZE PUSH1 0x0 DUP1 RETURNDATACOPY RETURNDATASIZE PUSH1 0x0 REVERT JUMPDEST POP POP POP POP PUSH1 0x40 MLOAD RETURNDATASIZE PUSH1 0x1F NOT PUSH1 0x1F DUP3 ADD AND DUP3 ADD DUP1 PUSH1 0x40 MSTORE POP DUP2 ADD SWAP1 PUSH2 0xD3C SWAP2 SWAP1 PUSH2 0xE73 JUMP JUMPDEST PUSH1 0x7 SLOAD PUSH2 0xD49 SWAP1 DUP5 PUSH2 0xEB5 JUMP JUMPDEST PUSH2 0x7EC SWAP2 SWAP1 PUSH2 0xECC JUMP JUMPDEST PUSH2 0xBC8 JUMPDEST PUSH1 0x0 PUSH1 0x9 SLOAD TIMESTAMP PUSH2 0xD67 SWAP2 SWAP1 PUSH2 0xEEE JUMP JUMPDEST SWAP1 POP PUSH2 0xE10 DUP2 LT ISZERO DUP1 ISZERO PUSH2 0xD7D JUMPI POP PUSH1 0x0 PUSH1 0x2 SLOAD GT JUMPDEST ISZERO PUSH2 0xBC8 JUMPI PUSH1 0x0 PUSH5 0x496CEBB800 DUP3 PUSH2 0xD93 PUSH2 0x806 JUMP JUMPDEST PUSH1 0x2 SLOAD PUSH2 0xDA0 SWAP2 SWAP1 PUSH2 0xEB5 JUMP JUMPDEST PUSH2 0xDAA SWAP2 SWAP1 PUSH2 0xEB5 JUMP JUMPDEST PUSH2 0xDB4 SWAP2 SWAP1 PUSH2 0xECC JUMP JUMPDEST SWAP1 POP DUP1 ISZERO PUSH2 0xE0B JUMPI DUP1 PUSH1 0x8 PUSH1 0x0 DUP3 DUP3 SLOAD PUSH2 0xDCE SWAP2 SWAP1 PUSH2 0xEA2 JUMP JUMPDEST SWAP1 SWAP2 SSTORE POP POP TIMESTAMP PUSH1 0x9 SSTORE PUSH1 0x40 MLOAD DUP2 DUP2 MSTORE PUSH32 0x6D1C76D614228B523BAA4DCD9539E2C713B54FF4AB3FF2D1627E7F6CD32BE442 SWAP1 PUSH1 0x20 ADD PUSH1 0x40 MLOAD DUP1 SWAP2 SUB SWAP1 LOG1 JUMPDEST POP POP JUMP JUMPDEST PUSH1 0x0 PUSH1 0x20 DUP3 DUP5 SUB SLT ISZERO PUSH2 0xE21 JUMPI PUSH1 0x0 DUP1 REVERT JUMPDEST POP CALLDATALOAD SWAP2 SWAP1 POP JUMP JUMPDEST PUSH1 0x0 PUSH1 0x20 DUP3 DUP5 SUB SLT ISZERO PUSH2 0xE3A JUMPI PUSH1 0x0 DUP1 REVERT JUMPDEST DUP2 CALLDATALOAD PUSH1 0x1 PUSH1 0x1 PUSH1 0xA0 SHL SUB DUP2 AND DUP2 EQ PUSH2 0x7AF JUMPI PUSH1 0x0 DUP1 REVERT JUMPDEST PUSH1 0x0 DUP1 PUSH1 0x40 DUP4 DUP6 SUB SLT ISZERO PUSH2 0xE64 JUMPI PUSH1 0x0 DUP1 REVERT JUMPDEST POP POP DUP1 CALLDATALOAD SWAP3 PUSH1 0x20 SWAP1 SWAP2 ADD CALLDATALOAD SWAP2 POP JUMP JUMPDEST PUSH1 0x0 PUSH1 0x20 DUP3 DUP5 SUB SLT ISZERO PUSH2 0xE85 JUMPI PUSH1 0x0 DUP1 REVERT JUMPDEST POP MLOAD SWAP2 SWAP1 POP JUMP JUMPDEST PUSH4 0x4E487B71 PUSH1 0xE0 SHL PUSH1 0x0 MSTORE PUSH1 0x11 PUSH1 0x4 MSTORE PUSH1 0x24 PUSH1 0x0 REVERT JUMPDEST DUP1 DUP3 ADD DUP1 DUP3 GT ISZERO PUSH2 0x7EC JUMPI PUSH2 0x7EC PUSH2 0xE8C JUMP JUMPDEST DUP1 DUP3 MUL DUP2 ISZERO DUP3 DUP3 DIV DUP5 EQ OR PUSH2 0x7EC JUMPI PUSH2 0x7EC PUSH2 0xE8C JUMP JUMPDEST PUSH1 0x0 DUP3 PUSH2 0xEE9 JUMPI PUSH4 0x4E487B71 PUSH1 0xE0 SHL PUSH1 0x0 MSTORE PUSH1 0x12 PUSH1 0x4 MSTORE PUSH1 0x24 PUSH1 0x0 REVERT JUMPDEST POP DIV SWAP1 JUMP JUMPDEST DUP2 DUP2 SUB DUP2 DUP2 GT ISZERO PUSH2 0x7EC JUMPI PUSH2 0x7EC PUSH2 0xE8C JUMP JUMPDEST PUSH1 0x0 PUSH1 0x20 DUP3 DUP5 SUB SLT ISZERO PUSH2 0xF13 JUMPI PUSH1 0x0 DUP1 REVERT JUMPDEST DUP2 MLOAD DUP1 ISZERO ISZERO DUP2 EQ PUSH2 0x7AF JUMPI PUSH1 0x0 DUP1 REVERT INVALID LOG1 PUSH5 0x736F6C6343 STOP ADDMOD EQ STOP EXP "},"methodIdentifiers":{"BASE_APY()":"4ca19fd6","MAX_CAPACITY()":"3a5ddf30","USDT()":"c54e44eb","addRewards(uint256)":"beceed39","calculateRewards(uint256,uint256)":"48a88706","deposit(uint256)":"b6b55f25","getBalance()":"12065fe0","getCurrentAPY()":"962ca496","getUserBalance(address)":"47734892","lastUpdateTime()":"c8f33c91","owner()":"8da5cb5b","renounceOwnership()":"715018a6","rewardPool()":"66666aa9","totalDeposited()":"ff50abdc","totalShares()":"3a98ef39","totalWithdrawn()":"4b319713","transferOwnership(address)":"f2fde38b","userDepositTime(address)":"cf27e06f","userShares(address)":"de69b3aa","withdraw(uint256)":"2e1a7d4d","yieldOptimizer()":"7b4cab3d"}}}}}