{"contracts/strategies/HighYieldProStrategy.sol":{"HighYieldProStrategy":{"abi":[{"inputs":[{"internalType":"address","name":"_usdt","type":"address"},{"internalType":"address","name":"_yieldOptimizer","type":"address"}],"stateMutability":"nonpayable","type":"constructor"},{"inputs":[{"internalType":"address","name":"owner","type":"address"}],"name":"OwnableInvalidOwner","type":"error"},{"inputs":[{"internalType":"address","name":"account","type":"address"}],"name":"OwnableUnauthorizedAccount","type":"error"},{"inputs":[],"name":"ReentrancyGuardReentrantCall","type":"error"},{"anonymous":false,"inputs":[{"indexed":true,"internalType":"address","name":"user","type":"address"},{"indexed":false,"internalType":"uint256","name":"amount","type":"uint256"},{"indexed":false,"internalType":"uint256","name":"shares","type":"uint256"}],"name":"Deposited","type":"event"},{"anonymous":false,"inputs":[{"indexed":true,"internalType":"address","name":"previousOwner","type":"address"},{"indexed":true,"internalType":"address","name":"newOwner","type":"address"}],"name":"OwnershipTransferred","type":"event"},{"anonymous":false,"inputs":[{"indexed":false,"internalType":"uint256","name":"totalRewards","type":"uint256"}],"name":"RewardsDistributed","type":"event"},{"anonymous":false,"inputs":[{"indexed":false,"internalType":"bool","name":"isLoss","type":"bool"},{"indexed":false,"internalType":"uint256","name":"amount","type":"uint256"},{"indexed":false,"internalType":"uint256","name":"affectedUsers","type":"uint256"}],"name":"RiskEvent","type":"event"},{"anonymous":false,"inputs":[{"indexed":true,"internalType":"address","name":"user","type":"address"},{"indexed":false,"internalType":"uint256","name":"riskScore","type":"uint256"}],"name":"UserQualified","type":"event"},{"anonymous":false,"inputs":[{"indexed":true,"internalType":"address","name":"user","type":"address"},{"indexed":false,"internalType":"uint256","name":"amount","type":"uint256"},{"indexed":false,"internalType":"uint256","name":"shares","type":"uint256"}],"name":"Withdrawn","type":"event"},{"inputs":[],"name":"BASE_APY","outputs":[{"internalType":"uint256","name":"","type":"uint256"}],"stateMutability":"view","type":"function"},{"inputs":[],"name":"LOSS_PROBABILITY","outputs":[{"internalType":"uint256","name":"","type":"uint256"}],"stateMutability":"view","type":"function"},{"inputs":[],"name":"MAX_CAPACITY","outputs":[{"internalType":"uint256","name":"","type":"uint256"}],"stateMutability":"view","type":"function"},{"inputs":[],"name":"MAX_LOSS_PERCENTAGE","outputs":[{"internalType":"uint256","name":"","type":"uint256"}],"stateMutability":"view","type":"function"},{"inputs":[],"name":"USDT","outputs":[{"internalType":"contract IERC20","name":"","type":"address"}],"stateMutability":"view","type":"function"},{"inputs":[{"internalType":"uint256","name":"amount","type":"uint256"}],"name":"addLossBuffer","outputs":[],"stateMutability":"nonpayable","type":"function"},{"inputs":[{"internalType":"uint256","name":"amount","type":"uint256"},{"internalType":"uint256","name":"timeElapsed","type":"uint256"}],"name":"calculateRewards","outputs":[{"internalType":"uint256","name":"","type":"uint256"}],"stateMutability":"view","type":"function"},{"inputs":[{"internalType":"uint256","name":"amount","type":"uint256"}],"name":"deposit","outputs":[{"internalType":"uint256","name":"","type":"uint256"}],"stateMutability":"nonpayable","type":"function"},{"inputs":[{"internalType":"address","name":"","type":"address"}],"name":"experiencedUser","outputs":[{"internalType":"bool","name":"","type":"bool"}],"stateMutability":"view","type":"function"},{"inputs":[],"name":"getBalance","outputs":[{"internalType":"uint256","name":"","type":"uint256"}],"stateMutability":"view","type":"function"},{"inputs":[],"name":"getCurrentAPY","outputs":[{"internalType":"uint256","name":"","type":"uint256"}],"stateMutability":"view","type":"function"},{"inputs":[],"name":"getStrategyMetrics","outputs":[{"internalType":"uint256","name":"apy","type":"uint256"},{"internalType":"uint256","name":"multiplier","type":"uint256"},{"internalType":"uint256","name":"profits","type":"uint256"},{"internalType":"uint256","name":"losses","type":"uint256"},{"internalType":"uint256","name":"buffer","type":"uint256"},{"internalType":"uint256","name":"riskLevel","type":"uint256"}],"stateMutability":"view","type":"function"},{"inputs":[{"internalType":"address","name":"user","type":"address"}],"name":"getUserBalance","outputs":[{"internalType":"uint256","name":"","type":"uint256"}],"stateMutability":"view","type":"function"},{"inputs":[{"internalType":"address","name":"user","type":"address"}],"name":"isUserQualified","outputs":[{"internalType":"bool","name":"","type":"bool"}],"stateMutability":"view","type":"function"},{"inputs":[],"name":"lastUpdateTime","outputs":[{"internalType":"uint256","name":"","type":"uint256"}],"stateMutability":"view","type":"function"},{"inputs":[],"name":"lossBuffer","outputs":[{"internalType":"uint256","name":"","type":"uint256"}],"stateMutability":"view","type":"function"},{"inputs":[],"name":"owner","outputs":[{"internalType":"address","name":"","type":"address"}],"stateMutability":"view","type":"function"},{"inputs":[],"name":"performanceMultiplier","outputs":[{"internalType":"uint256","name":"","type":"uint256"}],"stateMutability":"view","type":"function"},{"inputs":[{"internalType":"address","name":"user","type":"address"},{"internalType":"uint256","name":"riskScore","type":"uint256"}],"name":"qualifyUser","outputs":[],"stateMutability":"nonpayable","type":"function"},{"inputs":[],"name":"renounceOwnership","outputs":[],"stateMutability":"nonpayable","type":"function"},{"inputs":[],"name":"totalDeposited","outputs":[{"internalType":"uint256","name":"","type":"uint256"}],"stateMutability":"view","type":"function"},{"inputs":[],"name":"totalLosses","outputs":[{"internalType":"uint256","name":"","type":"uint256"}],"stateMutability":"view","type":"function"},{"inputs":[],"name":"totalProfits","outputs":[{"internalType":"uint256","name":"","type":"uint256"}],"stateMutability":"view","type":"function"},{"inputs":[],"name":"totalShares","outputs":[{"internalType":"uint256","name":"","type":"uint256"}],"stateMutability":"view","type":"function"},{"inputs":[],"name":"totalWithdrawn","outputs":[{"internalType":"uint256","name":"","type":"uint256"}],"stateMutability":"view","type":"function"},{"inputs":[{"internalType":"address","name":"newOwner","type":"address"}],"name":"transferOwnership","outputs":[],"stateMutability":"nonpayable","type":"function"},{"inputs":[{"internalType":"address","name":"","type":"address"}],"name":"userDepositTime","outputs":[{"internalType":"uint256","name":"","type":"uint256"}],"stateMutability":"view","type":"function"},{"inputs":[{"internalType":"address","name":"","type":"address"}],"name":"userRiskScore","outputs":[{"internalType":"uint256","name":"","type":"uint256"}],"stateMutability":"view","type":"function"},{"inputs":[{"internalType":"address","name":"","type":"address"}],"name":"userShares","outputs":[{"internalType":"uint256","name":"","type":"uint256"}],"stateMutability":"view","type":"function"},{"inputs":[{"internalType":"uint256","name":"amount","type":"uint256"}],"name":"withdraw","outputs":[{"internalType":"uint256","name":"","type":"uint256"}],"stateMutability":"nonpayable","type":"function"},{"inputs":[],"name":"yieldOptimizer","outputs":[{"internalType":"address","name":"","type":"address"}],"stateMutability":"view","type":"function"}],"evm":{"bytecode":{"linkReferences":{},"object":"60c06040526127106008553480156200001757600080fd5b5060405162001734380380620017348339810160408190526200003a91620000fe565b818133806200006357604051631e4fbdf760e01b81526000600482015260240160405180910390fd5b6200006e8162000091565b50600180556001600160a01b039182166080521660a05250504260045562000136565b600080546001600160a01b038381166001600160a01b0319831681178455604051919092169283917f8be0079c531659141344cd1fd0a4f28419497f9722a3daafe3b4186f6b6457e09190a35050565b80516001600160a01b0381168114620000f957600080fd5b919050565b600080604083850312156200011257600080fd5b6200011d83620000e1565b91506200012d60208401620000e1565b90509250929050565b60805160a0516115a0620001946000396000818161030d015281816105b4015281816107d301528181610b510152610c940152600081816103d6015281816104870152818161052f015281816108020152610cc901526115a06000f3fe608060405234801561001057600080fd5b50600436106101e55760003560e01c8063715018a61161010f578063bd998cb3116100a2578063cf27e06f11610071578063cf27e06f14610401578063de69b3aa14610421578063f2fde38b14610441578063ff50abdc1461045457600080fd5b8063bd998cb3146103bf578063bf04820b146103c8578063c54e44eb146103d1578063c8f33c91146103f857600080fd5b8063962ca496116100de578063962ca49614610378578063a485b78614610380578063b3bf4c4514610389578063b6b55f25146103ac57600080fd5b8063715018a6146103005780637b4cab3d146103085780637fb4fb1b146103475780638da5cb5b1461036757600080fd5b80633a98ef39116101875780634ca19fd6116101565780634ca19fd6146102c257806351a6f7c4146102cb57806358acc2cd146102ee5780636b558266146102f757600080fd5b80633a98ef391461028a578063477348921461029357806348a88706146102a65780634b319713146102b957600080fd5b80632ede5ad6116101c35780632ede5ad61461022d57806331a588091461026257806339fa187c146102755780633a5ddf301461027e57600080fd5b80630ef0e05b146101ea57806312065fe0146101ff5780632e1a7d4d1461021a575b600080fd5b6101fd6101f8366004611407565b61045d565b005b610207610517565b6040519081526020015b60405180910390f35b610207610228366004611407565b6105a7565b6102356108bd565b604080519687526020870195909552938501929092526060840152608083015260a082015260c001610211565b6101fd610270366004611437565b6108ee565b61020760095481565b610207642e90edd00081565b61020760075481565b6102076102a1366004611461565b6109b8565b6102076102b436600461147c565b610a6c565b61020760035481565b6102076109c481565b6102de6102d9366004611461565b610aa8565b6040519015158152602001610211565b6102076103e881565b6102076101f481565b6101fd610aeb565b61032f7f000000000000000000000000000000000000000000000000000000000000000081565b6040516001600160a01b039091168152602001610211565b610207610355366004611461565b600c6020526000908152604090205481565b6000546001600160a01b031661032f565b610207610aff565b61020760085481565b6102de610397366004611461565b600d6020526000908152604090205460ff1681565b6102076103ba366004611407565b610b44565b610207600a5481565b610207600b5481565b61032f7f000000000000000000000000000000000000000000000000000000000000000081565b61020760045481565b61020761040f366004611461565b60066020526000908152604090205481565b61020761042f366004611461565b60056020526000908152604090205481565b6101fd61044f366004611461565b610e05565b61020760025481565b610465610e43565b6040516323b872dd60e01b8152336004820152306024820152604481018290527f00000000000000000000000000000000000000000000000000000000000000006001600160a01b0316906323b872dd906064016020604051808303816000875af11580156104d8573d6000803e3d6000fd5b505050506040513d601f19601f820116820180604052508101906104fc919061149e565b50806009600082825461050f91906114d6565b909155505050565b6040516370a0823160e01b81523060048201526000907f00000000000000000000000000000000000000000000000000000000000000006001600160a01b0316906370a0823190602401602060405180830381865afa15801561057e573d6000803e3d6000fd5b505050506040513d601f19601f820116820180604052508101906105a291906114e9565b905090565b6000336001600160a01b037f000000000000000000000000000000000000000000000000000000000000000016146106265760405162461bcd60e51b815260206004820152601c60248201527f4f6e6c79205969656c644f7074696d697a65722063616e2063616c6c0000000060448201526064015b60405180910390fd5b61062e610e70565b6000821161067e5760405162461bcd60e51b815260206004820152601d60248201527f416d6f756e74206d7573742062652067726561746572207468616e2030000000604482015260640161061d565b326000908152600560205260409020546106d25760405162461bcd60e51b81526020600482015260156024820152744e6f2073686172657320746f20776974686472617760581b604482015260640161061d565b60006106dd326109b8565b9050808311156107265760405162461bcd60e51b8152602060048201526014602482015273496e73756666696369656e742062616c616e636560601b604482015260640161061d565b3260009081526005602052604081205482906107429086611502565b61074c919061152f565b32600090815260056020526040812080549293508392909190610770908490611543565b9250508190555080600760008282546107899190611543565b909155506000905061079a85610e9a565b905080600360008282546107ae91906114d6565b909155506107bc9050610f77565b60405163a9059cbb60e01b81526001600160a01b037f000000000000000000000000000000000000000000000000000000000000000081166004830152602482018390527f0000000000000000000000000000000000000000000000000000000000000000169063a9059cbb906044016020604051808303816000875af115801561084b573d6000803e3d6000fd5b505050506040513d601f19601f8201168201806040525081019061086f919061149e565b50604080518281526020810184905232917f92ccf450a286a957af52509bc1c9939d1a6a481783e142e41e2499f0bb66ebc6910160405180910390a2925050506108b860018055565b919050565b6000806000806000806108ce610aff565b60088054600a54600b54600954949b929a50909850965091945092509050565b6108f6610e43565b60078110156109535760405162461bcd60e51b8152602060048201526024808201527f5269736b2073636f726520746f6f206c6f7720666f72207468697320737472616044820152637465677960e01b606482015260840161061d565b6001600160a01b0382166000818152600c60209081526040808320859055600d825291829020805460ff1916600117905590518381527fdfcf6c980ae9c32c3e4bc33303e744e8d29854944f383bf3cdf2ac93ed443373910160405180910390a25050565b60006007546000036109cc57506000919050565b6000306001600160a01b03166312065fe06040518163ffffffff1660e01b8152600401602060405180830381865afa158015610a0c573d6000803e3d6000fd5b505050506040513d601f19601f82011682018060405250810190610a3091906114e9565b6007546001600160a01b03851660009081526005602052604090205491925090610a5b908390611502565b610a65919061152f565b9392505050565b600080610a77610aff565b905064496cebb80083610a8a8387611502565b610a949190611502565b610a9e919061152f565b9150505b92915050565b6001600160a01b0381166000908152600d602052604081205460ff168015610aa25750506001600160a01b03166000908152600c60205260409020546007111590565b610af3610e43565b610afd60006111bb565b565b6000806109c49050600061271060085483610b1a9190611502565b610b24919061152f565b90506000610b3061120b565b9050610b3c81836114d6565b935050505090565b6000336001600160a01b037f00000000000000000000000000000000000000000000000000000000000000001614610bbe5760405162461bcd60e51b815260206004820152601c60248201527f4f6e6c79205969656c644f7074696d697a65722063616e2063616c6c00000000604482015260640161061d565b610bc6610e70565b610bcf32610aa8565b610c2d5760405162461bcd60e51b815260206004820152602960248201527f55736572206e6f74207175616c696669656420666f7220686967682d7269736b60448201526820737472617465677960b81b606482015260840161061d565b60008211610c7d5760405162461bcd60e51b815260206004820152601d60248201527f416d6f756e74206d7573742062652067726561746572207468616e2030000000604482015260640161061d565b6040516323b872dd60e01b81526001600160a01b037f000000000000000000000000000000000000000000000000000000000000000081166004830152306024830152604482018490527f000000000000000000000000000000000000000000000000000000000000000016906323b872dd906064016020604051808303816000875af1158015610d12573d6000803e3d6000fd5b505050506040513d601f19601f82011682018060405250810190610d36919061149e565b506000610d4283611295565b32600090815260056020526040812080549293508392909190610d669084906114d6565b909155505032600090815260066020526040812042905560078054839290610d8f9084906114d6565b925050819055508260026000828254610da891906114d6565b90915550610db790508361131e565b610dbf610f77565b604080518481526020810183905232917f73a19dd210f1a7f902193214c0ee91dd35ee5b4d920cba8d519eca65a7b488ca910160405180910390a290506108b860018055565b610e0d610e43565b6001600160a01b038116610e3757604051631e4fbdf760e01b81526000600482015260240161061d565b610e40816111bb565b50565b6000546001600160a01b03163314610afd5760405163118cdaa760e01b815233600482015260240161061d565b600260015403610e9357604051633ee5aeb560e01b815260040160405180910390fd5b6002600155565b6000610ea4611322565b32600090815260066020526040812054610ebe9042611543565b604051632454438360e11b8152600481018590526024810182905290915060009030906348a8870690604401602060405180830381865afa158015610f07573d6000803e3d6000fd5b505050506040513d601f19601f82011682018060405250810190610f2b91906114e9565b90506000610f398286611394565b90506000612710610f4a8388611502565b610f54919061152f565b9050808611610f635785610f6d565b610f6d8187611543565b9695505050505050565b6000612710424460025433604051602001610fbe949392919093845260208401929092526040830152606090811b6bffffffffffffffffffffffff19169082015260740190565b6040516020818303038152906040528051906020012060001c610fe19190611556565b90506103e881108015610ff657506000600254115b156110fa5760006127106101f46002546110109190611502565b61101a919061152f565b905080600954106110425780600960008282546110379190611543565b9091555061109b9050565b6000600954826110529190611543565b9050600060098190555080600b600082825461106e91906114d6565b90915550506008546103e81061108657611388611096565b6103e86008546110969190611543565b600855505b7f5a5ab2839b49637281301b13d6d1c9b46ae499b1c3c43c18af98c6c040b0cdf46001826000600754116110d05760006110d3565b60015b604080519315158452602084019290925260ff169082015260600160405180910390a15050565b612134811115610e4057600061271060025461012c6111199190611502565b611123919061152f565b905080600a600082825461113791906114d6565b90915550611148905060028261152f565b6009600082825461115991906114d6565b9091555050600854613a981161117157613a98611180565b600854611180906101f46114d6565b6008819055507f5a5ab2839b49637281301b13d6d1c9b46ae499b1c3c43c18af98c6c040b0cdf46000826000600754116110d05760006110d3565b600080546001600160a01b038381166001600160a01b0319831681178455604051919092169283917f8be0079c531659141344cd1fd0a4f28419497f9722a3daafe3b4186f6b6457e09190a35050565b600060025460000361121d5750600090565b6000600254600b546127106112329190611502565b61123c919061152f565b90506000600254600a546127106112539190611502565b61125d919061152f565b905061126a826002611502565b81111561127b5761012c9250505090565b8082111561128c5760009250505090565b60969250505090565b60006007546000036112a5575090565b306001600160a01b03166312065fe06040518163ffffffff1660e01b8152600401602060405180830381865afa1580156112e3573d6000803e3d6000fd5b505050506040513d601f19601f8201168201806040525081019061130791906114e9565b6007546113149084611502565b610aa2919061152f565b610e405b6000600454426113329190611543565b9050620151808110610e405761271060085411156113685760646008600082825461135d9190611543565b9091555061138d9050565b612710600854101561138d5760646008600082825461138791906114d6565b90915550505b4260045550565b6000826000036113a657506000610aa2565b6000826113b585612710611502565b6113bf919061152f565b90506107d08111156113d55760c8915050610aa2565b6103e88111156113e9576096915050610aa2565b6101f48111156113fd576064915050610aa2565b5060329392505050565b60006020828403121561141957600080fd5b5035919050565b80356001600160a01b03811681146108b857600080fd5b6000806040838503121561144a57600080fd5b61145383611420565b946020939093013593505050565b60006020828403121561147357600080fd5b610a6582611420565b6000806040838503121561148f57600080fd5b50508035926020909101359150565b6000602082840312156114b057600080fd5b81518015158114610a6557600080fd5b634e487b7160e01b600052601160045260246000fd5b80820180821115610aa257610aa26114c0565b6000602082840312156114fb57600080fd5b5051919050565b8082028115828204841417610aa257610aa26114c0565b634e487b7160e01b600052601260045260246000fd5b60008261153e5761153e611519565b500490565b81810381811115610aa257610aa26114c0565b60008261156557611565611519565b50069056fea2646970667358221220d712a14c89b098b6f743ba14ac92a8bb9f06eb23dd6403d078fc8c3ab5b0ccfc64736f6c63430008140033","opcodes":"PUSH1 0xC0 PUSH1 0x40 MSTORE PUSH2 0x2710 PUSH1 0x8 SSTORE CALLVALUE DUP1 ISZERO PUSH3 0x17 JUMPI PUSH1 0x0 DUP1 REVERT JUMPDEST POP PUSH1 0x40 MLOAD PUSH3 0x1734 CODESIZE SUB DUP1 PUSH3 0x1734 DUP4 CODECOPY DUP2 ADD PUSH1 0x40 DUP2 SWAP1 MSTORE PUSH3 0x3A SWAP2 PUSH3 0xFE JUMP JUMPDEST DUP2 DUP2 CALLER DUP1 PUSH3 0x63 JUMPI PUSH1 0x40 MLOAD PUSH4 0x1E4FBDF7 PUSH1 0xE0 SHL DUP2 MSTORE PUSH1 0x0 PUSH1 0x4 DUP3 ADD MSTORE PUSH1 0x24 ADD PUSH1 0x40 MLOAD DUP1 SWAP2 SUB SWAP1 REVERT JUMPDEST PUSH3 0x6E DUP2 PUSH3 0x91 JUMP JUMPDEST POP PUSH1 0x1 DUP1 SSTORE PUSH1 0x1 PUSH1 0x1 PUSH1 0xA0 SHL SUB SWAP2 DUP3 AND PUSH1 0x80 MSTORE AND PUSH1 0xA0 MSTORE POP POP TIMESTAMP PUSH1 0x4 SSTORE PUSH3 0x136 JUMP JUMPDEST PUSH1 0x0 DUP1 SLOAD PUSH1 0x1 PUSH1 0x1 PUSH1 0xA0 SHL SUB DUP4 DUP2 AND PUSH1 0x1 PUSH1 0x1 PUSH1 0xA0 SHL SUB NOT DUP4 AND DUP2 OR DUP5 SSTORE PUSH1 0x40 MLOAD SWAP2 SWAP1 SWAP3 AND SWAP3 DUP4 SWAP2 PUSH32 0x8BE0079C531659141344CD1FD0A4F28419497F9722A3DAAFE3B4186F6B6457E0 SWAP2 SWAP1 LOG3 POP POP JUMP JUMPDEST DUP1 MLOAD PUSH1 0x1 PUSH1 0x1 PUSH1 0xA0 SHL SUB DUP2 AND DUP2 EQ PUSH3 0xF9 JUMPI PUSH1 0x0 DUP1 REVERT JUMPDEST SWAP2 SWAP1 POP JUMP JUMPDEST PUSH1 0x0 DUP1 PUSH1 0x40 DUP4 DUP6 SUB SLT ISZERO PUSH3 0x112 JUMPI PUSH1 0x0 DUP1 REVERT JUMPDEST PUSH3 0x11D DUP4 PUSH3 0xE1 JUMP JUMPDEST SWAP2 POP PUSH3 0x12D PUSH1 0x20 DUP5 ADD PUSH3 0xE1 JUMP JUMPDEST SWAP1 POP SWAP3 POP SWAP3 SWAP1 POP JUMP JUMPDEST PUSH1 0x80 MLOAD PUSH1 0xA0 MLOAD PUSH2 0x15A0 PUSH3 0x194 PUSH1 0x0 CODECOPY PUSH1 0x0 DUP2 DUP2 PUSH2 0x30D ADD MSTORE DUP2 DUP2 PUSH2 0x5B4 ADD MSTORE DUP2 DUP2 PUSH2 0x7D3 ADD MSTORE DUP2 DUP2 PUSH2 0xB51 ADD MSTORE PUSH2 0xC94 ADD MSTORE PUSH1 0x0 DUP2 DUP2 PUSH2 0x3D6 ADD MSTORE DUP2 DUP2 PUSH2 0x487 ADD MSTORE DUP2 DUP2 PUSH2 0x52F ADD MSTORE DUP2 DUP2 PUSH2 0x802 ADD MSTORE PUSH2 0xCC9 ADD MSTORE PUSH2 0x15A0 PUSH1 0x0 RETURN INVALID PUSH1 0x80 PUSH1 0x40 MSTORE CALLVALUE DUP1 ISZERO PUSH2 0x10 JUMPI PUSH1 0x0 DUP1 REVERT JUMPDEST POP PUSH1 0x4 CALLDATASIZE LT PUSH2 0x1E5 JUMPI PUSH1 0x0 CALLDATALOAD PUSH1 0xE0 SHR DUP1 PUSH4 0x715018A6 GT PUSH2 0x10F JUMPI DUP1 PUSH4 0xBD998CB3 GT PUSH2 0xA2 JUMPI DUP1 PUSH4 0xCF27E06F GT PUSH2 0x71 JUMPI DUP1 PUSH4 0xCF27E06F EQ PUSH2 0x401 JUMPI DUP1 PUSH4 0xDE69B3AA EQ PUSH2 0x421 JUMPI DUP1 PUSH4 0xF2FDE38B EQ PUSH2 0x441 JUMPI DUP1 PUSH4 0xFF50ABDC EQ PUSH2 0x454 JUMPI PUSH1 0x0 DUP1 REVERT JUMPDEST DUP1 PUSH4 0xBD998CB3 EQ PUSH2 0x3BF JUMPI DUP1 PUSH4 0xBF04820B EQ PUSH2 0x3C8 JUMPI DUP1 PUSH4 0xC54E44EB EQ PUSH2 0x3D1 JUMPI DUP1 PUSH4 0xC8F33C91 EQ PUSH2 0x3F8 JUMPI PUSH1 0x0 DUP1 REVERT JUMPDEST DUP1 PUSH4 0x962CA496 GT PUSH2 0xDE JUMPI DUP1 PUSH4 0x962CA496 EQ PUSH2 0x378 JUMPI DUP1 PUSH4 0xA485B786 EQ PUSH2 0x380 JUMPI DUP1 PUSH4 0xB3BF4C45 EQ PUSH2 0x389 JUMPI DUP1 PUSH4 0xB6B55F25 EQ PUSH2 0x3AC JUMPI PUSH1 0x0 DUP1 REVERT JUMPDEST DUP1 PUSH4 0x715018A6 EQ PUSH2 0x300 JUMPI DUP1 PUSH4 0x7B4CAB3D EQ PUSH2 0x308 JUMPI DUP1 PUSH4 0x7FB4FB1B EQ PUSH2 0x347 JUMPI DUP1 PUSH4 0x8DA5CB5B EQ PUSH2 0x367 JUMPI PUSH1 0x0 DUP1 REVERT JUMPDEST DUP1 PUSH4 0x3A98EF39 GT PUSH2 0x187 JUMPI DUP1 PUSH4 0x4CA19FD6 GT PUSH2 0x156 JUMPI DUP1 PUSH4 0x4CA19FD6 EQ PUSH2 0x2C2 JUMPI DUP1 PUSH4 0x51A6F7C4 EQ PUSH2 0x2CB JUMPI DUP1 PUSH4 0x58ACC2CD EQ PUSH2 0x2EE JUMPI DUP1 PUSH4 0x6B558266 EQ PUSH2 0x2F7 JUMPI PUSH1 0x0 DUP1 REVERT JUMPDEST DUP1 PUSH4 0x3A98EF39 EQ PUSH2 0x28A JUMPI DUP1 PUSH4 0x47734892 EQ PUSH2 0x293 JUMPI DUP1 PUSH4 0x48A88706 EQ PUSH2 0x2A6 JUMPI DUP1 PUSH4 0x4B319713 EQ PUSH2 0x2B9 JUMPI PUSH1 0x0 DUP1 REVERT JUMPDEST DUP1 PUSH4 0x2EDE5AD6 GT PUSH2 0x1C3 JUMPI DUP1 PUSH4 0x2EDE5AD6 EQ PUSH2 0x22D JUMPI DUP1 PUSH4 0x31A58809 EQ PUSH2 0x262 JUMPI DUP1 PUSH4 0x39FA187C EQ PUSH2 0x275 JUMPI DUP1 PUSH4 0x3A5DDF30 EQ PUSH2 0x27E JUMPI PUSH1 0x0 DUP1 REVERT JUMPDEST DUP1 PUSH4 0xEF0E05B EQ PUSH2 0x1EA JUMPI DUP1 PUSH4 0x12065FE0 EQ PUSH2 0x1FF JUMPI DUP1 PUSH4 0x2E1A7D4D EQ PUSH2 0x21A JUMPI JUMPDEST PUSH1 0x0 DUP1 REVERT JUMPDEST PUSH2 0x1FD PUSH2 0x1F8 CALLDATASIZE PUSH1 0x4 PUSH2 0x1407 JUMP JUMPDEST PUSH2 0x45D JUMP JUMPDEST STOP JUMPDEST PUSH2 0x207 PUSH2 0x517 JUMP JUMPDEST PUSH1 0x40 MLOAD SWAP1 DUP2 MSTORE PUSH1 0x20 ADD JUMPDEST PUSH1 0x40 MLOAD DUP1 SWAP2 SUB SWAP1 RETURN JUMPDEST PUSH2 0x207 PUSH2 0x228 CALLDATASIZE PUSH1 0x4 PUSH2 0x1407 JUMP JUMPDEST PUSH2 0x5A7 JUMP JUMPDEST PUSH2 0x235 PUSH2 0x8BD JUMP JUMPDEST PUSH1 0x40 DUP1 MLOAD SWAP7 DUP8 MSTORE PUSH1 0x20 DUP8 ADD SWAP6 SWAP1 SWAP6 MSTORE SWAP4 DUP6 ADD SWAP3 SWAP1 SWAP3 MSTORE PUSH1 0x60 DUP5 ADD MSTORE PUSH1 0x80 DUP4 ADD MSTORE PUSH1 0xA0 DUP3 ADD MSTORE PUSH1 0xC0 ADD PUSH2 0x211 JUMP JUMPDEST PUSH2 0x1FD PUSH2 0x270 CALLDATASIZE PUSH1 0x4 PUSH2 0x1437 JUMP JUMPDEST PUSH2 0x8EE JUMP JUMPDEST PUSH2 0x207 PUSH1 0x9 SLOAD DUP2 JUMP JUMPDEST PUSH2 0x207 PUSH5 0x2E90EDD000 DUP2 JUMP JUMPDEST PUSH2 0x207 PUSH1 0x7 SLOAD DUP2 JUMP JUMPDEST PUSH2 0x207 PUSH2 0x2A1 CALLDATASIZE PUSH1 0x4 PUSH2 0x1461 JUMP JUMPDEST PUSH2 0x9B8 JUMP JUMPDEST PUSH2 0x207 PUSH2 0x2B4 CALLDATASIZE PUSH1 0x4 PUSH2 0x147C JUMP JUMPDEST PUSH2 0xA6C JUMP JUMPDEST PUSH2 0x207 PUSH1 0x3 SLOAD DUP2 JUMP JUMPDEST PUSH2 0x207 PUSH2 0x9C4 DUP2 JUMP JUMPDEST PUSH2 0x2DE PUSH2 0x2D9 CALLDATASIZE PUSH1 0x4 PUSH2 0x1461 JUMP JUMPDEST PUSH2 0xAA8 JUMP JUMPDEST PUSH1 0x40 MLOAD SWAP1 ISZERO ISZERO DUP2 MSTORE PUSH1 0x20 ADD PUSH2 0x211 JUMP JUMPDEST PUSH2 0x207 PUSH2 0x3E8 DUP2 JUMP JUMPDEST PUSH2 0x207 PUSH2 0x1F4 DUP2 JUMP JUMPDEST PUSH2 0x1FD PUSH2 0xAEB JUMP JUMPDEST PUSH2 0x32F PUSH32 0x0 DUP2 JUMP JUMPDEST PUSH1 0x40 MLOAD PUSH1 0x1 PUSH1 0x1 PUSH1 0xA0 SHL SUB SWAP1 SWAP2 AND DUP2 MSTORE PUSH1 0x20 ADD PUSH2 0x211 JUMP JUMPDEST PUSH2 0x207 PUSH2 0x355 CALLDATASIZE PUSH1 0x4 PUSH2 0x1461 JUMP JUMPDEST PUSH1 0xC PUSH1 0x20 MSTORE PUSH1 0x0 SWAP1 DUP2 MSTORE PUSH1 0x40 SWAP1 KECCAK256 SLOAD DUP2 JUMP JUMPDEST PUSH1 0x0 SLOAD PUSH1 0x1 PUSH1 0x1 PUSH1 0xA0 SHL SUB AND PUSH2 0x32F JUMP JUMPDEST PUSH2 0x207 PUSH2 0xAFF JUMP JUMPDEST PUSH2 0x207 PUSH1 0x8 SLOAD DUP2 JUMP JUMPDEST PUSH2 0x2DE PUSH2 0x397 CALLDATASIZE PUSH1 0x4 PUSH2 0x1461 JUMP JUMPDEST PUSH1 0xD PUSH1 0x20 MSTORE PUSH1 0x0 SWAP1 DUP2 MSTORE PUSH1 0x40 SWAP1 KECCAK256 SLOAD PUSH1 0xFF AND DUP2 JUMP JUMPDEST PUSH2 0x207 PUSH2 0x3BA CALLDATASIZE PUSH1 0x4 PUSH2 0x1407 JUMP JUMPDEST PUSH2 0xB44 JUMP JUMPDEST PUSH2 0x207 PUSH1 0xA SLOAD DUP2 JUMP JUMPDEST PUSH2 0x207 PUSH1 0xB SLOAD DUP2 JUMP JUMPDEST PUSH2 0x32F PUSH32 0x0 DUP2 JUMP JUMPDEST PUSH2 0x207 PUSH1 0x4 SLOAD DUP2 JUMP JUMPDEST PUSH2 0x207 PUSH2 0x40F CALLDATASIZE PUSH1 0x4 PUSH2 0x1461 JUMP JUMPDEST PUSH1 0x6 PUSH1 0x20 MSTORE PUSH1 0x0 SWAP1 DUP2 MSTORE PUSH1 0x40 SWAP1 KECCAK256 SLOAD DUP2 JUMP JUMPDEST PUSH2 0x207 PUSH2 0x42F CALLDATASIZE PUSH1 0x4 PUSH2 0x1461 JUMP JUMPDEST PUSH1 0x5 PUSH1 0x20 MSTORE PUSH1 0x0 SWAP1 DUP2 MSTORE PUSH1 0x40 SWAP1 KECCAK256 SLOAD DUP2 JUMP JUMPDEST PUSH2 0x1FD PUSH2 0x44F CALLDATASIZE PUSH1 0x4 PUSH2 0x1461 JUMP JUMPDEST PUSH2 0xE05 JUMP JUMPDEST PUSH2 0x207 PUSH1 0x2 SLOAD DUP2 JUMP JUMPDEST PUSH2 0x465 PUSH2 0xE43 JUMP JUMPDEST PUSH1 0x40 MLOAD PUSH4 0x23B872DD PUSH1 0xE0 SHL DUP2 MSTORE CALLER PUSH1 0x4 DUP3 ADD MSTORE ADDRESS PUSH1 0x24 DUP3 ADD MSTORE PUSH1 0x44 DUP2 ADD DUP3 SWAP1 MSTORE PUSH32 0x0 PUSH1 0x1 PUSH1 0x1 PUSH1 0xA0 SHL SUB AND SWAP1 PUSH4 0x23B872DD SWAP1 PUSH1 0x64 ADD PUSH1 0x20 PUSH1 0x40 MLOAD DUP1 DUP4 SUB DUP2 PUSH1 0x0 DUP8 GAS CALL ISZERO DUP1 ISZERO PUSH2 0x4D8 JUMPI RETURNDATASIZE PUSH1 0x0 DUP1 RETURNDATACOPY RETURNDATASIZE PUSH1 0x0 REVERT JUMPDEST POP POP POP POP PUSH1 0x40 MLOAD RETURNDATASIZE PUSH1 0x1F NOT PUSH1 0x1F DUP3 ADD AND DUP3 ADD DUP1 PUSH1 0x40 MSTORE POP DUP2 ADD SWAP1 PUSH2 0x4FC SWAP2 SWAP1 PUSH2 0x149E JUMP JUMPDEST POP DUP1 PUSH1 0x9 PUSH1 0x0 DUP3 DUP3 SLOAD PUSH2 0x50F SWAP2 SWAP1 PUSH2 0x14D6 JUMP JUMPDEST SWAP1 SWAP2 SSTORE POP POP POP JUMP JUMPDEST PUSH1 0x40 MLOAD PUSH4 0x70A08231 PUSH1 0xE0 SHL DUP2 MSTORE ADDRESS PUSH1 0x4 DUP3 ADD MSTORE PUSH1 0x0 SWAP1 PUSH32 0x0 PUSH1 0x1 PUSH1 0x1 PUSH1 0xA0 SHL SUB AND SWAP1 PUSH4 0x70A08231 SWAP1 PUSH1 0x24 ADD PUSH1 0x20 PUSH1 0x40 MLOAD DUP1 DUP4 SUB DUP2 DUP7 GAS STATICCALL ISZERO DUP1 ISZERO PUSH2 0x57E JUMPI RETURNDATASIZE PUSH1 0x0 DUP1 RETURNDATACOPY RETURNDATASIZE PUSH1 0x0 REVERT JUMPDEST POP POP POP POP PUSH1 0x40 MLOAD RETURNDATASIZE PUSH1 0x1F NOT PUSH1 0x1F DUP3 ADD AND DUP3 ADD DUP1 PUSH1 0x40 MSTORE POP DUP2 ADD SWAP1 PUSH2 0x5A2 SWAP2 SWAP1 PUSH2 0x14E9 JUMP JUMPDEST SWAP1 POP SWAP1 JUMP JUMPDEST PUSH1 0x0 CALLER PUSH1 0x1 PUSH1 0x1 PUSH1 0xA0 SHL SUB PUSH32 0x0 AND EQ PUSH2 0x626 JUMPI PUSH1 0x40 MLOAD PUSH3 0x461BCD PUSH1 0xE5 SHL DUP2 MSTORE PUSH1 0x20 PUSH1 0x4 DUP3 ADD MSTORE PUSH1 0x1C PUSH1 0x24 DUP3 ADD MSTORE PUSH32 0x4F6E6C79205969656C644F7074696D697A65722063616E2063616C6C00000000 PUSH1 0x44 DUP3 ADD MSTORE PUSH1 0x64 ADD JUMPDEST PUSH1 0x40 MLOAD DUP1 SWAP2 SUB SWAP1 REVERT JUMPDEST PUSH2 0x62E PUSH2 0xE70 JUMP JUMPDEST PUSH1 0x0 DUP3 GT PUSH2 0x67E JUMPI PUSH1 0x40 MLOAD PUSH3 0x461BCD PUSH1 0xE5 SHL DUP2 MSTORE PUSH1 0x20 PUSH1 0x4 DUP3 ADD MSTORE PUSH1 0x1D PUSH1 0x24 DUP3 ADD MSTORE PUSH32 0x416D6F756E74206D7573742062652067726561746572207468616E2030000000 PUSH1 0x44 DUP3 ADD MSTORE PUSH1 0x64 ADD PUSH2 0x61D JUMP JUMPDEST ORIGIN PUSH1 0x0 SWAP1 DUP2 MSTORE PUSH1 0x5 PUSH1 0x20 MSTORE PUSH1 0x40 SWAP1 KECCAK256 SLOAD PUSH2 0x6D2 JUMPI PUSH1 0x40 MLOAD PUSH3 0x461BCD PUSH1 0xE5 SHL DUP2 MSTORE PUSH1 0x20 PUSH1 0x4 DUP3 ADD MSTORE PUSH1 0x15 PUSH1 0x24 DUP3 ADD MSTORE PUSH21 0x4E6F2073686172657320746F207769746864726177 PUSH1 0x58 SHL PUSH1 0x44 DUP3 ADD MSTORE PUSH1 0x64 ADD PUSH2 0x61D JUMP JUMPDEST PUSH1 0x0 PUSH2 0x6DD ORIGIN PUSH2 0x9B8 JUMP JUMPDEST SWAP1 POP DUP1 DUP4 GT ISZERO PUSH2 0x726 JUMPI PUSH1 0x40 MLOAD PUSH3 0x461BCD PUSH1 0xE5 SHL DUP2 MSTORE PUSH1 0x20 PUSH1 0x4 DUP3 ADD MSTORE PUSH1 0x14 PUSH1 0x24 DUP3 ADD MSTORE PUSH20 0x496E73756666696369656E742062616C616E6365 PUSH1 0x60 SHL PUSH1 0x44 DUP3 ADD MSTORE PUSH1 0x64 ADD PUSH2 0x61D JUMP JUMPDEST ORIGIN PUSH1 0x0 SWAP1 DUP2 MSTORE PUSH1 0x5 PUSH1 0x20 MSTORE PUSH1 0x40 DUP2 KECCAK256 SLOAD DUP3 SWAP1 PUSH2 0x742 SWAP1 DUP7 PUSH2 0x1502 JUMP JUMPDEST PUSH2 0x74C SWAP2 SWAP1 PUSH2 0x152F JUMP JUMPDEST ORIGIN PUSH1 0x0 SWAP1 DUP2 MSTORE PUSH1 0x5 PUSH1 0x20 MSTORE PUSH1 0x40 DUP2 KECCAK256 DUP1 SLOAD SWAP3 SWAP4 POP DUP4 SWAP3 SWAP1 SWAP2 SWAP1 PUSH2 0x770 SWAP1 DUP5 SWAP1 PUSH2 0x1543 JUMP JUMPDEST SWAP3 POP POP DUP2 SWAP1 SSTORE POP DUP1 PUSH1 0x7 PUSH1 0x0 DUP3 DUP3 SLOAD PUSH2 0x789 SWAP2 SWAP1 PUSH2 0x1543 JUMP JUMPDEST SWAP1 SWAP2 SSTORE POP PUSH1 0x0 SWAP1 POP PUSH2 0x79A DUP6 PUSH2 0xE9A JUMP JUMPDEST SWAP1 POP DUP1 PUSH1 0x3 PUSH1 0x0 DUP3 DUP3 SLOAD PUSH2 0x7AE SWAP2 SWAP1 PUSH2 0x14D6 JUMP JUMPDEST SWAP1 SWAP2 SSTORE POP PUSH2 0x7BC SWAP1 POP PUSH2 0xF77 JUMP JUMPDEST PUSH1 0x40 MLOAD PUSH4 0xA9059CBB PUSH1 0xE0 SHL DUP2 MSTORE PUSH1 0x1 PUSH1 0x1 PUSH1 0xA0 SHL SUB PUSH32 0x0 DUP2 AND PUSH1 0x4 DUP4 ADD MSTORE PUSH1 0x24 DUP3 ADD DUP4 SWAP1 MSTORE PUSH32 0x0 AND SWAP1 PUSH4 0xA9059CBB SWAP1 PUSH1 0x44 ADD PUSH1 0x20 PUSH1 0x40 MLOAD DUP1 DUP4 SUB DUP2 PUSH1 0x0 DUP8 GAS CALL ISZERO DUP1 ISZERO PUSH2 0x84B JUMPI RETURNDATASIZE PUSH1 0x0 DUP1 RETURNDATACOPY RETURNDATASIZE PUSH1 0x0 REVERT JUMPDEST POP POP POP POP PUSH1 0x40 MLOAD RETURNDATASIZE PUSH1 0x1F NOT PUSH1 0x1F DUP3 ADD AND DUP3 ADD DUP1 PUSH1 0x40 MSTORE POP DUP2 ADD SWAP1 PUSH2 0x86F SWAP2 SWAP1 PUSH2 0x149E JUMP JUMPDEST POP PUSH1 0x40 DUP1 MLOAD DUP3 DUP2 MSTORE PUSH1 0x20 DUP2 ADD DUP5 SWAP1 MSTORE ORIGIN SWAP2 PUSH32 0x92CCF450A286A957AF52509BC1C9939D1A6A481783E142E41E2499F0BB66EBC6 SWAP2 ADD PUSH1 0x40 MLOAD DUP1 SWAP2 SUB SWAP1 LOG2 SWAP3 POP POP POP PUSH2 0x8B8 PUSH1 0x1 DUP1 SSTORE JUMP JUMPDEST SWAP2 SWAP1 POP JUMP JUMPDEST PUSH1 0x0 DUP1 PUSH1 0x0 DUP1 PUSH1 0x0 DUP1 PUSH2 0x8CE PUSH2 0xAFF JUMP JUMPDEST PUSH1 0x8 DUP1 SLOAD PUSH1 0xA SLOAD PUSH1 0xB SLOAD PUSH1 0x9 SLOAD SWAP5 SWAP12 SWAP3 SWAP11 POP SWAP1 SWAP9 POP SWAP7 POP SWAP2 SWAP5 POP SWAP3 POP SWAP1 POP JUMP JUMPDEST PUSH2 0x8F6 PUSH2 0xE43 JUMP JUMPDEST PUSH1 0x7 DUP2 LT ISZERO PUSH2 0x953 JUMPI PUSH1 0x40 MLOAD PUSH3 0x461BCD PUSH1 0xE5 SHL DUP2 MSTORE PUSH1 0x20 PUSH1 0x4 DUP3 ADD MSTORE PUSH1 0x24 DUP1 DUP3 ADD MSTORE PUSH32 0x5269736B2073636F726520746F6F206C6F7720666F7220746869732073747261 PUSH1 0x44 DUP3 ADD MSTORE PUSH4 0x74656779 PUSH1 0xE0 SHL PUSH1 0x64 DUP3 ADD MSTORE PUSH1 0x84 ADD PUSH2 0x61D JUMP JUMPDEST PUSH1 0x1 PUSH1 0x1 PUSH1 0xA0 SHL SUB DUP3 AND PUSH1 0x0 DUP2 DUP2 MSTORE PUSH1 0xC PUSH1 0x20 SWAP1 DUP2 MSTORE PUSH1 0x40 DUP1 DUP4 KECCAK256 DUP6 SWAP1 SSTORE PUSH1 0xD DUP3 MSTORE SWAP2 DUP3 SWAP1 KECCAK256 DUP1 SLOAD PUSH1 0xFF NOT AND PUSH1 0x1 OR SWAP1 SSTORE SWAP1 MLOAD DUP4 DUP2 MSTORE PUSH32 0xDFCF6C980AE9C32C3E4BC33303E744E8D29854944F383BF3CDF2AC93ED443373 SWAP2 ADD PUSH1 0x40 MLOAD DUP1 SWAP2 SUB SWAP1 LOG2 POP POP JUMP JUMPDEST PUSH1 0x0 PUSH1 0x7 SLOAD PUSH1 0x0 SUB PUSH2 0x9CC JUMPI POP PUSH1 0x0 SWAP2 SWAP1 POP JUMP JUMPDEST PUSH1 0x0 ADDRESS PUSH1 0x1 PUSH1 0x1 PUSH1 0xA0 SHL SUB AND PUSH4 0x12065FE0 PUSH1 0x40 MLOAD DUP2 PUSH4 0xFFFFFFFF AND PUSH1 0xE0 SHL DUP2 MSTORE PUSH1 0x4 ADD PUSH1 0x20 PUSH1 0x40 MLOAD DUP1 DUP4 SUB DUP2 DUP7 GAS STATICCALL ISZERO DUP1 ISZERO PUSH2 0xA0C JUMPI RETURNDATASIZE PUSH1 0x0 DUP1 RETURNDATACOPY RETURNDATASIZE PUSH1 0x0 REVERT JUMPDEST POP POP POP POP PUSH1 0x40 MLOAD RETURNDATASIZE PUSH1 0x1F NOT PUSH1 0x1F DUP3 ADD AND DUP3 ADD DUP1 PUSH1 0x40 MSTORE POP DUP2 ADD SWAP1 PUSH2 0xA30 SWAP2 SWAP1 PUSH2 0x14E9 JUMP JUMPDEST PUSH1 0x7 SLOAD PUSH1 0x1 PUSH1 0x1 PUSH1 0xA0 SHL SUB DUP6 AND PUSH1 0x0 SWAP1 DUP2 MSTORE PUSH1 0x5 PUSH1 0x20 MSTORE PUSH1 0x40 SWAP1 KECCAK256 SLOAD SWAP2 SWAP3 POP SWAP1 PUSH2 0xA5B SWAP1 DUP4 SWAP1 PUSH2 0x1502 JUMP JUMPDEST PUSH2 0xA65 SWAP2 SWAP1 PUSH2 0x152F JUMP JUMPDEST SWAP4 SWAP3 POP POP POP JUMP JUMPDEST PUSH1 0x0 DUP1 PUSH2 0xA77 PUSH2 0xAFF JUMP JUMPDEST SWAP1 POP PUSH5 0x496CEBB800 DUP4 PUSH2 0xA8A DUP4 DUP8 PUSH2 0x1502 JUMP JUMPDEST PUSH2 0xA94 SWAP2 SWAP1 PUSH2 0x1502 JUMP JUMPDEST PUSH2 0xA9E SWAP2 SWAP1 PUSH2 0x152F JUMP JUMPDEST SWAP2 POP POP JUMPDEST SWAP3 SWAP2 POP POP JUMP JUMPDEST PUSH1 0x1 PUSH1 0x1 PUSH1 0xA0 SHL SUB DUP2 AND PUSH1 0x0 SWAP1 DUP2 MSTORE PUSH1 0xD PUSH1 0x20 MSTORE PUSH1 0x40 DUP2 KECCAK256 SLOAD PUSH1 0xFF AND DUP1 ISZERO PUSH2 0xAA2 JUMPI POP POP PUSH1 0x1 PUSH1 0x1 PUSH1 0xA0 SHL SUB AND PUSH1 0x0 SWAP1 DUP2 MSTORE PUSH1 0xC PUSH1 0x20 MSTORE PUSH1 0x40 SWAP1 KECCAK256 SLOAD PUSH1 0x7 GT ISZERO SWAP1 JUMP JUMPDEST PUSH2 0xAF3 PUSH2 0xE43 JUMP JUMPDEST PUSH2 0xAFD PUSH1 0x0 PUSH2 0x11BB JUMP JUMPDEST JUMP JUMPDEST PUSH1 0x0 DUP1 PUSH2 0x9C4 SWAP1 POP PUSH1 0x0 PUSH2 0x2710 PUSH1 0x8 SLOAD DUP4 PUSH2 0xB1A SWAP2 SWAP1 PUSH2 0x1502 JUMP JUMPDEST PUSH2 0xB24 SWAP2 SWAP1 PUSH2 0x152F JUMP JUMPDEST SWAP1 POP PUSH1 0x0 PUSH2 0xB30 PUSH2 0x120B JUMP JUMPDEST SWAP1 POP PUSH2 0xB3C DUP2 DUP4 PUSH2 0x14D6 JUMP JUMPDEST SWAP4 POP POP POP POP SWAP1 JUMP JUMPDEST PUSH1 0x0 CALLER PUSH1 0x1 PUSH1 0x1 PUSH1 0xA0 SHL SUB PUSH32 0x0 AND EQ PUSH2 0xBBE JUMPI PUSH1 0x40 MLOAD PUSH3 0x461BCD PUSH1 0xE5 SHL DUP2 MSTORE PUSH1 0x20 PUSH1 0x4 DUP3 ADD MSTORE PUSH1 0x1C PUSH1 0x24 DUP3 ADD MSTORE PUSH32 0x4F6E6C79205969656C644F7074696D697A65722063616E2063616C6C00000000 PUSH1 0x44 DUP3 ADD MSTORE PUSH1 0x64 ADD PUSH2 0x61D JUMP JUMPDEST PUSH2 0xBC6 PUSH2 0xE70 JUMP JUMPDEST PUSH2 0xBCF ORIGIN PUSH2 0xAA8 JUMP JUMPDEST PUSH2 0xC2D JUMPI PUSH1 0x40 MLOAD PUSH3 0x461BCD PUSH1 0xE5 SHL DUP2 MSTORE PUSH1 0x20 PUSH1 0x4 DUP3 ADD MSTORE PUSH1 0x29 PUSH1 0x24 DUP3 ADD MSTORE PUSH32 0x55736572206E6F74207175616C696669656420666F7220686967682D7269736B PUSH1 0x44 DUP3 ADD MSTORE PUSH9 0x207374726174656779 PUSH1 0xB8 SHL PUSH1 0x64 DUP3 ADD MSTORE PUSH1 0x84 ADD PUSH2 0x61D JUMP JUMPDEST PUSH1 0x0 DUP3 GT PUSH2 0xC7D JUMPI PUSH1 0x40 MLOAD PUSH3 0x461BCD PUSH1 0xE5 SHL DUP2 MSTORE PUSH1 0x20 PUSH1 0x4 DUP3 ADD MSTORE PUSH1 0x1D PUSH1 0x24 DUP3 ADD MSTORE PUSH32 0x416D6F756E74206D7573742062652067726561746572207468616E2030000000 PUSH1 0x44 DUP3 ADD MSTORE PUSH1 0x64 ADD PUSH2 0x61D JUMP JUMPDEST PUSH1 0x40 MLOAD PUSH4 0x23B872DD PUSH1 0xE0 SHL DUP2 MSTORE PUSH1 0x1 PUSH1 0x1 PUSH1 0xA0 SHL SUB PUSH32 0x0 DUP2 AND PUSH1 0x4 DUP4 ADD MSTORE ADDRESS PUSH1 0x24 DUP4 ADD MSTORE PUSH1 0x44 DUP3 ADD DUP5 SWAP1 MSTORE PUSH32 0x0 AND SWAP1 PUSH4 0x23B872DD SWAP1 PUSH1 0x64 ADD PUSH1 0x20 PUSH1 0x40 MLOAD DUP1 DUP4 SUB DUP2 PUSH1 0x0 DUP8 GAS CALL ISZERO DUP1 ISZERO PUSH2 0xD12 JUMPI RETURNDATASIZE PUSH1 0x0 DUP1 RETURNDATACOPY RETURNDATASIZE PUSH1 0x0 REVERT JUMPDEST POP POP POP POP PUSH1 0x40 MLOAD RETURNDATASIZE PUSH1 0x1F NOT PUSH1 0x1F DUP3 ADD AND DUP3 ADD DUP1 PUSH1 0x40 MSTORE POP DUP2 ADD SWAP1 PUSH2 0xD36 SWAP2 SWAP1 PUSH2 0x149E JUMP JUMPDEST POP PUSH1 0x0 PUSH2 0xD42 DUP4 PUSH2 0x1295 JUMP JUMPDEST ORIGIN PUSH1 0x0 SWAP1 DUP2 MSTORE PUSH1 0x5 PUSH1 0x20 MSTORE PUSH1 0x40 DUP2 KECCAK256 DUP1 SLOAD SWAP3 SWAP4 POP DUP4 SWAP3 SWAP1 SWAP2 SWAP1 PUSH2 0xD66 SWAP1 DUP5 SWAP1 PUSH2 0x14D6 JUMP JUMPDEST SWAP1 SWAP2 SSTORE POP POP ORIGIN PUSH1 0x0 SWAP1 DUP2 MSTORE PUSH1 0x6 PUSH1 0x20 MSTORE PUSH1 0x40 DUP2 KECCAK256 TIMESTAMP SWAP1 SSTORE PUSH1 0x7 DUP1 SLOAD DUP4 SWAP3 SWAP1 PUSH2 0xD8F SWAP1 DUP5 SWAP1 PUSH2 0x14D6 JUMP JUMPDEST SWAP3 POP POP DUP2 SWAP1 SSTORE POP DUP3 PUSH1 0x2 PUSH1 0x0 DUP3 DUP3 SLOAD PUSH2 0xDA8 SWAP2 SWAP1 PUSH2 0x14D6 JUMP JUMPDEST SWAP1 SWAP2 SSTORE POP PUSH2 0xDB7 SWAP1 POP DUP4 PUSH2 0x131E JUMP JUMPDEST PUSH2 0xDBF PUSH2 0xF77 JUMP JUMPDEST PUSH1 0x40 DUP1 MLOAD DUP5 DUP2 MSTORE PUSH1 0x20 DUP2 ADD DUP4 SWAP1 MSTORE ORIGIN SWAP2 PUSH32 0x73A19DD210F1A7F902193214C0EE91DD35EE5B4D920CBA8D519ECA65A7B488CA SWAP2 ADD PUSH1 0x40 MLOAD DUP1 SWAP2 SUB SWAP1 LOG2 SWAP1 POP PUSH2 0x8B8 PUSH1 0x1 DUP1 SSTORE JUMP JUMPDEST PUSH2 0xE0D PUSH2 0xE43 JUMP JUMPDEST PUSH1 0x1 PUSH1 0x1 PUSH1 0xA0 SHL SUB DUP2 AND PUSH2 0xE37 JUMPI PUSH1 0x40 MLOAD PUSH4 0x1E4FBDF7 PUSH1 0xE0 SHL DUP2 MSTORE PUSH1 0x0 PUSH1 0x4 DUP3 ADD MSTORE PUSH1 0x24 ADD PUSH2 0x61D JUMP JUMPDEST PUSH2 0xE40 DUP2 PUSH2 0x11BB JUMP JUMPDEST POP JUMP JUMPDEST PUSH1 0x0 SLOAD PUSH1 0x1 PUSH1 0x1 PUSH1 0xA0 SHL SUB AND CALLER EQ PUSH2 0xAFD JUMPI PUSH1 0x40 MLOAD PUSH4 0x118CDAA7 PUSH1 0xE0 SHL DUP2 MSTORE CALLER PUSH1 0x4 DUP3 ADD MSTORE PUSH1 0x24 ADD PUSH2 0x61D JUMP JUMPDEST PUSH1 0x2 PUSH1 0x1 SLOAD SUB PUSH2 0xE93 JUMPI PUSH1 0x40 MLOAD PUSH4 0x3EE5AEB5 PUSH1 0xE0 SHL DUP2 MSTORE PUSH1 0x4 ADD PUSH1 0x40 MLOAD DUP1 SWAP2 SUB SWAP1 REVERT JUMPDEST PUSH1 0x2 PUSH1 0x1 SSTORE JUMP JUMPDEST PUSH1 0x0 PUSH2 0xEA4 PUSH2 0x1322 JUMP JUMPDEST ORIGIN PUSH1 0x0 SWAP1 DUP2 MSTORE PUSH1 0x6 PUSH1 0x20 MSTORE PUSH1 0x40 DUP2 KECCAK256 SLOAD PUSH2 0xEBE SWAP1 TIMESTAMP PUSH2 0x1543 JUMP JUMPDEST PUSH1 0x40 MLOAD PUSH4 0x24544383 PUSH1 0xE1 SHL DUP2 MSTORE PUSH1 0x4 DUP2 ADD DUP6 SWAP1 MSTORE PUSH1 0x24 DUP2 ADD DUP3 SWAP1 MSTORE SWAP1 SWAP2 POP PUSH1 0x0 SWAP1 ADDRESS SWAP1 PUSH4 0x48A88706 SWAP1 PUSH1 0x44 ADD PUSH1 0x20 PUSH1 0x40 MLOAD DUP1 DUP4 SUB DUP2 DUP7 GAS STATICCALL ISZERO DUP1 ISZERO PUSH2 0xF07 JUMPI RETURNDATASIZE PUSH1 0x0 DUP1 RETURNDATACOPY RETURNDATASIZE PUSH1 0x0 REVERT JUMPDEST POP POP POP POP PUSH1 0x40 MLOAD RETURNDATASIZE PUSH1 0x1F NOT PUSH1 0x1F DUP3 ADD AND DUP3 ADD DUP1 PUSH1 0x40 MSTORE POP DUP2 ADD SWAP1 PUSH2 0xF2B SWAP2 SWAP1 PUSH2 0x14E9 JUMP JUMPDEST SWAP1 POP PUSH1 0x0 PUSH2 0xF39 DUP3 DUP7 PUSH2 0x1394 JUMP JUMPDEST SWAP1 POP PUSH1 0x0 PUSH2 0x2710 PUSH2 0xF4A DUP4 DUP9 PUSH2 0x1502 JUMP JUMPDEST PUSH2 0xF54 SWAP2 SWAP1 PUSH2 0x152F JUMP JUMPDEST SWAP1 POP DUP1 DUP7 GT PUSH2 0xF63 JUMPI DUP6 PUSH2 0xF6D JUMP JUMPDEST PUSH2 0xF6D DUP2 DUP8 PUSH2 0x1543 JUMP JUMPDEST SWAP7 SWAP6 POP POP POP POP POP POP JUMP JUMPDEST PUSH1 0x0 PUSH2 0x2710 TIMESTAMP PREVRANDAO PUSH1 0x2 SLOAD CALLER PUSH1 0x40 MLOAD PUSH1 0x20 ADD PUSH2 0xFBE SWAP5 SWAP4 SWAP3 SWAP2 SWAP1 SWAP4 DUP5 MSTORE PUSH1 0x20 DUP5 ADD SWAP3 SWAP1 SWAP3 MSTORE PUSH1 0x40 DUP4 ADD MSTORE PUSH1 0x60 SWAP1 DUP2 SHL PUSH12 0xFFFFFFFFFFFFFFFFFFFFFFFF NOT AND SWAP1 DUP3 ADD MSTORE PUSH1 0x74 ADD SWAP1 JUMP JUMPDEST PUSH1 0x40 MLOAD PUSH1 0x20 DUP2 DUP4 SUB SUB DUP2 MSTORE SWAP1 PUSH1 0x40 MSTORE DUP1 MLOAD SWAP1 PUSH1 0x20 ADD KECCAK256 PUSH1 0x0 SHR PUSH2 0xFE1 SWAP2 SWAP1 PUSH2 0x1556 JUMP JUMPDEST SWAP1 POP PUSH2 0x3E8 DUP2 LT DUP1 ISZERO PUSH2 0xFF6 JUMPI POP PUSH1 0x0 PUSH1 0x2 SLOAD GT JUMPDEST ISZERO PUSH2 0x10FA JUMPI PUSH1 0x0 PUSH2 0x2710 PUSH2 0x1F4 PUSH1 0x2 SLOAD PUSH2 0x1010 SWAP2 SWAP1 PUSH2 0x1502 JUMP JUMPDEST PUSH2 0x101A SWAP2 SWAP1 PUSH2 0x152F JUMP JUMPDEST SWAP1 POP DUP1 PUSH1 0x9 SLOAD LT PUSH2 0x1042 JUMPI DUP1 PUSH1 0x9 PUSH1 0x0 DUP3 DUP3 SLOAD PUSH2 0x1037 SWAP2 SWAP1 PUSH2 0x1543 JUMP JUMPDEST SWAP1 SWAP2 SSTORE POP PUSH2 0x109B SWAP1 POP JUMP JUMPDEST PUSH1 0x0 PUSH1 0x9 SLOAD DUP3 PUSH2 0x1052 SWAP2 SWAP1 PUSH2 0x1543 JUMP JUMPDEST SWAP1 POP PUSH1 0x0 PUSH1 0x9 DUP2 SWAP1 SSTORE POP DUP1 PUSH1 0xB PUSH1 0x0 DUP3 DUP3 SLOAD PUSH2 0x106E SWAP2 SWAP1 PUSH2 0x14D6 JUMP JUMPDEST SWAP1 SWAP2 SSTORE POP POP PUSH1 0x8 SLOAD PUSH2 0x3E8 LT PUSH2 0x1086 JUMPI PUSH2 0x1388 PUSH2 0x1096 JUMP JUMPDEST PUSH2 0x3E8 PUSH1 0x8 SLOAD PUSH2 0x1096 SWAP2 SWAP1 PUSH2 0x1543 JUMP JUMPDEST PUSH1 0x8 SSTORE POP JUMPDEST PUSH32 0x5A5AB2839B49637281301B13D6D1C9B46AE499B1C3C43C18AF98C6C040B0CDF4 PUSH1 0x1 DUP3 PUSH1 0x0 PUSH1 0x7 SLOAD GT PUSH2 0x10D0 JUMPI PUSH1 0x0 PUSH2 0x10D3 JUMP JUMPDEST PUSH1 0x1 JUMPDEST PUSH1 0x40 DUP1 MLOAD SWAP4 ISZERO ISZERO DUP5 MSTORE PUSH1 0x20 DUP5 ADD SWAP3 SWAP1 SWAP3 MSTORE PUSH1 0xFF AND SWAP1 DUP3 ADD MSTORE PUSH1 0x60 ADD PUSH1 0x40 MLOAD DUP1 SWAP2 SUB SWAP1 LOG1 POP POP JUMP JUMPDEST PUSH2 0x2134 DUP2 GT ISZERO PUSH2 0xE40 JUMPI PUSH1 0x0 PUSH2 0x2710 PUSH1 0x2 SLOAD PUSH2 0x12C PUSH2 0x1119 SWAP2 SWAP1 PUSH2 0x1502 JUMP JUMPDEST PUSH2 0x1123 SWAP2 SWAP1 PUSH2 0x152F JUMP JUMPDEST SWAP1 POP DUP1 PUSH1 0xA PUSH1 0x0 DUP3 DUP3 SLOAD PUSH2 0x1137 SWAP2 SWAP1 PUSH2 0x14D6 JUMP JUMPDEST SWAP1 SWAP2 SSTORE POP PUSH2 0x1148 SWAP1 POP PUSH1 0x2 DUP3 PUSH2 0x152F JUMP JUMPDEST PUSH1 0x9 PUSH1 0x0 DUP3 DUP3 SLOAD PUSH2 0x1159 SWAP2 SWAP1 PUSH2 0x14D6 JUMP JUMPDEST SWAP1 SWAP2 SSTORE POP POP PUSH1 0x8 SLOAD PUSH2 0x3A98 GT PUSH2 0x1171 JUMPI PUSH2 0x3A98 PUSH2 0x1180 JUMP JUMPDEST PUSH1 0x8 SLOAD PUSH2 0x1180 SWAP1 PUSH2 0x1F4 PUSH2 0x14D6 JUMP JUMPDEST PUSH1 0x8 DUP2 SWAP1 SSTORE POP PUSH32 0x5A5AB2839B49637281301B13D6D1C9B46AE499B1C3C43C18AF98C6C040B0CDF4 PUSH1 0x0 DUP3 PUSH1 0x0 PUSH1 0x7 SLOAD GT PUSH2 0x10D0 JUMPI PUSH1 0x0 PUSH2 0x10D3 JUMP JUMPDEST PUSH1 0x0 DUP1 SLOAD PUSH1 0x1 PUSH1 0x1 PUSH1 0xA0 SHL SUB DUP4 DUP2 AND PUSH1 0x1 PUSH1 0x1 PUSH1 0xA0 SHL SUB NOT DUP4 AND DUP2 OR DUP5 SSTORE PUSH1 0x40 MLOAD SWAP2 SWAP1 SWAP3 AND SWAP3 DUP4 SWAP2 PUSH32 0x8BE0079C531659141344CD1FD0A4F28419497F9722A3DAAFE3B4186F6B6457E0 SWAP2 SWAP1 LOG3 POP POP JUMP JUMPDEST PUSH1 0x0 PUSH1 0x2 SLOAD PUSH1 0x0 SUB PUSH2 0x121D JUMPI POP PUSH1 0x0 SWAP1 JUMP JUMPDEST PUSH1 0x0 PUSH1 0x2 SLOAD PUSH1 0xB SLOAD PUSH2 0x2710 PUSH2 0x1232 SWAP2 SWAP1 PUSH2 0x1502 JUMP JUMPDEST PUSH2 0x123C SWAP2 SWAP1 PUSH2 0x152F JUMP JUMPDEST SWAP1 POP PUSH1 0x0 PUSH1 0x2 SLOAD PUSH1 0xA SLOAD PUSH2 0x2710 PUSH2 0x1253 SWAP2 SWAP1 PUSH2 0x1502 JUMP JUMPDEST PUSH2 0x125D SWAP2 SWAP1 PUSH2 0x152F JUMP JUMPDEST SWAP1 POP PUSH2 0x126A DUP3 PUSH1 0x2 PUSH2 0x1502 JUMP JUMPDEST DUP2 GT ISZERO PUSH2 0x127B JUMPI PUSH2 0x12C SWAP3 POP POP POP SWAP1 JUMP JUMPDEST DUP1 DUP3 GT ISZERO PUSH2 0x128C JUMPI PUSH1 0x0 SWAP3 POP POP POP SWAP1 JUMP JUMPDEST PUSH1 0x96 SWAP3 POP POP POP SWAP1 JUMP JUMPDEST PUSH1 0x0 PUSH1 0x7 SLOAD PUSH1 0x0 SUB PUSH2 0x12A5 JUMPI POP SWAP1 JUMP JUMPDEST ADDRESS PUSH1 0x1 PUSH1 0x1 PUSH1 0xA0 SHL SUB AND PUSH4 0x12065FE0 PUSH1 0x40 MLOAD DUP2 PUSH4 0xFFFFFFFF AND PUSH1 0xE0 SHL DUP2 MSTORE PUSH1 0x4 ADD PUSH1 0x20 PUSH1 0x40 MLOAD DUP1 DUP4 SUB DUP2 DUP7 GAS STATICCALL ISZERO DUP1 ISZERO PUSH2 0x12E3 JUMPI RETURNDATASIZE PUSH1 0x0 DUP1 RETURNDATACOPY RETURNDATASIZE PUSH1 0x0 REVERT JUMPDEST POP POP POP POP PUSH1 0x40 MLOAD RETURNDATASIZE PUSH1 0x1F NOT PUSH1 0x1F DUP3 ADD AND DUP3 ADD DUP1 PUSH1 0x40 MSTORE POP DUP2 ADD SWAP1 PUSH2 0x1307 SWAP2 SWAP1 PUSH2 0x14E9 JUMP JUMPDEST PUSH1 0x7 SLOAD PUSH2 0x1314 SWAP1 DUP5 PUSH2 0x1502 JUMP JUMPDEST PUSH2 0xAA2 SWAP2 SWAP1 PUSH2 0x152F JUMP JUMPDEST PUSH2 0xE40 JUMPDEST PUSH1 0x0 PUSH1 0x4 SLOAD TIMESTAMP PUSH2 0x1332 SWAP2 SWAP1 PUSH2 0x1543 JUMP JUMPDEST SWAP1 POP PUSH3 0x15180 DUP2 LT PUSH2 0xE40 JUMPI PUSH2 0x2710 PUSH1 0x8 SLOAD GT ISZERO PUSH2 0x1368 JUMPI PUSH1 0x64 PUSH1 0x8 PUSH1 0x0 DUP3 DUP3 SLOAD PUSH2 0x135D SWAP2 SWAP1 PUSH2 0x1543 JUMP JUMPDEST SWAP1 SWAP2 SSTORE POP PUSH2 0x138D SWAP1 POP JUMP JUMPDEST PUSH2 0x2710 PUSH1 0x8 SLOAD LT ISZERO PUSH2 0x138D JUMPI PUSH1 0x64 PUSH1 0x8 PUSH1 0x0 DUP3 DUP3 SLOAD PUSH2 0x1387 SWAP2 SWAP1 PUSH2 0x14D6 JUMP JUMPDEST SWAP1 SWAP2 SSTORE POP POP JUMPDEST TIMESTAMP PUSH1 0x4 SSTORE POP JUMP JUMPDEST PUSH1 0x0 DUP3 PUSH1 0x0 SUB PUSH2 0x13A6 JUMPI POP PUSH1 0x0 PUSH2 0xAA2 JUMP JUMPDEST PUSH1 0x0 DUP3 PUSH2 0x13B5 DUP6 PUSH2 0x2710 PUSH2 0x1502 JUMP JUMPDEST PUSH2 0x13BF SWAP2 SWAP1 PUSH2 0x152F JUMP JUMPDEST SWAP1 POP PUSH2 0x7D0 DUP2 GT ISZERO PUSH2 0x13D5 JUMPI PUSH1 0xC8 SWAP2 POP POP PUSH2 0xAA2 JUMP JUMPDEST PUSH2 0x3E8 DUP2 GT ISZERO PUSH2 0x13E9 JUMPI PUSH1 0x96 SWAP2 POP POP PUSH2 0xAA2 JUMP JUMPDEST PUSH2 0x1F4 DUP2 GT ISZERO PUSH2 0x13FD JUMPI PUSH1 0x64 SWAP2 POP POP PUSH2 0xAA2 JUMP JUMPDEST POP PUSH1 0x32 SWAP4 SWAP3 POP POP POP JUMP JUMPDEST PUSH1 0x0 PUSH1 0x20 DUP3 DUP5 SUB SLT ISZERO PUSH2 0x1419 JUMPI PUSH1 0x0 DUP1 REVERT JUMPDEST POP CALLDATALOAD SWAP2 SWAP1 POP JUMP JUMPDEST DUP1 CALLDATALOAD PUSH1 0x1 PUSH1 0x1 PUSH1 0xA0 SHL SUB DUP2 AND DUP2 EQ PUSH2 0x8B8 JUMPI PUSH1 0x0 DUP1 REVERT JUMPDEST PUSH1 0x0 DUP1 PUSH1 0x40 DUP4 DUP6 SUB SLT ISZERO PUSH2 0x144A JUMPI PUSH1 0x0 DUP1 REVERT JUMPDEST PUSH2 0x1453 DUP4 PUSH2 0x1420 JUMP JUMPDEST SWAP5 PUSH1 0x20 SWAP4 SWAP1 SWAP4 ADD CALLDATALOAD SWAP4 POP POP POP JUMP JUMPDEST PUSH1 0x0 PUSH1 0x20 DUP3 DUP5 SUB SLT ISZERO PUSH2 0x1473 JUMPI PUSH1 0x0 DUP1 REVERT JUMPDEST PUSH2 0xA65 DUP3 PUSH2 0x1420 JUMP JUMPDEST PUSH1 0x0 DUP1 PUSH1 0x40 DUP4 DUP6 SUB SLT ISZERO PUSH2 0x148F JUMPI PUSH1 0x0 DUP1 REVERT JUMPDEST POP POP DUP1 CALLDATALOAD SWAP3 PUSH1 0x20 SWAP1 SWAP2 ADD CALLDATALOAD SWAP2 POP JUMP JUMPDEST PUSH1 0x0 PUSH1 0x20 DUP3 DUP5 SUB SLT ISZERO PUSH2 0x14B0 JUMPI PUSH1 0x0 DUP1 REVERT JUMPDEST DUP2 MLOAD DUP1 ISZERO ISZERO DUP2 EQ PUSH2 0xA65 JUMPI PUSH1 0x0 DUP1 REVERT JUMPDEST PUSH4 0x4E487B71 PUSH1 0xE0 SHL PUSH1 0x0 MSTORE PUSH1 0x11 PUSH1 0x4 MSTORE PUSH1 0x24 PUSH1 0x0 REVERT JUMPDEST DUP1 DUP3 ADD DUP1 DUP3 GT ISZERO PUSH2 0xAA2 JUMPI PUSH2 0xAA2 PUSH2 0x14C0 JUMP JUMPDEST PUSH1 0x0 PUSH1 0x20 DUP3 DUP5 SUB SLT ISZERO PUSH2 0x14FB JUMPI PUSH1 0x0 DUP1 REVERT JUMPDEST POP MLOAD SWAP2 SWAP1 POP JUMP JUMPDEST DUP1 DUP3 MUL DUP2 ISZERO DUP3 DUP3 DIV DUP5 EQ OR PUSH2 0xAA2 JUMPI PUSH2 0xAA2 PUSH2 0x14C0 JUMP JUMPDEST PUSH4 0x4E487B71 PUSH1 0xE0 SHL PUSH1 0x0 MSTORE PUSH1 0x12 PUSH1 0x4 MSTORE PUSH1 0x24 PUSH1 0x0 REVERT JUMPDEST PUSH1 0x0 DUP3 PUSH2 0x153E JUMPI PUSH2 0x153E PUSH2 0x1519 JUMP JUMPDEST POP DIV SWAP1 JUMP JUMPDEST DUP2 DUP2 SUB DUP2 DUP2 GT ISZERO PUSH2 0xAA2 JUMPI PUSH2 0xAA2 PUSH2 0x14C0 JUMP JUMPDEST PUSH1 0x0 DUP3 PUSH2 0x1565 JUMPI PUSH2 0x1565 PUSH2 0x1519 JUMP JUMPDEST POP MOD SWAP1 JUMP INVALID LOG2 PUSH5 0x6970667358 0x22 SLT KECCAK256 0xD7 SLT LOG1 0x4C DUP10 0xB0 SWAP9 0xB6 0xF7 NUMBER 0xBA EQ 0xAC SWAP3 0xA8 0xBB SWAP16 MOD 0xEB 0x23 0xDD PUSH5 0x3D078FC8C GASPRICE 0xB5 0xB0 0xCC 0xFC PUSH5 0x736F6C6343 STOP ADDMOD EQ STOP CALLER "},"methodIdentifiers":{"BASE_APY()":"4ca19fd6","LOSS_PROBABILITY()":"58acc2cd","MAX_CAPACITY()":"3a5ddf30","MAX_LOSS_PERCENTAGE()":"6b558266","USDT()":"c54e44eb","addLossBuffer(uint256)":"0ef0e05b","calculateRewards(uint256,uint256)":"48a88706","deposit(uint256)":"b6b55f25","experiencedUser(address)":"b3bf4c45","getBalance()":"12065fe0","getCurrentAPY()":"962ca496","getStrategyMetrics()":"2ede5ad6","getUserBalance(address)":"47734892","isUserQualified(address)":"51a6f7c4","lastUpdateTime()":"c8f33c91","lossBuffer()":"39fa187c","owner()":"8da5cb5b","performanceMultiplier()":"a485b786","qualifyUser(address,uint256)":"31a58809","renounceOwnership()":"715018a6","totalDeposited()":"ff50abdc","totalLosses()":"bf04820b","totalProfits()":"bd998cb3","totalShares()":"3a98ef39","totalWithdrawn()":"4b319713","transferOwnership(address)":"f2fde38b","userDepositTime(address)":"cf27e06f","userRiskScore(address)":"7fb4fb1b","userShares(address)":"de69b3aa","withdraw(uint256)":"2e1a7d4d","yieldOptimizer()":"7b4cab3d"}}}}}