{
  "_format": "hh-sol-artifact-1",
  "contractName": "GameRewards",
  "sourceName": "contracts/GameRewards.sol",
  "abi": [
    {
      "inputs": [
        {
          "internalType": "address",
          "name": "_rewardToken",
          "type": "address"
        }
      ],
      "stateMutability": "nonpayable",
      "type": "constructor"
    },
    {
      "inputs": [
        {
          "internalType": "address",
          "name": "owner",
          "type": "address"
        }
      ],
      "name": "OwnableInvalidOwner",
      "type": "error"
    },
    {
      "inputs": [
        {
          "internalType": "address",
          "name": "account",
          "type": "address"
        }
      ],
      "name": "OwnableUnauthorizedAccount",
      "type": "error"
    },
    {
      "inputs": [],
      "name": "ReentrancyGuardReentrantCall",
      "type": "error"
    },
    {
      "anonymous": false,
      "inputs": [
        {
          "indexed": true,
          "internalType": "address",
          "name": "user",
          "type": "address"
        },
        {
          "indexed": false,
          "internalType": "uint256",
          "name": "newLevel",
          "type": "uint256"
        }
      ],
      "name": "LevelUp",
      "type": "event"
    },
    {
      "anonymous": false,
      "inputs": [
        {
          "indexed": true,
          "internalType": "address",
          "name": "user",
          "type": "address"
        },
        {
          "indexed": true,
          "internalType": "uint256",
          "name": "missionId",
          "type": "uint256"
        },
        {
          "indexed": false,
          "internalType": "uint256",
          "name": "reward",
          "type": "uint256"
        }
      ],
      "name": "MissionCompleted",
      "type": "event"
    },
    {
      "anonymous": false,
      "inputs": [
        {
          "indexed": true,
          "internalType": "uint256",
          "name": "missionId",
          "type": "uint256"
        },
        {
          "indexed": false,
          "internalType": "string",
          "name": "name",
          "type": "string"
        },
        {
          "indexed": false,
          "internalType": "uint256",
          "name": "reward",
          "type": "uint256"
        }
      ],
      "name": "MissionCreated",
      "type": "event"
    },
    {
      "anonymous": false,
      "inputs": [
        {
          "indexed": true,
          "internalType": "address",
          "name": "user",
          "type": "address"
        },
        {
          "indexed": true,
          "internalType": "uint256",
          "name": "missionId",
          "type": "uint256"
        }
      ],
      "name": "MissionStarted",
      "type": "event"
    },
    {
      "anonymous": false,
      "inputs": [
        {
          "indexed": true,
          "internalType": "address",
          "name": "previousOwner",
          "type": "address"
        },
        {
          "indexed": true,
          "internalType": "address",
          "name": "newOwner",
          "type": "address"
        }
      ],
      "name": "OwnershipTransferred",
      "type": "event"
    },
    {
      "anonymous": false,
      "inputs": [
        {
          "indexed": true,
          "internalType": "address",
          "name": "user",
          "type": "address"
        }
      ],
      "name": "SocialBonusActivated",
      "type": "event"
    },
    {
      "anonymous": false,
      "inputs": [
        {
          "indexed": true,
          "internalType": "address",
          "name": "user",
          "type": "address"
        },
        {
          "indexed": false,
          "internalType": "uint256",
          "name": "streak",
          "type": "uint256"
        },
        {
          "indexed": false,
          "internalType": "uint256",
          "name": "bonus",
          "type": "uint256"
        }
      ],
      "name": "StreakBonus",
      "type": "event"
    },
    {
      "inputs": [],
      "name": "DAILY_STREAK_BONUS",
      "outputs": [
        {
          "internalType": "uint256",
          "name": "",
          "type": "uint256"
        }
      ],
      "stateMutability": "view",
      "type": "function"
    },
    {
      "inputs": [],
      "name": "POINTS_PER_LEVEL",
      "outputs": [
        {
          "internalType": "uint256",
          "name": "",
          "type": "uint256"
        }
      ],
      "stateMutability": "view",
      "type": "function"
    },
    {
      "inputs": [],
      "name": "SOCIAL_BONUS_MULTIPLIER",
      "outputs": [
        {
          "internalType": "uint256",
          "name": "",
          "type": "uint256"
        }
      ],
      "stateMutability": "view",
      "type": "function"
    },
    {
      "inputs": [
        {
          "internalType": "address",
          "name": "_user",
          "type": "address"
        }
      ],
      "name": "activateSocialBonus",
      "outputs": [],
      "stateMutability": "nonpayable",
      "type": "function"
    },
    {
      "inputs": [
        {
          "internalType": "uint256",
          "name": "_missionId",
          "type": "uint256"
        }
      ],
      "name": "claimMissionReward",
      "outputs": [],
      "stateMutability": "nonpayable",
      "type": "function"
    },
    {
      "inputs": [
        {
          "internalType": "string",
          "name": "_name",
          "type": "string"
        },
        {
          "internalType": "string",
          "name": "_description",
          "type": "string"
        },
        {
          "internalType": "uint256",
          "name": "_reward",
          "type": "uint256"
        },
        {
          "internalType": "uint256",
          "name": "_difficulty",
          "type": "uint256"
        },
        {
          "internalType": "uint256",
          "name": "_duration",
          "type": "uint256"
        }
      ],
      "name": "createMission",
      "outputs": [],
      "stateMutability": "nonpayable",
      "type": "function"
    },
    {
      "inputs": [
        {
          "internalType": "address",
          "name": "",
          "type": "address"
        }
      ],
      "name": "dailyStreak",
      "outputs": [
        {
          "internalType": "uint256",
          "name": "",
          "type": "uint256"
        }
      ],
      "stateMutability": "view",
      "type": "function"
    },
    {
      "inputs": [],
      "name": "getActiveMissions",
      "outputs": [
        {
          "components": [
            {
              "internalType": "uint256",
              "name": "id",
              "type": "uint256"
            },
            {
              "internalType": "string",
              "name": "name",
              "type": "string"
            },
            {
              "internalType": "string",
              "name": "description",
              "type": "string"
            },
            {
              "internalType": "uint256",
              "name": "reward",
              "type": "uint256"
            },
            {
              "internalType": "uint256",
              "name": "difficulty",
              "type": "uint256"
            },
            {
              "internalType": "uint256",
              "name": "duration",
              "type": "uint256"
            },
            {
              "internalType": "bool",
              "name": "active",
              "type": "bool"
            }
          ],
          "internalType": "struct GameRewards.Mission[]",
          "name": "",
          "type": "tuple[]"
        }
      ],
      "stateMutability": "view",
      "type": "function"
    },
    {
      "inputs": [],
      "name": "getLeaderboard",
      "outputs": [
        {
          "components": [
            {
              "internalType": "address",
              "name": "user",
              "type": "address"
            },
            {
              "internalType": "uint256",
              "name": "score",
              "type": "uint256"
            },
            {
              "internalType": "uint256",
              "name": "timestamp",
              "type": "uint256"
            }
          ],
          "internalType": "struct GameRewards.LeaderboardEntry[]",
          "name": "",
          "type": "tuple[]"
        }
      ],
      "stateMutability": "view",
      "type": "function"
    },
    {
      "inputs": [
        {
          "internalType": "address",
          "name": "_user",
          "type": "address"
        }
      ],
      "name": "getUserMissions",
      "outputs": [
        {
          "components": [
            {
              "internalType": "uint256",
              "name": "missionId",
              "type": "uint256"
            },
            {
              "internalType": "uint256",
              "name": "progress",
              "type": "uint256"
            },
            {
              "internalType": "uint256",
              "name": "startTime",
              "type": "uint256"
            },
            {
              "internalType": "bool",
              "name": "completed",
              "type": "bool"
            },
            {
              "internalType": "bool",
              "name": "claimed",
              "type": "bool"
            }
          ],
          "internalType": "struct GameRewards.UserMission[]",
          "name": "",
          "type": "tuple[]"
        }
      ],
      "stateMutability": "view",
      "type": "function"
    },
    {
      "inputs": [
        {
          "internalType": "address",
          "name": "_user",
          "type": "address"
        }
      ],
      "name": "getUserStats",
      "outputs": [
        {
          "internalType": "uint256",
          "name": "points",
          "type": "uint256"
        },
        {
          "internalType": "uint256",
          "name": "level",
          "type": "uint256"
        },
        {
          "internalType": "uint256",
          "name": "streak",
          "type": "uint256"
        },
        {
          "internalType": "bool",
          "name": "hasSocialBonus",
          "type": "bool"
        }
      ],
      "stateMutability": "view",
      "type": "function"
    },
    {
      "inputs": [
        {
          "internalType": "address",
          "name": "",
          "type": "address"
        }
      ],
      "name": "lastActivity",
      "outputs": [
        {
          "internalType": "uint256",
          "name": "",
          "type": "uint256"
        }
      ],
      "stateMutability": "view",
      "type": "function"
    },
    {
      "inputs": [
        {
          "internalType": "uint256",
          "name": "",
          "type": "uint256"
        }
      ],
      "name": "leaderboard",
      "outputs": [
        {
          "internalType": "address",
          "name": "user",
          "type": "address"
        },
        {
          "internalType": "uint256",
          "name": "score",
          "type": "uint256"
        },
        {
          "internalType": "uint256",
          "name": "timestamp",
          "type": "uint256"
        }
      ],
      "stateMutability": "view",
      "type": "function"
    },
    {
      "inputs": [],
      "name": "missionCounter",
      "outputs": [
        {
          "internalType": "uint256",
          "name": "",
          "type": "uint256"
        }
      ],
      "stateMutability": "view",
      "type": "function"
    },
    {
      "inputs": [
        {
          "internalType": "uint256",
          "name": "",
          "type": "uint256"
        }
      ],
      "name": "missions",
      "outputs": [
        {
          "internalType": "uint256",
          "name": "id",
          "type": "uint256"
        },
        {
          "internalType": "string",
          "name": "name",
          "type": "string"
        },
        {
          "internalType": "string",
          "name": "description",
          "type": "string"
        },
        {
          "internalType": "uint256",
          "name": "reward",
          "type": "uint256"
        },
        {
          "internalType": "uint256",
          "name": "difficulty",
          "type": "uint256"
        },
        {
          "internalType": "uint256",
          "name": "duration",
          "type": "uint256"
        },
        {
          "internalType": "bool",
          "name": "active",
          "type": "bool"
        }
      ],
      "stateMutability": "view",
      "type": "function"
    },
    {
      "inputs": [],
      "name": "owner",
      "outputs": [
        {
          "internalType": "address",
          "name": "",
          "type": "address"
        }
      ],
      "stateMutability": "view",
      "type": "function"
    },
    {
      "inputs": [],
      "name": "renounceOwnership",
      "outputs": [],
      "stateMutability": "nonpayable",
      "type": "function"
    },
    {
      "inputs": [],
      "name": "rewardToken",
      "outputs": [
        {
          "internalType": "contract IERC20",
          "name": "",
          "type": "address"
        }
      ],
      "stateMutability": "view",
      "type": "function"
    },
    {
      "inputs": [
        {
          "internalType": "address",
          "name": "",
          "type": "address"
        }
      ],
      "name": "socialBonus",
      "outputs": [
        {
          "internalType": "bool",
          "name": "",
          "type": "bool"
        }
      ],
      "stateMutability": "view",
      "type": "function"
    },
    {
      "inputs": [
        {
          "internalType": "uint256",
          "name": "_missionId",
          "type": "uint256"
        }
      ],
      "name": "startMission",
      "outputs": [],
      "stateMutability": "nonpayable",
      "type": "function"
    },
    {
      "inputs": [
        {
          "internalType": "address",
          "name": "newOwner",
          "type": "address"
        }
      ],
      "name": "transferOwnership",
      "outputs": [],
      "stateMutability": "nonpayable",
      "type": "function"
    },
    {
      "inputs": [
        {
          "internalType": "address",
          "name": "_user",
          "type": "address"
        },
        {
          "internalType": "uint256",
          "name": "_missionId",
          "type": "uint256"
        },
        {
          "internalType": "uint256",
          "name": "_progress",
          "type": "uint256"
        }
      ],
      "name": "updateMissionProgress",
      "outputs": [],
      "stateMutability": "nonpayable",
      "type": "function"
    },
    {
      "inputs": [
        {
          "internalType": "uint256",
          "name": "_missionId",
          "type": "uint256"
        },
        {
          "internalType": "bool",
          "name": "_active",
          "type": "bool"
        }
      ],
      "name": "updateMissionStatus",
      "outputs": [],
      "stateMutability": "nonpayable",
      "type": "function"
    },
    {
      "inputs": [
        {
          "internalType": "address",
          "name": "",
          "type": "address"
        }
      ],
      "name": "userLevel",
      "outputs": [
        {
          "internalType": "uint256",
          "name": "",
          "type": "uint256"
        }
      ],
      "stateMutability": "view",
      "type": "function"
    },
    {
      "inputs": [
        {
          "internalType": "address",
          "name": "",
          "type": "address"
        },
        {
          "internalType": "uint256",
          "name": "",
          "type": "uint256"
        }
      ],
      "name": "userMissions",
      "outputs": [
        {
          "internalType": "uint256",
          "name": "missionId",
          "type": "uint256"
        },
        {
          "internalType": "uint256",
          "name": "progress",
          "type": "uint256"
        },
        {
          "internalType": "uint256",
          "name": "startTime",
          "type": "uint256"
        },
        {
          "internalType": "bool",
          "name": "completed",
          "type": "bool"
        },
        {
          "internalType": "bool",
          "name": "claimed",
          "type": "bool"
        }
      ],
      "stateMutability": "view",
      "type": "function"
    },
    {
      "inputs": [
        {
          "internalType": "address",
          "name": "",
          "type": "address"
        }
      ],
      "name": "userPoints",
      "outputs": [
        {
          "internalType": "uint256",
          "name": "",
          "type": "uint256"
        }
      ],
      "stateMutability": "view",
      "type": "function"
    },
    {
      "inputs": [
        {
          "internalType": "uint256",
          "name": "_amount",
          "type": "uint256"
        }
      ],
      "name": "withdrawRewards",
      "outputs": [],
      "stateMutability": "nonpayable",
      "type": "function"
    }
  ],
  "bytecode": "0x60806040523480156200001157600080fd5b5060405162002c4538038062002c45833981016040819052620000349162000454565b33806200005c57604051631e4fbdf760e01b8152600060048201526024015b60405180910390fd5b620000678162000098565b5060018055600280546001600160a01b0319166001600160a01b03831617905562000091620000e8565b5062000676565b600080546001600160a01b038381166001600160a01b0319831681178455604051919092169283917f8be0079c531659141344cd1fd0a4f28419497f9722a3daafe3b4186f6b6457e09190a35050565b6200015c6040518060400160405280600d81526020016c119a5c9cdd0811195c1bdcda5d609a1b8152506040518060400160405280601c81526020017f4d616b6520796f75722066697273742055534454206465706f7369740000000081525060646001620151806200030b60201b60201c565b620001d16040518060400160405280600e81526020016d2cb4b2b6321022bc383637b932b960911b8152506040518060400160405280602081526020017f547279203320646966666572656e74207969656c64207374726174656769657381525060fa600262093a806200030b60201b60201c565b620002236040518060400160405280600d81526020016c29b7b1b4b0b6102a3930b232b960991b81525060405180606001604052806024815260200162002c216024913960c860026203f4806200030b565b620002956040518060400160405280600c81526020016b2934b9b59026b0b730b3b2b960a11b8152506040518060400160405280601f81526020017f53657420796f7572207269736b20746f6c6572616e63652070726f66696c6500815250604b6001610e106200030b60201b60201c565b620003096040518060400160405280600c81526020016b2cb4b2b6321026b0b9ba32b960a11b8152506040518060400160405280601e81526020017f4561726e20313030205553445420696e207969656c64207265776172647300008152506101f4600362278d006200030b60201b60201c565b565b6200031562000425565b600b8054906000620003278362000486565b90915550506040805160e081018252600b548082526020808301898152838501899052606084018890526080840187905260a08401869052600160c085018190526000938452600390925293909120825181559251919291908201906200038f908262000553565b5060408201516002820190620003a6908262000553565b50606082015160038201556080820151600482015560a0820151600582015560c0909101516006909101805460ff1916911515919091179055600b546040517f9442ad19c50ec03b5425a85cdb7b693192410401502bae9f20fdbae2209bacf3906200041690889087906200061f565b60405180910390a25050505050565b6000546001600160a01b03163314620003095760405163118cdaa760e01b815233600482015260240162000053565b6000602082840312156200046757600080fd5b81516001600160a01b03811681146200047f57600080fd5b9392505050565b600060018201620004a757634e487b7160e01b600052601160045260246000fd5b5060010190565b634e487b7160e01b600052604160045260246000fd5b600181811c90821680620004d957607f821691505b602082108103620004fa57634e487b7160e01b600052602260045260246000fd5b50919050565b601f8211156200054e57600081815260208120601f850160051c81016020861015620005295750805b601f850160051c820191505b818110156200054a5782815560010162000535565b5050505b505050565b81516001600160401b038111156200056f576200056f620004ae565b6200058781620005808454620004c4565b8462000500565b602080601f831160018114620005bf5760008415620005a65750858301515b600019600386901b1c1916600185901b1785556200054a565b600085815260208120601f198616915b82811015620005f057888601518255948401946001909101908401620005cf565b50858210156200060f5787850151600019600388901b60f8161c191681555b5050505050600190811b01905550565b604081526000835180604084015260005b818110156200064f576020818701810151606086840101520162000630565b506000606082850101526060601f19601f8301168401019150508260208301529392505050565b61259b80620006866000396000f3fe608060405234801561001057600080fd5b50600436106101b95760003560e01c8063b2763455116100f9578063f07e96b311610097578063f7c618c111610071578063f7c618c1146104b6578063f9ae6860146104c9578063fd2a164c146104e9578063fd50122f146104fc57600080fd5b8063f07e96b314610463578063f2fde38b14610483578063f50ddbc71461049657600080fd5b8063c3d13b83116100d3578063c3d13b8314610400578063d462983614610433578063dbe0a5041461043b578063eb45fa9a1461045057600080fd5b8063b27634551461039f578063b39f4dfd146103a8578063bf368399146103c857600080fd5b80636d763a6e1161016657806376080c461161014057806376080c461461034c5780638da5cb5b1461035f5780639342c8f414610384578063aec7e6361461039757600080fd5b80636d763a6e146102b75780636d8b1c83146102cc578063715018a61461034457600080fd5b80634e43603a116101975780634e43603a1461022c57806359ac87ac1461029b5780636b637703146102a457600080fd5b8063280e31cc146101be5780632c8fe526146101f15780633a7055f914610217575b600080fd5b6101de6101cc366004611f35565b60066020526000908152604090205481565b6040519081526020015b60405180910390f35b6102046101ff366004611f57565b61050f565b6040516101e89796959493929190611fb6565b61022a610225366004611f57565b61065e565b005b61027961023a366004611f35565b6001600160a01b031660009081526005602090815260408083205460068352818420546007845282852054600990945291909320549293909260ff1690565b60408051948552602085019390935291830152151560608201526080016101e8565b6101de6103e881565b61022a6102b2366004611f57565b61082b565b6102bf610c23565b6040516101e8919061200a565b6103186102da36600461206c565b600460209081526000928352604080842090915290825290208054600182015460028301546003909301549192909160ff8082169161010090041685565b60408051958652602086019490945292840191909152151560608301521515608082015260a0016101e8565b61022a610ca5565b61022a61035a366004612139565b610cb9565b6000546001600160a01b03165b6040516001600160a01b0390911681526020016101e8565b61022a610392366004611f57565b610dc9565b6101de603281565b6101de600b5481565b6103bb6103b6366004611f35565b610e81565b6040516101e891906121b8565b6103db6103d6366004611f57565b610fbe565b604080516001600160a01b0390941684526020840192909252908201526060016101e8565b61042361040e366004611f35565b60096020526000908152604090205460ff1681565b60405190151581526020016101e8565b6101de607881565b610443610ffb565b6040516101e8919061221d565b61022a61045e366004611f35565b6112c2565b6101de610471366004611f35565b60086020526000908152604090205481565b61022a610491366004611f35565b611316565b6101de6104a4366004611f35565b60056020526000908152604090205481565b60025461036c906001600160a01b031681565b6101de6104d7366004611f35565b60076020526000908152604090205481565b61022a6104f73660046122e6565b61136a565b61022a61050a366004612316565b6113e8565b6003602052600090815260409020805460018201805491929161053190612349565b80601f016020809104026020016040519081016040528092919081815260200182805461055d90612349565b80156105aa5780601f1061057f576101008083540402835291602001916105aa565b820191906000526020600020905b81548152906001019060200180831161058d57829003601f168201915b5050505050908060020180546105bf90612349565b80601f01602080910402602001604051908101604052809291908181526020018280546105eb90612349565b80156106385780601f1061060d57610100808354040283529160200191610638565b820191906000526020600020905b81548152906001019060200180831161061b57829003601f168201915b505050506003830154600484015460058501546006909501549394919390925060ff1687565b806000811180156106715750600b548111155b6106b75760405162461bcd60e51b8152602060048201526012602482015271125b9d985b1a59081b5a5cdcda5bdb88125160721b60448201526064015b60405180910390fd5b60008181526003602052604090206006015460ff166107185760405162461bcd60e51b815260206004820152601260248201527f4d697373696f6e206e6f7420616374697665000000000000000000000000000060448201526064016106ae565b336000908152600460209081526040808320858452909152902060020154156107835760405162461bcd60e51b815260206004820152601760248201527f4d697373696f6e20616c7265616479207374617274656400000000000000000060448201526064016106ae565b6040805160a0810182528381526000602080830182815242848601908152606085018481526080860185815233808752600486528887208b88529095528786209651875592516001870155905160028601555160039094018054915161ffff1990921694151561ff001916949094176101009115159190910217909255915184927f21eaba8243b458850dbb004442c564a6e63d85169aabe8c14750deace88d2f9491a35050565b6108336117c7565b3360009081526004602090815260408083208484529091529020600381015460ff166108a15760405162461bcd60e51b815260206004820152601560248201527f4d697373696f6e206e6f7420636f6d706c65746564000000000000000000000060448201526064016106ae565b6003810154610100900460ff16156108fb5760405162461bcd60e51b815260206004820152601660248201527f52657761726420616c726561647920636c61696d65640000000000000000000060448201526064016106ae565b6000600360008481526020019081526020016000206040518060e00160405290816000820154815260200160018201805461093590612349565b80601f016020809104026020016040519081016040528092919081815260200182805461096190612349565b80156109ae5780601f10610983576101008083540402835291602001916109ae565b820191906000526020600020905b81548152906001019060200180831161099157829003601f168201915b505050505081526020016002820180546109c790612349565b80601f01602080910402602001604051908101604052809291908181526020018280546109f390612349565b8015610a405780601f10610a1557610100808354040283529160200191610a40565b820191906000526020600020905b815481529060010190602001808311610a2357829003601f168201915b505050505081526020016003820154815260200160048201548152602001600582015481526020016006820160009054906101000a900460ff1615151515815250509050600081606001519050600060648260066000336001600160a01b03166001600160a01b0316815260200190815260200160002054610ac29190612399565b610acc91906123cc565b3360009081526007602052604081205491925090610aec90603290612399565b9050600081610afb84866123e0565b610b0591906123e0565b3360009081526009602052604090205490915060ff1615610b3a576064610b2d607883612399565b610b3791906123cc565b90505b60038601805461ff0019166101001790553360009081526005602052604081208054839290610b6a9084906123e0565b90915550610b7990503361180a565b610b82336118a3565b6002546040517fa9059cbb000000000000000000000000000000000000000000000000000000008152336004820152602481018390526001600160a01b039091169063a9059cbb906044016020604051808303816000875af1158015610bec573d6000803e3d6000fd5b505050506040513d601f19601f82011682018060405250810190610c1091906123f3565b50505050505050610c2060018055565b50565b6060600a805480602002602001604051908101604052809291908181526020016000905b82821015610c9c576000848152602090819020604080516060810182526003860290920180546001600160a01b0316835260018082015484860152600290910154918301919091529083529092019101610c47565b50505050905090565b610cad611b13565b610cb76000611b59565b565b610cc1611b13565b600b8054906000610cd183612410565b90915550506040805160e081018252600b548082526020808301898152838501899052606084018890526080840187905260a08401869052600160c08501819052600093845260039092529390912082518155925191929190820190610d37908261246f565b5060408201516002820190610d4c908261246f565b50606082015160038201556080820151600482015560a0820151600582015560c0909101516006909101805460ff1916911515919091179055600b546040517f9442ad19c50ec03b5425a85cdb7b693192410401502bae9f20fdbae2209bacf390610dba908890879061252f565b60405180910390a25050505050565b610dd1611b13565b6002546001600160a01b031663a9059cbb610df46000546001600160a01b031690565b6040517fffffffff0000000000000000000000000000000000000000000000000000000060e084901b1681526001600160a01b039091166004820152602481018490526044016020604051808303816000875af1158015610e59573d6000803e3d6000fd5b505050506040513d601f19601f82011682018060405250810190610e7d91906123f3565b5050565b60606000600b5467ffffffffffffffff811115610ea057610ea0612096565b604051908082528060200260200182016040528015610f0757816020015b610ef46040518060a001604052806000815260200160008152602001600081526020016000151581526020016000151581525090565b815260200190600190039081610ebe5790505b50905060015b600b548111610fb7576001600160a01b0384166000908152600460209081526040808320848452825291829020825160a08101845281548152600180830154938201939093526002820154938101939093526003015460ff8082161515606085015261010090910416151560808301528390610f899084612551565b81518110610f9957610f99612564565b60200260200101819052508080610faf90612410565b915050610f0d565b5092915050565b600a8181548110610fce57600080fd5b60009182526020909120600390910201805460018201546002909201546001600160a01b03909116925083565b6060600060015b600b5481116110455760008181526003602052604090206006015460ff1615611033578161102f81612410565b9250505b8061103d81612410565b915050611002565b5060008167ffffffffffffffff81111561106157611061612096565b6040519080825280602002602001820160405280156110d457816020015b6110c16040518060e001604052806000815260200160608152602001606081526020016000815260200160008152602001600081526020016000151581525090565b81526020019060019003908161107f5790505b509050600060015b600b5481116112b95760008181526003602052604090206006015460ff16156112a757600360008281526020019081526020016000206040518060e00160405290816000820154815260200160018201805461113790612349565b80601f016020809104026020016040519081016040528092919081815260200182805461116390612349565b80156111b05780601f10611185576101008083540402835291602001916111b0565b820191906000526020600020905b81548152906001019060200180831161119357829003601f168201915b505050505081526020016002820180546111c990612349565b80601f01602080910402602001604051908101604052809291908181526020018280546111f590612349565b80156112425780601f1061121757610100808354040283529160200191611242565b820191906000526020600020905b81548152906001019060200180831161122557829003601f168201915b505050918352505060038201546020820152600482015460408201526005820154606082015260069091015460ff161515608090910152835184908490811061128d5761128d612564565b602002602001018190525081806112a390612410565b9250505b806112b181612410565b9150506110dc565b50909392505050565b6112ca611b13565b6001600160a01b038116600081815260096020526040808220805460ff19166001179055517f3c1fb3ec6961cf561ec59eb5735371b4bf2d4edf627758e6474c43ffc29246b99190a250565b61131e611b13565b6001600160a01b038116611361576040517f1e4fbdf7000000000000000000000000000000000000000000000000000000008152600060048201526024016106ae565b610c2081611b59565b611372611b13565b6000821180156113845750600b548211155b6113c55760405162461bcd60e51b8152602060048201526012602482015271125b9d985b1a59081b5a5cdcda5bdb88125160721b60448201526064016106ae565b600091825260036020526040909120600601805460ff1916911515919091179055565b6113f0611b13565b816000811180156114035750600b548111155b6114445760405162461bcd60e51b8152602060048201526012602482015271125b9d985b1a59081b5a5cdcda5bdb88125160721b60448201526064016106ae565b60008181526003602052604090206006015460ff166114a55760405162461bcd60e51b815260206004820152601260248201527f4d697373696f6e206e6f7420616374697665000000000000000000000000000060448201526064016106ae565b6001600160a01b0384166000908152600460209081526040808320868452909152902060028101546115195760405162461bcd60e51b815260206004820152601360248201527f4d697373696f6e206e6f7420737461727465640000000000000000000000000060448201526064016106ae565b600381015460ff161561156e5760405162461bcd60e51b815260206004820152601960248201527f4d697373696f6e20616c726561647920636f6d706c657465640000000000000060448201526064016106ae565b6000600360008681526020019081526020016000206040518060e0016040529081600082015481526020016001820180546115a890612349565b80601f01602080910402602001604051908101604052809291908181526020018280546115d490612349565b80156116215780601f106115f657610100808354040283529160200191611621565b820191906000526020600020905b81548152906001019060200180831161160457829003601f168201915b5050505050815260200160028201805461163a90612349565b80601f016020809104026020016040519081016040528092919081815260200182805461166690612349565b80156116b35780601f10611688576101008083540402835291602001916116b3565b820191906000526020600020905b81548152906001019060200180831161169657829003601f168201915b505050918352505060038201546020820152600482015460408201526005820154606082015260069091015460ff16151560809091015260a08101516002840154919250611700916123e0565b42111561174f5760405162461bcd60e51b815260206004820152600f60248201527f4d697373696f6e2065787069726564000000000000000000000000000000000060448201526064016106ae565b60018201849055606484106117bf5760038201805460ff1916600117905561177686611ba9565b84866001600160a01b03167f96f232b61617e82a8e33833597b761922d7358345c29845d85795e1fbb54270383606001516040516117b691815260200190565b60405180910390a35b505050505050565b600260015403611803576040517f3ee5aeb500000000000000000000000000000000000000000000000000000000815260040160405180910390fd5b6002600155565b6001600160a01b038116600090815260066020908152604080832054600590925282205490919061183e906103e8906123cc565b90508181111561189e576001600160a01b03831660008181526006602052604090819020839055517f91e51c29e7e87a74ad3b8ccba98538970f50a4309242735467f41e27c6b0fbac906118959084815260200190565b60405180910390a25b505050565b6001600160a01b038116600090815260056020526040812054905b600a5481101561197057826001600160a01b0316600a82815481106118e5576118e5612564565b60009182526020909120600390910201546001600160a01b03160361195e5781600a828154811061191857611918612564565b90600052602060002090600302016001018190555042600a828154811061194157611941612564565b90600052602060002090600302016002018190555061189e611d18565b8061196881612410565b9150506118be565b50600a5460641115611a4457604080516060810182526001600160a01b0384811682526020820184815242938301938452600a805460018101825560009190915292517fc65a7bb8d6351c1cf70c95a316cc6a92839c986682d98bc35f958f4883f9d2a8600390940293840180546001600160a01b0319169190931617909155517fc65a7bb8d6351c1cf70c95a316cc6a92839c986682d98bc35f958f4883f9d2a982015590517fc65a7bb8d6351c1cf70c95a316cc6a92839c986682d98bc35f958f4883f9d2aa90910155610e7d611d18565b600a8054611a5490600190612551565b81548110611a6457611a64612564565b906000526020600020906003020160010154811115610e7d576040518060600160405280836001600160a01b0316815260200182815260200142815250600a6001600a80549050611ab59190612551565b81548110611ac557611ac5612564565b600091825260209182902083516003929092020180546001600160a01b0319166001600160a01b03909216919091178155908201516001820155604090910151600290910155610e7d611d18565b6000546001600160a01b03163314610cb7576040517f118cdaa70000000000000000000000000000000000000000000000000000000081523360048201526024016106ae565b600080546001600160a01b038381166001600160a01b0319831681178455604051919092169283917f8be0079c531659141344cd1fd0a4f28419497f9722a3daafe3b4186f6b6457e09190a35050565b6001600160a01b03811660009081526008602052604081205490611bcd8242612551565b9050620151808111611c07576001600160a01b0383166000908152600760205260408120805491611bfd83612410565b9190505550611c2f565b6202a300811115611c2f576001600160a01b0383166000908152600760205260409020600190555b6001600160a01b038316600090815260086020908152604080832042905560079182905290912054611c61919061257a565b60000361189e576001600160a01b038316600090815260076020526040812054611c8d90603290612399565b6001600160a01b038516600090815260056020526040812080549293508392909190611cba9084906123e0565b90915550506001600160a01b0384166000818152600760209081526040918290205482519081529081018490527f1f7ced502914e916794069209edc9bb5a0a25fe3cd8c8dfbcd6039d7eee4f25f910160405180910390a250505050565b60005b600a54611d2a90600190612551565b811015610c205760005b600a54600190611d45908490612551565b611d4f9190612551565b811015611f0657600a611d638260016123e0565b81548110611d7357611d73612564565b906000526020600020906003020160010154600a8281548110611d9857611d98612564565b9060005260206000209060030201600101541015611ef4576000600a8281548110611dc557611dc5612564565b600091825260209182902060408051606081018252600390930290910180546001600160a01b031683526001808201549484019490945260020154908201529150600a90611e149084906123e0565b81548110611e2457611e24612564565b9060005260206000209060030201600a8381548110611e4557611e45612564565b60009182526020909120825460039092020180546001600160a01b0319166001600160a01b039092169190911781556001808301548183015560029283015492909101919091558190600a90611e9c9085906123e0565b81548110611eac57611eac612564565b600091825260209182902083516003929092020180546001600160a01b0319166001600160a01b03909216919091178155908201516001820155604090910151600290910155505b80611efe81612410565b915050611d34565b5080611f1181612410565b915050611d1b565b80356001600160a01b0381168114611f3057600080fd5b919050565b600060208284031215611f4757600080fd5b611f5082611f19565b9392505050565b600060208284031215611f6957600080fd5b5035919050565b6000815180845260005b81811015611f9657602081850181015186830182015201611f7a565b506000602082860101526020601f19601f83011685010191505092915050565b87815260e060208201526000611fcf60e0830189611f70565b8281036040840152611fe18189611f70565b9150508560608301528460808301528360a083015282151560c083015298975050505050505050565b602080825282518282018190526000919060409081850190868401855b8281101561205f57815180516001600160a01b0316855286810151878601528501518585015260609093019290850190600101612027565b5091979650505050505050565b6000806040838503121561207f57600080fd5b61208883611f19565b946020939093013593505050565b634e487b7160e01b600052604160045260246000fd5b600082601f8301126120bd57600080fd5b813567ffffffffffffffff808211156120d8576120d8612096565b604051601f8301601f19908116603f0116810190828211818310171561210057612100612096565b8160405283815286602085880101111561211957600080fd5b836020870160208301376000602085830101528094505050505092915050565b600080600080600060a0868803121561215157600080fd5b853567ffffffffffffffff8082111561216957600080fd5b61217589838a016120ac565b9650602088013591508082111561218b57600080fd5b50612198888289016120ac565b959895975050505060408401359360608101359360809091013592509050565b602080825282518282018190526000919060409081850190868401855b8281101561205f578151805185528681015187860152858101518686015260608082015115159086015260809081015115159085015260a090930192908501906001016121d5565b60006020808301818452808551808352604092508286019150828160051b87010184880160005b838110156122ca57603f19898403018552815160e08151855288820151818a87015261227282870182611f70565b915050878201518582038987015261228a8282611f70565b606084810151908801526080808501519088015260a0808501519088015260c0938401511515939096019290925250509386019390860190600101612244565b509098975050505050505050565b8015158114610c2057600080fd5b600080604083850312156122f957600080fd5b82359150602083013561230b816122d8565b809150509250929050565b60008060006060848603121561232b57600080fd5b61233484611f19565b95602085013595506040909401359392505050565b600181811c9082168061235d57607f821691505b60208210810361237d57634e487b7160e01b600052602260045260246000fd5b50919050565b634e487b7160e01b600052601160045260246000fd5b80820281158282048414176123b0576123b0612383565b92915050565b634e487b7160e01b600052601260045260246000fd5b6000826123db576123db6123b6565b500490565b808201808211156123b0576123b0612383565b60006020828403121561240557600080fd5b8151611f50816122d8565b60006001820161242257612422612383565b5060010190565b601f82111561189e57600081815260208120601f850160051c810160208610156124505750805b601f850160051c820191505b818110156117bf5782815560010161245c565b815167ffffffffffffffff81111561248957612489612096565b61249d816124978454612349565b84612429565b602080601f8311600181146124d257600084156124ba5750858301515b600019600386901b1c1916600185901b1785556117bf565b600085815260208120601f198616915b82811015612501578886015182559484019460019091019084016124e2565b508582101561251f5787850151600019600388901b60f8161c191681555b5050505050600190811b01905550565b6040815260006125426040830185611f70565b90508260208301529392505050565b818103818111156123b0576123b0612383565b634e487b7160e01b600052603260045260246000fd5b600082612589576125896123b6565b50069056fea164736f6c6343000814000a5368617265206120737472617465677920776974682035204c494e4520667269656e6473",
  "linkReferences": {},
  "deployedLinkReferences": {}
}