{
  "_format": "hh-sol-artifact-1",
  "contractName": "GameRewards",
  "sourceName": "contracts/GameRewards.sol",
  "abi": [
    {
      "inputs": [
        {
          "internalType": "address",
          "name": "_rewardToken",
          "type": "address"
        }
      ],
      "stateMutability": "nonpayable",
      "type": "constructor"
    },
    {
      "inputs": [
        {
          "internalType": "address",
          "name": "owner",
          "type": "address"
        }
      ],
      "name": "OwnableInvalidOwner",
      "type": "error"
    },
    {
      "inputs": [
        {
          "internalType": "address",
          "name": "account",
          "type": "address"
        }
      ],
      "name": "OwnableUnauthorizedAccount",
      "type": "error"
    },
    {
      "inputs": [],
      "name": "ReentrancyGuardReentrantCall",
      "type": "error"
    },
    {
      "anonymous": false,
      "inputs": [
        {
          "indexed": true,
          "internalType": "address",
          "name": "user",
          "type": "address"
        },
        {
          "indexed": false,
          "internalType": "uint256",
          "name": "newLevel",
          "type": "uint256"
        }
      ],
      "name": "LevelUp",
      "type": "event"
    },
    {
      "anonymous": false,
      "inputs": [
        {
          "indexed": true,
          "internalType": "address",
          "name": "user",
          "type": "address"
        },
        {
          "indexed": true,
          "internalType": "uint256",
          "name": "missionId",
          "type": "uint256"
        },
        {
          "indexed": false,
          "internalType": "uint256",
          "name": "reward",
          "type": "uint256"
        }
      ],
      "name": "MissionCompleted",
      "type": "event"
    },
    {
      "anonymous": false,
      "inputs": [
        {
          "indexed": true,
          "internalType": "uint256",
          "name": "missionId",
          "type": "uint256"
        },
        {
          "indexed": false,
          "internalType": "string",
          "name": "name",
          "type": "string"
        },
        {
          "indexed": false,
          "internalType": "uint256",
          "name": "reward",
          "type": "uint256"
        }
      ],
      "name": "MissionCreated",
      "type": "event"
    },
    {
      "anonymous": false,
      "inputs": [
        {
          "indexed": true,
          "internalType": "address",
          "name": "user",
          "type": "address"
        },
        {
          "indexed": true,
          "internalType": "uint256",
          "name": "missionId",
          "type": "uint256"
        }
      ],
      "name": "MissionStarted",
      "type": "event"
    },
    {
      "anonymous": false,
      "inputs": [
        {
          "indexed": true,
          "internalType": "address",
          "name": "previousOwner",
          "type": "address"
        },
        {
          "indexed": true,
          "internalType": "address",
          "name": "newOwner",
          "type": "address"
        }
      ],
      "name": "OwnershipTransferred",
      "type": "event"
    },
    {
      "anonymous": false,
      "inputs": [
        {
          "indexed": true,
          "internalType": "address",
          "name": "user",
          "type": "address"
        }
      ],
      "name": "SocialBonusActivated",
      "type": "event"
    },
    {
      "anonymous": false,
      "inputs": [
        {
          "indexed": true,
          "internalType": "address",
          "name": "user",
          "type": "address"
        },
        {
          "indexed": false,
          "internalType": "uint256",
          "name": "streak",
          "type": "uint256"
        },
        {
          "indexed": false,
          "internalType": "uint256",
          "name": "bonus",
          "type": "uint256"
        }
      ],
      "name": "StreakBonus",
      "type": "event"
    },
    {
      "inputs": [],
      "name": "DAILY_STREAK_BONUS",
      "outputs": [
        {
          "internalType": "uint256",
          "name": "",
          "type": "uint256"
        }
      ],
      "stateMutability": "view",
      "type": "function"
    },
    {
      "inputs": [],
      "name": "POINTS_PER_LEVEL",
      "outputs": [
        {
          "internalType": "uint256",
          "name": "",
          "type": "uint256"
        }
      ],
      "stateMutability": "view",
      "type": "function"
    },
    {
      "inputs": [],
      "name": "SOCIAL_BONUS_MULTIPLIER",
      "outputs": [
        {
          "internalType": "uint256",
          "name": "",
          "type": "uint256"
        }
      ],
      "stateMutability": "view",
      "type": "function"
    },
    {
      "inputs": [
        {
          "internalType": "address",
          "name": "_user",
          "type": "address"
        }
      ],
      "name": "activateSocialBonus",
      "outputs": [],
      "stateMutability": "nonpayable",
      "type": "function"
    },
    {
      "inputs": [
        {
          "internalType": "uint256",
          "name": "_missionId",
          "type": "uint256"
        }
      ],
      "name": "claimMissionReward",
      "outputs": [],
      "stateMutability": "nonpayable",
      "type": "function"
    },
    {
      "inputs": [
        {
          "internalType": "string",
          "name": "_name",
          "type": "string"
        },
        {
          "internalType": "string",
          "name": "_description",
          "type": "string"
        },
        {
          "internalType": "uint256",
          "name": "_reward",
          "type": "uint256"
        },
        {
          "internalType": "uint256",
          "name": "_difficulty",
          "type": "uint256"
        },
        {
          "internalType": "uint256",
          "name": "_duration",
          "type": "uint256"
        }
      ],
      "name": "createMission",
      "outputs": [],
      "stateMutability": "nonpayable",
      "type": "function"
    },
    {
      "inputs": [
        {
          "internalType": "address",
          "name": "",
          "type": "address"
        }
      ],
      "name": "dailyStreak",
      "outputs": [
        {
          "internalType": "uint256",
          "name": "",
          "type": "uint256"
        }
      ],
      "stateMutability": "view",
      "type": "function"
    },
    {
      "inputs": [],
      "name": "getActiveMissions",
      "outputs": [
        {
          "components": [
            {
              "internalType": "uint256",
              "name": "id",
              "type": "uint256"
            },
            {
              "internalType": "string",
              "name": "name",
              "type": "string"
            },
            {
              "internalType": "string",
              "name": "description",
              "type": "string"
            },
            {
              "internalType": "uint256",
              "name": "reward",
              "type": "uint256"
            },
            {
              "internalType": "uint256",
              "name": "difficulty",
              "type": "uint256"
            },
            {
              "internalType": "uint256",
              "name": "duration",
              "type": "uint256"
            },
            {
              "internalType": "bool",
              "name": "active",
              "type": "bool"
            }
          ],
          "internalType": "struct GameRewards.Mission[]",
          "name": "",
          "type": "tuple[]"
        }
      ],
      "stateMutability": "view",
      "type": "function"
    },
    {
      "inputs": [],
      "name": "getLeaderboard",
      "outputs": [
        {
          "components": [
            {
              "internalType": "address",
              "name": "user",
              "type": "address"
            },
            {
              "internalType": "uint256",
              "name": "score",
              "type": "uint256"
            },
            {
              "internalType": "uint256",
              "name": "timestamp",
              "type": "uint256"
            }
          ],
          "internalType": "struct GameRewards.LeaderboardEntry[]",
          "name": "",
          "type": "tuple[]"
        }
      ],
      "stateMutability": "view",
      "type": "function"
    },
    {
      "inputs": [
        {
          "internalType": "address",
          "name": "_user",
          "type": "address"
        }
      ],
      "name": "getUserMissions",
      "outputs": [
        {
          "components": [
            {
              "internalType": "uint256",
              "name": "missionId",
              "type": "uint256"
            },
            {
              "internalType": "uint256",
              "name": "progress",
              "type": "uint256"
            },
            {
              "internalType": "uint256",
              "name": "startTime",
              "type": "uint256"
            },
            {
              "internalType": "bool",
              "name": "completed",
              "type": "bool"
            },
            {
              "internalType": "bool",
              "name": "claimed",
              "type": "bool"
            }
          ],
          "internalType": "struct GameRewards.UserMission[]",
          "name": "",
          "type": "tuple[]"
        }
      ],
      "stateMutability": "view",
      "type": "function"
    },
    {
      "inputs": [
        {
          "internalType": "address",
          "name": "_user",
          "type": "address"
        }
      ],
      "name": "getUserStats",
      "outputs": [
        {
          "internalType": "uint256",
          "name": "points",
          "type": "uint256"
        },
        {
          "internalType": "uint256",
          "name": "level",
          "type": "uint256"
        },
        {
          "internalType": "uint256",
          "name": "streak",
          "type": "uint256"
        },
        {
          "internalType": "bool",
          "name": "hasSocialBonus",
          "type": "bool"
        }
      ],
      "stateMutability": "view",
      "type": "function"
    },
    {
      "inputs": [
        {
          "internalType": "address",
          "name": "",
          "type": "address"
        }
      ],
      "name": "lastActivity",
      "outputs": [
        {
          "internalType": "uint256",
          "name": "",
          "type": "uint256"
        }
      ],
      "stateMutability": "view",
      "type": "function"
    },
    {
      "inputs": [
        {
          "internalType": "uint256",
          "name": "",
          "type": "uint256"
        }
      ],
      "name": "leaderboard",
      "outputs": [
        {
          "internalType": "address",
          "name": "user",
          "type": "address"
        },
        {
          "internalType": "uint256",
          "name": "score",
          "type": "uint256"
        },
        {
          "internalType": "uint256",
          "name": "timestamp",
          "type": "uint256"
        }
      ],
      "stateMutability": "view",
      "type": "function"
    },
    {
      "inputs": [],
      "name": "missionCounter",
      "outputs": [
        {
          "internalType": "uint256",
          "name": "",
          "type": "uint256"
        }
      ],
      "stateMutability": "view",
      "type": "function"
    },
    {
      "inputs": [
        {
          "internalType": "uint256",
          "name": "",
          "type": "uint256"
        }
      ],
      "name": "missions",
      "outputs": [
        {
          "internalType": "uint256",
          "name": "id",
          "type": "uint256"
        },
        {
          "internalType": "string",
          "name": "name",
          "type": "string"
        },
        {
          "internalType": "string",
          "name": "description",
          "type": "string"
        },
        {
          "internalType": "uint256",
          "name": "reward",
          "type": "uint256"
        },
        {
          "internalType": "uint256",
          "name": "difficulty",
          "type": "uint256"
        },
        {
          "internalType": "uint256",
          "name": "duration",
          "type": "uint256"
        },
        {
          "internalType": "bool",
          "name": "active",
          "type": "bool"
        }
      ],
      "stateMutability": "view",
      "type": "function"
    },
    {
      "inputs": [],
      "name": "owner",
      "outputs": [
        {
          "internalType": "address",
          "name": "",
          "type": "address"
        }
      ],
      "stateMutability": "view",
      "type": "function"
    },
    {
      "inputs": [],
      "name": "renounceOwnership",
      "outputs": [],
      "stateMutability": "nonpayable",
      "type": "function"
    },
    {
      "inputs": [],
      "name": "rewardToken",
      "outputs": [
        {
          "internalType": "contract IERC20",
          "name": "",
          "type": "address"
        }
      ],
      "stateMutability": "view",
      "type": "function"
    },
    {
      "inputs": [
        {
          "internalType": "address",
          "name": "",
          "type": "address"
        }
      ],
      "name": "socialBonus",
      "outputs": [
        {
          "internalType": "bool",
          "name": "",
          "type": "bool"
        }
      ],
      "stateMutability": "view",
      "type": "function"
    },
    {
      "inputs": [
        {
          "internalType": "uint256",
          "name": "_missionId",
          "type": "uint256"
        }
      ],
      "name": "startMission",
      "outputs": [],
      "stateMutability": "nonpayable",
      "type": "function"
    },
    {
      "inputs": [
        {
          "internalType": "address",
          "name": "newOwner",
          "type": "address"
        }
      ],
      "name": "transferOwnership",
      "outputs": [],
      "stateMutability": "nonpayable",
      "type": "function"
    },
    {
      "inputs": [
        {
          "internalType": "address",
          "name": "_user",
          "type": "address"
        },
        {
          "internalType": "uint256",
          "name": "_missionId",
          "type": "uint256"
        },
        {
          "internalType": "uint256",
          "name": "_progress",
          "type": "uint256"
        }
      ],
      "name": "updateMissionProgress",
      "outputs": [],
      "stateMutability": "nonpayable",
      "type": "function"
    },
    {
      "inputs": [
        {
          "internalType": "uint256",
          "name": "_missionId",
          "type": "uint256"
        },
        {
          "internalType": "bool",
          "name": "_active",
          "type": "bool"
        }
      ],
      "name": "updateMissionStatus",
      "outputs": [],
      "stateMutability": "nonpayable",
      "type": "function"
    },
    {
      "inputs": [
        {
          "internalType": "address",
          "name": "",
          "type": "address"
        }
      ],
      "name": "userLevel",
      "outputs": [
        {
          "internalType": "uint256",
          "name": "",
          "type": "uint256"
        }
      ],
      "stateMutability": "view",
      "type": "function"
    },
    {
      "inputs": [
        {
          "internalType": "address",
          "name": "",
          "type": "address"
        },
        {
          "internalType": "uint256",
          "name": "",
          "type": "uint256"
        }
      ],
      "name": "userMissions",
      "outputs": [
        {
          "internalType": "uint256",
          "name": "missionId",
          "type": "uint256"
        },
        {
          "internalType": "uint256",
          "name": "progress",
          "type": "uint256"
        },
        {
          "internalType": "uint256",
          "name": "startTime",
          "type": "uint256"
        },
        {
          "internalType": "bool",
          "name": "completed",
          "type": "bool"
        },
        {
          "internalType": "bool",
          "name": "claimed",
          "type": "bool"
        }
      ],
      "stateMutability": "view",
      "type": "function"
    },
    {
      "inputs": [
        {
          "internalType": "address",
          "name": "",
          "type": "address"
        }
      ],
      "name": "userPoints",
      "outputs": [
        {
          "internalType": "uint256",
          "name": "",
          "type": "uint256"
        }
      ],
      "stateMutability": "view",
      "type": "function"
    },
    {
      "inputs": [
        {
          "internalType": "uint256",
          "name": "_amount",
          "type": "uint256"
        }
      ],
      "name": "withdrawRewards",
      "outputs": [],
      "stateMutability": "nonpayable",
      "type": "function"
    }
  ],
  "bytecode": "0x60806040523480156200001157600080fd5b5060405162002b6638038062002b66833981016040819052620000349162000454565b33806200005c57604051631e4fbdf760e01b8152600060048201526024015b60405180910390fd5b620000678162000098565b5060018055600280546001600160a01b0319166001600160a01b03831617905562000091620000e8565b5062000676565b600080546001600160a01b038381166001600160a01b0319831681178455604051919092169283917f8be0079c531659141344cd1fd0a4f28419497f9722a3daafe3b4186f6b6457e09190a35050565b6200015c6040518060400160405280600d81526020016c119a5c9cdd0811195c1bdcda5d609a1b8152506040518060400160405280601c81526020017f4d616b6520796f75722066697273742055534454206465706f7369740000000081525060646001620151806200030b60201b60201c565b620001d16040518060400160405280600e81526020016d2cb4b2b6321022bc383637b932b960911b8152506040518060400160405280602081526020017f547279203320646966666572656e74207969656c64207374726174656769657381525060fa600262093a806200030b60201b60201c565b620002236040518060400160405280600d81526020016c29b7b1b4b0b6102a3930b232b960991b81525060405180606001604052806024815260200162002b426024913960c860026203f4806200030b565b620002956040518060400160405280600c81526020016b2934b9b59026b0b730b3b2b960a11b8152506040518060400160405280601f81526020017f53657420796f7572207269736b20746f6c6572616e63652070726f66696c6500815250604b6001610e106200030b60201b60201c565b620003096040518060400160405280600c81526020016b2cb4b2b6321026b0b9ba32b960a11b8152506040518060400160405280601e81526020017f4561726e20313030205553445420696e207969656c64207265776172647300008152506101f4600362278d006200030b60201b60201c565b565b6200031562000425565b600b8054906000620003278362000486565b90915550506040805160e081018252600b548082526020808301898152838501899052606084018890526080840187905260a08401869052600160c085018190526000938452600390925293909120825181559251919291908201906200038f908262000553565b5060408201516002820190620003a6908262000553565b50606082015160038201556080820151600482015560a0820151600582015560c0909101516006909101805460ff1916911515919091179055600b546040517f9442ad19c50ec03b5425a85cdb7b693192410401502bae9f20fdbae2209bacf3906200041690889087906200061f565b60405180910390a25050505050565b6000546001600160a01b03163314620003095760405163118cdaa760e01b815233600482015260240162000053565b6000602082840312156200046757600080fd5b81516001600160a01b03811681146200047f57600080fd5b9392505050565b600060018201620004a757634e487b7160e01b600052601160045260246000fd5b5060010190565b634e487b7160e01b600052604160045260246000fd5b600181811c90821680620004d957607f821691505b602082108103620004fa57634e487b7160e01b600052602260045260246000fd5b50919050565b601f8211156200054e57600081815260208120601f850160051c81016020861015620005295750805b601f850160051c820191505b818110156200054a5782815560010162000535565b5050505b505050565b81516001600160401b038111156200056f576200056f620004ae565b6200058781620005808454620004c4565b8462000500565b602080601f831160018114620005bf5760008415620005a65750858301515b600019600386901b1c1916600185901b1785556200054a565b600085815260208120601f198616915b82811015620005f057888601518255948401946001909101908401620005cf565b50858210156200060f5787850151600019600388901b60f8161c191681555b5050505050600190811b01905550565b604081526000835180604084015260005b818110156200064f576020818701810151606086840101520162000630565b506000606082850101526060601f19601f8301168401019150508260208301529392505050565b6124bc80620006866000396000f3fe608060405234801561001057600080fd5b50600436106101a95760003560e01c8063b2763455116100f9578063f07e96b311610097578063f7c618c111610071578063f7c618c1146104a6578063f9ae6860146104b9578063fd2a164c146104d9578063fd50122f146104ec57600080fd5b8063f07e96b314610453578063f2fde38b14610473578063f50ddbc71461048657600080fd5b8063c3d13b83116100d3578063c3d13b83146103f0578063d462983614610423578063dbe0a5041461042b578063eb45fa9a1461044057600080fd5b8063b27634551461038f578063b39f4dfd14610398578063bf368399146103b857600080fd5b80636d763a6e1161016657806376080c461161014057806376080c461461033c5780638da5cb5b1461034f5780639342c8f414610374578063aec7e6361461038757600080fd5b80636d763a6e146102a75780636d8b1c83146102bc578063715018a61461033457600080fd5b8063280e31cc146101ae5780632c8fe526146101e15780633a7055f9146102075780634e43603a1461021c57806359ac87ac1461028b5780636b63770314610294575b600080fd5b6101ce6101bc366004611e01565b60066020526000908152604090205481565b6040519081526020015b60405180910390f35b6101f46101ef366004611e23565b6104ff565b6040516101d89796959493929190611e82565b61021a610215366004611e23565b61064e565b005b61026961022a366004611e01565b6001600160a01b031660009081526005602090815260408083205460068352818420546007845282852054600990945291909320549293909260ff1690565b60408051948552602085019390935291830152151560608201526080016101d8565b6101ce6103e881565b61021a6102a2366004611e23565b6107ef565b6102af610bbf565b6040516101d89190611ed6565b6103086102ca366004611f38565b600460209081526000928352604080842090915290825290208054600182015460028301546003909301549192909160ff8082169161010090041685565b60408051958652602086019490945292840191909152151560608301521515608082015260a0016101d8565b61021a610c41565b61021a61034a366004612005565b610c55565b6000546001600160a01b03165b6040516001600160a01b0390911681526020016101d8565b61021a610382366004611e23565b610d65565b6101ce603281565b6101ce600b5481565b6103ab6103a6366004611e01565b610e05565b6040516101d89190612084565b6103cb6103c6366004611e23565b610f42565b604080516001600160a01b0390941684526020840192909252908201526060016101d8565b6104136103fe366004611e01565b60096020526000908152604090205460ff1681565b60405190151581526020016101d8565b6101ce607881565b610433610f7f565b6040516101d891906120e9565b61021a61044e366004611e01565b611246565b6101ce610461366004611e01565b60086020526000908152604090205481565b61021a610481366004611e01565b61129a565b6101ce610494366004611e01565b60056020526000908152604090205481565b60025461035c906001600160a01b031681565b6101ce6104c7366004611e01565b60076020526000908152604090205481565b61021a6104e73660046121b2565b6112d5565b61021a6104fa3660046121e2565b61132e565b6003602052600090815260409020805460018201805491929161052190612215565b80601f016020809104026020016040519081016040528092919081815260200182805461054d90612215565b801561059a5780601f1061056f5761010080835404028352916020019161059a565b820191906000526020600020905b81548152906001019060200180831161057d57829003601f168201915b5050505050908060020180546105af90612215565b80601f01602080910402602001604051908101604052809291908181526020018280546105db90612215565b80156106285780601f106105fd57610100808354040283529160200191610628565b820191906000526020600020905b81548152906001019060200180831161060b57829003601f168201915b505050506003830154600484015460058501546006909501549394919390925060ff1687565b806000811180156106615750600b548111155b6106865760405162461bcd60e51b815260040161067d9061224f565b60405180910390fd5b60008181526003602052604090206006015460ff166106dc5760405162461bcd60e51b81526020600482015260126024820152714d697373696f6e206e6f742061637469766560701b604482015260640161067d565b336000908152600460209081526040808320858452909152902060020154156107475760405162461bcd60e51b815260206004820152601760248201527f4d697373696f6e20616c72656164792073746172746564000000000000000000604482015260640161067d565b6040805160a0810182528381526000602080830182815242848601908152606085018481526080860185815233808752600486528887208b88529095528786209651875592516001870155905160028601555160039094018054915161ffff1990921694151561ff001916949094176101009115159190910217909255915184927f21eaba8243b458850dbb004442c564a6e63d85169aabe8c14750deace88d2f9491a35050565b6107f76116c5565b3360009081526004602090815260408083208484529091529020600381015460ff1661085d5760405162461bcd60e51b8152602060048201526015602482015274135a5cdcda5bdb881b9bdd0818dbdb5c1b195d1959605a1b604482015260640161067d565b6003810154610100900460ff16156108b05760405162461bcd60e51b815260206004820152601660248201527514995dd85c9908185b1c9958591e4818db185a5b595960521b604482015260640161067d565b6000600360008481526020019081526020016000206040518060e0016040529081600082015481526020016001820180546108ea90612215565b80601f016020809104026020016040519081016040528092919081815260200182805461091690612215565b80156109635780601f1061093857610100808354040283529160200191610963565b820191906000526020600020905b81548152906001019060200180831161094657829003601f168201915b5050505050815260200160028201805461097c90612215565b80601f01602080910402602001604051908101604052809291908181526020018280546109a890612215565b80156109f55780601f106109ca576101008083540402835291602001916109f5565b820191906000526020600020905b8154815290600101906020018083116109d857829003601f168201915b505050505081526020016003820154815260200160048201548152602001600582015481526020016006820160009054906101000a900460ff1615151515815250509050600081606001519050600060648260066000336001600160a01b03166001600160a01b0316815260200190815260200160002054610a779190612291565b610a8191906122c4565b3360009081526007602052604081205491925090610aa190603290612291565b9050600081610ab084866122d8565b610aba91906122d8565b3360009081526009602052604090205490915060ff1615610aef576064610ae2607883612291565b610aec91906122c4565b90505b60038601805461ff0019166101001790553360009081526005602052604081208054839290610b1f9084906122d8565b90915550610b2e9050336116ef565b610b3733611788565b60025460405163a9059cbb60e01b8152336004820152602481018390526001600160a01b039091169063a9059cbb906044016020604051808303816000875af1158015610b88573d6000803e3d6000fd5b505050506040513d601f19601f82011682018060405250810190610bac91906122eb565b50505050505050610bbc60018055565b50565b6060600a805480602002602001604051908101604052809291908181526020016000905b82821015610c38576000848152602090819020604080516060810182526003860290920180546001600160a01b0316835260018082015484860152600290910154918301919091529083529092019101610be3565b50505050905090565b610c496119f8565b610c536000611a25565b565b610c5d6119f8565b600b8054906000610c6d83612308565b90915550506040805160e081018252600b548082526020808301898152838501899052606084018890526080840187905260a08401869052600160c08501819052600093845260039092529390912082518155925191929190820190610cd39082612367565b5060408201516002820190610ce89082612367565b50606082015160038201556080820151600482015560a0820151600582015560c0909101516006909101805460ff1916911515919091179055600b546040517f9442ad19c50ec03b5425a85cdb7b693192410401502bae9f20fdbae2209bacf390610d569088908790612427565b60405180910390a25050505050565b610d6d6119f8565b6002546001600160a01b031663a9059cbb610d906000546001600160a01b031690565b6040516001600160e01b031960e084901b1681526001600160a01b039091166004820152602481018490526044016020604051808303816000875af1158015610ddd573d6000803e3d6000fd5b505050506040513d601f19601f82011682018060405250810190610e0191906122eb565b5050565b60606000600b5467ffffffffffffffff811115610e2457610e24611f62565b604051908082528060200260200182016040528015610e8b57816020015b610e786040518060a001604052806000815260200160008152602001600081526020016000151581526020016000151581525090565b815260200190600190039081610e425790505b50905060015b600b548111610f3b576001600160a01b0384166000908152600460209081526040808320848452825291829020825160a08101845281548152600180830154938201939093526002820154938101939093526003015460ff8082161515606085015261010090910416151560808301528390610f0d9084612449565b81518110610f1d57610f1d61245c565b60200260200101819052508080610f3390612308565b915050610e91565b5092915050565b600a8181548110610f5257600080fd5b60009182526020909120600390910201805460018201546002909201546001600160a01b03909116925083565b6060600060015b600b548111610fc95760008181526003602052604090206006015460ff1615610fb75781610fb381612308565b9250505b80610fc181612308565b915050610f86565b5060008167ffffffffffffffff811115610fe557610fe5611f62565b60405190808252806020026020018201604052801561105857816020015b6110456040518060e001604052806000815260200160608152602001606081526020016000815260200160008152602001600081526020016000151581525090565b8152602001906001900390816110035790505b509050600060015b600b54811161123d5760008181526003602052604090206006015460ff161561122b57600360008281526020019081526020016000206040518060e0016040529081600082015481526020016001820180546110bb90612215565b80601f01602080910402602001604051908101604052809291908181526020018280546110e790612215565b80156111345780601f1061110957610100808354040283529160200191611134565b820191906000526020600020905b81548152906001019060200180831161111757829003601f168201915b5050505050815260200160028201805461114d90612215565b80601f016020809104026020016040519081016040528092919081815260200182805461117990612215565b80156111c65780601f1061119b576101008083540402835291602001916111c6565b820191906000526020600020905b8154815290600101906020018083116111a957829003601f168201915b505050918352505060038201546020820152600482015460408201526005820154606082015260069091015460ff16151560809091015283518490849081106112115761121161245c565b6020026020010181905250818061122790612308565b9250505b8061123581612308565b915050611060565b50909392505050565b61124e6119f8565b6001600160a01b038116600081815260096020526040808220805460ff19166001179055517f3c1fb3ec6961cf561ec59eb5735371b4bf2d4edf627758e6474c43ffc29246b99190a250565b6112a26119f8565b6001600160a01b0381166112cc57604051631e4fbdf760e01b81526000600482015260240161067d565b610bbc81611a25565b6112dd6119f8565b6000821180156112ef5750600b548211155b61130b5760405162461bcd60e51b815260040161067d9061224f565b600091825260036020526040909120600601805460ff1916911515919091179055565b6113366119f8565b816000811180156113495750600b548111155b6113655760405162461bcd60e51b815260040161067d9061224f565b60008181526003602052604090206006015460ff166113bb5760405162461bcd60e51b81526020600482015260126024820152714d697373696f6e206e6f742061637469766560701b604482015260640161067d565b6001600160a01b0384166000908152600460209081526040808320868452909152902060028101546114255760405162461bcd60e51b8152602060048201526013602482015272135a5cdcda5bdb881b9bdd081cdd185c9d1959606a1b604482015260640161067d565b600381015460ff161561147a5760405162461bcd60e51b815260206004820152601960248201527f4d697373696f6e20616c726561647920636f6d706c6574656400000000000000604482015260640161067d565b6000600360008681526020019081526020016000206040518060e0016040529081600082015481526020016001820180546114b490612215565b80601f01602080910402602001604051908101604052809291908181526020018280546114e090612215565b801561152d5780601f106115025761010080835404028352916020019161152d565b820191906000526020600020905b81548152906001019060200180831161151057829003601f168201915b5050505050815260200160028201805461154690612215565b80601f016020809104026020016040519081016040528092919081815260200182805461157290612215565b80156115bf5780601f10611594576101008083540402835291602001916115bf565b820191906000526020600020905b8154815290600101906020018083116115a257829003601f168201915b505050918352505060038201546020820152600482015460408201526005820154606082015260069091015460ff16151560809091015260a0810151600284015491925061160c916122d8565b42111561164d5760405162461bcd60e51b815260206004820152600f60248201526e135a5cdcda5bdb88195e1c1a5c9959608a1b604482015260640161067d565b60018201849055606484106116bd5760038201805460ff1916600117905561167486611a75565b84866001600160a01b03167f96f232b61617e82a8e33833597b761922d7358345c29845d85795e1fbb54270383606001516040516116b491815260200190565b60405180910390a35b505050505050565b6002600154036116e857604051633ee5aeb560e01b815260040160405180910390fd5b6002600155565b6001600160a01b0381166000908152600660209081526040808320546005909252822054909190611723906103e8906122c4565b905081811115611783576001600160a01b03831660008181526006602052604090819020839055517f91e51c29e7e87a74ad3b8ccba98538970f50a4309242735467f41e27c6b0fbac9061177a9084815260200190565b60405180910390a25b505050565b6001600160a01b038116600090815260056020526040812054905b600a5481101561185557826001600160a01b0316600a82815481106117ca576117ca61245c565b60009182526020909120600390910201546001600160a01b0316036118435781600a82815481106117fd576117fd61245c565b90600052602060002090600302016001018190555042600a82815481106118265761182661245c565b906000526020600020906003020160020181905550611783611be4565b8061184d81612308565b9150506117a3565b50600a546064111561192957604080516060810182526001600160a01b0384811682526020820184815242938301938452600a805460018101825560009190915292517fc65a7bb8d6351c1cf70c95a316cc6a92839c986682d98bc35f958f4883f9d2a8600390940293840180546001600160a01b0319169190931617909155517fc65a7bb8d6351c1cf70c95a316cc6a92839c986682d98bc35f958f4883f9d2a982015590517fc65a7bb8d6351c1cf70c95a316cc6a92839c986682d98bc35f958f4883f9d2aa90910155610e01611be4565b600a805461193990600190612449565b815481106119495761194961245c565b906000526020600020906003020160010154811115610e01576040518060600160405280836001600160a01b0316815260200182815260200142815250600a6001600a8054905061199a9190612449565b815481106119aa576119aa61245c565b600091825260209182902083516003929092020180546001600160a01b0319166001600160a01b03909216919091178155908201516001820155604090910151600290910155610e01611be4565b6000546001600160a01b03163314610c535760405163118cdaa760e01b815233600482015260240161067d565b600080546001600160a01b038381166001600160a01b0319831681178455604051919092169283917f8be0079c531659141344cd1fd0a4f28419497f9722a3daafe3b4186f6b6457e09190a35050565b6001600160a01b03811660009081526008602052604081205490611a998242612449565b9050620151808111611ad3576001600160a01b0383166000908152600760205260408120805491611ac983612308565b9190505550611afb565b6202a300811115611afb576001600160a01b0383166000908152600760205260409020600190555b6001600160a01b038316600090815260086020908152604080832042905560079182905290912054611b2d9190612472565b600003611783576001600160a01b038316600090815260076020526040812054611b5990603290612291565b6001600160a01b038516600090815260056020526040812080549293508392909190611b869084906122d8565b90915550506001600160a01b0384166000818152600760209081526040918290205482519081529081018490527f1f7ced502914e916794069209edc9bb5a0a25fe3cd8c8dfbcd6039d7eee4f25f910160405180910390a250505050565b60005b600a54611bf690600190612449565b811015610bbc5760005b600a54600190611c11908490612449565b611c1b9190612449565b811015611dd257600a611c2f8260016122d8565b81548110611c3f57611c3f61245c565b906000526020600020906003020160010154600a8281548110611c6457611c6461245c565b9060005260206000209060030201600101541015611dc0576000600a8281548110611c9157611c9161245c565b600091825260209182902060408051606081018252600390930290910180546001600160a01b031683526001808201549484019490945260020154908201529150600a90611ce09084906122d8565b81548110611cf057611cf061245c565b9060005260206000209060030201600a8381548110611d1157611d1161245c565b60009182526020909120825460039092020180546001600160a01b0319166001600160a01b039092169190911781556001808301548183015560029283015492909101919091558190600a90611d689085906122d8565b81548110611d7857611d7861245c565b600091825260209182902083516003929092020180546001600160a01b0319166001600160a01b03909216919091178155908201516001820155604090910151600290910155505b80611dca81612308565b915050611c00565b5080611ddd81612308565b915050611be7565b80356001600160a01b0381168114611dfc57600080fd5b919050565b600060208284031215611e1357600080fd5b611e1c82611de5565b9392505050565b600060208284031215611e3557600080fd5b5035919050565b6000815180845260005b81811015611e6257602081850181015186830182015201611e46565b506000602082860101526020601f19601f83011685010191505092915050565b87815260e060208201526000611e9b60e0830189611e3c565b8281036040840152611ead8189611e3c565b9150508560608301528460808301528360a083015282151560c083015298975050505050505050565b602080825282518282018190526000919060409081850190868401855b82811015611f2b57815180516001600160a01b0316855286810151878601528501518585015260609093019290850190600101611ef3565b5091979650505050505050565b60008060408385031215611f4b57600080fd5b611f5483611de5565b946020939093013593505050565b634e487b7160e01b600052604160045260246000fd5b600082601f830112611f8957600080fd5b813567ffffffffffffffff80821115611fa457611fa4611f62565b604051601f8301601f19908116603f01168101908282118183101715611fcc57611fcc611f62565b81604052838152866020858801011115611fe557600080fd5b836020870160208301376000602085830101528094505050505092915050565b600080600080600060a0868803121561201d57600080fd5b853567ffffffffffffffff8082111561203557600080fd5b61204189838a01611f78565b9650602088013591508082111561205757600080fd5b5061206488828901611f78565b959895975050505060408401359360608101359360809091013592509050565b602080825282518282018190526000919060409081850190868401855b82811015611f2b578151805185528681015187860152858101518686015260608082015115159086015260809081015115159085015260a090930192908501906001016120a1565b60006020808301818452808551808352604092508286019150828160051b87010184880160005b8381101561219657603f19898403018552815160e08151855288820151818a87015261213e82870182611e3c565b91505087820151858203898701526121568282611e3c565b606084810151908801526080808501519088015260a0808501519088015260c0938401511515939096019290925250509386019390860190600101612110565b509098975050505050505050565b8015158114610bbc57600080fd5b600080604083850312156121c557600080fd5b8235915060208301356121d7816121a4565b809150509250929050565b6000806000606084860312156121f757600080fd5b61220084611de5565b95602085013595506040909401359392505050565b600181811c9082168061222957607f821691505b60208210810361224957634e487b7160e01b600052602260045260246000fd5b50919050565b602080825260129082015271125b9d985b1a59081b5a5cdcda5bdb88125160721b604082015260600190565b634e487b7160e01b600052601160045260246000fd5b80820281158282048414176122a8576122a861227b565b92915050565b634e487b7160e01b600052601260045260246000fd5b6000826122d3576122d36122ae565b500490565b808201808211156122a8576122a861227b565b6000602082840312156122fd57600080fd5b8151611e1c816121a4565b60006001820161231a5761231a61227b565b5060010190565b601f82111561178357600081815260208120601f850160051c810160208610156123485750805b601f850160051c820191505b818110156116bd57828155600101612354565b815167ffffffffffffffff81111561238157612381611f62565b6123958161238f8454612215565b84612321565b602080601f8311600181146123ca57600084156123b25750858301515b600019600386901b1c1916600185901b1785556116bd565b600085815260208120601f198616915b828110156123f9578886015182559484019460019091019084016123da565b50858210156124175787850151600019600388901b60f8161c191681555b5050505050600190811b01905550565b60408152600061243a6040830185611e3c565b90508260208301529392505050565b818103818111156122a8576122a861227b565b634e487b7160e01b600052603260045260246000fd5b600082612481576124816122ae565b50069056fea264697066735822122091085dd886e3bf844f5c5b9293bb36b8320372eba83cf189417720e39931b01964736f6c634300081400335368617265206120737472617465677920776974682035204c494e4520667269656e6473",
  "linkReferences": {},
  "deployedLinkReferences": {}
}