{
  "_format": "hh-sol-artifact-1",
  "contractName": "HighYieldProStrategy",
  "sourceName": "contracts/strategies/HighYieldProStrategy.sol",
  "abi": [
    {
      "inputs": [
        {
          "internalType": "address",
          "name": "_usdt",
          "type": "address"
        },
        {
          "internalType": "address",
          "name": "_yieldOptimizer",
          "type": "address"
        }
      ],
      "stateMutability": "nonpayable",
      "type": "constructor"
    },
    {
      "inputs": [
        {
          "internalType": "address",
          "name": "owner",
          "type": "address"
        }
      ],
      "name": "OwnableInvalidOwner",
      "type": "error"
    },
    {
      "inputs": [
        {
          "internalType": "address",
          "name": "account",
          "type": "address"
        }
      ],
      "name": "OwnableUnauthorizedAccount",
      "type": "error"
    },
    {
      "inputs": [],
      "name": "ReentrancyGuardReentrantCall",
      "type": "error"
    },
    {
      "anonymous": false,
      "inputs": [
        {
          "indexed": true,
          "internalType": "address",
          "name": "user",
          "type": "address"
        },
        {
          "indexed": false,
          "internalType": "uint256",
          "name": "amount",
          "type": "uint256"
        },
        {
          "indexed": false,
          "internalType": "uint256",
          "name": "shares",
          "type": "uint256"
        }
      ],
      "name": "Deposited",
      "type": "event"
    },
    {
      "anonymous": false,
      "inputs": [
        {
          "indexed": true,
          "internalType": "address",
          "name": "previousOwner",
          "type": "address"
        },
        {
          "indexed": true,
          "internalType": "address",
          "name": "newOwner",
          "type": "address"
        }
      ],
      "name": "OwnershipTransferred",
      "type": "event"
    },
    {
      "anonymous": false,
      "inputs": [
        {
          "indexed": false,
          "internalType": "uint256",
          "name": "totalRewards",
          "type": "uint256"
        }
      ],
      "name": "RewardsDistributed",
      "type": "event"
    },
    {
      "anonymous": false,
      "inputs": [
        {
          "indexed": false,
          "internalType": "bool",
          "name": "isLoss",
          "type": "bool"
        },
        {
          "indexed": false,
          "internalType": "uint256",
          "name": "amount",
          "type": "uint256"
        },
        {
          "indexed": false,
          "internalType": "uint256",
          "name": "affectedUsers",
          "type": "uint256"
        }
      ],
      "name": "RiskEvent",
      "type": "event"
    },
    {
      "anonymous": false,
      "inputs": [
        {
          "indexed": true,
          "internalType": "address",
          "name": "user",
          "type": "address"
        },
        {
          "indexed": false,
          "internalType": "uint256",
          "name": "riskScore",
          "type": "uint256"
        }
      ],
      "name": "UserQualified",
      "type": "event"
    },
    {
      "anonymous": false,
      "inputs": [
        {
          "indexed": true,
          "internalType": "address",
          "name": "user",
          "type": "address"
        },
        {
          "indexed": false,
          "internalType": "uint256",
          "name": "amount",
          "type": "uint256"
        },
        {
          "indexed": false,
          "internalType": "uint256",
          "name": "shares",
          "type": "uint256"
        }
      ],
      "name": "Withdrawn",
      "type": "event"
    },
    {
      "inputs": [],
      "name": "BASE_APY",
      "outputs": [
        {
          "internalType": "uint256",
          "name": "",
          "type": "uint256"
        }
      ],
      "stateMutability": "view",
      "type": "function"
    },
    {
      "inputs": [],
      "name": "LOSS_PROBABILITY",
      "outputs": [
        {
          "internalType": "uint256",
          "name": "",
          "type": "uint256"
        }
      ],
      "stateMutability": "view",
      "type": "function"
    },
    {
      "inputs": [],
      "name": "MAX_CAPACITY",
      "outputs": [
        {
          "internalType": "uint256",
          "name": "",
          "type": "uint256"
        }
      ],
      "stateMutability": "view",
      "type": "function"
    },
    {
      "inputs": [],
      "name": "MAX_LOSS_PERCENTAGE",
      "outputs": [
        {
          "internalType": "uint256",
          "name": "",
          "type": "uint256"
        }
      ],
      "stateMutability": "view",
      "type": "function"
    },
    {
      "inputs": [],
      "name": "USDT",
      "outputs": [
        {
          "internalType": "contract IERC20",
          "name": "",
          "type": "address"
        }
      ],
      "stateMutability": "view",
      "type": "function"
    },
    {
      "inputs": [
        {
          "internalType": "uint256",
          "name": "amount",
          "type": "uint256"
        }
      ],
      "name": "addLossBuffer",
      "outputs": [],
      "stateMutability": "nonpayable",
      "type": "function"
    },
    {
      "inputs": [
        {
          "internalType": "uint256",
          "name": "amount",
          "type": "uint256"
        },
        {
          "internalType": "uint256",
          "name": "timeElapsed",
          "type": "uint256"
        }
      ],
      "name": "calculateRewards",
      "outputs": [
        {
          "internalType": "uint256",
          "name": "",
          "type": "uint256"
        }
      ],
      "stateMutability": "view",
      "type": "function"
    },
    {
      "inputs": [
        {
          "internalType": "uint256",
          "name": "amount",
          "type": "uint256"
        }
      ],
      "name": "deposit",
      "outputs": [
        {
          "internalType": "uint256",
          "name": "",
          "type": "uint256"
        }
      ],
      "stateMutability": "nonpayable",
      "type": "function"
    },
    {
      "inputs": [
        {
          "internalType": "address",
          "name": "",
          "type": "address"
        }
      ],
      "name": "experiencedUser",
      "outputs": [
        {
          "internalType": "bool",
          "name": "",
          "type": "bool"
        }
      ],
      "stateMutability": "view",
      "type": "function"
    },
    {
      "inputs": [],
      "name": "getBalance",
      "outputs": [
        {
          "internalType": "uint256",
          "name": "",
          "type": "uint256"
        }
      ],
      "stateMutability": "view",
      "type": "function"
    },
    {
      "inputs": [],
      "name": "getCurrentAPY",
      "outputs": [
        {
          "internalType": "uint256",
          "name": "",
          "type": "uint256"
        }
      ],
      "stateMutability": "view",
      "type": "function"
    },
    {
      "inputs": [],
      "name": "getStrategyMetrics",
      "outputs": [
        {
          "internalType": "uint256",
          "name": "apy",
          "type": "uint256"
        },
        {
          "internalType": "uint256",
          "name": "multiplier",
          "type": "uint256"
        },
        {
          "internalType": "uint256",
          "name": "profits",
          "type": "uint256"
        },
        {
          "internalType": "uint256",
          "name": "losses",
          "type": "uint256"
        },
        {
          "internalType": "uint256",
          "name": "buffer",
          "type": "uint256"
        },
        {
          "internalType": "uint256",
          "name": "riskLevel",
          "type": "uint256"
        }
      ],
      "stateMutability": "view",
      "type": "function"
    },
    {
      "inputs": [
        {
          "internalType": "address",
          "name": "user",
          "type": "address"
        }
      ],
      "name": "getUserBalance",
      "outputs": [
        {
          "internalType": "uint256",
          "name": "",
          "type": "uint256"
        }
      ],
      "stateMutability": "view",
      "type": "function"
    },
    {
      "inputs": [
        {
          "internalType": "address",
          "name": "user",
          "type": "address"
        }
      ],
      "name": "isUserQualified",
      "outputs": [
        {
          "internalType": "bool",
          "name": "",
          "type": "bool"
        }
      ],
      "stateMutability": "view",
      "type": "function"
    },
    {
      "inputs": [],
      "name": "lastUpdateTime",
      "outputs": [
        {
          "internalType": "uint256",
          "name": "",
          "type": "uint256"
        }
      ],
      "stateMutability": "view",
      "type": "function"
    },
    {
      "inputs": [],
      "name": "lossBuffer",
      "outputs": [
        {
          "internalType": "uint256",
          "name": "",
          "type": "uint256"
        }
      ],
      "stateMutability": "view",
      "type": "function"
    },
    {
      "inputs": [],
      "name": "owner",
      "outputs": [
        {
          "internalType": "address",
          "name": "",
          "type": "address"
        }
      ],
      "stateMutability": "view",
      "type": "function"
    },
    {
      "inputs": [],
      "name": "performanceMultiplier",
      "outputs": [
        {
          "internalType": "uint256",
          "name": "",
          "type": "uint256"
        }
      ],
      "stateMutability": "view",
      "type": "function"
    },
    {
      "inputs": [
        {
          "internalType": "address",
          "name": "user",
          "type": "address"
        },
        {
          "internalType": "uint256",
          "name": "riskScore",
          "type": "uint256"
        }
      ],
      "name": "qualifyUser",
      "outputs": [],
      "stateMutability": "nonpayable",
      "type": "function"
    },
    {
      "inputs": [],
      "name": "renounceOwnership",
      "outputs": [],
      "stateMutability": "nonpayable",
      "type": "function"
    },
    {
      "inputs": [],
      "name": "totalDeposited",
      "outputs": [
        {
          "internalType": "uint256",
          "name": "",
          "type": "uint256"
        }
      ],
      "stateMutability": "view",
      "type": "function"
    },
    {
      "inputs": [],
      "name": "totalLosses",
      "outputs": [
        {
          "internalType": "uint256",
          "name": "",
          "type": "uint256"
        }
      ],
      "stateMutability": "view",
      "type": "function"
    },
    {
      "inputs": [],
      "name": "totalProfits",
      "outputs": [
        {
          "internalType": "uint256",
          "name": "",
          "type": "uint256"
        }
      ],
      "stateMutability": "view",
      "type": "function"
    },
    {
      "inputs": [],
      "name": "totalShares",
      "outputs": [
        {
          "internalType": "uint256",
          "name": "",
          "type": "uint256"
        }
      ],
      "stateMutability": "view",
      "type": "function"
    },
    {
      "inputs": [],
      "name": "totalWithdrawn",
      "outputs": [
        {
          "internalType": "uint256",
          "name": "",
          "type": "uint256"
        }
      ],
      "stateMutability": "view",
      "type": "function"
    },
    {
      "inputs": [
        {
          "internalType": "address",
          "name": "newOwner",
          "type": "address"
        }
      ],
      "name": "transferOwnership",
      "outputs": [],
      "stateMutability": "nonpayable",
      "type": "function"
    },
    {
      "inputs": [
        {
          "internalType": "address",
          "name": "",
          "type": "address"
        }
      ],
      "name": "userDepositTime",
      "outputs": [
        {
          "internalType": "uint256",
          "name": "",
          "type": "uint256"
        }
      ],
      "stateMutability": "view",
      "type": "function"
    },
    {
      "inputs": [
        {
          "internalType": "address",
          "name": "",
          "type": "address"
        }
      ],
      "name": "userRiskScore",
      "outputs": [
        {
          "internalType": "uint256",
          "name": "",
          "type": "uint256"
        }
      ],
      "stateMutability": "view",
      "type": "function"
    },
    {
      "inputs": [
        {
          "internalType": "address",
          "name": "",
          "type": "address"
        }
      ],
      "name": "userShares",
      "outputs": [
        {
          "internalType": "uint256",
          "name": "",
          "type": "uint256"
        }
      ],
      "stateMutability": "view",
      "type": "function"
    },
    {
      "inputs": [
        {
          "internalType": "uint256",
          "name": "amount",
          "type": "uint256"
        }
      ],
      "name": "withdraw",
      "outputs": [
        {
          "internalType": "uint256",
          "name": "",
          "type": "uint256"
        }
      ],
      "stateMutability": "nonpayable",
      "type": "function"
    },
    {
      "inputs": [],
      "name": "yieldOptimizer",
      "outputs": [
        {
          "internalType": "address",
          "name": "",
          "type": "address"
        }
      ],
      "stateMutability": "view",
      "type": "function"
    }
  ],
  "bytecode": "0x60c06040526127106008553480156200001757600080fd5b5060405162001734380380620017348339810160408190526200003a91620000fe565b818133806200006357604051631e4fbdf760e01b81526000600482015260240160405180910390fd5b6200006e8162000091565b50600180556001600160a01b039182166080521660a05250504260045562000136565b600080546001600160a01b038381166001600160a01b0319831681178455604051919092169283917f8be0079c531659141344cd1fd0a4f28419497f9722a3daafe3b4186f6b6457e09190a35050565b80516001600160a01b0381168114620000f957600080fd5b919050565b600080604083850312156200011257600080fd5b6200011d83620000e1565b91506200012d60208401620000e1565b90509250929050565b60805160a0516115a0620001946000396000818161030d015281816105b4015281816107d301528181610b510152610c940152600081816103d6015281816104870152818161052f015281816108020152610cc901526115a06000f3fe608060405234801561001057600080fd5b50600436106101e55760003560e01c8063715018a61161010f578063bd998cb3116100a2578063cf27e06f11610071578063cf27e06f14610401578063de69b3aa14610421578063f2fde38b14610441578063ff50abdc1461045457600080fd5b8063bd998cb3146103bf578063bf04820b146103c8578063c54e44eb146103d1578063c8f33c91146103f857600080fd5b8063962ca496116100de578063962ca49614610378578063a485b78614610380578063b3bf4c4514610389578063b6b55f25146103ac57600080fd5b8063715018a6146103005780637b4cab3d146103085780637fb4fb1b146103475780638da5cb5b1461036757600080fd5b80633a98ef39116101875780634ca19fd6116101565780634ca19fd6146102c257806351a6f7c4146102cb57806358acc2cd146102ee5780636b558266146102f757600080fd5b80633a98ef391461028a578063477348921461029357806348a88706146102a65780634b319713146102b957600080fd5b80632ede5ad6116101c35780632ede5ad61461022d57806331a588091461026257806339fa187c146102755780633a5ddf301461027e57600080fd5b80630ef0e05b146101ea57806312065fe0146101ff5780632e1a7d4d1461021a575b600080fd5b6101fd6101f8366004611407565b61045d565b005b610207610517565b6040519081526020015b60405180910390f35b610207610228366004611407565b6105a7565b6102356108bd565b604080519687526020870195909552938501929092526060840152608083015260a082015260c001610211565b6101fd610270366004611437565b6108ee565b61020760095481565b610207642e90edd00081565b61020760075481565b6102076102a1366004611461565b6109b8565b6102076102b436600461147c565b610a6c565b61020760035481565b6102076109c481565b6102de6102d9366004611461565b610aa8565b6040519015158152602001610211565b6102076103e881565b6102076101f481565b6101fd610aeb565b61032f7f000000000000000000000000000000000000000000000000000000000000000081565b6040516001600160a01b039091168152602001610211565b610207610355366004611461565b600c6020526000908152604090205481565b6000546001600160a01b031661032f565b610207610aff565b61020760085481565b6102de610397366004611461565b600d6020526000908152604090205460ff1681565b6102076103ba366004611407565b610b44565b610207600a5481565b610207600b5481565b61032f7f000000000000000000000000000000000000000000000000000000000000000081565b61020760045481565b61020761040f366004611461565b60066020526000908152604090205481565b61020761042f366004611461565b60056020526000908152604090205481565b6101fd61044f366004611461565b610e05565b61020760025481565b610465610e43565b6040516323b872dd60e01b8152336004820152306024820152604481018290527f00000000000000000000000000000000000000000000000000000000000000006001600160a01b0316906323b872dd906064016020604051808303816000875af11580156104d8573d6000803e3d6000fd5b505050506040513d601f19601f820116820180604052508101906104fc919061149e565b50806009600082825461050f91906114d6565b909155505050565b6040516370a0823160e01b81523060048201526000907f00000000000000000000000000000000000000000000000000000000000000006001600160a01b0316906370a0823190602401602060405180830381865afa15801561057e573d6000803e3d6000fd5b505050506040513d601f19601f820116820180604052508101906105a291906114e9565b905090565b6000336001600160a01b037f000000000000000000000000000000000000000000000000000000000000000016146106265760405162461bcd60e51b815260206004820152601c60248201527f4f6e6c79205969656c644f7074696d697a65722063616e2063616c6c0000000060448201526064015b60405180910390fd5b61062e610e70565b6000821161067e5760405162461bcd60e51b815260206004820152601d60248201527f416d6f756e74206d7573742062652067726561746572207468616e2030000000604482015260640161061d565b326000908152600560205260409020546106d25760405162461bcd60e51b81526020600482015260156024820152744e6f2073686172657320746f20776974686472617760581b604482015260640161061d565b60006106dd326109b8565b9050808311156107265760405162461bcd60e51b8152602060048201526014602482015273496e73756666696369656e742062616c616e636560601b604482015260640161061d565b3260009081526005602052604081205482906107429086611502565b61074c919061152f565b32600090815260056020526040812080549293508392909190610770908490611543565b9250508190555080600760008282546107899190611543565b909155506000905061079a85610e9a565b905080600360008282546107ae91906114d6565b909155506107bc9050610f77565b60405163a9059cbb60e01b81526001600160a01b037f000000000000000000000000000000000000000000000000000000000000000081166004830152602482018390527f0000000000000000000000000000000000000000000000000000000000000000169063a9059cbb906044016020604051808303816000875af115801561084b573d6000803e3d6000fd5b505050506040513d601f19601f8201168201806040525081019061086f919061149e565b50604080518281526020810184905232917f92ccf450a286a957af52509bc1c9939d1a6a481783e142e41e2499f0bb66ebc6910160405180910390a2925050506108b860018055565b919050565b6000806000806000806108ce610aff565b60088054600a54600b54600954949b929a50909850965091945092509050565b6108f6610e43565b60078110156109535760405162461bcd60e51b8152602060048201526024808201527f5269736b2073636f726520746f6f206c6f7720666f72207468697320737472616044820152637465677960e01b606482015260840161061d565b6001600160a01b0382166000818152600c60209081526040808320859055600d825291829020805460ff1916600117905590518381527fdfcf6c980ae9c32c3e4bc33303e744e8d29854944f383bf3cdf2ac93ed443373910160405180910390a25050565b60006007546000036109cc57506000919050565b6000306001600160a01b03166312065fe06040518163ffffffff1660e01b8152600401602060405180830381865afa158015610a0c573d6000803e3d6000fd5b505050506040513d601f19601f82011682018060405250810190610a3091906114e9565b6007546001600160a01b03851660009081526005602052604090205491925090610a5b908390611502565b610a65919061152f565b9392505050565b600080610a77610aff565b905064496cebb80083610a8a8387611502565b610a949190611502565b610a9e919061152f565b9150505b92915050565b6001600160a01b0381166000908152600d602052604081205460ff168015610aa25750506001600160a01b03166000908152600c60205260409020546007111590565b610af3610e43565b610afd60006111bb565b565b6000806109c49050600061271060085483610b1a9190611502565b610b24919061152f565b90506000610b3061120b565b9050610b3c81836114d6565b935050505090565b6000336001600160a01b037f00000000000000000000000000000000000000000000000000000000000000001614610bbe5760405162461bcd60e51b815260206004820152601c60248201527f4f6e6c79205969656c644f7074696d697a65722063616e2063616c6c00000000604482015260640161061d565b610bc6610e70565b610bcf32610aa8565b610c2d5760405162461bcd60e51b815260206004820152602960248201527f55736572206e6f74207175616c696669656420666f7220686967682d7269736b60448201526820737472617465677960b81b606482015260840161061d565b60008211610c7d5760405162461bcd60e51b815260206004820152601d60248201527f416d6f756e74206d7573742062652067726561746572207468616e2030000000604482015260640161061d565b6040516323b872dd60e01b81526001600160a01b037f000000000000000000000000000000000000000000000000000000000000000081166004830152306024830152604482018490527f000000000000000000000000000000000000000000000000000000000000000016906323b872dd906064016020604051808303816000875af1158015610d12573d6000803e3d6000fd5b505050506040513d601f19601f82011682018060405250810190610d36919061149e565b506000610d4283611295565b32600090815260056020526040812080549293508392909190610d669084906114d6565b909155505032600090815260066020526040812042905560078054839290610d8f9084906114d6565b925050819055508260026000828254610da891906114d6565b90915550610db790508361131e565b610dbf610f77565b604080518481526020810183905232917f73a19dd210f1a7f902193214c0ee91dd35ee5b4d920cba8d519eca65a7b488ca910160405180910390a290506108b860018055565b610e0d610e43565b6001600160a01b038116610e3757604051631e4fbdf760e01b81526000600482015260240161061d565b610e40816111bb565b50565b6000546001600160a01b03163314610afd5760405163118cdaa760e01b815233600482015260240161061d565b600260015403610e9357604051633ee5aeb560e01b815260040160405180910390fd5b6002600155565b6000610ea4611322565b32600090815260066020526040812054610ebe9042611543565b604051632454438360e11b8152600481018590526024810182905290915060009030906348a8870690604401602060405180830381865afa158015610f07573d6000803e3d6000fd5b505050506040513d601f19601f82011682018060405250810190610f2b91906114e9565b90506000610f398286611394565b90506000612710610f4a8388611502565b610f54919061152f565b9050808611610f635785610f6d565b610f6d8187611543565b9695505050505050565b6000612710424460025433604051602001610fbe949392919093845260208401929092526040830152606090811b6bffffffffffffffffffffffff19169082015260740190565b6040516020818303038152906040528051906020012060001c610fe19190611556565b90506103e881108015610ff657506000600254115b156110fa5760006127106101f46002546110109190611502565b61101a919061152f565b905080600954106110425780600960008282546110379190611543565b9091555061109b9050565b6000600954826110529190611543565b9050600060098190555080600b600082825461106e91906114d6565b90915550506008546103e81061108657611388611096565b6103e86008546110969190611543565b600855505b7f5a5ab2839b49637281301b13d6d1c9b46ae499b1c3c43c18af98c6c040b0cdf46001826000600754116110d05760006110d3565b60015b604080519315158452602084019290925260ff169082015260600160405180910390a15050565b612134811115610e4057600061271060025461012c6111199190611502565b611123919061152f565b905080600a600082825461113791906114d6565b90915550611148905060028261152f565b6009600082825461115991906114d6565b9091555050600854613a981161117157613a98611180565b600854611180906101f46114d6565b6008819055507f5a5ab2839b49637281301b13d6d1c9b46ae499b1c3c43c18af98c6c040b0cdf46000826000600754116110d05760006110d3565b600080546001600160a01b038381166001600160a01b0319831681178455604051919092169283917f8be0079c531659141344cd1fd0a4f28419497f9722a3daafe3b4186f6b6457e09190a35050565b600060025460000361121d5750600090565b6000600254600b546127106112329190611502565b61123c919061152f565b90506000600254600a546127106112539190611502565b61125d919061152f565b905061126a826002611502565b81111561127b5761012c9250505090565b8082111561128c5760009250505090565b60969250505090565b60006007546000036112a5575090565b306001600160a01b03166312065fe06040518163ffffffff1660e01b8152600401602060405180830381865afa1580156112e3573d6000803e3d6000fd5b505050506040513d601f19601f8201168201806040525081019061130791906114e9565b6007546113149084611502565b610aa2919061152f565b610e405b6000600454426113329190611543565b9050620151808110610e405761271060085411156113685760646008600082825461135d9190611543565b9091555061138d9050565b612710600854101561138d5760646008600082825461138791906114d6565b90915550505b4260045550565b6000826000036113a657506000610aa2565b6000826113b585612710611502565b6113bf919061152f565b90506107d08111156113d55760c8915050610aa2565b6103e88111156113e9576096915050610aa2565b6101f48111156113fd576064915050610aa2565b5060329392505050565b60006020828403121561141957600080fd5b5035919050565b80356001600160a01b03811681146108b857600080fd5b6000806040838503121561144a57600080fd5b61145383611420565b946020939093013593505050565b60006020828403121561147357600080fd5b610a6582611420565b6000806040838503121561148f57600080fd5b50508035926020909101359150565b6000602082840312156114b057600080fd5b81518015158114610a6557600080fd5b634e487b7160e01b600052601160045260246000fd5b80820180821115610aa257610aa26114c0565b6000602082840312156114fb57600080fd5b5051919050565b8082028115828204841417610aa257610aa26114c0565b634e487b7160e01b600052601260045260246000fd5b60008261153e5761153e611519565b500490565b81810381811115610aa257610aa26114c0565b60008261156557611565611519565b50069056fea2646970667358221220d712a14c89b098b6f743ba14ac92a8bb9f06eb23dd6403d078fc8c3ab5b0ccfc64736f6c63430008140033",
  "linkReferences": {},
  "deployedLinkReferences": {}
}