{
  "_format": "hh-sol-artifact-1",
  "contractName": "HighYieldProStrategy",
  "sourceName": "contracts/strategies/HighYieldProStrategy.sol",
  "abi": [
    {
      "inputs": [
        {
          "internalType": "address",
          "name": "_usdt",
          "type": "address"
        },
        {
          "internalType": "address",
          "name": "_yieldOptimizer",
          "type": "address"
        }
      ],
      "stateMutability": "nonpayable",
      "type": "constructor"
    },
    {
      "inputs": [
        {
          "internalType": "address",
          "name": "owner",
          "type": "address"
        }
      ],
      "name": "OwnableInvalidOwner",
      "type": "error"
    },
    {
      "inputs": [
        {
          "internalType": "address",
          "name": "account",
          "type": "address"
        }
      ],
      "name": "OwnableUnauthorizedAccount",
      "type": "error"
    },
    {
      "inputs": [],
      "name": "ReentrancyGuardReentrantCall",
      "type": "error"
    },
    {
      "anonymous": false,
      "inputs": [
        {
          "indexed": true,
          "internalType": "address",
          "name": "user",
          "type": "address"
        },
        {
          "indexed": false,
          "internalType": "uint256",
          "name": "amount",
          "type": "uint256"
        },
        {
          "indexed": false,
          "internalType": "uint256",
          "name": "shares",
          "type": "uint256"
        }
      ],
      "name": "Deposited",
      "type": "event"
    },
    {
      "anonymous": false,
      "inputs": [
        {
          "indexed": true,
          "internalType": "address",
          "name": "previousOwner",
          "type": "address"
        },
        {
          "indexed": true,
          "internalType": "address",
          "name": "newOwner",
          "type": "address"
        }
      ],
      "name": "OwnershipTransferred",
      "type": "event"
    },
    {
      "anonymous": false,
      "inputs": [
        {
          "indexed": false,
          "internalType": "uint256",
          "name": "totalRewards",
          "type": "uint256"
        }
      ],
      "name": "RewardsDistributed",
      "type": "event"
    },
    {
      "anonymous": false,
      "inputs": [
        {
          "indexed": false,
          "internalType": "bool",
          "name": "isLoss",
          "type": "bool"
        },
        {
          "indexed": false,
          "internalType": "uint256",
          "name": "amount",
          "type": "uint256"
        },
        {
          "indexed": false,
          "internalType": "uint256",
          "name": "affectedUsers",
          "type": "uint256"
        }
      ],
      "name": "RiskEvent",
      "type": "event"
    },
    {
      "anonymous": false,
      "inputs": [
        {
          "indexed": true,
          "internalType": "address",
          "name": "user",
          "type": "address"
        },
        {
          "indexed": false,
          "internalType": "uint256",
          "name": "riskScore",
          "type": "uint256"
        }
      ],
      "name": "UserQualified",
      "type": "event"
    },
    {
      "anonymous": false,
      "inputs": [
        {
          "indexed": true,
          "internalType": "address",
          "name": "user",
          "type": "address"
        },
        {
          "indexed": false,
          "internalType": "uint256",
          "name": "amount",
          "type": "uint256"
        },
        {
          "indexed": false,
          "internalType": "uint256",
          "name": "shares",
          "type": "uint256"
        }
      ],
      "name": "Withdrawn",
      "type": "event"
    },
    {
      "inputs": [],
      "name": "BASE_APY",
      "outputs": [
        {
          "internalType": "uint256",
          "name": "",
          "type": "uint256"
        }
      ],
      "stateMutability": "view",
      "type": "function"
    },
    {
      "inputs": [],
      "name": "LOSS_PROBABILITY",
      "outputs": [
        {
          "internalType": "uint256",
          "name": "",
          "type": "uint256"
        }
      ],
      "stateMutability": "view",
      "type": "function"
    },
    {
      "inputs": [],
      "name": "MAX_CAPACITY",
      "outputs": [
        {
          "internalType": "uint256",
          "name": "",
          "type": "uint256"
        }
      ],
      "stateMutability": "view",
      "type": "function"
    },
    {
      "inputs": [],
      "name": "MAX_LOSS_PERCENTAGE",
      "outputs": [
        {
          "internalType": "uint256",
          "name": "",
          "type": "uint256"
        }
      ],
      "stateMutability": "view",
      "type": "function"
    },
    {
      "inputs": [],
      "name": "USDT",
      "outputs": [
        {
          "internalType": "contract IERC20",
          "name": "",
          "type": "address"
        }
      ],
      "stateMutability": "view",
      "type": "function"
    },
    {
      "inputs": [
        {
          "internalType": "uint256",
          "name": "amount",
          "type": "uint256"
        }
      ],
      "name": "addLossBuffer",
      "outputs": [],
      "stateMutability": "nonpayable",
      "type": "function"
    },
    {
      "inputs": [
        {
          "internalType": "uint256",
          "name": "amount",
          "type": "uint256"
        },
        {
          "internalType": "uint256",
          "name": "timeElapsed",
          "type": "uint256"
        }
      ],
      "name": "calculateRewards",
      "outputs": [
        {
          "internalType": "uint256",
          "name": "",
          "type": "uint256"
        }
      ],
      "stateMutability": "view",
      "type": "function"
    },
    {
      "inputs": [
        {
          "internalType": "uint256",
          "name": "amount",
          "type": "uint256"
        }
      ],
      "name": "deposit",
      "outputs": [
        {
          "internalType": "uint256",
          "name": "",
          "type": "uint256"
        }
      ],
      "stateMutability": "nonpayable",
      "type": "function"
    },
    {
      "inputs": [
        {
          "internalType": "address",
          "name": "",
          "type": "address"
        }
      ],
      "name": "experiencedUser",
      "outputs": [
        {
          "internalType": "bool",
          "name": "",
          "type": "bool"
        }
      ],
      "stateMutability": "view",
      "type": "function"
    },
    {
      "inputs": [],
      "name": "getBalance",
      "outputs": [
        {
          "internalType": "uint256",
          "name": "",
          "type": "uint256"
        }
      ],
      "stateMutability": "view",
      "type": "function"
    },
    {
      "inputs": [],
      "name": "getCurrentAPY",
      "outputs": [
        {
          "internalType": "uint256",
          "name": "",
          "type": "uint256"
        }
      ],
      "stateMutability": "view",
      "type": "function"
    },
    {
      "inputs": [],
      "name": "getStrategyMetrics",
      "outputs": [
        {
          "internalType": "uint256",
          "name": "apy",
          "type": "uint256"
        },
        {
          "internalType": "uint256",
          "name": "multiplier",
          "type": "uint256"
        },
        {
          "internalType": "uint256",
          "name": "profits",
          "type": "uint256"
        },
        {
          "internalType": "uint256",
          "name": "losses",
          "type": "uint256"
        },
        {
          "internalType": "uint256",
          "name": "buffer",
          "type": "uint256"
        },
        {
          "internalType": "uint256",
          "name": "riskLevel",
          "type": "uint256"
        }
      ],
      "stateMutability": "view",
      "type": "function"
    },
    {
      "inputs": [
        {
          "internalType": "address",
          "name": "user",
          "type": "address"
        }
      ],
      "name": "getUserBalance",
      "outputs": [
        {
          "internalType": "uint256",
          "name": "",
          "type": "uint256"
        }
      ],
      "stateMutability": "view",
      "type": "function"
    },
    {
      "inputs": [
        {
          "internalType": "address",
          "name": "user",
          "type": "address"
        }
      ],
      "name": "isUserQualified",
      "outputs": [
        {
          "internalType": "bool",
          "name": "",
          "type": "bool"
        }
      ],
      "stateMutability": "view",
      "type": "function"
    },
    {
      "inputs": [],
      "name": "lastUpdateTime",
      "outputs": [
        {
          "internalType": "uint256",
          "name": "",
          "type": "uint256"
        }
      ],
      "stateMutability": "view",
      "type": "function"
    },
    {
      "inputs": [],
      "name": "lossBuffer",
      "outputs": [
        {
          "internalType": "uint256",
          "name": "",
          "type": "uint256"
        }
      ],
      "stateMutability": "view",
      "type": "function"
    },
    {
      "inputs": [],
      "name": "owner",
      "outputs": [
        {
          "internalType": "address",
          "name": "",
          "type": "address"
        }
      ],
      "stateMutability": "view",
      "type": "function"
    },
    {
      "inputs": [],
      "name": "performanceMultiplier",
      "outputs": [
        {
          "internalType": "uint256",
          "name": "",
          "type": "uint256"
        }
      ],
      "stateMutability": "view",
      "type": "function"
    },
    {
      "inputs": [
        {
          "internalType": "address",
          "name": "user",
          "type": "address"
        },
        {
          "internalType": "uint256",
          "name": "riskScore",
          "type": "uint256"
        }
      ],
      "name": "qualifyUser",
      "outputs": [],
      "stateMutability": "nonpayable",
      "type": "function"
    },
    {
      "inputs": [],
      "name": "renounceOwnership",
      "outputs": [],
      "stateMutability": "nonpayable",
      "type": "function"
    },
    {
      "inputs": [],
      "name": "totalDeposited",
      "outputs": [
        {
          "internalType": "uint256",
          "name": "",
          "type": "uint256"
        }
      ],
      "stateMutability": "view",
      "type": "function"
    },
    {
      "inputs": [],
      "name": "totalLosses",
      "outputs": [
        {
          "internalType": "uint256",
          "name": "",
          "type": "uint256"
        }
      ],
      "stateMutability": "view",
      "type": "function"
    },
    {
      "inputs": [],
      "name": "totalProfits",
      "outputs": [
        {
          "internalType": "uint256",
          "name": "",
          "type": "uint256"
        }
      ],
      "stateMutability": "view",
      "type": "function"
    },
    {
      "inputs": [],
      "name": "totalShares",
      "outputs": [
        {
          "internalType": "uint256",
          "name": "",
          "type": "uint256"
        }
      ],
      "stateMutability": "view",
      "type": "function"
    },
    {
      "inputs": [],
      "name": "totalWithdrawn",
      "outputs": [
        {
          "internalType": "uint256",
          "name": "",
          "type": "uint256"
        }
      ],
      "stateMutability": "view",
      "type": "function"
    },
    {
      "inputs": [
        {
          "internalType": "address",
          "name": "newOwner",
          "type": "address"
        }
      ],
      "name": "transferOwnership",
      "outputs": [],
      "stateMutability": "nonpayable",
      "type": "function"
    },
    {
      "inputs": [
        {
          "internalType": "address",
          "name": "",
          "type": "address"
        }
      ],
      "name": "userDepositTime",
      "outputs": [
        {
          "internalType": "uint256",
          "name": "",
          "type": "uint256"
        }
      ],
      "stateMutability": "view",
      "type": "function"
    },
    {
      "inputs": [
        {
          "internalType": "address",
          "name": "",
          "type": "address"
        }
      ],
      "name": "userRiskScore",
      "outputs": [
        {
          "internalType": "uint256",
          "name": "",
          "type": "uint256"
        }
      ],
      "stateMutability": "view",
      "type": "function"
    },
    {
      "inputs": [
        {
          "internalType": "address",
          "name": "",
          "type": "address"
        }
      ],
      "name": "userShares",
      "outputs": [
        {
          "internalType": "uint256",
          "name": "",
          "type": "uint256"
        }
      ],
      "stateMutability": "view",
      "type": "function"
    },
    {
      "inputs": [
        {
          "internalType": "uint256",
          "name": "amount",
          "type": "uint256"
        }
      ],
      "name": "withdraw",
      "outputs": [
        {
          "internalType": "uint256",
          "name": "",
          "type": "uint256"
        }
      ],
      "stateMutability": "nonpayable",
      "type": "function"
    },
    {
      "inputs": [],
      "name": "yieldOptimizer",
      "outputs": [
        {
          "internalType": "address",
          "name": "",
          "type": "address"
        }
      ],
      "stateMutability": "view",
      "type": "function"
    }
  ],
  "bytecode": "0x60c06040526127106008553480156200001757600080fd5b50604051620017f7380380620017f78339810160408190526200003a91620000fe565b818133806200006357604051631e4fbdf760e01b81526000600482015260240160405180910390fd5b6200006e8162000091565b50600180556001600160a01b039182166080521660a05250504260045562000136565b600080546001600160a01b038381166001600160a01b0319831681178455604051919092169283917f8be0079c531659141344cd1fd0a4f28419497f9722a3daafe3b4186f6b6457e09190a35050565b80516001600160a01b0381168114620000f957600080fd5b919050565b600080604083850312156200011257600080fd5b6200011d83620000e1565b91506200012d60208401620000e1565b90509250929050565b60805160a051611663620001946000396000818161030d015281816105cd0152818161081601528181610bad0152610d040152600081816103d60152818161048701528181610548015281816108450152610d3901526116636000f3fe608060405234801561001057600080fd5b50600436106101e55760003560e01c8063715018a61161010f578063bd998cb3116100a2578063cf27e06f11610071578063cf27e06f14610401578063de69b3aa14610421578063f2fde38b14610441578063ff50abdc1461045457600080fd5b8063bd998cb3146103bf578063bf04820b146103c8578063c54e44eb146103d1578063c8f33c91146103f857600080fd5b8063962ca496116100de578063962ca49614610378578063a485b78614610380578063b3bf4c4514610389578063b6b55f25146103ac57600080fd5b8063715018a6146103005780637b4cab3d146103085780637fb4fb1b146103475780638da5cb5b1461036757600080fd5b80633a98ef39116101875780634ca19fd6116101565780634ca19fd6146102c257806351a6f7c4146102cb57806358acc2cd146102ee5780636b558266146102f757600080fd5b80633a98ef391461028a578063477348921461029357806348a88706146102a65780634b319713146102b957600080fd5b80632ede5ad6116101c35780632ede5ad61461022d57806331a588091461026257806339fa187c146102755780633a5ddf301461027e57600080fd5b80630ef0e05b146101ea57806312065fe0146101ff5780632e1a7d4d1461021a575b600080fd5b6101fd6101f83660046114f3565b61045d565b005b610207610517565b6040519081526020015b60405180910390f35b6102076102283660046114f3565b6105c0565b610235610900565b604080519687526020870195909552938501929092526060840152608083015260a082015260c001610211565b6101fd610270366004611523565b610931565b61020760095481565b610207642e90edd00081565b61020760075481565b6102076102a136600461154d565b610a14565b6102076102b4366004611568565b610ac8565b61020760035481565b6102076109c481565b6102de6102d936600461154d565b610b04565b6040519015158152602001610211565b6102076103e881565b6102076101f481565b6101fd610b47565b61032f7f000000000000000000000000000000000000000000000000000000000000000081565b6040516001600160a01b039091168152602001610211565b61020761035536600461154d565b600c6020526000908152604090205481565b6000546001600160a01b031661032f565b610207610b5b565b61020760085481565b6102de61039736600461154d565b600d6020526000908152604090205460ff1681565b6102076103ba3660046114f3565b610ba0565b610207600a5481565b610207600b5481565b61032f7f000000000000000000000000000000000000000000000000000000000000000081565b61020760045481565b61020761040f36600461154d565b60066020526000908152604090205481565b61020761042f36600461154d565b60056020526000908152604090205481565b6101fd61044f36600461154d565b610e75565b61020760025481565b610465610ecc565b6040516323b872dd60e01b8152336004820152306024820152604481018290527f00000000000000000000000000000000000000000000000000000000000000006001600160a01b0316906323b872dd906064016020604051808303816000875af11580156104d8573d6000803e3d6000fd5b505050506040513d601f19601f820116820180604052508101906104fc919061158a565b50806009600082825461050f91906115c2565b909155505050565b6040517f70a082310000000000000000000000000000000000000000000000000000000081523060048201526000907f00000000000000000000000000000000000000000000000000000000000000006001600160a01b0316906370a0823190602401602060405180830381865afa158015610597573d6000803e3d6000fd5b505050506040513d601f19601f820116820180604052508101906105bb91906115d5565b905090565b6000336001600160a01b037f0000000000000000000000000000000000000000000000000000000000000000161461063f5760405162461bcd60e51b815260206004820152601c60248201527f4f6e6c79205969656c644f7074696d697a65722063616e2063616c6c0000000060448201526064015b60405180910390fd5b610647610f12565b600082116106975760405162461bcd60e51b815260206004820152601d60248201527f416d6f756e74206d7573742062652067726561746572207468616e20300000006044820152606401610636565b326000908152600560205260409020546106f35760405162461bcd60e51b815260206004820152601560248201527f4e6f2073686172657320746f20776974686472617700000000000000000000006044820152606401610636565b60006106fe32610a14565b9050808311156107505760405162461bcd60e51b815260206004820152601460248201527f496e73756666696369656e742062616c616e63650000000000000000000000006044820152606401610636565b32600090815260056020526040812054829061076c90866115ee565b610776919061161b565b3260009081526005602052604081208054929350839290919061079a90849061162f565b9250508190555080600760008282546107b3919061162f565b90915550600090506107c485610f55565b905080600360008282546107d891906115c2565b909155506107e6905061104b565b6040517fa9059cbb0000000000000000000000000000000000000000000000000000000081526001600160a01b037f000000000000000000000000000000000000000000000000000000000000000081166004830152602482018390527f0000000000000000000000000000000000000000000000000000000000000000169063a9059cbb906044016020604051808303816000875af115801561088e573d6000803e3d6000fd5b505050506040513d601f19601f820116820180604052508101906108b2919061158a565b50604080518281526020810184905232917f92ccf450a286a957af52509bc1c9939d1a6a481783e142e41e2499f0bb66ebc6910160405180910390a2925050506108fb60018055565b919050565b600080600080600080610911610b5b565b60088054600a54600b54600954949b929a50909850965091945092509050565b610939610ecc565b60078110156109af5760405162461bcd60e51b8152602060048201526024808201527f5269736b2073636f726520746f6f206c6f7720666f722074686973207374726160448201527f74656779000000000000000000000000000000000000000000000000000000006064820152608401610636565b6001600160a01b0382166000818152600c60209081526040808320859055600d825291829020805460ff1916600117905590518381527fdfcf6c980ae9c32c3e4bc33303e744e8d29854944f383bf3cdf2ac93ed443373910160405180910390a25050565b6000600754600003610a2857506000919050565b6000306001600160a01b03166312065fe06040518163ffffffff1660e01b8152600401602060405180830381865afa158015610a68573d6000803e3d6000fd5b505050506040513d601f19601f82011682018060405250810190610a8c91906115d5565b6007546001600160a01b03851660009081526005602052604090205491925090610ab79083906115ee565b610ac1919061161b565b9392505050565b600080610ad3610b5b565b905064496cebb80083610ae683876115ee565b610af091906115ee565b610afa919061161b565b9150505b92915050565b6001600160a01b0381166000908152600d602052604081205460ff168015610afe5750506001600160a01b03166000908152600c60205260409020546007111590565b610b4f610ecc565b610b59600061128f565b565b6000806109c49050600061271060085483610b7691906115ee565b610b80919061161b565b90506000610b8c6112f7565b9050610b9881836115c2565b935050505090565b6000336001600160a01b037f00000000000000000000000000000000000000000000000000000000000000001614610c1a5760405162461bcd60e51b815260206004820152601c60248201527f4f6e6c79205969656c644f7074696d697a65722063616e2063616c6c000000006044820152606401610636565b610c22610f12565b610c2b32610b04565b610c9d5760405162461bcd60e51b815260206004820152602960248201527f55736572206e6f74207175616c696669656420666f7220686967682d7269736b60448201527f20737472617465677900000000000000000000000000000000000000000000006064820152608401610636565b60008211610ced5760405162461bcd60e51b815260206004820152601d60248201527f416d6f756e74206d7573742062652067726561746572207468616e20300000006044820152606401610636565b6040516323b872dd60e01b81526001600160a01b037f000000000000000000000000000000000000000000000000000000000000000081166004830152306024830152604482018490527f000000000000000000000000000000000000000000000000000000000000000016906323b872dd906064016020604051808303816000875af1158015610d82573d6000803e3d6000fd5b505050506040513d601f19601f82011682018060405250810190610da6919061158a565b506000610db283611381565b32600090815260056020526040812080549293508392909190610dd69084906115c2565b909155505032600090815260066020526040812042905560078054839290610dff9084906115c2565b925050819055508260026000828254610e1891906115c2565b90915550610e2790508361140a565b610e2f61104b565b604080518481526020810183905232917f73a19dd210f1a7f902193214c0ee91dd35ee5b4d920cba8d519eca65a7b488ca910160405180910390a290506108fb60018055565b610e7d610ecc565b6001600160a01b038116610ec0576040517f1e4fbdf700000000000000000000000000000000000000000000000000000000815260006004820152602401610636565b610ec98161128f565b50565b6000546001600160a01b03163314610b59576040517f118cdaa7000000000000000000000000000000000000000000000000000000008152336004820152602401610636565b600260015403610f4e576040517f3ee5aeb500000000000000000000000000000000000000000000000000000000815260040160405180910390fd5b6002600155565b6000610f5f61140e565b32600090815260066020526040812054610f79904261162f565b6040517f48a88706000000000000000000000000000000000000000000000000000000008152600481018590526024810182905290915060009030906348a8870690604401602060405180830381865afa158015610fdb573d6000803e3d6000fd5b505050506040513d601f19601f82011682018060405250810190610fff91906115d5565b9050600061100d8286611480565b9050600061271061101e83886115ee565b611028919061161b565b90508086116110375785611041565b611041818761162f565b9695505050505050565b6000612710424460025433604051602001611092949392919093845260208401929092526040830152606090811b6bffffffffffffffffffffffff19169082015260740190565b6040516020818303038152906040528051906020012060001c6110b59190611642565b90506103e8811080156110ca57506000600254115b156111ce5760006127106101f46002546110e491906115ee565b6110ee919061161b565b9050806009541061111657806009600082825461110b919061162f565b9091555061116f9050565b600060095482611126919061162f565b9050600060098190555080600b600082825461114291906115c2565b90915550506008546103e81061115a5761138861116a565b6103e860085461116a919061162f565b600855505b7f5a5ab2839b49637281301b13d6d1c9b46ae499b1c3c43c18af98c6c040b0cdf46001826000600754116111a45760006111a7565b60015b604080519315158452602084019290925260ff169082015260600160405180910390a15050565b612134811115610ec957600061271060025461012c6111ed91906115ee565b6111f7919061161b565b905080600a600082825461120b91906115c2565b9091555061121c905060028261161b565b6009600082825461122d91906115c2565b9091555050600854613a981161124557613a98611254565b600854611254906101f46115c2565b6008819055507f5a5ab2839b49637281301b13d6d1c9b46ae499b1c3c43c18af98c6c040b0cdf46000826000600754116111a45760006111a7565b600080546001600160a01b038381167fffffffffffffffffffffffff0000000000000000000000000000000000000000831681178455604051919092169283917f8be0079c531659141344cd1fd0a4f28419497f9722a3daafe3b4186f6b6457e09190a35050565b60006002546000036113095750600090565b6000600254600b5461271061131e91906115ee565b611328919061161b565b90506000600254600a5461271061133f91906115ee565b611349919061161b565b90506113568260026115ee565b8111156113675761012c9250505090565b808211156113785760009250505090565b60969250505090565b6000600754600003611391575090565b306001600160a01b03166312065fe06040518163ffffffff1660e01b8152600401602060405180830381865afa1580156113cf573d6000803e3d6000fd5b505050506040513d601f19601f820116820180604052508101906113f391906115d5565b60075461140090846115ee565b610afe919061161b565b610ec95b60006004544261141e919061162f565b9050620151808110610ec957612710600854111561145457606460086000828254611449919061162f565b909155506114799050565b61271060085410156114795760646008600082825461147391906115c2565b90915550505b4260045550565b60008260000361149257506000610afe565b6000826114a1856127106115ee565b6114ab919061161b565b90506107d08111156114c15760c8915050610afe565b6103e88111156114d5576096915050610afe565b6101f48111156114e9576064915050610afe565b5060329392505050565b60006020828403121561150557600080fd5b5035919050565b80356001600160a01b03811681146108fb57600080fd5b6000806040838503121561153657600080fd5b61153f8361150c565b946020939093013593505050565b60006020828403121561155f57600080fd5b610ac18261150c565b6000806040838503121561157b57600080fd5b50508035926020909101359150565b60006020828403121561159c57600080fd5b81518015158114610ac157600080fd5b634e487b7160e01b600052601160045260246000fd5b80820180821115610afe57610afe6115ac565b6000602082840312156115e757600080fd5b5051919050565b8082028115828204841417610afe57610afe6115ac565b634e487b7160e01b600052601260045260246000fd5b60008261162a5761162a611605565b500490565b81810381811115610afe57610afe6115ac565b60008261165157611651611605565b50069056fea164736f6c6343000814000a",
  "linkReferences": {},
  "deployedLinkReferences": {}
}